{
  "contractName": "ABATLTranslation",
  "abi": [
    {
      "inputs": [
        {
          "internalType": "address",
          "name": "_nidRegistryAddress",
          "type": "address"
        },
        {
          "internalType": "address",
          "name": "_niasRegistryAddress",
          "type": "address"
        }
      ],
      "stateMutability": "nonpayable",
      "type": "constructor"
    },
    {
      "anonymous": false,
      "inputs": [
        {
          "indexed": true,
          "internalType": "string",
          "name": "abatlId",
          "type": "string"
        },
        {
          "indexed": false,
          "internalType": "string",
          "name": "nidId",
          "type": "string"
        },
        {
          "indexed": false,
          "internalType": "string",
          "name": "niasId",
          "type": "string"
        },
        {
          "indexed": false,
          "internalType": "uint8",
          "name": "abatlType",
          "type": "uint8"
        }
      ],
      "name": "ABATLRegistered",
      "type": "event"
    },
    {
      "anonymous": false,
      "inputs": [
        {
          "indexed": true,
          "internalType": "string",
          "name": "abatlId",
          "type": "string"
        },
        {
          "indexed": false,
          "internalType": "uint8",
          "name": "qosLevel",
          "type": "uint8"
        },
        {
          "indexed": false,
          "internalType": "uint16",
          "name": "latency",
          "type": "uint16"
        },
        {
          "indexed": false,
          "internalType": "uint16",
          "name": "bandwidth",
          "type": "uint16"
        },
        {
          "indexed": false,
          "internalType": "uint8",
          "name": "securityLevel",
          "type": "uint8"
        }
      ],
      "name": "ABATLSecondaryAttributesUpdated",
      "type": "event"
    },
    {
      "anonymous": false,
      "inputs": [
        {
          "indexed": true,
          "internalType": "string",
          "name": "abatlId",
          "type": "string"
        },
        {
          "indexed": false,
          "internalType": "bool",
          "name": "isActive",
          "type": "bool"
        }
      ],
      "name": "ABATLStatusChanged",
      "type": "event"
    },
    {
      "inputs": [
        {
          "internalType": "string",
          "name": "",
          "type": "string"
        }
      ],
      "name": "abatlRecords",
      "outputs": [
        {
          "internalType": "string",
          "name": "abatlId",
          "type": "string"
        },
        {
          "internalType": "string",
          "name": "nidId",
          "type": "string"
        },
        {
          "internalType": "string",
          "name": "niasId",
          "type": "string"
        },
        {
          "internalType": "uint8",
          "name": "clusterID",
          "type": "uint8"
        },
        {
          "internalType": "uint8",
          "name": "abatlType",
          "type": "uint8"
        },
        {
          "internalType": "uint256",
          "name": "timestamp",
          "type": "uint256"
        },
        {
          "internalType": "uint8",
          "name": "senderType",
          "type": "uint8"
        },
        {
          "internalType": "bool",
          "name": "isActive",
          "type": "bool"
        }
      ],
      "stateMutability": "view",
      "type": "function"
    },
    {
      "inputs": [
        {
          "internalType": "string",
          "name": "",
          "type": "string"
        }
      ],
      "name": "abatlSecondaryAttributes",
      "outputs": [
        {
          "internalType": "string",
          "name": "abatlId",
          "type": "string"
        },
        {
          "internalType": "uint8",
          "name": "qosLevel",
          "type": "uint8"
        },
        {
          "internalType": "uint16",
          "name": "latency",
          "type": "uint16"
        },
        {
          "internalType": "uint16",
          "name": "bandwidth",
          "type": "uint16"
        },
        {
          "internalType": "uint8",
          "name": "securityLevel",
          "type": "uint8"
        },
        {
          "internalType": "uint256",
          "name": "lastUpdated",
          "type": "uint256"
        }
      ],
      "stateMutability": "view",
      "type": "function"
    },
    {
      "inputs": [
        {
          "internalType": "uint256",
          "name": "",
          "type": "uint256"
        }
      ],
      "name": "allAbatlIds",
      "outputs": [
        {
          "internalType": "string",
          "name": "",
          "type": "string"
        }
      ],
      "stateMutability": "view",
      "type": "function"
    },
    {
      "inputs": [],
      "name": "niasRegistry",
      "outputs": [
        {
          "internalType": "contract NIASRegistry",
          "name": "",
          "type": "address"
        }
      ],
      "stateMutability": "view",
      "type": "function"
    },
    {
      "inputs": [
        {
          "internalType": "string",
          "name": "",
          "type": "string"
        },
        {
          "internalType": "uint256",
          "name": "",
          "type": "uint256"
        }
      ],
      "name": "niasToAbatl",
      "outputs": [
        {
          "internalType": "string",
          "name": "",
          "type": "string"
        }
      ],
      "stateMutability": "view",
      "type": "function"
    },
    {
      "inputs": [],
      "name": "nidRegistry",
      "outputs": [
        {
          "internalType": "contract NIDRegistry",
          "name": "",
          "type": "address"
        }
      ],
      "stateMutability": "view",
      "type": "function"
    },
    {
      "inputs": [
        {
          "internalType": "string",
          "name": "",
          "type": "string"
        },
        {
          "internalType": "uint256",
          "name": "",
          "type": "uint256"
        }
      ],
      "name": "nidToAbatl",
      "outputs": [
        {
          "internalType": "string",
          "name": "",
          "type": "string"
        }
      ],
      "stateMutability": "view",
      "type": "function"
    },
    {
      "inputs": [
        {
          "internalType": "string",
          "name": "_abatlId",
          "type": "string"
        },
        {
          "internalType": "string",
          "name": "_nidId",
          "type": "string"
        },
        {
          "internalType": "string",
          "name": "_niasId",
          "type": "string"
        },
        {
          "internalType": "uint8",
          "name": "_clusterID",
          "type": "uint8"
        },
        {
          "internalType": "uint8",
          "name": "_abatlType",
          "type": "uint8"
        },
        {
          "internalType": "uint8",
          "name": "_senderType",
          "type": "uint8"
        }
      ],
      "name": "registerABATL",
      "outputs": [],
      "stateMutability": "nonpayable",
      "type": "function"
    },
    {
      "inputs": [
        {
          "internalType": "string",
          "name": "_abatlId",
          "type": "string"
        },
        {
          "internalType": "uint8",
          "name": "_qosLevel",
          "type": "uint8"
        },
        {
          "internalType": "uint16",
          "name": "_latency",
          "type": "uint16"
        },
        {
          "internalType": "uint16",
          "name": "_bandwidth",
          "type": "uint16"
        },
        {
          "internalType": "uint8",
          "name": "_securityLevel",
          "type": "uint8"
        }
      ],
      "name": "updateABATLSecondaryAttributes",
      "outputs": [],
      "stateMutability": "nonpayable",
      "type": "function"
    },
    {
      "inputs": [
        {
          "internalType": "string",
          "name": "_abatlId",
          "type": "string"
        },
        {
          "internalType": "bool",
          "name": "_isActive",
          "type": "bool"
        }
      ],
      "name": "setABATLStatus",
      "outputs": [],
      "stateMutability": "nonpayable",
      "type": "function"
    },
    {
      "inputs": [
        {
          "internalType": "string",
          "name": "_abatlId",
          "type": "string"
        }
      ],
      "name": "getABATLPrimaryDetails",
      "outputs": [
        {
          "internalType": "string",
          "name": "",
          "type": "string"
        },
        {
          "internalType": "string",
          "name": "",
          "type": "string"
        },
        {
          "internalType": "string",
          "name": "",
          "type": "string"
        },
        {
          "internalType": "uint8",
          "name": "",
          "type": "uint8"
        },
        {
          "internalType": "uint8",
          "name": "",
          "type": "uint8"
        },
        {
          "internalType": "uint256",
          "name": "",
          "type": "uint256"
        },
        {
          "internalType": "uint8",
          "name": "",
          "type": "uint8"
        },
        {
          "internalType": "bool",
          "name": "",
          "type": "bool"
        }
      ],
      "stateMutability": "view",
      "type": "function"
    },
    {
      "inputs": [
        {
          "internalType": "string",
          "name": "_abatlId",
          "type": "string"
        }
      ],
      "name": "getABATLSecondaryAttributes",
      "outputs": [
        {
          "internalType": "string",
          "name": "",
          "type": "string"
        },
        {
          "internalType": "uint8",
          "name": "",
          "type": "uint8"
        },
        {
          "internalType": "uint16",
          "name": "",
          "type": "uint16"
        },
        {
          "internalType": "uint16",
          "name": "",
          "type": "uint16"
        },
        {
          "internalType": "uint8",
          "name": "",
          "type": "uint8"
        },
        {
          "internalType": "uint256",
          "name": "",
          "type": "uint256"
        }
      ],
      "stateMutability": "view",
      "type": "function"
    },
    {
      "inputs": [
        {
          "internalType": "string",
          "name": "_nidId",
          "type": "string"
        }
      ],
      "name": "getABATLsByNID",
      "outputs": [
        {
          "internalType": "string[]",
          "name": "",
          "type": "string[]"
        }
      ],
      "stateMutability": "view",
      "type": "function"
    },
    {
      "inputs": [
        {
          "internalType": "string",
          "name": "_niasId",
          "type": "string"
        }
      ],
      "name": "getABATLsByNIAS",
      "outputs": [
        {
          "internalType": "string[]",
          "name": "",
          "type": "string[]"
        }
      ],
      "stateMutability": "view",
      "type": "function"
    },
    {
      "inputs": [],
      "name": "getABATLCount",
      "outputs": [
        {
          "internalType": "uint256",
          "name": "",
          "type": "uint256"
        }
      ],
      "stateMutability": "view",
      "type": "function"
    }
  ],
  "bytecode": "0x608060405234801562000010575f80fd5b506040516200185538038062001855833981016040819052620000339162000081565b600580546001600160a01b039384166001600160a01b03199182161790915560068054929093169116179055620000b7565b80516001600160a01b03811681146200007c575f80fd5b919050565b5f806040838503121562000093575f80fd5b6200009e8362000065565b9150620000ae6020840162000065565b90509250929050565b61179080620000c55f395ff3fe608060405234801561000f575f80fd5b50600436106100f0575f3560e01c806344c05c3c116100935780637d752c03116100635780637d752c0314610226578063cb69f09014610239578063efa879981461024c578063fe18391d1461025f575f80fd5b806344c05c3c146101bb5780634c3cbc0e146101db5780637176f749146101ee5780637cb08e8214610201575f80fd5b80631e82a139116100ce5780631e82a1391461015d5780632bfddf8f1461016e578063378ff64b1461018157806341b1d1c714610194575f80fd5b8063037ba6d4146100f45780630ecb02181461011d5780631346588814610148575b5f80fd5b6101076101023660046111e1565b610272565b6040516101149190611268565b60405180910390f35b600554610130906001600160a01b031681565b6040516001600160a01b039091168152602001610114565b61015b6101563660046112ee565b610364565b005b600454604051908152602001610114565b61015b61017c366004611369565b61056c565b61015b61018f36600461141b565b61076d565b6101a76101a23660046111e1565b61083a565b60405161011498979695949392919061146e565b6101ce6101c93660046114df565b610a20565b6040516101149190611521565b6101076101e93660046111e1565b610ae2565b6101a76101fc3660046111e1565b610bc9565b61021461020f3660046111e1565b610e8a565b6040516101149695949392919061153a565b600654610130906001600160a01b031681565b6101ce6102473660046114df565b610f62565b61021461025a3660046111e1565b610f8c565b6101ce61026d366004611580565b61111d565b60606002826040516102849190611597565b9081526020016040518091039020805480602002602001604051908101604052809291908181526020015f905b82821015610359578382905f5260205f200180546102ce906115b2565b80601f01602080910402602001604051908101604052809291908181526020018280546102fa906115b2565b80156103455780601f1061031c57610100808354040283529160200191610345565b820191905f5260205f20905b81548152906001019060200180831161032857829003601f168201915b5050505050815260200190600101906102b1565b505050509050919050565b5f80866040516103749190611597565b908152604051908190036020019020805461038e906115b2565b9050116103b65760405162461bcd60e51b81526004016103ad906115ea565b60405180910390fd5b5f856040516103c59190611597565b9081526040519081900360200190206005015460ff610100909104166104235760405162461bcd60e51b8152602060048201526013602482015272414241544c206973206e6f742061637469766560681b60448201526064016103ad565b6040518060c001604052808681526020018560ff1681526020018461ffff1681526020018361ffff1681526020018260ff1681526020014281525060018660405161046e9190611597565b9081526040519081900360200190208151819061048b9082611666565b5060208201516001820180546040808601516060870151608088015160ff96871662ffffff199095169490941761010061ffff938416021765ffffff00000019166301000000929091169190910265ff000000000019161765010000000000949092169390930217905560a0909201516002909101555161050d908690611597565b6040805191829003822060ff878116845261ffff878116602086015286168484015284166060840152905190917f68d4609c4e3f404dd7d067be6e1154db476b5c3b728731d4e81953f900170198919081900360800190a25050505050565b6040518061010001604052808781526020018681526020018581526020018460ff1681526020018360ff1681526020014281526020018260ff168152602001600115158152505f876040516105c19190611597565b908152604051908190036020019020815181906105de9082611666565b50602082015160018201906105f39082611666565b50604082015160028201906106089082611666565b506060820151600382018054608085015160ff93841661ffff199283161761010091851682021790925560a0850151600485015560c08501516005909401805460e09096015194909316941693909317911515909202179055604051600290610672908790611597565b9081526040516020918190038201902080546001810182555f9182529190200161069c8782611666565b506003846040516106ad9190611597565b9081526040516020918190038201902080546001810182555f918252919020016106d78782611666565b50600480546001810182555f919091527f8a35acfbc15ff81a39ae7d344fd709f28e8600b4aa8c65c6b64bfe7fe36bd19b016107138782611666565b50856040516107229190611597565b60405180910390207f4018ec664372975213df1f67351825e1fd2b5c33b8f8a02398fe97010b0cae4886868560405161075d93929190611722565b60405180910390a2505050505050565b5f808360405161077d9190611597565b9081526040519081900360200190208054610797906115b2565b9050116107b65760405162461bcd60e51b81526004016103ad906115ea565b805f836040516107c69190611597565b90815260405190819003602001812060050180549215156101000261ff0019909316929092179091556107fa908390611597565b6040519081900381208215158252907f444ec08d5eda8d96751c22bd44983d720083102f00118a0659aa5bbac79b2f639060200160405180910390a25050565b80516020818301810180515f8252928201919093012091528054819061085f906115b2565b80601f016020809104026020016040519081016040528092919081815260200182805461088b906115b2565b80156108d65780601f106108ad576101008083540402835291602001916108d6565b820191905f5260205f20905b8154815290600101906020018083116108b957829003601f168201915b5050505050908060010180546108eb906115b2565b80601f0160208091040260200160405190810160405280929190818152602001828054610917906115b2565b80156109625780601f1061093957610100808354040283529160200191610962565b820191905f5260205f20905b81548152906001019060200180831161094557829003601f168201915b505050505090806002018054610977906115b2565b80601f01602080910402602001604051908101604052809291908181526020018280546109a3906115b2565b80156109ee5780601f106109c5576101008083540402835291602001916109ee565b820191905f5260205f20905b8154815290600101906020018083116109d157829003601f168201915b5050505060038301546004840154600590940154929360ff808316946101009384900482169450919281831692041688565b81516020818401810180516002825292820191850191909120919052805482908110610a4a575f80fd5b905f5260205f20015f91509150508054610a63906115b2565b80601f0160208091040260200160405190810160405280929190818152602001828054610a8f906115b2565b8015610ada5780601f10610ab157610100808354040283529160200191610ada565b820191905f5260205f20905b815481529060010190602001808311610abd57829003601f168201915b505050505081565b6060600382604051610af49190611597565b9081526020016040518091039020805480602002602001604051908101604052809291908181526020015f905b82821015610359578382905f5260205f20018054610b3e906115b2565b80601f0160208091040260200160405190810160405280929190818152602001828054610b6a906115b2565b8015610bb55780601f10610b8c57610100808354040283529160200191610bb5565b820191905f5260205f20905b815481529060010190602001808311610b9857829003601f168201915b505050505081526020019060010190610b21565b60608060605f805f805f805f8a604051610be39190611597565b9081526040519081900360200190208054610bfd906115b2565b905011610c1c5760405162461bcd60e51b81526004016103ad906115ea565b5f808a604051610c2c9190611597565b9081526020016040518091039020604051806101000160405290815f82018054610c55906115b2565b80601f0160208091040260200160405190810160405280929190818152602001828054610c81906115b2565b8015610ccc5780601f10610ca357610100808354040283529160200191610ccc565b820191905f5260205f20905b815481529060010190602001808311610caf57829003601f168201915b50505050508152602001600182018054610ce5906115b2565b80601f0160208091040260200160405190810160405280929190818152602001828054610d11906115b2565b8015610d5c5780601f10610d3357610100808354040283529160200191610d5c565b820191905f5260205f20905b815481529060010190602001808311610d3f57829003601f168201915b50505050508152602001600282018054610d75906115b2565b80601f0160208091040260200160405190810160405280929190818152602001828054610da1906115b2565b8015610dec5780601f10610dc357610100808354040283529160200191610dec565b820191905f5260205f20905b815481529060010190602001808311610dcf57829003601f168201915b5050509183525050600382015460ff8082166020808501919091526101009283900482166040808601919091526004860154606080870191909152600590960154808416608080880191909152949004909216151560a0948501528551908601519186015194860151928601519386015160c087015160e090970151919f50919d50939b509099509097509550909350915050919395975091939597565b8051602081830181018051600182529282019190930120915280548190610eb0906115b2565b80601f0160208091040260200160405190810160405280929190818152602001828054610edc906115b2565b8015610f275780601f10610efe57610100808354040283529160200191610f27565b820191905f5260205f20905b815481529060010190602001808311610f0a57829003601f168201915b5050506001840154600290940154929360ff8082169461ffff6101008404811695506301000000840416935065010000000000909204169086565b81516020818401810180516003825292820191850191909120919052805482908110610a4a575f80fd5b60605f805f805f805f88604051610fa39190611597565b9081526040519081900360200190208054610fbd906115b2565b905011610fdc5760405162461bcd60e51b81526004016103ad906115ea565b5f600188604051610fed9190611597565b90815260200160405180910390206040518060c00160405290815f82018054611015906115b2565b80601f0160208091040260200160405190810160405280929190818152602001828054611041906115b2565b801561108c5780601f106110635761010080835404028352916020019161108c565b820191905f5260205f20905b81548152906001019060200180831161106f57829003601f168201915b5050509183525050600182015460ff80821660208085019190915261ffff61010084048116604080870191909152630100000085049091166060808701919091526501000000000090940490921660808086019190915260029095015460a0948501528551908601519186015192860151948601519590930151929d909c50909a5091985091965090945092505050565b6004818154811061112c575f80fd5b905f5260205f20015f915090508054610a63906115b2565b634e487b7160e01b5f52604160045260245ffd5b5f82601f830112611167575f80fd5b813567ffffffffffffffff8082111561118257611182611144565b604051601f8301601f19908116603f011681019082821181831017156111aa576111aa611144565b816040528381528660208588010111156111c2575f80fd5b836020870160208301375f602085830101528094505050505092915050565b5f602082840312156111f1575f80fd5b813567ffffffffffffffff811115611207575f80fd5b61121384828501611158565b949350505050565b5f5b8381101561123557818101518382015260200161121d565b50505f910152565b5f815180845261125481602086016020860161121b565b601f01601f19169290920160200192915050565b5f602080830181845280855180835260408601915060408160051b87010192508387015f5b828110156112bb57603f198886030184526112a985835161123d565b9450928501929085019060010161128d565b5092979650505050505050565b803560ff811681146112d8575f80fd5b919050565b803561ffff811681146112d8575f80fd5b5f805f805f60a08688031215611302575f80fd5b853567ffffffffffffffff811115611318575f80fd5b61132488828901611158565b955050611333602087016112c8565b9350611341604087016112dd565b925061134f606087016112dd565b915061135d608087016112c8565b90509295509295909350565b5f805f805f8060c0878903121561137e575f80fd5b863567ffffffffffffffff80821115611395575f80fd5b6113a18a838b01611158565b975060208901359150808211156113b6575f80fd5b6113c28a838b01611158565b965060408901359150808211156113d7575f80fd5b506113e489828a01611158565b9450506113f3606088016112c8565b9250611401608088016112c8565b915061140f60a088016112c8565b90509295509295509295565b5f806040838503121561142c575f80fd5b823567ffffffffffffffff811115611442575f80fd5b61144e85828601611158565b92505060208301358015158114611463575f80fd5b809150509250929050565b5f6101008083526114818184018c61123d565b90508281036020840152611495818b61123d565b905082810360408401526114a9818a61123d565b60ff98891660608501529688166080840152505060a0810193909352931660c082015291151560e0909201919091529392505050565b5f80604083850312156114f0575f80fd5b823567ffffffffffffffff811115611506575f80fd5b61151285828601611158565b95602094909401359450505050565b602081525f611533602083018461123d565b9392505050565b60c081525f61154c60c083018961123d565b60ff978816602084015261ffff968716604084015294909516606082015291909416608082015260a0019290925250919050565b5f60208284031215611590575f80fd5b5035919050565b5f82516115a881846020870161121b565b9190910192915050565b600181811c908216806115c657607f821691505b6020821081036115e457634e487b7160e01b5f52602260045260245ffd5b50919050565b602080825260149082015273105090551308191bd95cc81b9bdd08195e1a5cdd60621b604082015260600190565b601f821115611661575f81815260208120601f850160051c8101602086101561163e5750805b601f850160051c820191505b8181101561165d5782815560010161164a565b5050505b505050565b815167ffffffffffffffff81111561168057611680611144565b6116948161168e84546115b2565b84611618565b602080601f8311600181146116c7575f84156116b05750858301515b5f19600386901b1c1916600185901b17855561165d565b5f85815260208120601f198616915b828110156116f5578886015182559484019460019091019084016116d6565b508582101561171257878501515f19600388901b60f8161c191681555b5050505050600190811b01905550565b606081525f611734606083018661123d565b8281036020840152611746818661123d565b91505060ff8316604083015294935050505056fea2646970667358221220df5aeaa94dda1a6fd2b86b521dbfc6cbba1230ba163fd527e52d75bc42e2116a64736f6c63430008140033",
  "immutableReferences": {},
  "source": "// SPDX-License-Identifier: MIT\npragma solidity ^0.8.17;\n\nimport \"./NIDRegistry.sol\";\nimport \"./NIASRegistry.sol\";\n\n/**\n * @title ABATLTranslation\n * @dev Contract for facilitating translation between NAP layer and B-BGP layer\n */\ncontract ABATLTranslation {\n    // ABATL Record structure\n    struct ABATLRecord {\n        string abatlId;             // ABATL ID\n        string nidId;               // NID ID\n        string niasId;              // NIAS ID\n        uint8 clusterID;             // Cluster ID\n        uint8 abatlType;             // Type of ABATL (0-255)\n        uint256 timestamp;           // Registration timestamp\n        uint8 senderType;            // 0 = NID_SENDER, 1 = NIAS_SENDER\n        bool isActive;               // Whether the ABATL is active\n    }\n    \n    // Secondary attributes for ABATL (dynamic attributes)\n    struct ABATLSecondaryAttributes {\n        string abatlId;             // ABATL ID\n        uint8 qosLevel;              // QoS level (0-100)\n        uint16 latency;              // Latency in ms\n        uint16 bandwidth;            // Bandwidth in Mbps\n        uint8 securityLevel;         // Security level (0-255)\n        uint256 lastUpdated;         // Last time attributes were updated\n    }\n    \n    // Mapping from ABATL ID to ABATLRecord\n    mapping(string => ABATLRecord) public abatlRecords;\n    \n    // Mapping from ABATL ID to ABATLSecondaryAttributes\n    mapping(string => ABATLSecondaryAttributes) public abatlSecondaryAttributes;\n    \n    // Mapping from NID to ABATL IDs\n    mapping(string => string[]) public nidToAbatl;\n    \n    // Mapping from NIAS to ABATL IDs\n    mapping(string => string[]) public niasToAbatl;\n    \n    // Array to store all ABATL IDs\n    string[] public allAbatlIds;\n    \n    // NID and NIAS registry contracts\n    NIDRegistry public nidRegistry;\n    NIASRegistry public niasRegistry;\n    \n    // Events\n    event ABATLRegistered(string indexed abatlId, string nidId, string niasId, uint8 abatlType);\n    event ABATLSecondaryAttributesUpdated(string indexed abatlId, uint8 qosLevel, uint16 latency, uint16 bandwidth, uint8 securityLevel);\n    event ABATLStatusChanged(string indexed abatlId, bool isActive);\n    \n    /**\n     * @dev Constructor\n     * @param _nidRegistryAddress Address of NIDRegistry contract\n     * @param _niasRegistryAddress Address of NIASRegistry contract\n     */\n    constructor(address _nidRegistryAddress, address _niasRegistryAddress) {\n        nidRegistry = NIDRegistry(_nidRegistryAddress);\n        niasRegistry = NIASRegistry(_niasRegistryAddress);\n    }\n    \n    /**\n     * @dev Register a new ABATL record\n     * @param _abatlId ABATL ID\n     * @param _nidId NID ID\n     * @param _niasId NIAS ID\n     * @param _clusterID Cluster ID\n     * @param _abatlType Type of ABATL\n     * @param _senderType Sender type (0 = NID_SENDER, 1 = NIAS_SENDER)\n     */\n    function registerABATL(\n        string memory _abatlId,\n        string memory _nidId,\n        string memory _niasId,\n        uint8 _clusterID,\n        uint8 _abatlType,\n        uint8 _senderType\n    ) public {\n        /*\n        // Verify that NID and NIAS exist and are active\n        require(nidRegistry.nodeExists(_nidId), \"NID does not exist\");\n        require(nidRegistry.isNodeActive(_nidId), \"NID is not active\");\n        require(niasRegistry.niasExists(_niasId), \"NIAS does not exist\");\n        require(niasRegistry.isNIASActive(_niasId), \"NIAS is not active\");\n        require(_senderType <= 1, \"Invalid sender type\");\n       \n        // Verify ABATL doesn't already exist\n        require(bytes(abatlRecords[_abatlId].abatlId).length == 0, \"ABATL already registered\");\n         */\n        // Create the ABATL record\n        abatlRecords[_abatlId] = ABATLRecord({\n            abatlId: _abatlId,\n            nidId: _nidId,\n            niasId: _niasId,\n            clusterID: _clusterID,\n            abatlType: _abatlType,\n            timestamp: block.timestamp,\n            senderType: _senderType,\n            isActive: true\n        });\n        \n        // Add to mappings\n        nidToAbatl[_nidId].push(_abatlId);\n        niasToAbatl[_niasId].push(_abatlId);\n        allAbatlIds.push(_abatlId);\n        \n        emit ABATLRegistered(_abatlId, _nidId, _niasId, _abatlType);\n    }\n    \n    /**\n     * @dev Update ABATL secondary attributes\n     * @param _abatlId ABATL ID\n     * @param _qosLevel QoS level\n     * @param _latency Latency in ms\n     * @param _bandwidth Bandwidth in Mbps\n     * @param _securityLevel Security level\n     */\n    function updateABATLSecondaryAttributes(\n        string memory _abatlId,\n        uint8 _qosLevel,\n        uint16 _latency,\n        uint16 _bandwidth,\n        uint8 _securityLevel\n    ) public {\n        require(bytes(abatlRecords[_abatlId].abatlId).length > 0, \"ABATL does not exist\");\n        require(abatlRecords[_abatlId].isActive, \"ABATL is not active\");\n        \n        abatlSecondaryAttributes[_abatlId] = ABATLSecondaryAttributes({\n            abatlId: _abatlId,\n            qosLevel: _qosLevel,\n            latency: _latency,\n            bandwidth: _bandwidth,\n            securityLevel: _securityLevel,\n            lastUpdated: block.timestamp\n        });\n        \n        emit ABATLSecondaryAttributesUpdated(_abatlId, _qosLevel, _latency, _bandwidth, _securityLevel);\n    }\n    \n    /**\n     * @dev Set ABATL active status\n     * @param _abatlId ABATL ID\n     * @param _isActive New active status\n     */\n    function setABATLStatus(string memory _abatlId, bool _isActive) public {\n        require(bytes(abatlRecords[_abatlId].abatlId).length > 0, \"ABATL does not exist\");\n        \n        abatlRecords[_abatlId].isActive = _isActive;\n        \n        emit ABATLStatusChanged(_abatlId, _isActive);\n    }\n    \n    /**\n     * @dev Get ABATL primary details\n     * @param _abatlId ABATL ID\n     * @return ABATL primary details (abatlId, nidId, niasId, clusterID, abatlType, timestamp, senderType, isActive)\n     */\n    function getABATLPrimaryDetails(string memory _abatlId) public view returns (\n        string memory, string memory, string memory, uint8, uint8, uint256, uint8, bool\n    ) {\n        require(bytes(abatlRecords[_abatlId].abatlId).length > 0, \"ABATL does not exist\");\n        \n        ABATLRecord memory record = abatlRecords[_abatlId];\n        \n        return (\n            record.abatlId,\n            record.nidId,\n            record.niasId,\n            record.clusterID,\n            record.abatlType,\n            record.timestamp,\n            record.senderType,\n            record.isActive\n        );\n    }\n    \n    /**\n     * @dev Get ABATL secondary attributes\n     * @param _abatlId ABATL ID\n     * @return ABATL secondary attributes (abatlId, qosLevel, latency, bandwidth, securityLevel, lastUpdated)\n     */\n    function getABATLSecondaryAttributes(string memory _abatlId) public view returns (\n        string memory, uint8, uint16, uint16, uint8, uint256\n    ) {\n        require(bytes(abatlRecords[_abatlId].abatlId).length > 0, \"ABATL does not exist\");\n        \n        ABATLSecondaryAttributes memory attrs = abatlSecondaryAttributes[_abatlId];\n        \n        return (\n            attrs.abatlId,\n            attrs.qosLevel,\n            attrs.latency,\n            attrs.bandwidth,\n            attrs.securityLevel,\n            attrs.lastUpdated\n        );\n    }\n    \n    /**\n     * @dev Get all ABATL IDs for a NID\n     * @param _nidId NID ID\n     * @return Array of ABATL IDs\n     */\n    function getABATLsByNID(string memory _nidId) public view returns (string[] memory) {\n        return nidToAbatl[_nidId];\n    }\n    \n    /**\n     * @dev Get all ABATL IDs for a NIAS\n     * @param _niasId NIAS ID\n     * @return Array of ABATL IDs\n     */\n    function getABATLsByNIAS(string memory _niasId) public view returns (string[] memory) {\n        return niasToAbatl[_niasId];\n    }\n    \n    /**\n     * @dev Get count of all ABATL records\n     * @return Number of ABATL records\n     */\n    function getABATLCount() public view returns (uint256) {\n        return allAbatlIds.length;\n    }\n}",
  "sourcePath": "C:\\Users\\Bonsu\\Documents\\Blockchain Multi Industrial Service Center\\Blockchain MultiIndustrial Projects\\BlockchainMultiIndustryRepo\\contracts\\N2N\\ABATLTranslation.sol",
  "compiler": {
    "name": "solc",
    "version": "0.8.20+commit.a1b79de6.Emscripten.clang"
  },
  "schemaVersion": "3.4.16",
  "updatedAt": "2025-05-20T13:40:34.708Z",
  "devdoc": {
    "details": "Contract for facilitating translation between NAP layer and B-BGP layer",
    "kind": "dev",
    "methods": {
      "constructor": {
        "details": "Constructor",
        "params": {
          "_niasRegistryAddress": "Address of NIASRegistry contract",
          "_nidRegistryAddress": "Address of NIDRegistry contract"
        }
      },
      "getABATLCount()": {
        "details": "Get count of all ABATL records",
        "returns": {
          "_0": "Number of ABATL records"
        }
      },
      "getABATLPrimaryDetails(string)": {
        "details": "Get ABATL primary details",
        "params": {
          "_abatlId": "ABATL ID"
        },
        "returns": {
          "_0": "ABATL primary details (abatlId, nidId, niasId, clusterID, abatlType, timestamp, senderType, isActive)"
        }
      },
      "getABATLSecondaryAttributes(string)": {
        "details": "Get ABATL secondary attributes",
        "params": {
          "_abatlId": "ABATL ID"
        },
        "returns": {
          "_0": "ABATL secondary attributes (abatlId, qosLevel, latency, bandwidth, securityLevel, lastUpdated)"
        }
      },
      "getABATLsByNIAS(string)": {
        "details": "Get all ABATL IDs for a NIAS",
        "params": {
          "_niasId": "NIAS ID"
        },
        "returns": {
          "_0": "Array of ABATL IDs"
        }
      },
      "getABATLsByNID(string)": {
        "details": "Get all ABATL IDs for a NID",
        "params": {
          "_nidId": "NID ID"
        },
        "returns": {
          "_0": "Array of ABATL IDs"
        }
      },
      "registerABATL(string,string,string,uint8,uint8,uint8)": {
        "details": "Register a new ABATL record",
        "params": {
          "_abatlId": "ABATL ID",
          "_abatlType": "Type of ABATL",
          "_clusterID": "Cluster ID",
          "_niasId": "NIAS ID",
          "_nidId": "NID ID",
          "_senderType": "Sender type (0 = NID_SENDER, 1 = NIAS_SENDER)"
        }
      },
      "setABATLStatus(string,bool)": {
        "details": "Set ABATL active status",
        "params": {
          "_abatlId": "ABATL ID",
          "_isActive": "New active status"
        }
      },
      "updateABATLSecondaryAttributes(string,uint8,uint16,uint16,uint8)": {
        "details": "Update ABATL secondary attributes",
        "params": {
          "_abatlId": "ABATL ID",
          "_bandwidth": "Bandwidth in Mbps",
          "_latency": "Latency in ms",
          "_qosLevel": "QoS level",
          "_securityLevel": "Security level"
        }
      }
    },
    "title": "ABATLTranslation",
    "version": 1
  },
  "userdoc": {
    "kind": "user",
    "methods": {},
    "version": 1
  }
}