{
  "contractName": "BeeRoutingAlgorithm",
  "abi": [
    {
      "anonymous": false,
      "inputs": [
        {
          "indexed": true,
          "internalType": "bytes32",
          "name": "clusterId",
          "type": "bytes32"
        },
        {
          "indexed": false,
          "internalType": "address",
          "name": "leader",
          "type": "address"
        }
      ],
      "name": "ClusterFormed",
      "type": "event"
    },
    {
      "anonymous": false,
      "inputs": [
        {
          "indexed": true,
          "internalType": "address",
          "name": "node",
          "type": "address"
        },
        {
          "indexed": true,
          "internalType": "bytes32",
          "name": "clusterId",
          "type": "bytes32"
        }
      ],
      "name": "NodeAssigned",
      "type": "event"
    },
    {
      "anonymous": false,
      "inputs": [
        {
          "indexed": true,
          "internalType": "bytes32",
          "name": "role",
          "type": "bytes32"
        },
        {
          "indexed": true,
          "internalType": "bytes32",
          "name": "previousAdminRole",
          "type": "bytes32"
        },
        {
          "indexed": true,
          "internalType": "bytes32",
          "name": "newAdminRole",
          "type": "bytes32"
        }
      ],
      "name": "RoleAdminChanged",
      "type": "event"
    },
    {
      "anonymous": false,
      "inputs": [
        {
          "indexed": true,
          "internalType": "bytes32",
          "name": "role",
          "type": "bytes32"
        },
        {
          "indexed": true,
          "internalType": "address",
          "name": "account",
          "type": "address"
        },
        {
          "indexed": true,
          "internalType": "address",
          "name": "sender",
          "type": "address"
        }
      ],
      "name": "RoleGranted",
      "type": "event"
    },
    {
      "anonymous": false,
      "inputs": [
        {
          "indexed": true,
          "internalType": "bytes32",
          "name": "role",
          "type": "bytes32"
        },
        {
          "indexed": true,
          "internalType": "address",
          "name": "account",
          "type": "address"
        },
        {
          "indexed": true,
          "internalType": "address",
          "name": "sender",
          "type": "address"
        }
      ],
      "name": "RoleRevoked",
      "type": "event"
    },
    {
      "anonymous": false,
      "inputs": [
        {
          "indexed": true,
          "internalType": "bytes32",
          "name": "clusterId",
          "type": "bytes32"
        },
        {
          "indexed": false,
          "internalType": "bytes32",
          "name": "sessionKey",
          "type": "bytes32"
        }
      ],
      "name": "SessionKeyGenerated",
      "type": "event"
    },
    {
      "inputs": [],
      "name": "CLUSTER_ADMIN",
      "outputs": [
        {
          "internalType": "bytes32",
          "name": "",
          "type": "bytes32"
        }
      ],
      "stateMutability": "view",
      "type": "function"
    },
    {
      "inputs": [],
      "name": "DEFAULT_ADMIN_ROLE",
      "outputs": [
        {
          "internalType": "bytes32",
          "name": "",
          "type": "bytes32"
        }
      ],
      "stateMutability": "view",
      "type": "function"
    },
    {
      "inputs": [],
      "name": "MAX_CLUSTER_SIZE",
      "outputs": [
        {
          "internalType": "uint256",
          "name": "",
          "type": "uint256"
        }
      ],
      "stateMutability": "view",
      "type": "function"
    },
    {
      "inputs": [],
      "name": "MIN_CLUSTER_SIZE",
      "outputs": [
        {
          "internalType": "uint256",
          "name": "",
          "type": "uint256"
        }
      ],
      "stateMutability": "view",
      "type": "function"
    },
    {
      "inputs": [],
      "name": "VALIDATION_THRESHOLD",
      "outputs": [
        {
          "internalType": "uint256",
          "name": "",
          "type": "uint256"
        }
      ],
      "stateMutability": "view",
      "type": "function"
    },
    {
      "inputs": [
        {
          "internalType": "bytes32",
          "name": "",
          "type": "bytes32"
        },
        {
          "internalType": "address",
          "name": "",
          "type": "address"
        }
      ],
      "name": "clusterMembers",
      "outputs": [
        {
          "internalType": "bool",
          "name": "",
          "type": "bool"
        }
      ],
      "stateMutability": "view",
      "type": "function"
    },
    {
      "inputs": [
        {
          "internalType": "bytes32",
          "name": "",
          "type": "bytes32"
        }
      ],
      "name": "clusters",
      "outputs": [
        {
          "internalType": "bytes32",
          "name": "id",
          "type": "bytes32"
        },
        {
          "internalType": "address",
          "name": "leader",
          "type": "address"
        },
        {
          "internalType": "uint256",
          "name": "formationTime",
          "type": "uint256"
        },
        {
          "internalType": "uint256",
          "name": "nodeCount",
          "type": "uint256"
        },
        {
          "internalType": "uint256",
          "name": "processedTxCount",
          "type": "uint256"
        },
        {
          "internalType": "bytes32",
          "name": "sessionKey",
          "type": "bytes32"
        },
        {
          "internalType": "bool",
          "name": "isActive",
          "type": "bool"
        }
      ],
      "stateMutability": "view",
      "type": "function"
    },
    {
      "inputs": [
        {
          "internalType": "bytes32",
          "name": "role",
          "type": "bytes32"
        }
      ],
      "name": "getRoleAdmin",
      "outputs": [
        {
          "internalType": "bytes32",
          "name": "",
          "type": "bytes32"
        }
      ],
      "stateMutability": "view",
      "type": "function"
    },
    {
      "inputs": [
        {
          "internalType": "bytes32",
          "name": "role",
          "type": "bytes32"
        },
        {
          "internalType": "address",
          "name": "account",
          "type": "address"
        }
      ],
      "name": "grantRole",
      "outputs": [],
      "stateMutability": "nonpayable",
      "type": "function"
    },
    {
      "inputs": [
        {
          "internalType": "bytes32",
          "name": "role",
          "type": "bytes32"
        },
        {
          "internalType": "address",
          "name": "account",
          "type": "address"
        }
      ],
      "name": "hasRole",
      "outputs": [
        {
          "internalType": "bool",
          "name": "",
          "type": "bool"
        }
      ],
      "stateMutability": "view",
      "type": "function"
    },
    {
      "inputs": [
        {
          "internalType": "address",
          "name": "",
          "type": "address"
        }
      ],
      "name": "nodes",
      "outputs": [
        {
          "internalType": "address",
          "name": "nodeAddress",
          "type": "address"
        },
        {
          "internalType": "enum NodeTypes.NodeRole",
          "name": "role",
          "type": "uint8"
        },
        {
          "internalType": "uint256",
          "name": "capacity",
          "type": "uint256"
        },
        {
          "internalType": "uint256",
          "name": "performance",
          "type": "uint256"
        },
        {
          "internalType": "bool",
          "name": "isActive",
          "type": "bool"
        },
        {
          "internalType": "bytes32",
          "name": "clusterId",
          "type": "bytes32"
        }
      ],
      "stateMutability": "view",
      "type": "function"
    },
    {
      "inputs": [
        {
          "internalType": "bytes32",
          "name": "role",
          "type": "bytes32"
        },
        {
          "internalType": "address",
          "name": "account",
          "type": "address"
        }
      ],
      "name": "renounceRole",
      "outputs": [],
      "stateMutability": "nonpayable",
      "type": "function"
    },
    {
      "inputs": [
        {
          "internalType": "bytes32",
          "name": "role",
          "type": "bytes32"
        },
        {
          "internalType": "address",
          "name": "account",
          "type": "address"
        }
      ],
      "name": "revokeRole",
      "outputs": [],
      "stateMutability": "nonpayable",
      "type": "function"
    },
    {
      "inputs": [
        {
          "internalType": "bytes32",
          "name": "",
          "type": "bytes32"
        }
      ],
      "name": "routes",
      "outputs": [
        {
          "internalType": "uint256",
          "name": "pathScore",
          "type": "uint256"
        },
        {
          "internalType": "bool",
          "name": "isOptimal",
          "type": "bool"
        }
      ],
      "stateMutability": "view",
      "type": "function"
    },
    {
      "inputs": [
        {
          "internalType": "bytes4",
          "name": "interfaceId",
          "type": "bytes4"
        }
      ],
      "name": "supportsInterface",
      "outputs": [
        {
          "internalType": "bool",
          "name": "",
          "type": "bool"
        }
      ],
      "stateMutability": "view",
      "type": "function"
    },
    {
      "inputs": [
        {
          "internalType": "bytes32",
          "name": "txId",
          "type": "bytes32"
        },
        {
          "internalType": "uint256",
          "name": "txSize",
          "type": "uint256"
        },
        {
          "internalType": "enum NodeTypes.NodeRole[]",
          "name": "requiredRoles",
          "type": "uint8[]"
        }
      ],
      "name": "findOptimalRoute",
      "outputs": [
        {
          "internalType": "bytes32[]",
          "name": "",
          "type": "bytes32[]"
        }
      ],
      "stateMutability": "nonpayable",
      "type": "function"
    }
  ],
  "bytecode": "0x608060405234801561000f575f80fd5b5061001a5f3361001f565b6100c9565b610029828261002d565b5050565b5f828152602081815260408083206001600160a01b038516845290915290205460ff16610029575f828152602081815260408083206001600160a01b03851684529091529020805460ff191660011790556100853390565b6001600160a01b0316816001600160a01b0316837f2f8788117e7eff1d82e926ec794901d17c78024a50270940304540a733656f0d60405160405180910390a45050565b611169806100d65f395ff3fe608060405234801561000f575f80fd5b50600436106100fb575f3560e01c806336568abe1161009357806391d148541161006357806391d14854146103245780639c5ca62314610337578063a217fddf14610357578063d547741f1461035e575f80fd5b806336568abe146102b55780634789015c146102c85780637f747c54146102f55780638ec1daee1461031c575f80fd5b8063248a9ca3116100ce578063248a9ca3146101e157806329399528146102035780632e41e2e81461020b5780632f2ff15d146102a0575f80fd5b806301ffc9a7146100ff578063066e94811461012757806314552f2614610168578063189a5a171461017e575b5f80fd5b61011261010d366004610d67565b610371565b60405190151581526020015b60405180910390f35b610153610135366004610d8e565b60046020525f90815260409020600181015460029091015460ff1682565b6040805192835290151560208301520161011e565b610170604681565b60405190815260200161011e565b6101cf61018c366004610dc0565b600160208190525f9182526040909120805491810154600282015460038301546004909301546001600160a01b0385169460ff600160a01b909104811694169086565b60405161011e96959493929190610ded565b6101706101ef366004610d8e565b5f9081526020819052604090206001015490565b610170600a81565b610261610219366004610d8e565b600260208190525f9182526040909120805460018201549282015460038301546004840154600585015460069095015493956001600160a01b03169492939192909160ff1687565b604080519788526001600160a01b039096166020880152948601939093526060850191909152608084015260a0830152151560c082015260e00161011e565b6102b36102ae366004610e43565b6103a7565b005b6102b36102c3366004610e43565b6103d0565b6101126102d6366004610e43565b600360209081525f928352604080842090915290825290205460ff1681565b6101707f494524d2d1f4acd3eed6a4679ede5f8aa5fa9493ca9319f21d8a90f197e849bc81565b610170600381565b610112610332366004610e43565b610453565b61034a610345366004610e8f565b61047b565b60405161011e9190610f63565b6101705f81565b6102b361036c366004610e43565b6104de565b5f6001600160e01b03198216637965db0b60e01b14806103a157506301ffc9a760e01b6001600160e01b03198316145b92915050565b5f828152602081905260409020600101546103c181610502565b6103cb838361050f565b505050565b6001600160a01b03811633146104455760405162461bcd60e51b815260206004820152602f60248201527f416363657373436f6e74726f6c3a2063616e206f6e6c792072656e6f756e636560448201526e103937b632b9903337b91039b2b63360891b60648201526084015b60405180910390fd5b61044f8282610592565b5050565b5f918252602082815260408084206001600160a01b0393909316845291905290205460ff1690565b5f83815260046020526040812060609161049585856105f6565b90505f806104a38388610866565b815191935091506104ba9085906020850190610d0a565b506001848101919091556002909301805460ff191690931790925550949350505050565b5f828152602081905260409020600101546104f881610502565b6103cb8383610592565b61050c8133610998565b50565b6105198282610453565b61044f575f828152602081815260408083206001600160a01b03851684529091529020805460ff1916600117905561054e3390565b6001600160a01b0316816001600160a01b0316837f2f8788117e7eff1d82e926ec794901d17c78024a50270940304540a733656f0d60405160405180910390a45050565b61059c8282610453565b1561044f575f828152602081815260408083206001600160a01b0385168085529252808320805460ff1916905551339285917ff6391f5c32d9c69d2a47ea670b442974b53935d1edc7fd64eb21e047a839171b9190a45050565b60408051600a80825261016082019092526060915f91829160208201610140803683370190505090505f5b600a8110156107c2575f8181526002602052604081205482910361064557506107c2565b5f818152600260205260409020600681015460ff166106655750506107b0565b60015f5b8851811015610769575f8061067d866109f1565b90505f5b8151811015610744575f60015f8484815181106106a0576106a0610fa6565b60200260200101516001600160a01b03166001600160a01b031681526020019081526020015f2090508c85815181106106db576106db610fa6565b602002602001015160028111156106f4576106f4610dd9565b8154600160a01b900460ff16600281111561071157610711610dd9565b1480156107225750600381015460ff165b15610731576001935050610744565b508061073c81610fce565b915050610681565b5081610754575f93505050610769565b5050808061076190610fce565b915050610669565b5080801561077b575088826003015410155b156107ac578285878151811061079357610793610fa6565b6020908102919091010152856107a881610fce565b9650505b5050505b806107ba81610fce565b915050610621565b505f8267ffffffffffffffff8111156107dd576107dd610e6d565b604051908082528060200260200182016040528015610806578160200160208202803683370190505b5090505f5b8381101561085c5782818151811061082557610825610fa6565b602002602001015182828151811061083f5761083f610fa6565b60209081029190910101528061085481610fce565b91505061080b565b5095945050505050565b60605f83515f03610888575050604080515f8082526020820190925290610991565b6040805160018082528183019092525f91602080830190803683370190505090505f805b865181101561098a575f60025f8984815181106108cb576108cb610fa6565b602002602001015181526020019081526020015f2090505f6064602883600301546108f69190610fe6565b6109009190610ffd565b90505f6064603c84600401546109169190610fe6565b6109209190610ffd565b90505f61092d828461101c565b905085811115610973578095508a858151811061094c5761094c610fa6565b6020026020010151875f8151811061096657610966610fa6565b6020026020010181815250505b50505050808061098290610fce565b9150506108ac565b5090925090505b9250929050565b6109a28282610453565b61044f576109af81610b5b565b6109ba836020610b6d565b6040516020016109cb929190611051565b60408051601f198184030181529082905262461bcd60e51b825261043c916004016110c5565b60408051600a80825261016082019092526060915f91829160208201610140803683370190505090505f5b6001600160a01b038181161015610aab575f8581526003602090815260408083206001600160a01b038516845290915290205460ff1615610a995780828481518110610a6a57610a6a610fa6565b6001600160a01b039092166020928302919091019091015282610a8c81610fce565b935050600a831015610aab575b610aa48160016110f7565b9050610a1c565b505f8267ffffffffffffffff811115610ac657610ac6610e6d565b604051908082528060200260200182016040528015610aef578160200160208202803683370190505b5090505f5b83811015610b5257828181518110610b0e57610b0e610fa6565b6020026020010151828281518110610b2857610b28610fa6565b6001600160a01b039092166020928302919091019091015280610b4a81610fce565b915050610af4565b50949350505050565b60606103a16001600160a01b03831660145b60605f610b7b836002610fe6565b610b8690600261101c565b67ffffffffffffffff811115610b9e57610b9e610e6d565b6040519080825280601f01601f191660200182016040528015610bc8576020820181803683370190505b509050600360fc1b815f81518110610be257610be2610fa6565b60200101906001600160f81b03191690815f1a905350600f60fb1b81600181518110610c1057610c10610fa6565b60200101906001600160f81b03191690815f1a9053505f610c32846002610fe6565b610c3d90600161101c565b90505b6001811115610cb4576f181899199a1a9b1b9c1cb0b131b232b360811b85600f1660108110610c7157610c71610fa6565b1a60f81b828281518110610c8757610c87610fa6565b60200101906001600160f81b03191690815f1a90535060049490941c93610cad8161111e565b9050610c40565b508315610d035760405162461bcd60e51b815260206004820181905260248201527f537472696e67733a20686578206c656e67746820696e73756666696369656e74604482015260640161043c565b9392505050565b828054828255905f5260205f20908101928215610d43579160200282015b82811115610d43578251825591602001919060010190610d28565b50610d4f929150610d53565b5090565b5b80821115610d4f575f8155600101610d54565b5f60208284031215610d77575f80fd5b81356001600160e01b031981168114610d03575f80fd5b5f60208284031215610d9e575f80fd5b5035919050565b80356001600160a01b0381168114610dbb575f80fd5b919050565b5f60208284031215610dd0575f80fd5b610d0382610da5565b634e487b7160e01b5f52602160045260245ffd5b6001600160a01b038716815260c0810160038710610e1957634e487b7160e01b5f52602160045260245ffd5b6020820196909652604081019490945260608401929092521515608083015260a090910152919050565b5f8060408385031215610e54575f80fd5b82359150610e6460208401610da5565b90509250929050565b634e487b7160e01b5f52604160045260245ffd5b803560038110610dbb575f80fd5b5f805f60608486031215610ea1575f80fd5b833592506020808501359250604085013567ffffffffffffffff80821115610ec7575f80fd5b818701915087601f830112610eda575f80fd5b813581811115610eec57610eec610e6d565b8060051b604051601f19603f83011681018181108582111715610f1157610f11610e6d565b60405291825284820192508381018501918a831115610f2e575f80fd5b938501935b82851015610f5357610f4485610e81565b84529385019392850192610f33565b8096505050505050509250925092565b602080825282518282018190525f9190848201906040850190845b81811015610f9a57835183529284019291840191600101610f7e565b50909695505050505050565b634e487b7160e01b5f52603260045260245ffd5b634e487b7160e01b5f52601160045260245ffd5b5f60018201610fdf57610fdf610fba565b5060010190565b80820281158282048414176103a1576103a1610fba565b5f8261101757634e487b7160e01b5f52601260045260245ffd5b500490565b808201808211156103a1576103a1610fba565b5f5b83811015611049578181015183820152602001611031565b50505f910152565b7f416363657373436f6e74726f6c3a206163636f756e742000000000000000000081525f835161108881601785016020880161102f565b7001034b99036b4b9b9b4b733903937b6329607d1b60179184019182015283516110b981602884016020880161102f565b01602801949350505050565b602081525f82518060208401526110e381604085016020870161102f565b601f01601f19169190910160400192915050565b6001600160a01b0381811683821601908082111561111757611117610fba565b5092915050565b5f8161112c5761112c610fba565b505f19019056fea26469706673582212201490b70bc8d8f2ddff91b82cdb02fdf8d4d1553e485a86a77bd9691571b4584d64736f6c63430008140033",
  "immutableReferences": {},
  "source": "// SPDX-License-Identifier: MIT\r\npragma solidity ^0.8.0;\r\n\r\nimport \"@openzeppelin/contracts/security/ReentrancyGuard.sol\";\r\nimport \"@openzeppelin/contracts/access/AccessControl.sol\";\r\n\r\n// NodeTypes library remains unchanged\r\nlibrary NodeTypes {\r\n    enum NodeRole {\r\n        DESIGNATOR,\r\n        VALIDATOR,\r\n        EXECUTOR\r\n    }\r\n\r\n    struct Node {\r\n        address nodeAddress;\r\n        NodeRole role;\r\n        uint256 capacity;\r\n        uint256 performance;\r\n        bool isActive;\r\n        bytes32 clusterId;\r\n    }\r\n\r\n    struct Cluster {\r\n        bytes32 id;\r\n        address leader;\r\n        uint256 formationTime;\r\n        uint256 nodeCount;\r\n        uint256 processedTxCount;\r\n        bytes32 sessionKey;\r\n        bool isActive;\r\n    }\r\n}\r\n\r\ncontract ClusterManager is AccessControl {\r\n    using NodeTypes for NodeTypes.Node;\r\n    using NodeTypes for NodeTypes.Cluster;\r\n\r\n    bytes32 public constant CLUSTER_ADMIN = keccak256(\"CLUSTER_ADMIN\");\r\n    \r\n    mapping(address => NodeTypes.Node) public nodes;\r\n    mapping(bytes32 => NodeTypes.Cluster) public clusters;\r\n    mapping(bytes32 => mapping(address => bool)) public clusterMembers;\r\n    \r\n    uint256 public constant MIN_CLUSTER_SIZE = 3;\r\n    uint256 public constant MAX_CLUSTER_SIZE = 10;\r\n    uint256 public constant VALIDATION_THRESHOLD = 70;\r\n    \r\n    event ClusterFormed(bytes32 indexed clusterId, address leader);\r\n    event NodeAssigned(address indexed node, bytes32 indexed clusterId);\r\n    event SessionKeyGenerated(bytes32 indexed clusterId, bytes32 sessionKey);\r\n    \r\n    constructor() {\r\n        _setupRole(DEFAULT_ADMIN_ROLE, msg.sender);\r\n    }\r\n    \r\n    function generateSessionKey(\r\n        bytes32 clusterId\r\n    ) internal returns (bytes32) {\r\n        NodeTypes.Cluster storage cluster = clusters[clusterId];\r\n        require(cluster.isActive, \"Cluster not active\");\r\n        \r\n        bytes32 randomValue = keccak256(abi.encodePacked(\r\n            block.timestamp,\r\n            block.number,\r\n            blockhash(block.number - 1), // Use blockhash as a source of randomness\r\n            clusterId,\r\n            msg.sender\r\n        ));\r\n        \r\n        cluster.sessionKey = randomValue;\r\n        emit SessionKeyGenerated(clusterId, randomValue);\r\n        \r\n        return randomValue;\r\n    } // Added closing brace here\r\n}\r\n\r\ncontract BeeRoutingAlgorithm is ClusterManager {\r\n    struct Route {\r\n        bytes32[] clusterPath;\r\n        uint256 pathScore;\r\n        bool isOptimal;\r\n    }\r\n    \r\n    mapping(bytes32 => Route) public routes;\r\n    \r\n    // Routing parameters\r\n    uint256 private constant CAPACITY_WEIGHT = 40;\r\n    uint256 private constant PERFORMANCE_WEIGHT = 60;\r\n    uint256 private constant SCORE_THRESHOLD = 75;\r\n    \r\n    function findOptimalRoute(\r\n        bytes32 txId,\r\n        uint256 txSize,\r\n        NodeTypes.NodeRole[] memory requiredRoles\r\n    ) public returns (bytes32[] memory) {\r\n        Route storage route = routes[txId];\r\n        \r\n        bytes32[] memory eligibleClusters = findEligibleClusters(\r\n            txSize,\r\n            requiredRoles\r\n        );\r\n        \r\n        (bytes32[] memory optimalPath, uint256 pathScore) = calculateOptimalPath(\r\n            eligibleClusters,\r\n            txSize\r\n        );\r\n        \r\n        route.clusterPath = optimalPath;\r\n        route.pathScore = pathScore;\r\n        route.isOptimal = true;\r\n        \r\n        return optimalPath;\r\n    }\r\n    \r\n   function findEligibleClusters(\r\n    uint256 txSize,\r\n    NodeTypes.NodeRole[] memory requiredRoles\r\n) internal view returns (bytes32[] memory) {\r\n    uint256 clusterCount = 0;\r\n    bytes32[] memory tempClusters = new bytes32[](10); // Temporary fixed size array\r\n    \r\n    // Iterate through clusters using a counter approach\r\n    for (uint256 i = 0; i < 10; i++) { // Assuming max 10 clusters, adjust as needed\r\n        bytes32 clusterId = bytes32(i); // Convert index to bytes32\r\n        \r\n        if (clusters[clusterId].id == 0) break; // Stop if cluster doesn't exist\r\n        \r\n        NodeTypes.Cluster storage cluster = clusters[clusterId];\r\n        if (!cluster.isActive) continue;\r\n        \r\n        // Check if cluster has required roles\r\n        bool hasAllRoles = true;\r\n        for (uint j = 0; j < requiredRoles.length; j++) {\r\n            bool roleFound = false;\r\n            \r\n            // Iterate through possible node addresses \r\n            // (you'll need to track these separately)\r\n            address[] memory clusterNodeAddresses = getClusterNodeAddresses(clusterId);\r\n            \r\n            for (uint k = 0; k < clusterNodeAddresses.length; k++) {\r\n                NodeTypes.Node storage node = nodes[clusterNodeAddresses[k]];\r\n                if (node.role == requiredRoles[j] && node.isActive) {\r\n                    roleFound = true;\r\n                    break;\r\n                }\r\n            }\r\n            \r\n            if (!roleFound) {\r\n                hasAllRoles = false;\r\n                break;\r\n            }\r\n        }\r\n        \r\n        // Check capacity\r\n        if (hasAllRoles && cluster.nodeCount >= txSize) {\r\n            tempClusters[clusterCount] = clusterId;\r\n            clusterCount++;\r\n        }\r\n    }\r\n    \r\n    // Create correctly sized array\r\n    bytes32[] memory eligibleClusters = new bytes32[](clusterCount);\r\n    for (uint256 k = 0; k < clusterCount; k++) {\r\n        eligibleClusters[k] = tempClusters[k];\r\n    }\r\n    \r\n    return eligibleClusters;\r\n}\r\n\r\n// Helper function to get node addresses for a cluster\r\nfunction getClusterNodeAddresses(bytes32 clusterId) internal view returns (address[] memory) {\r\n    uint256 nodeCount = 0;\r\n    address[] memory tempAddresses = new address[](10); // Assuming max 10 nodes per cluster\r\n    \r\n    for (address nodeAddr = address(0); nodeAddr < address(type(uint160).max); nodeAddr = address(uint160(nodeAddr) + 1)) {\r\n        if (clusterMembers[clusterId][nodeAddr]) {\r\n            tempAddresses[nodeCount] = nodeAddr;\r\n            nodeCount++;\r\n            \r\n            if (nodeCount >= 10) break; // Prevent potential infinite loop\r\n        }\r\n    }\r\n    \r\n    // Create correctly sized array\r\n    address[] memory clusterNodeAddresses = new address[](nodeCount);\r\n    for (uint256 i = 0; i < nodeCount; i++) {\r\n        clusterNodeAddresses[i] = tempAddresses[i];\r\n    }\r\n    \r\n    return clusterNodeAddresses;\r\n}\r\n    \r\nfunction calculateOptimalPath(\r\n    bytes32[] memory eligibleClusters,\r\n    uint256 /* txSize */\r\n) internal view returns (bytes32[] memory, uint256) {\r\n    if (eligibleClusters.length == 0) {\r\n        return (new bytes32[](0), 0);\r\n    }\r\n    \r\n    bytes32[] memory optimalPath = new bytes32[](1);\r\n    uint256 highestScore = 0;\r\n    \r\n    for (uint256 i = 0; i < eligibleClusters.length; i++) {\r\n        NodeTypes.Cluster storage cluster = clusters[eligibleClusters[i]];\r\n        \r\n        // Calculate weighted score based on node count and processed transactions\r\n        uint256 nodeCountScore = (cluster.nodeCount * CAPACITY_WEIGHT) / 100;\r\n        uint256 performanceScore = (cluster.processedTxCount * PERFORMANCE_WEIGHT) / 100;\r\n        uint256 totalScore = nodeCountScore + performanceScore;\r\n        \r\n        if (totalScore > highestScore) {\r\n            highestScore = totalScore;\r\n            optimalPath[0] = eligibleClusters[i];\r\n        }\r\n    }\r\n    \r\n    return (optimalPath, highestScore);\r\n}\r\n}\r\n/**\r\n * @title PasschainValidator\r\n * @dev Manages PoA validation process for transactions\r\n */\r\ncontract PasschainValidator is BeeRoutingAlgorithm, ReentrancyGuard {\r\n    struct ValidationProcess {\r\n        bytes32 txId;\r\n        bytes32 clusterId;\r\n        uint256 validationsRequired;\r\n        uint256 validationsReceived;\r\n        uint256 validationsPositive;\r\n        bool isComplete;\r\n        mapping(address => bool) hasValidated;\r\n    }\r\n    \r\n    mapping(bytes32 => ValidationProcess) public validationProcesses;\r\n    \r\n    event ValidationStarted(bytes32 indexed txId, bytes32 indexed clusterId);\r\n    event ValidationSubmitted(bytes32 indexed txId, address validator, bool result);\r\n    event ValidationComplete(bytes32 indexed txId, bool isValid);\r\n    \r\n    function initiateValidation(\r\n        bytes32 txId,\r\n        bytes memory txData\r\n    ) external nonReentrant {\r\n        require(!validationProcesses[txId].isComplete, \"Already validated\");\r\n        \r\n        // Find optimal cluster route\r\n        NodeTypes.NodeRole[] memory roles = new NodeTypes.NodeRole[](3);\r\n        roles[0] = NodeTypes.NodeRole.DESIGNATOR;\r\n        roles[1] = NodeTypes.NodeRole.VALIDATOR;\r\n        roles[2] = NodeTypes.NodeRole.EXECUTOR;\r\n        \r\n        bytes32[] memory routePath = this.findOptimalRoute(\r\n            txId,\r\n            txData.length,\r\n            roles\r\n        );\r\n        require(routePath.length > 0, \"No valid route found\");\r\n        \r\n        // Setup validation process\r\n        ValidationProcess storage process = validationProcesses[txId];\r\n        process.txId = txId;\r\n        process.clusterId = routePath[0];\r\n        process.validationsRequired = calculateRequiredValidations(routePath[0]);\r\n        \r\n        emit ValidationStarted(txId, routePath[0]);\r\n    }\r\n    \r\n    function submitValidation(\r\n        bytes32 txId,\r\n        bool isValid\r\n    ) external nonReentrant {\r\n        ValidationProcess storage process = validationProcesses[txId];\r\n        require(!process.isComplete, \"Validation complete\");\r\n        require(!process.hasValidated[msg.sender], \"Already validated\");\r\n        require(\r\n            clusterMembers[process.clusterId][msg.sender],\r\n            \"Not cluster member\"\r\n        );\r\n        \r\n        process.hasValidated[msg.sender] = true;\r\n        process.validationsReceived++;\r\n        if (isValid) {\r\n            process.validationsPositive++;\r\n        }\r\n        \r\n        emit ValidationSubmitted(txId, msg.sender, isValid);\r\n        \r\n        // Check if validation is complete\r\n        if (process.validationsReceived >= process.validationsRequired) {\r\n            bool validationResult = (\r\n                process.validationsPositive * 100 / process.validationsReceived\r\n            ) >= VALIDATION_THRESHOLD;\r\n            \r\n            process.isComplete = true;\r\n            emit ValidationComplete(txId, validationResult);\r\n        }\r\n    }\r\n    \r\n    function calculateRequiredValidations(\r\n        bytes32 clusterId\r\n    ) internal view returns (uint256) {\r\n        NodeTypes.Cluster storage cluster = clusters[clusterId];\r\n        return (cluster.nodeCount * 2) / 3; // Require 2/3 majority\r\n    }\r\n}\r\n\r\n/**\r\n * @title ClusterCommunication\r\n * @dev Handles secure communication within and between clusters\r\n */\r\ncontract ClusterCommunication is PasschainValidator {\r\n    struct SecureMessage {\r\n        bytes32 messageId;\r\n        bytes encryptedContent;\r\n        bytes mac;\r\n        address sender;\r\n        address recipient;\r\n        uint256 timestamp;\r\n    }\r\n    \r\n    mapping(bytes32 => SecureMessage) public messages;\r\n    \r\n    event MessageSent(bytes32 indexed messageId, address indexed recipient);\r\n    \r\n    function sendClusterMessage(\r\n        bytes32 clusterId,\r\n        address recipient,\r\n        bytes memory content\r\n    ) external nonReentrant {\r\n        require(\r\n            clusterMembers[clusterId][msg.sender],\r\n            \"Not in cluster\"\r\n        );\r\n        \r\n        bytes32 messageId = keccak256(abi.encodePacked(\r\n            clusterId,\r\n            msg.sender,\r\n            recipient,\r\n            block.timestamp\r\n        ));\r\n        \r\n        // AES-GCM encryption would be implemented here\r\n        bytes memory encrypted = content; // Placeholder\r\n        \r\n        // HMAC generation\r\n        bytes memory mac = abi.encodePacked(\r\n            keccak256(abi.encodePacked(content, clusters[clusterId].sessionKey))\r\n        );\r\n        \r\n        messages[messageId] = SecureMessage({\r\n            messageId: messageId,\r\n            encryptedContent: encrypted,\r\n            mac: mac,\r\n            sender: msg.sender,\r\n            recipient: recipient,\r\n            timestamp: block.timestamp\r\n        });\r\n        \r\n        emit MessageSent(messageId, recipient);\r\n    }\r\n}",
  "sourcePath": "C:\\Users\\Bonsu\\Documents\\Blockchain Multi Industrial Service Center\\Blockchain MultiIndustrial Projects\\BlockchainMultiIndustryRepo\\contracts\\passchain\\ClusterManager.sol",
  "compiler": {
    "name": "solc",
    "version": "0.8.20+commit.a1b79de6.Emscripten.clang"
  },
  "schemaVersion": "3.4.16",
  "updatedAt": "2025-05-20T13:40:34.826Z",
  "devdoc": {
    "events": {
      "RoleAdminChanged(bytes32,bytes32,bytes32)": {
        "details": "Emitted when `newAdminRole` is set as ``role``'s admin role, replacing `previousAdminRole` `DEFAULT_ADMIN_ROLE` is the starting admin for all roles, despite {RoleAdminChanged} not being emitted signaling this. _Available since v3.1._"
      },
      "RoleGranted(bytes32,address,address)": {
        "details": "Emitted when `account` is granted `role`. `sender` is the account that originated the contract call, an admin role bearer except when using {AccessControl-_setupRole}."
      },
      "RoleRevoked(bytes32,address,address)": {
        "details": "Emitted when `account` is revoked `role`. `sender` is the account that originated the contract call:   - if using `revokeRole`, it is the admin role bearer   - if using `renounceRole`, it is the role bearer (i.e. `account`)"
      }
    },
    "kind": "dev",
    "methods": {
      "getRoleAdmin(bytes32)": {
        "details": "Returns the admin role that controls `role`. See {grantRole} and {revokeRole}. To change a role's admin, use {_setRoleAdmin}."
      },
      "grantRole(bytes32,address)": {
        "details": "Grants `role` to `account`. If `account` had not been already granted `role`, emits a {RoleGranted} event. Requirements: - the caller must have ``role``'s admin role. May emit a {RoleGranted} event."
      },
      "hasRole(bytes32,address)": {
        "details": "Returns `true` if `account` has been granted `role`."
      },
      "renounceRole(bytes32,address)": {
        "details": "Revokes `role` from the calling account. Roles are often managed via {grantRole} and {revokeRole}: this function's purpose is to provide a mechanism for accounts to lose their privileges if they are compromised (such as when a trusted device is misplaced). If the calling account had been revoked `role`, emits a {RoleRevoked} event. Requirements: - the caller must be `account`. May emit a {RoleRevoked} event."
      },
      "revokeRole(bytes32,address)": {
        "details": "Revokes `role` from `account`. If `account` had been granted `role`, emits a {RoleRevoked} event. Requirements: - the caller must have ``role``'s admin role. May emit a {RoleRevoked} event."
      },
      "supportsInterface(bytes4)": {
        "details": "See {IERC165-supportsInterface}."
      }
    },
    "version": 1
  },
  "userdoc": {
    "kind": "user",
    "methods": {},
    "version": 1
  }
}