{
  "contractName": "ChaCha20Poly1305",
  "abi": [
    {
      "inputs": [
        {
          "internalType": "bytes",
          "name": "plaintext",
          "type": "bytes"
        },
        {
          "internalType": "bytes32",
          "name": "key",
          "type": "bytes32"
        },
        {
          "internalType": "bytes12",
          "name": "nonce",
          "type": "bytes12"
        }
      ],
      "name": "encrypt",
      "outputs": [
        {
          "internalType": "bytes",
          "name": "ciphertext",
          "type": "bytes"
        },
        {
          "internalType": "bytes",
          "name": "tag",
          "type": "bytes"
        }
      ],
      "stateMutability": "pure",
      "type": "function"
    }
  ],
  "bytecode": "0x608060405234801561000f575f80fd5b50610bb58061001d5f395ff3fe608060405234801561000f575f80fd5b5060043610610029575f3560e01c8063aa4e07471461002d575b5f80fd5b61004061003b36600461096e565b610057565b60405161004e929190610a75565b60405180910390f35b6060805f61006685855f610165565b90505f61007282610358565b9050865167ffffffffffffffff81111561008e5761008e61093e565b6040519080825280601f01601f1916602001820160405280156100b8576020820181803683370190505b5093505f5b875181101561014e57816100d2604083610aa2565b815181106100e2576100e2610ac1565b602001015160f81c60f81b60f81c88828151811061010257610102610ac1565b602001015160f81c60f81b60f81c1860f81b85828151811061012657610126610ac1565b60200101906001600160f81b03191690815f1a9053508061014681610ae9565b9150506100bd565b5061015984876106ca565b92505050935093915050565b61016d610907565b610175610907565b8051636170786590528051633320646e60209091015280516379622d326040909101528051636b2065746060909101525f5b60088110156101ff576101bb816020610b01565b82519087901c906101cd836004610b18565b601081106101dd576101dd610ac1565b63ffffffff9092166020929092020152806101f781610ae9565b9150506101a7565b50805163ffffffff841661018090910152604080516001600160a01b0319861660208201528151600c818303018152602c9091019091525f5b600381101561034d5760188261024f836004610b01565b61025a906003610b18565b8151811061026a5761026a610ac1565b016020015160f81c901b601083610282846004610b01565b61028d906002610b18565b8151811061029d5761029d610ac1565b016020015160f81c901b6008846102b5856004610b01565b6102c0906001610b18565b815181106102d0576102d0610ac1565b016020015160f81c901b846102e6856004610b01565b815181106102f6576102f6610ac1565b602001015160f81c60f81b60f81c60ff16171717835f015182600d61031b9190610b18565b6010811061032b5761032b610ac1565b63ffffffff90921660209290920201528061034581610ae9565b915050610238565b509095945050505050565b606061036261091f565b5f5b60108110156103b9578351816010811061038057610380610ac1565b602002015182826010811061039757610397610ac1565b63ffffffff9092166020929092020152806103b181610ae9565b915050610364565b505f5b60148110156105d557815160808301516103e891908460085b602002015185600c5b6020020151610857565b63ffffffff9081166101808701529081166101008601529081166080850152168252602082015160a083015161042a91908460095b602002015185600d6103de565b63ffffffff9081166101a087015290811661012086015290811660a0850152166020830152604082015160c083015161046f919084600a5b602002015185600e6103de565b63ffffffff9081166101c087015290811661014086015290811660c0850152166040830152606082015160e08301516104b4919084600b5b602002015185600f6103de565b63ffffffff9081166101e087015290811661016086015290811660e0850152166060830152815160a08301516104ed919084600a6104a7565b63ffffffff9081166101e087015290811661014086015290811660a0850152168252602082015160c0830151610526919084600b6103d5565b63ffffffff90811661018087015290811661016086015290811660c0850152166020830152604082015160e0830151610562919084600861041d565b63ffffffff9081166101a087015290811661010086015290811660e08501521660408301526060820151608083015161059e9190846009610462565b63ffffffff9081166101c087015290811661012086015290811660808501521660608301526105ce600282610b18565b90506103bc565b50604080518181526060810182525f916020820181803683370190505090505f5b60108110156106c25784515f90826010811061061457610614610ac1565b602002015184836010811061062b5761062b610ac1565b602002015161063a9190610b2b565b90505f5b60048110156106ad57610652816008610b01565b63ffffffff8316901c60f81b848261066b866004610b01565b6106759190610b18565b8151811061068557610685610ac1565b60200101906001600160f81b03191690815f1a905350806106a581610ae9565b91505061063e565b505080806106ba90610ae9565b9150506105f6565b509392505050565b60606106e760405180604001604052805f81526020015f81525090565b6f0ffffffc0ffffffc0ffffffc0fffffff831681525f602082018190526010905b85518110156107cd575f81875161071f9190610b4f565b90508281111561072c5750815b5f805b8281101561077e57610742816008610b01565b8961074d8387610b18565b8151811061075d5761075d610ac1565b016020015160f81c901b91909117908061077681610ae9565b91505061072f565b508382101561079857610792826008610b01565b6001901b175b600160821b81866020015108602086018190528551600160821b91096020860152506107c690508282610b18565b9050610708565b506040805160108082528183019092525f9160208201818036833750505060208401519091505f5b601081101561084957610809816008610b01565b82901c60f81b83828151811061082157610821610ac1565b60200101906001600160f81b03191690815f1a9053508061084181610ae9565b9150506107f5565b509093505050505b92915050565b5f8080806108658789610b2b565b975061087488861860106108d3565b94506108808587610b2b565b955061088f868818600c6108d3565b965061089b8789610b2b565b97506108aa88861860086108d3565b94506108b68587610b2b565b95506108c586881860076108d3565b979895965093949350505050565b5f6108df826020610b62565b63ffffffff168363ffffffff16901c8263ffffffff168463ffffffff16901b17905092915050565b604051806020016040528061091a61091f565b905290565b6040518061020001604052806010906020820280368337509192915050565b634e487b7160e01b5f52604160045260245ffd5b80356001600160a01b031981168114610969575f80fd5b919050565b5f805f60608486031215610980575f80fd5b833567ffffffffffffffff80821115610997575f80fd5b818601915086601f8301126109aa575f80fd5b8135818111156109bc576109bc61093e565b604051601f8201601f19908116603f011681019083821181831017156109e4576109e461093e565b816040528281528960208487010111156109fc575f80fd5b826020860160208301375f60208483010152809750505050505060208401359150610a2960408501610952565b90509250925092565b5f81518084525f5b81811015610a5657602081850181015186830182015201610a3a565b505f602082860101526020601f19601f83011685010191505092915050565b604081525f610a876040830185610a32565b8281036020840152610a998185610a32565b95945050505050565b5f82610abc57634e487b7160e01b5f52601260045260245ffd5b500690565b634e487b7160e01b5f52603260045260245ffd5b634e487b7160e01b5f52601160045260245ffd5b5f60018201610afa57610afa610ad5565b5060010190565b808202811582820484141761085157610851610ad5565b8082018082111561085157610851610ad5565b63ffffffff818116838216019080821115610b4857610b48610ad5565b5092915050565b8181038181111561085157610851610ad5565b63ffffffff828116828216039080821115610b4857610b48610ad556fea2646970667358221220f3135c2414ffbddfd5008859356ba46a9bf644c55bb8c0236b6b98450afc4f8c64736f6c63430008140033",
  "immutableReferences": {},
  "source": "// SPDX-License-Identifier: MIT\r\npragma solidity ^0.8.0;\r\n\r\nimport \"@openzeppelin/contracts/security/ReentrancyGuard.sol\";\r\nimport \"@openzeppelin/contracts/utils/Counters.sol\";\r\n\r\n/**\r\n * @title ChaCha20Poly1305\r\n * @dev Implementation of ChaCha20-Poly1305 AEAD\r\n */\r\ncontract ChaCha20Poly1305 {\r\n    uint256 constant CHACHA20_ROUNDS = 20;\r\n    \r\n    struct ChaChaState {\r\n        uint32[16] state;  // 4x4 state matrix\r\n    }\r\n\r\n    struct Poly1305State {\r\n        uint256 r;  // Key part for Poly1305\r\n        uint256 s;  // Accumulator\r\n    }\r\n\r\n    /**\r\n     * @dev Initialize ChaCha20 state\r\n     */\r\n    function initializeState(\r\n        bytes32 key,\r\n        bytes12 nonce,\r\n        uint32 counter\r\n    ) internal pure returns (ChaChaState memory) {\r\n        ChaChaState memory state;\r\n        \r\n        // Constants for ChaCha20\r\n        state.state[0] = 0x61707865; // \"expa\"\r\n        state.state[1] = 0x3320646e; // \"nd 3\"\r\n        state.state[2] = 0x79622d32; // \"2-by\"\r\n        state.state[3] = 0x6b206574; // \"te k\"\r\n\r\n        // Key setup (8 words)\r\n        for (uint i = 0; i < 8; i++) {\r\n            state.state[4 + i] = uint32(uint256(key) >> (i * 32));\r\n        }\r\n\r\n        // Counter\r\n        state.state[12] = counter;\r\n\r\n        // Nonce (3 words)\r\n        bytes memory nonceBytes = abi.encodePacked(nonce);\r\n        for (uint i = 0; i < 3; i++) {\r\n            state.state[13 + i] = uint32(uint8(nonceBytes[i * 4])) |\r\n                                 (uint32(uint8(nonceBytes[i * 4 + 1])) << 8) |\r\n                                 (uint32(uint8(nonceBytes[i * 4 + 2])) << 16) |\r\n                                 (uint32(uint8(nonceBytes[i * 4 + 3])) << 24);\r\n        }\r\n\r\n        return state;\r\n    }\r\n\r\n    /**\r\n     * @dev ChaCha20 Quarter Round\r\n     */\r\n    function quarterRound(\r\n        uint32 a,\r\n        uint32 b,\r\n        uint32 c,\r\n        uint32 d\r\n    ) internal pure returns (uint32, uint32, uint32, uint32) {\r\n        a = a + b;\r\n        d = rotl32(d ^ a, 16);\r\n        \r\n        c = c + d;\r\n        b = rotl32(b ^ c, 12);\r\n        \r\n        a = a + b;\r\n        d = rotl32(d ^ a, 8);\r\n        \r\n        c = c + d;\r\n        b = rotl32(b ^ c, 7);\r\n        \r\n        return (a, b, c, d);\r\n    }\r\n\r\n    /**\r\n     * @dev 32-bit rotation\r\n     */\r\n    function rotl32(uint32 x, uint32 n) internal pure returns (uint32) {\r\n        return (x << n) | (x >> (32 - n));\r\n    }\r\n\r\n    /**\r\n     * @dev ChaCha20 block function\r\n     */\r\n    function chacha20Block(ChaChaState memory state) internal pure returns (bytes memory) {\r\n        uint32[16] memory working;\r\n        for (uint i = 0; i < 16; i++) {\r\n            working[i] = state.state[i];\r\n        }\r\n\r\n        // 10 double-rounds\r\n        for (uint i = 0; i < CHACHA20_ROUNDS; i += 2) {\r\n            // Column rounds\r\n            (working[0], working[4], working[8], working[12]) = \r\n                quarterRound(working[0], working[4], working[8], working[12]);\r\n            (working[1], working[5], working[9], working[13]) = \r\n                quarterRound(working[1], working[5], working[9], working[13]);\r\n            (working[2], working[6], working[10], working[14]) = \r\n                quarterRound(working[2], working[6], working[10], working[14]);\r\n            (working[3], working[7], working[11], working[15]) = \r\n                quarterRound(working[3], working[7], working[11], working[15]);\r\n\r\n            // Diagonal rounds\r\n            (working[0], working[5], working[10], working[15]) = \r\n                quarterRound(working[0], working[5], working[10], working[15]);\r\n            (working[1], working[6], working[11], working[12]) = \r\n                quarterRound(working[1], working[6], working[11], working[12]);\r\n            (working[2], working[7], working[8], working[13]) = \r\n                quarterRound(working[2], working[7], working[8], working[13]);\r\n            (working[3], working[4], working[9], working[14]) = \r\n                quarterRound(working[3], working[4], working[9], working[14]);\r\n        }\r\n\r\n        // Add working state to input state\r\n        bytes memory output = new bytes(64);\r\n        for (uint i = 0; i < 16; i++) {\r\n            uint32 word = working[i] + state.state[i];\r\n            for (uint j = 0; j < 4; j++) {\r\n                output[i * 4 + j] = bytes1(uint8(word >> (j * 8)));\r\n            }\r\n        }\r\n\r\n        return output;\r\n    }\r\n\r\n    /**\r\n     * @dev Poly1305 MAC implementation\r\n     */\r\n    function poly1305Mac(\r\n        bytes memory message,\r\n        bytes32 key\r\n    ) internal pure returns (bytes memory) {\r\n        Poly1305State memory state;\r\n        \r\n        // Initialize r and s from key\r\n        state.r = uint256(key) & 0x0ffffffc0ffffffc0ffffffc0fffffff;\r\n        state.s = 0;\r\n\r\n        // Process message blocks\r\n        uint256 blockSize = 16;\r\n        for (uint i = 0; i < message.length; i += blockSize) {\r\n            uint256 blockLen = message.length - i;\r\n            if (blockLen > blockSize) {\r\n                blockLen = blockSize;\r\n            }\r\n\r\n            uint256 n = 0;\r\n            for (uint j = 0; j < blockLen; j++) {\r\n                n |= uint256(uint8(message[i + j])) << (j * 8);\r\n            }\r\n\r\n            if (blockLen < blockSize) {\r\n                n |= uint256(1) << (blockLen * 8);\r\n            }\r\n\r\n            state.s = addmod(state.s, n, 1 << 130);\r\n            state.s = mulmod(state.s, state.r, 1 << 130);\r\n        }\r\n\r\n        // Convert final state to bytes\r\n        bytes memory mac = new bytes(16);\r\n        uint256 finalState = state.s;\r\n        for (uint i = 0; i < 16; i++) {\r\n            mac[i] = bytes1(uint8(finalState >> (i * 8)));\r\n        }\r\n        \r\n        return mac;\r\n    }\r\n\r\n    /**\r\n     * @dev Encrypt data using ChaCha20-Poly1305\r\n     */\r\n    function encrypt(\r\n        bytes memory plaintext,\r\n        bytes32 key,\r\n        bytes12 nonce\r\n    ) external pure returns (bytes memory ciphertext, bytes memory tag) {\r\n        // Generate keystream\r\n        ChaChaState memory state = initializeState(key, nonce, 0);\r\n        bytes memory keystream = chacha20Block(state);\r\n        \r\n        // Encrypt plaintext\r\n        ciphertext = new bytes(plaintext.length);\r\n        for (uint i = 0; i < plaintext.length; i++) {\r\n            ciphertext[i] = bytes1(uint8(plaintext[i]) ^ uint8(keystream[i % 64]));\r\n        }\r\n        \r\n        // Generate MAC\r\n        tag = poly1305Mac(ciphertext, key);\r\n        \r\n        return (ciphertext, tag);\r\n    }\r\n}",
  "sourcePath": "C:\\Users\\Bonsu\\Documents\\Blockchain Multi Industrial Service Center\\Blockchain MultiIndustrial Projects\\BlockchainMultiIndustryRepo\\contracts\\blockchain\\ChaCha20Poly1305.sol",
  "compiler": {
    "name": "solc",
    "version": "0.8.20+commit.a1b79de6.Emscripten.clang"
  },
  "schemaVersion": "3.4.16",
  "updatedAt": "2025-05-20T13:40:34.766Z",
  "devdoc": {
    "details": "Implementation of ChaCha20-Poly1305 AEAD",
    "kind": "dev",
    "methods": {
      "encrypt(bytes,bytes32,bytes12)": {
        "details": "Encrypt data using ChaCha20-Poly1305"
      }
    },
    "title": "ChaCha20Poly1305",
    "version": 1
  },
  "userdoc": {
    "kind": "user",
    "methods": {},
    "version": 1
  }
}