{
  "contractName": "ClusteringContract",
  "abi": [
    {
      "inputs": [
        {
          "internalType": "address",
          "name": "_nidRegistryAddress",
          "type": "address"
        },
        {
          "internalType": "address",
          "name": "_niasRegistryAddress",
          "type": "address"
        },
        {
          "internalType": "address",
          "name": "_abatlTranslationAddress",
          "type": "address"
        }
      ],
      "stateMutability": "nonpayable",
      "type": "constructor"
    },
    {
      "anonymous": false,
      "inputs": [
        {
          "indexed": true,
          "internalType": "uint8",
          "name": "clusterId",
          "type": "uint8"
        },
        {
          "indexed": false,
          "internalType": "string",
          "name": "clusterName",
          "type": "string"
        },
        {
          "indexed": false,
          "internalType": "uint8",
          "name": "clusterType",
          "type": "uint8"
        }
      ],
      "name": "ClusterCreated",
      "type": "event"
    },
    {
      "anonymous": false,
      "inputs": [
        {
          "indexed": true,
          "internalType": "uint8",
          "name": "clusterId",
          "type": "uint8"
        },
        {
          "indexed": false,
          "internalType": "uint16",
          "name": "avgLatency",
          "type": "uint16"
        },
        {
          "indexed": false,
          "internalType": "uint16",
          "name": "avgBandwidth",
          "type": "uint16"
        }
      ],
      "name": "ClusterMetricsUpdated",
      "type": "event"
    },
    {
      "anonymous": false,
      "inputs": [
        {
          "indexed": true,
          "internalType": "uint8",
          "name": "oldClusterId",
          "type": "uint8"
        },
        {
          "indexed": true,
          "internalType": "uint8",
          "name": "newClusterId",
          "type": "uint8"
        }
      ],
      "name": "ClusterReclustered",
      "type": "event"
    },
    {
      "anonymous": false,
      "inputs": [
        {
          "indexed": true,
          "internalType": "uint8",
          "name": "clusterId",
          "type": "uint8"
        },
        {
          "indexed": false,
          "internalType": "uint256",
          "name": "validUntil",
          "type": "uint256"
        },
        {
          "indexed": false,
          "internalType": "bool",
          "name": "isActive",
          "type": "bool"
        }
      ],
      "name": "ClusterUpdated",
      "type": "event"
    },
    {
      "anonymous": false,
      "inputs": [
        {
          "indexed": true,
          "internalType": "string",
          "name": "nodeId",
          "type": "string"
        },
        {
          "indexed": true,
          "internalType": "uint8",
          "name": "clusterId",
          "type": "uint8"
        }
      ],
      "name": "NodeAddedToCluster",
      "type": "event"
    },
    {
      "anonymous": false,
      "inputs": [
        {
          "indexed": true,
          "internalType": "string",
          "name": "nodeId",
          "type": "string"
        },
        {
          "indexed": true,
          "internalType": "uint8",
          "name": "clusterId",
          "type": "uint8"
        }
      ],
      "name": "NodeRemovedFromCluster",
      "type": "event"
    },
    {
      "inputs": [],
      "name": "abatlTranslation",
      "outputs": [
        {
          "internalType": "contract ABATLTranslation",
          "name": "",
          "type": "address"
        }
      ],
      "stateMutability": "view",
      "type": "function"
    },
    {
      "inputs": [
        {
          "internalType": "uint256",
          "name": "",
          "type": "uint256"
        }
      ],
      "name": "allClusterIds",
      "outputs": [
        {
          "internalType": "uint8",
          "name": "",
          "type": "uint8"
        }
      ],
      "stateMutability": "view",
      "type": "function"
    },
    {
      "inputs": [
        {
          "internalType": "uint8",
          "name": "",
          "type": "uint8"
        },
        {
          "internalType": "uint256",
          "name": "",
          "type": "uint256"
        }
      ],
      "name": "clusterMembers",
      "outputs": [
        {
          "internalType": "string",
          "name": "",
          "type": "string"
        }
      ],
      "stateMutability": "view",
      "type": "function"
    },
    {
      "inputs": [
        {
          "internalType": "uint8",
          "name": "",
          "type": "uint8"
        }
      ],
      "name": "clusterMetrics",
      "outputs": [
        {
          "internalType": "uint16",
          "name": "avgLatency",
          "type": "uint16"
        },
        {
          "internalType": "uint16",
          "name": "avgBandwidth",
          "type": "uint16"
        },
        {
          "internalType": "uint8",
          "name": "avgSecurityLevel",
          "type": "uint8"
        },
        {
          "internalType": "uint256",
          "name": "successfulTransmissions",
          "type": "uint256"
        },
        {
          "internalType": "uint256",
          "name": "failedTransmissions",
          "type": "uint256"
        },
        {
          "internalType": "uint256",
          "name": "lastUpdated",
          "type": "uint256"
        }
      ],
      "stateMutability": "view",
      "type": "function"
    },
    {
      "inputs": [
        {
          "internalType": "uint8",
          "name": "",
          "type": "uint8"
        }
      ],
      "name": "clusters",
      "outputs": [
        {
          "internalType": "uint8",
          "name": "clusterId",
          "type": "uint8"
        },
        {
          "internalType": "string",
          "name": "clusterName",
          "type": "string"
        },
        {
          "internalType": "uint8",
          "name": "clusterType",
          "type": "uint8"
        },
        {
          "internalType": "uint256",
          "name": "creationTime",
          "type": "uint256"
        },
        {
          "internalType": "uint256",
          "name": "validUntil",
          "type": "uint256"
        },
        {
          "internalType": "uint8",
          "name": "securityLevel",
          "type": "uint8"
        },
        {
          "internalType": "uint16",
          "name": "maxLatency",
          "type": "uint16"
        },
        {
          "internalType": "uint16",
          "name": "minBandwidth",
          "type": "uint16"
        },
        {
          "internalType": "bool",
          "name": "isActive",
          "type": "bool"
        },
        {
          "internalType": "uint256",
          "name": "nodeCount",
          "type": "uint256"
        }
      ],
      "stateMutability": "view",
      "type": "function"
    },
    {
      "inputs": [
        {
          "internalType": "string",
          "name": "",
          "type": "string"
        },
        {
          "internalType": "uint8",
          "name": "",
          "type": "uint8"
        }
      ],
      "name": "memberships",
      "outputs": [
        {
          "internalType": "string",
          "name": "nodeId",
          "type": "string"
        },
        {
          "internalType": "uint8",
          "name": "clusterId",
          "type": "uint8"
        },
        {
          "internalType": "uint256",
          "name": "joinTime",
          "type": "uint256"
        },
        {
          "internalType": "bool",
          "name": "isActive",
          "type": "bool"
        }
      ],
      "stateMutability": "view",
      "type": "function"
    },
    {
      "inputs": [],
      "name": "niasRegistry",
      "outputs": [
        {
          "internalType": "contract NIASRegistry",
          "name": "",
          "type": "address"
        }
      ],
      "stateMutability": "view",
      "type": "function"
    },
    {
      "inputs": [],
      "name": "nidRegistry",
      "outputs": [
        {
          "internalType": "contract NIDRegistry",
          "name": "",
          "type": "address"
        }
      ],
      "stateMutability": "view",
      "type": "function"
    },
    {
      "inputs": [
        {
          "internalType": "string",
          "name": "",
          "type": "string"
        },
        {
          "internalType": "uint256",
          "name": "",
          "type": "uint256"
        }
      ],
      "name": "nodeClusters",
      "outputs": [
        {
          "internalType": "uint8",
          "name": "",
          "type": "uint8"
        }
      ],
      "stateMutability": "view",
      "type": "function"
    },
    {
      "inputs": [
        {
          "internalType": "uint8",
          "name": "_clusterId",
          "type": "uint8"
        },
        {
          "internalType": "string",
          "name": "_clusterName",
          "type": "string"
        },
        {
          "internalType": "uint8",
          "name": "_clusterType",
          "type": "uint8"
        },
        {
          "internalType": "uint256",
          "name": "_validUntil",
          "type": "uint256"
        },
        {
          "internalType": "uint8",
          "name": "_securityLevel",
          "type": "uint8"
        },
        {
          "internalType": "uint16",
          "name": "_maxLatency",
          "type": "uint16"
        },
        {
          "internalType": "uint16",
          "name": "_minBandwidth",
          "type": "uint16"
        }
      ],
      "name": "createCluster",
      "outputs": [],
      "stateMutability": "nonpayable",
      "type": "function"
    },
    {
      "inputs": [
        {
          "internalType": "string",
          "name": "_nodeId",
          "type": "string"
        },
        {
          "internalType": "uint8",
          "name": "_clusterId",
          "type": "uint8"
        }
      ],
      "name": "addNodeToCluster",
      "outputs": [],
      "stateMutability": "nonpayable",
      "type": "function"
    },
    {
      "inputs": [
        {
          "internalType": "string",
          "name": "_nodeId",
          "type": "string"
        },
        {
          "internalType": "uint8",
          "name": "_clusterId",
          "type": "uint8"
        }
      ],
      "name": "removeNodeFromCluster",
      "outputs": [],
      "stateMutability": "nonpayable",
      "type": "function"
    },
    {
      "inputs": [
        {
          "internalType": "uint8",
          "name": "_oldClusterId",
          "type": "uint8"
        },
        {
          "internalType": "uint8",
          "name": "_newClusterId",
          "type": "uint8"
        }
      ],
      "name": "reclusterNodes",
      "outputs": [],
      "stateMutability": "nonpayable",
      "type": "function"
    },
    {
      "inputs": [
        {
          "internalType": "uint8",
          "name": "_clusterId",
          "type": "uint8"
        }
      ],
      "name": "getClusterMembers",
      "outputs": [
        {
          "internalType": "string[]",
          "name": "",
          "type": "string[]"
        }
      ],
      "stateMutability": "view",
      "type": "function"
    },
    {
      "inputs": [
        {
          "internalType": "string",
          "name": "_nodeId",
          "type": "string"
        }
      ],
      "name": "getNodeClusters",
      "outputs": [
        {
          "internalType": "uint8[]",
          "name": "",
          "type": "uint8[]"
        }
      ],
      "stateMutability": "view",
      "type": "function"
    },
    {
      "inputs": [
        {
          "internalType": "string",
          "name": "_nodeId",
          "type": "string"
        },
        {
          "internalType": "uint8",
          "name": "_clusterId",
          "type": "uint8"
        }
      ],
      "name": "isNodeInCluster",
      "outputs": [
        {
          "internalType": "bool",
          "name": "",
          "type": "bool"
        }
      ],
      "stateMutability": "view",
      "type": "function"
    },
    {
      "inputs": [],
      "name": "getClusterCount",
      "outputs": [
        {
          "internalType": "uint256",
          "name": "",
          "type": "uint256"
        }
      ],
      "stateMutability": "view",
      "type": "function"
    }
  ],
  "bytecode": "0x608060405234801562000010575f80fd5b506040516200200e3803806200200e833981016040819052620000339162000091565b5f80546001600160a01b039485166001600160a01b031991821617909155600180549385169382169390931790925560028054919093169116179055620000d8565b80516001600160a01b03811681146200008c575f80fd5b919050565b5f805f60608486031215620000a4575f80fd5b620000af8462000075565b9250620000bf6020850162000075565b9150620000cf6040850162000075565b90509250925092565b611f2880620000e65f395ff3fe608060405234801561000f575f80fd5b5060043610610106575f3560e01c80637cbe54cb1161009e57806384fe36df1161006e57806384fe36df1461025e578063905106f7146102e7578063af0e176114610307578063c77b606f14610318578063c9bb28731461032b575f80fd5b80637cbe54cb146101ef5780637d752c031461020257806383628375146102155780638459cde514610235575f80fd5b806348d9c654116100d957806348d9c654146101915780635b045fcd146101b657806369a4112b146101c95780637b4d2cdf146101dc575f80fd5b80630ecb02181461010a5780631ee427a6146101395780632220ca0b1461015c5780632a7af13b1461017c575b5f80fd5b5f5461011c906001600160a01b031681565b6040516001600160a01b0390911681526020015b60405180910390f35b61014c610147366004611821565b61034e565b6040519015158152602001610130565b61016f61016a36600461186c565b6103c7565b60405161013091906118d2565b61018f61018a366004611943565b610509565b005b6101a461019f3660046119d7565b6108ba565b60405160ff9091168152602001610130565b61018f6101c4366004611821565b610909565b60025461011c906001600160a01b031681565b6101a46101ea366004611a19565b610b5a565b61018f6101fd366004611821565b610b8b565b60015461011c906001600160a01b031681565b610228610223366004611a30565b610d52565b6040516101309190611a58565b61024861024336600461186c565b610e03565b6040516101309a99989796959493929190611a6a565b6102ac61026c36600461186c565b60076020525f9081526040902080546001820154600283015460039093015461ffff8084169462010000850490911693640100000000900460ff16929186565b6040805161ffff978816815296909516602087015260ff909316938501939093526060840152608083019190915260a082015260c001610130565b6102fa6102f5366004611ad3565b610ef4565b6040516101309190611b0d565b600854604051908152602001610130565b61018f610326366004611b53565b610f7f565b61033e610339366004611821565b611432565b6040516101309493929190611b7b565b5f60068360405161035f9190611bae565b908152604080516020928190038301902060ff85165f9081529252902060020154158015906103be57506006836040516103999190611bae565b908152604080516020928190038301902060ff8581165f908152919093522060030154165b90505b92915050565b60ff81165f908152600360208190526040822001546060910361042a5760405162461bcd60e51b815260206004820152601660248201527510db1d5cdd195c88191bd95cc81b9bdd08195e1a5cdd60521b60448201526064015b60405180910390fd5b60ff82165f90815260046020908152604080832080548251818502810185019093528083529193909284015b828210156104fe578382905f5260205f2001805461047390611bc9565b80601f016020809104026020016040519081016040528092919081815260200182805461049f90611bc9565b80156104ea5780601f106104c1576101008083540402835291602001916104ea565b820191905f5260205f20905b8154815290600101906020018083116104cd57829003601f168201915b505050505081526020019060010190610456565b505050509050919050565b60ff87165f9081526003602081905260409091200154156105655760405162461bcd60e51b8152602060048201526016602482015275436c757374657220616c72656164792065786973747360501b6044820152606401610421565b60018560ff1611156105b05760405162461bcd60e51b8152602060048201526014602482015273496e76616c696420636c7573746572207479706560601b6044820152606401610421565b4284116106095760405162461bcd60e51b815260206004820152602160248201527f56616c696420756e74696c206d75737420626520696e207468652066757475726044820152606560f81b6064820152608401610421565b604080516101408101825260ff89811680835260208084018b81528a841685870152426060860152608085018a905288841660a086015261ffff88811660c0870152871660e0860152600161010086018190525f61012087018190529384526003909252949091208351815460ff19169316929092178255925191929091908201906106959082611c4f565b506040820151816002015f6101000a81548160ff021916908360ff160217905550606082015181600301556080820151816004015560a0820151816005015f6101000a81548160ff021916908360ff16021790555060c08201518160050160016101000a81548161ffff021916908361ffff16021790555060e08201518160050160036101000a81548161ffff021916908361ffff1602179055506101008201518160050160056101000a81548160ff02191690831515021790555061012082015181600601559050506040518060c001604052805f61ffff1681526020015f61ffff1681526020015f60ff1681526020015f81526020015f81526020014281525060075f8960ff1660ff1681526020019081526020015f205f820151815f015f6101000a81548161ffff021916908361ffff1602179055506020820151815f0160026101000a81548161ffff021916908361ffff1602179055506040820151815f0160046101000a81548160ff021916908360ff160217905550606082015181600101556080820151816002015560a08201518160030155905050600887908060018154018082558091505060019003905f5260205f2090602091828204019190069091909190916101000a81548160ff021916908360ff1602179055508660ff167f9a0f39be4da5836902c84ac2da638c0cc455fa91911483fc429437ae6a2bf58c87876040516108a9929190611d0b565b60405180910390a250505050505050565b815160208184018101805160058252928201918501919091209190528054829081106108e4575f80fd5b905f5260205f209060209182820401919006915091509054906101000a900460ff1681565b6040805160808101825283815260ff83166020820152428183015260016060820152905160069061093b908590611bae565b908152604080516020928190038301902060ff85165f90815292529020815181906109669082611c4f565b50602082015160018201805460ff90921660ff199283161790556040830151600283015560609092015160039091018054911515919092161790555f805b60ff83165f90815260046020526040902054811015610a2a57838051906020012060045f8560ff1660ff1681526020019081526020015f2082815481106109ed576109ed611d2f565b905f5260205f2001604051610a029190611d43565b604051809103902003610a185760019150610a2a565b80610a2281611dc9565b9150506109a4565b508015610a795760405162461bcd60e51b815260206004820152601f60248201527f4e6f646520616c726561647920696e20636c7573746572206d656d62657273006044820152606401610421565b60ff82165f90815260046020908152604082208054600181018255908352912001610aa48482611c4f565b50600583604051610ab59190611bae565b9081526040805191829003602090810190922080546001810182555f91825283822084820401805460ff808916601f9094166101000a848102910219909116179055815260039092528120600601805491610b0f83611dc9565b91905055508160ff1683604051610b269190611bae565b604051908190038120907f1533ce5351184d4b1858551ab175396fbadb2c344b27692986ff7fb9bc8efd42905f90a3505050565b60088181548110610b69575f80fd5b905f5260205f209060209182820401919006915054906101000a900460ff1681565b600682604051610b9b9190611bae565b908152604080516020928190038301902060ff84165f90815292528120600201549003610c0a5760405162461bcd60e51b815260206004820152601a60248201527f4e6f6465206973206e6f7420696e2074686520636c75737465720000000000006044820152606401610421565b600682604051610c1a9190611bae565b908152604080516020928190038301902060ff8481165f90815291909352206003015416610c945760405162461bcd60e51b815260206004820152602160248201527f4e6f6465206973206e6f742061637469766520696e2074686520636c757374656044820152603960f91b6064820152608401610421565b5f600683604051610ca59190611bae565b908152604080516020928190038301902060ff85165f90815292529020600301805460ff1916911515919091179055610cde8282611501565b610ce881836115f0565b60ff81165f908152600360205260408120600601805491610d0883611de1565b91905055508060ff1682604051610d1f9190611bae565b604051908190038120907f5bc8b958aae48446aab97e040b583d74bb4a8ab36122713f297704a7d6b005c2905f90a35050565b6004602052815f5260405f208181548110610d6b575f80fd5b905f5260205f20015f91509150508054610d8490611bc9565b80601f0160208091040260200160405190810160405280929190818152602001828054610db090611bc9565b8015610dfb5780601f10610dd257610100808354040283529160200191610dfb565b820191905f5260205f20905b815481529060010190602001808311610dde57829003601f168201915b505050505081565b60036020525f90815260409020805460018201805460ff9092169291610e2890611bc9565b80601f0160208091040260200160405190810160405280929190818152602001828054610e5490611bc9565b8015610e9f5780601f10610e7657610100808354040283529160200191610e9f565b820191905f5260205f20905b815481529060010190602001808311610e8257829003601f168201915b5050506002840154600385015460048601546005870154600690970154959660ff938416969295509093508083169261ffff61010083048116936301000000840490911692650100000000009004909116908a565b6060600582604051610f069190611bae565b9081526040805191829003602090810183208054808302850183019093528284529190830182828015610f7357602002820191905f5260205f20905f905b825461010083900a900460ff16815260206001928301818104948501949093039092029101808411610f445790505b50505050509050919050565b60ff82165f908152600360208190526040822001549003610fe25760405162461bcd60e51b815260206004820152601a60248201527f4f6c6420636c757374657220646f6573206e6f742065786973740000000000006044820152606401610421565b60ff81165f9081526003602081905260408220015490036110455760405162461bcd60e51b815260206004820152601a60248201527f4e657720636c757374657220646f6573206e6f742065786973740000000000006044820152606401610421565b60ff8082165f90815260036020526040902060050154650100000000009004166110b15760405162461bcd60e51b815260206004820152601960248201527f4e657720636c7573746572206973206e6f7420616374697665000000000000006044820152606401610421565b60ff81165f9081526003602052604090206004015442106111145760405162461bcd60e51b815260206004820152601760248201527f4e657720636c75737465722068617320657870697265640000000000000000006044820152606401610421565b60ff82165f90815260046020908152604080832080548251818502810185019093528083529192909190849084015b828210156111eb578382905f5260205f2001805461116090611bc9565b80601f016020809104026020016040519081016040528092919081815260200182805461118c90611bc9565b80156111d75780601f106111ae576101008083540402835291602001916111d7565b820191905f5260205f20905b8154815290600101906020018083116111ba57829003601f168201915b505050505081526020019060010190611143565b5050505090505f5b81518110156113e0575f82828151811061120f5761120f611d2f565b602002602001015190506006816040516112299190611bae565b908152604080516020928190038301902060ff87165f90815292529020600201541561125557506113ce565b6040805160808101825282815260ff861660208201524281830152600160608201529051600690611287908490611bae565b908152604080516020928190038301902060ff88165f90815292529020815181906112b29082611c4f565b50602082015160018201805460ff90921660ff199283161790556040808401516002840155606090930151600390920180549215159290911691909117905551600590611300908390611bae565b908152604080519182900360209081019092208054600181810183555f92835284832085830401805460ff808c16601f9095166101000a8581029102199091161790559082526004845291812080549283018155815291909120016113658282611c4f565b5060ff84165f90815260036020526040812060060180549161138683611dc9565b91905055508360ff168160405161139d9190611bae565b604051908190038120907f1533ce5351184d4b1858551ab175396fbadb2c344b27692986ff7fb9bc8efd42905f90a3505b806113d881611dc9565b9150506111f3565b5060ff8084165f81815260036020526040808220600501805465ff00000000001916905551928516927f64604326bbbc09b9323bdcce3ec0197dba2f77a9a33eae5d4572cd3a6a6ab99e9190a3505050565b81516020818401810180516006825292820194820194909420919093529091525f908152604090208054819061146790611bc9565b80601f016020809104026020016040519081016040528092919081815260200182805461149390611bc9565b80156114de5780601f106114b5576101008083540402835291602001916114de565b820191905f5260205f20905b8154815290600101906020018083116114c157829003601f168201915b5050505060018301546002840154600390940154929360ff918216939092501684565b60ff81165f908152600460205260408120905b81548110156115ea57838051906020012082828154811061153757611537611d2f565b905f5260205f200160405161154c9190611d43565b6040518091039020036115d8578154829061156990600190611df6565b8154811061157957611579611d2f565b905f5260205f200182828154811061159357611593611d2f565b905f5260205f200190816115a79190611e09565b50818054806115b8576115b8611ede565b600190038181905f5260205f20015f6115d1919061171d565b90556115ea565b806115e281611dc9565b915050611514565b50505050565b5f6005826040516116019190611bae565b908152602001604051809103902090505f5b81548110156115ea578360ff1682828154811061163257611632611d2f565b5f9182526020918290209181049091015460ff601f9092166101000a9004160361170b578154829061166690600190611df6565b8154811061167657611676611d2f565b905f5260205f2090602091828204019190069054906101000a900460ff168282815481106116a6576116a6611d2f565b905f5260205f2090602091828204019190066101000a81548160ff021916908360ff160217905550818054806116de576116de611ede565b600190038181905f5260205f2090602091828204019190066101000a81549060ff021916905590556115ea565b8061171581611dc9565b915050611613565b50805461172990611bc9565b5f825580601f10611738575050565b601f0160209004905f5260205f20908101906117549190611757565b50565b5b8082111561176b575f8155600101611758565b5090565b634e487b7160e01b5f52604160045260245ffd5b5f82601f830112611792575f80fd5b813567ffffffffffffffff808211156117ad576117ad61176f565b604051601f8301601f19908116603f011681019082821181831017156117d5576117d561176f565b816040528381528660208588010111156117ed575f80fd5b836020870160208301375f602085830101528094505050505092915050565b803560ff8116811461181c575f80fd5b919050565b5f8060408385031215611832575f80fd5b823567ffffffffffffffff811115611848575f80fd5b61185485828601611783565b9250506118636020840161180c565b90509250929050565b5f6020828403121561187c575f80fd5b6103be8261180c565b5f5b8381101561189f578181015183820152602001611887565b50505f910152565b5f81518084526118be816020860160208601611885565b601f01601f19169290920160200192915050565b5f602080830181845280855180835260408601915060408160051b87010192508387015f5b8281101561192557603f198886030184526119138583516118a7565b945092850192908501906001016118f7565b5092979650505050505050565b803561ffff8116811461181c575f80fd5b5f805f805f805f60e0888a031215611959575f80fd5b6119628861180c565b9650602088013567ffffffffffffffff81111561197d575f80fd5b6119898a828b01611783565b9650506119986040890161180c565b9450606088013593506119ad6080890161180c565b92506119bb60a08901611932565b91506119c960c08901611932565b905092959891949750929550565b5f80604083850312156119e8575f80fd5b823567ffffffffffffffff8111156119fe575f80fd5b611a0a85828601611783565b95602094909401359450505050565b5f60208284031215611a29575f80fd5b5035919050565b5f8060408385031215611a41575f80fd5b611a4a8361180c565b946020939093013593505050565b602081525f6103be60208301846118a7565b5f61014060ff8d168352806020840152611a868184018d6118a7565b60ff9b8c166040850152606084019a909a52505060808101969096529390961660a085015261ffff91821660c08501521660e0830152921515610100820152610120019190915292915050565b5f60208284031215611ae3575f80fd5b813567ffffffffffffffff811115611af9575f80fd5b611b0584828501611783565b949350505050565b602080825282518282018190525f9190848201906040850190845b81811015611b4757835160ff1683529284019291840191600101611b28565b50909695505050505050565b5f8060408385031215611b64575f80fd5b611b6d8361180c565b91506118636020840161180c565b608081525f611b8d60808301876118a7565b60ff9590951660208301525060408101929092521515606090910152919050565b5f8251611bbf818460208701611885565b9190910192915050565b600181811c90821680611bdd57607f821691505b602082108103611bfb57634e487b7160e01b5f52602260045260245ffd5b50919050565b601f821115611c4a575f81815260208120601f850160051c81016020861015611c275750805b601f850160051c820191505b81811015611c4657828155600101611c33565b5050505b505050565b815167ffffffffffffffff811115611c6957611c6961176f565b611c7d81611c778454611bc9565b84611c01565b602080601f831160018114611cb0575f8415611c995750858301515b5f19600386901b1c1916600185901b178555611c46565b5f85815260208120601f198616915b82811015611cde57888601518255948401946001909101908401611cbf565b5085821015611cfb57878501515f19600388901b60f8161c191681555b5050505050600190811b01905550565b604081525f611d1d60408301856118a7565b905060ff831660208301529392505050565b634e487b7160e01b5f52603260045260245ffd5b5f808354611d5081611bc9565b60018281168015611d685760018114611d7d57611da9565b60ff1984168752821515830287019450611da9565b875f526020805f205f5b85811015611da05781548a820152908401908201611d87565b50505082870194505b50929695505050505050565b634e487b7160e01b5f52601160045260245ffd5b5f60018201611dda57611dda611db5565b5060010190565b5f81611def57611def611db5565b505f190190565b818103818111156103c1576103c1611db5565b818103611e14575050565b611e1e8254611bc9565b67ffffffffffffffff811115611e3657611e3661176f565b611e4481611c778454611bc9565b5f601f821160018114611e75575f8315611e5e5750848201545b5f19600385901b1c1916600184901b178455611ed7565b5f85815260209020601f198416905f86815260209020845b83811015611ead5782860154825560019586019590910190602001611e8d565b5085831015611eca57818501545f19600388901b60f8161c191681555b50505060018360011b0184555b5050505050565b634e487b7160e01b5f52603160045260245ffdfea264697066735822122012010b720322073580b140cb9db29ba8b1f89249cac966036d4f9ed91d66052f64736f6c63430008140033",
  "immutableReferences": {},
  "source": "// SPDX-License-Identifier: MIT\npragma solidity ^0.8.17;\n\nimport \"./NIDRegistry.sol\";\nimport \"./NIASRegistry.sol\";\nimport \"./ABATLTranslation.sol\";\n\ncontract ClusteringContract {\n    // Cluster structure\n    struct Cluster {\n        uint8 clusterId;              \n        string clusterName;           \n        uint8 clusterType;            \n        uint256 creationTime;         \n        uint256 validUntil;           \n        uint8 securityLevel;          \n        uint16 maxLatency;            \n        uint16 minBandwidth;          \n        bool isActive;                \n        uint256 nodeCount;            \n    }\n    \n    // ClusterMembership record\n    struct ClusterMembership {\n        string nodeId;                \n        uint8 clusterId;              \n        uint256 joinTime;             \n        bool isActive;                \n    }\n    \n    // Metrics structure for cluster\n    struct ClusterMetrics {\n        uint16 avgLatency;            \n        uint16 avgBandwidth;          \n        uint8 avgSecurityLevel;       \n        uint256 successfulTransmissions; \n        uint256 failedTransmissions;  \n        uint256 lastUpdated;          \n    }\n    \n    // Core registries\n    NIDRegistry public nidRegistry;\n    NIASRegistry public niasRegistry;\n    ABATLTranslation public abatlTranslation;\n    \n    // Cluster storage\n    mapping(uint8 => Cluster) public clusters;                    \n    mapping(uint8 => string[]) public clusterMembers;             \n    mapping(string => uint8[]) public nodeClusters;               \n    mapping(string => mapping(uint8 => ClusterMembership)) public memberships; \n    mapping(uint8 => ClusterMetrics) public clusterMetrics;       \n    \n    // All cluster IDs\n    uint8[] public allClusterIds;\n    \n    // Events\n    event ClusterCreated(uint8 indexed clusterId, string clusterName, uint8 clusterType);\n    event ClusterUpdated(uint8 indexed clusterId, uint256 validUntil, bool isActive);\n    event NodeAddedToCluster(string indexed nodeId, uint8 indexed clusterId);\n    event NodeRemovedFromCluster(string indexed nodeId, uint8 indexed clusterId);\n    event ClusterMetricsUpdated(uint8 indexed clusterId, uint16 avgLatency, uint16 avgBandwidth);\n    event ClusterReclustered(uint8 indexed oldClusterId, uint8 indexed newClusterId);\n    \n    constructor(\n        address _nidRegistryAddress,\n        address _niasRegistryAddress,\n        address _abatlTranslationAddress\n    ) {\n        nidRegistry = NIDRegistry(_nidRegistryAddress);\n        niasRegistry = NIASRegistry(_niasRegistryAddress);\n        abatlTranslation = ABATLTranslation(_abatlTranslationAddress);\n    }\n    \n    function createCluster(\n        uint8 _clusterId,\n        string memory _clusterName,\n        uint8 _clusterType,\n        uint256 _validUntil,\n        uint8 _securityLevel,\n        uint16 _maxLatency,\n        uint16 _minBandwidth\n    ) public {\n        // Verify cluster doesn't already exist\n        require(clusters[_clusterId].creationTime == 0, \"Cluster already exists\");\n        require(_clusterType <= 1, \"Invalid cluster type\");\n        require(_validUntil > block.timestamp, \"Valid until must be in the future\");\n        \n        // Create cluster\n        clusters[_clusterId] = Cluster({\n            clusterId: _clusterId,\n            clusterName: _clusterName,\n            clusterType: _clusterType,\n            creationTime: block.timestamp,\n            validUntil: _validUntil,\n            securityLevel: _securityLevel,\n            maxLatency: _maxLatency,\n            minBandwidth: _minBandwidth,\n            isActive: true,\n            nodeCount: 0\n        });\n        \n        // Initialize cluster metrics\n        clusterMetrics[_clusterId] = ClusterMetrics({\n            avgLatency: 0,\n            avgBandwidth: 0,\n            avgSecurityLevel: 0,\n            successfulTransmissions: 0,\n            failedTransmissions: 0,\n            lastUpdated: block.timestamp\n        });\n        \n        // Add to list of all cluster IDs\n        allClusterIds.push(_clusterId);\n        \n        emit ClusterCreated(_clusterId, _clusterName, _clusterType);\n    }\n    \n    function addNodeToCluster(string memory _nodeId, uint8 _clusterId) public {\n      \n        // Add node to cluster membership\n        memberships[_nodeId][_clusterId] = ClusterMembership({\n            nodeId: _nodeId,\n            clusterId: _clusterId,\n            joinTime: block.timestamp,\n            isActive: true\n        });\n        \n        // Verify node is not already in cluster members\n        bool nodeExists = false;\n        for (uint i = 0; i < clusterMembers[_clusterId].length; i++) {\n            if (keccak256(bytes(clusterMembers[_clusterId][i])) == keccak256(bytes(_nodeId))) {\n                nodeExists = true;\n                break;\n            }\n        }\n        require(!nodeExists, \"Node already in cluster members\");\n        \n        // Add to cluster members\n        clusterMembers[_clusterId].push(_nodeId);\n        \n        // Add cluster to node's clusters\n        nodeClusters[_nodeId].push(_clusterId);\n        \n        // Update cluster node count\n        clusters[_clusterId].nodeCount++;\n        \n        emit NodeAddedToCluster(_nodeId, _clusterId);\n    }\n    \n    function removeNodeFromCluster(string memory _nodeId, uint8 _clusterId) public {\n        // Verify node is in the cluster\n        require(memberships[_nodeId][_clusterId].joinTime != 0, \"Node is not in the cluster\");\n        require(memberships[_nodeId][_clusterId].isActive, \"Node is not active in the cluster\");\n        \n        // Update membership\n        memberships[_nodeId][_clusterId].isActive = false;\n        \n        // Remove node from cluster members\n        _removeFromClusterMembers(_nodeId, _clusterId);\n        \n        // Remove cluster from node clusters\n        _removeFromNodeClusters(_clusterId, _nodeId);\n        \n        // Update cluster node count\n        clusters[_clusterId].nodeCount--;\n        \n        emit NodeRemovedFromCluster(_nodeId, _clusterId);\n    }\n    \n    function _removeFromClusterMembers(string memory _nodeId, uint8 _clusterId) internal {\n        string[] storage members = clusterMembers[_clusterId];\n        \n        for (uint i = 0; i < members.length; i++) {\n            if (keccak256(bytes(members[i])) == keccak256(bytes(_nodeId))) {\n                // Swap with the last element and then remove the last element\n                members[i] = members[members.length - 1];\n                members.pop();\n                break;\n            }\n        }\n    }\n    \n    function _removeFromNodeClusters(uint8 _clusterId, string memory _nodeId) internal {\n        uint8[] storage nodeClusterList = nodeClusters[_nodeId];\n        \n        for (uint i = 0; i < nodeClusterList.length; i++) {\n            if (nodeClusterList[i] == _clusterId) {\n                // Swap with the last element and then remove the last element\n                nodeClusterList[i] = nodeClusterList[nodeClusterList.length - 1];\n                nodeClusterList.pop();\n                break;\n            }\n        }\n    }\n    \n    function reclusterNodes(uint8 _oldClusterId, uint8 _newClusterId) public {\n        // Verify both clusters exist\n        require(clusters[_oldClusterId].creationTime != 0, \"Old cluster does not exist\");\n        require(clusters[_newClusterId].creationTime != 0, \"New cluster does not exist\");\n        require(clusters[_newClusterId].isActive, \"New cluster is not active\");\n        require(clusters[_newClusterId].validUntil > block.timestamp, \"New cluster has expired\");\n        \n        // Get nodes from old cluster\n        string[] memory nodesToMove = clusterMembers[_oldClusterId];\n        \n        // Add nodes to new cluster\n        for (uint i = 0; i < nodesToMove.length; i++) {\n            string memory nodeId = nodesToMove[i];\n            \n            // Skip if node is already in the new cluster\n            if (memberships[nodeId][_newClusterId].joinTime != 0) {\n                continue;\n            }\n            \n            // Add node to new cluster\n            memberships[nodeId][_newClusterId] = ClusterMembership({\n                nodeId: nodeId,\n                clusterId: _newClusterId,\n                joinTime: block.timestamp,\n                isActive: true\n            });\n            \n            // Update node clusters\n            nodeClusters[nodeId].push(_newClusterId);\n            \n            // Update cluster members\n            clusterMembers[_newClusterId].push(nodeId);\n            \n            // Increment new cluster node count\n            clusters[_newClusterId].nodeCount++;\n            \n            emit NodeAddedToCluster(nodeId, _newClusterId);\n        }\n        \n        // Update old cluster status\n        clusters[_oldClusterId].isActive = false;\n        \n        emit ClusterReclustered(_oldClusterId, _newClusterId);\n    }\n    \n    function getClusterMembers(uint8 _clusterId) public view returns (string[] memory) {\n        require(clusters[_clusterId].creationTime != 0, \"Cluster does not exist\");\n        return clusterMembers[_clusterId];\n    }\n    \n    function getNodeClusters(string memory _nodeId) public view returns (uint8[] memory) {\n        return nodeClusters[_nodeId];\n    }\n    \n    function isNodeInCluster(string memory _nodeId, uint8 _clusterId) public view returns (bool) {\n        return memberships[_nodeId][_clusterId].joinTime != 0 && \n               memberships[_nodeId][_clusterId].isActive;\n    }\n    \n    function getClusterCount() public view returns (uint256) {\n        return allClusterIds.length;\n    }\n}",
  "sourcePath": "C:\\Users\\Bonsu\\Documents\\Blockchain Multi Industrial Service Center\\Blockchain MultiIndustrial Projects\\BlockchainMultiIndustryRepo\\contracts\\N2N\\ClusteringContract.sol",
  "compiler": {
    "name": "solc",
    "version": "0.8.20+commit.a1b79de6.Emscripten.clang"
  },
  "schemaVersion": "3.4.16",
  "updatedAt": "2025-05-20T13:40:34.713Z",
  "devdoc": {
    "kind": "dev",
    "methods": {},
    "version": 1
  },
  "userdoc": {
    "kind": "user",
    "methods": {},
    "version": 1
  }
}