{
  "contractName": "ClusterManager",
  "abi": [
    {
      "inputs": [],
      "stateMutability": "nonpayable",
      "type": "constructor"
    },
    {
      "anonymous": false,
      "inputs": [
        {
          "indexed": true,
          "internalType": "bytes32",
          "name": "clusterId",
          "type": "bytes32"
        },
        {
          "indexed": false,
          "internalType": "address",
          "name": "leader",
          "type": "address"
        }
      ],
      "name": "ClusterFormed",
      "type": "event"
    },
    {
      "anonymous": false,
      "inputs": [
        {
          "indexed": true,
          "internalType": "address",
          "name": "node",
          "type": "address"
        },
        {
          "indexed": true,
          "internalType": "bytes32",
          "name": "clusterId",
          "type": "bytes32"
        }
      ],
      "name": "NodeAssigned",
      "type": "event"
    },
    {
      "anonymous": false,
      "inputs": [
        {
          "indexed": true,
          "internalType": "bytes32",
          "name": "role",
          "type": "bytes32"
        },
        {
          "indexed": true,
          "internalType": "bytes32",
          "name": "previousAdminRole",
          "type": "bytes32"
        },
        {
          "indexed": true,
          "internalType": "bytes32",
          "name": "newAdminRole",
          "type": "bytes32"
        }
      ],
      "name": "RoleAdminChanged",
      "type": "event"
    },
    {
      "anonymous": false,
      "inputs": [
        {
          "indexed": true,
          "internalType": "bytes32",
          "name": "role",
          "type": "bytes32"
        },
        {
          "indexed": true,
          "internalType": "address",
          "name": "account",
          "type": "address"
        },
        {
          "indexed": true,
          "internalType": "address",
          "name": "sender",
          "type": "address"
        }
      ],
      "name": "RoleGranted",
      "type": "event"
    },
    {
      "anonymous": false,
      "inputs": [
        {
          "indexed": true,
          "internalType": "bytes32",
          "name": "role",
          "type": "bytes32"
        },
        {
          "indexed": true,
          "internalType": "address",
          "name": "account",
          "type": "address"
        },
        {
          "indexed": true,
          "internalType": "address",
          "name": "sender",
          "type": "address"
        }
      ],
      "name": "RoleRevoked",
      "type": "event"
    },
    {
      "anonymous": false,
      "inputs": [
        {
          "indexed": true,
          "internalType": "bytes32",
          "name": "clusterId",
          "type": "bytes32"
        },
        {
          "indexed": false,
          "internalType": "bytes32",
          "name": "sessionKey",
          "type": "bytes32"
        }
      ],
      "name": "SessionKeyGenerated",
      "type": "event"
    },
    {
      "inputs": [],
      "name": "CLUSTER_ADMIN",
      "outputs": [
        {
          "internalType": "bytes32",
          "name": "",
          "type": "bytes32"
        }
      ],
      "stateMutability": "view",
      "type": "function"
    },
    {
      "inputs": [],
      "name": "DEFAULT_ADMIN_ROLE",
      "outputs": [
        {
          "internalType": "bytes32",
          "name": "",
          "type": "bytes32"
        }
      ],
      "stateMutability": "view",
      "type": "function"
    },
    {
      "inputs": [],
      "name": "MAX_CLUSTER_SIZE",
      "outputs": [
        {
          "internalType": "uint256",
          "name": "",
          "type": "uint256"
        }
      ],
      "stateMutability": "view",
      "type": "function"
    },
    {
      "inputs": [],
      "name": "MIN_CLUSTER_SIZE",
      "outputs": [
        {
          "internalType": "uint256",
          "name": "",
          "type": "uint256"
        }
      ],
      "stateMutability": "view",
      "type": "function"
    },
    {
      "inputs": [],
      "name": "VALIDATION_THRESHOLD",
      "outputs": [
        {
          "internalType": "uint256",
          "name": "",
          "type": "uint256"
        }
      ],
      "stateMutability": "view",
      "type": "function"
    },
    {
      "inputs": [
        {
          "internalType": "bytes32",
          "name": "",
          "type": "bytes32"
        },
        {
          "internalType": "address",
          "name": "",
          "type": "address"
        }
      ],
      "name": "clusterMembers",
      "outputs": [
        {
          "internalType": "bool",
          "name": "",
          "type": "bool"
        }
      ],
      "stateMutability": "view",
      "type": "function"
    },
    {
      "inputs": [
        {
          "internalType": "bytes32",
          "name": "",
          "type": "bytes32"
        }
      ],
      "name": "clusters",
      "outputs": [
        {
          "internalType": "bytes32",
          "name": "id",
          "type": "bytes32"
        },
        {
          "internalType": "address",
          "name": "leader",
          "type": "address"
        },
        {
          "internalType": "uint256",
          "name": "formationTime",
          "type": "uint256"
        },
        {
          "internalType": "uint256",
          "name": "nodeCount",
          "type": "uint256"
        },
        {
          "internalType": "uint256",
          "name": "processedTxCount",
          "type": "uint256"
        },
        {
          "internalType": "bytes32",
          "name": "sessionKey",
          "type": "bytes32"
        },
        {
          "internalType": "bool",
          "name": "isActive",
          "type": "bool"
        }
      ],
      "stateMutability": "view",
      "type": "function"
    },
    {
      "inputs": [
        {
          "internalType": "bytes32",
          "name": "role",
          "type": "bytes32"
        }
      ],
      "name": "getRoleAdmin",
      "outputs": [
        {
          "internalType": "bytes32",
          "name": "",
          "type": "bytes32"
        }
      ],
      "stateMutability": "view",
      "type": "function"
    },
    {
      "inputs": [
        {
          "internalType": "bytes32",
          "name": "role",
          "type": "bytes32"
        },
        {
          "internalType": "address",
          "name": "account",
          "type": "address"
        }
      ],
      "name": "grantRole",
      "outputs": [],
      "stateMutability": "nonpayable",
      "type": "function"
    },
    {
      "inputs": [
        {
          "internalType": "bytes32",
          "name": "role",
          "type": "bytes32"
        },
        {
          "internalType": "address",
          "name": "account",
          "type": "address"
        }
      ],
      "name": "hasRole",
      "outputs": [
        {
          "internalType": "bool",
          "name": "",
          "type": "bool"
        }
      ],
      "stateMutability": "view",
      "type": "function"
    },
    {
      "inputs": [
        {
          "internalType": "address",
          "name": "",
          "type": "address"
        }
      ],
      "name": "nodes",
      "outputs": [
        {
          "internalType": "address",
          "name": "nodeAddress",
          "type": "address"
        },
        {
          "internalType": "enum NodeTypes.NodeRole",
          "name": "role",
          "type": "uint8"
        },
        {
          "internalType": "uint256",
          "name": "capacity",
          "type": "uint256"
        },
        {
          "internalType": "uint256",
          "name": "performance",
          "type": "uint256"
        },
        {
          "internalType": "bool",
          "name": "isActive",
          "type": "bool"
        },
        {
          "internalType": "bytes32",
          "name": "clusterId",
          "type": "bytes32"
        }
      ],
      "stateMutability": "view",
      "type": "function"
    },
    {
      "inputs": [
        {
          "internalType": "bytes32",
          "name": "role",
          "type": "bytes32"
        },
        {
          "internalType": "address",
          "name": "account",
          "type": "address"
        }
      ],
      "name": "renounceRole",
      "outputs": [],
      "stateMutability": "nonpayable",
      "type": "function"
    },
    {
      "inputs": [
        {
          "internalType": "bytes32",
          "name": "role",
          "type": "bytes32"
        },
        {
          "internalType": "address",
          "name": "account",
          "type": "address"
        }
      ],
      "name": "revokeRole",
      "outputs": [],
      "stateMutability": "nonpayable",
      "type": "function"
    },
    {
      "inputs": [
        {
          "internalType": "bytes4",
          "name": "interfaceId",
          "type": "bytes4"
        }
      ],
      "name": "supportsInterface",
      "outputs": [
        {
          "internalType": "bool",
          "name": "",
          "type": "bool"
        }
      ],
      "stateMutability": "view",
      "type": "function"
    }
  ],
  "bytecode": "0x608060405234801561000f575f80fd5b5061001a5f3361001f565b6100c9565b610029828261002d565b5050565b5f828152602081815260408083206001600160a01b038516845290915290205460ff16610029575f828152602081815260408083206001600160a01b03851684529091529020805460ff191660011790556100853390565b6001600160a01b0316816001600160a01b0316837f2f8788117e7eff1d82e926ec794901d17c78024a50270940304540a733656f0d60405160405180910390a45050565b61098f806100d65f395ff3fe608060405234801561000f575f80fd5b50600436106100e5575f3560e01c806336568abe116100885780638ec1daee116100635780638ec1daee146102c557806391d14854146102cd578063a217fddf146102e0578063d547741f146102e7575f80fd5b806336568abe1461025e5780634789015c146102715780637f747c541461029e575f80fd5b8063248a9ca3116100c3578063248a9ca31461018a57806329399528146101ac5780632e41e2e8146101b45780632f2ff15d14610249575f80fd5b806301ffc9a7146100e957806314552f2614610111578063189a5a1714610127575b5f80fd5b6100fc6100f7366004610724565b6102fa565b60405190151581526020015b60405180910390f35b610119604681565b604051908152602001610108565b610178610135366004610766565b600160208190525f9182526040909120805491810154600282015460038301546004909301546001600160a01b0385169460ff600160a01b909104811694169086565b6040516101089695949392919061077f565b6101196101983660046107d5565b5f9081526020819052604090206001015490565b610119600a81565b61020a6101c23660046107d5565b600260208190525f9182526040909120805460018201549282015460038301546004840154600585015460069095015493956001600160a01b03169492939192909160ff1687565b604080519788526001600160a01b039096166020880152948601939093526060850191909152608084015260a0830152151560c082015260e001610108565b61025c6102573660046107ec565b610330565b005b61025c61026c3660046107ec565b610359565b6100fc61027f3660046107ec565b600360209081525f928352604080842090915290825290205460ff1681565b6101197f494524d2d1f4acd3eed6a4679ede5f8aa5fa9493ca9319f21d8a90f197e849bc81565b610119600381565b6100fc6102db3660046107ec565b6103dc565b6101195f81565b61025c6102f53660046107ec565b610404565b5f6001600160e01b03198216637965db0b60e01b148061032a57506301ffc9a760e01b6001600160e01b03198316145b92915050565b5f8281526020819052604090206001015461034a81610428565b6103548383610435565b505050565b6001600160a01b03811633146103ce5760405162461bcd60e51b815260206004820152602f60248201527f416363657373436f6e74726f6c3a2063616e206f6e6c792072656e6f756e636560448201526e103937b632b9903337b91039b2b63360891b60648201526084015b60405180910390fd5b6103d882826104b8565b5050565b5f918252602082815260408084206001600160a01b0393909316845291905290205460ff1690565b5f8281526020819052604090206001015461041e81610428565b61035483836104b8565b610432813361051c565b50565b61043f82826103dc565b6103d8575f828152602081815260408083206001600160a01b03851684529091529020805460ff191660011790556104743390565b6001600160a01b0316816001600160a01b0316837f2f8788117e7eff1d82e926ec794901d17c78024a50270940304540a733656f0d60405160405180910390a45050565b6104c282826103dc565b156103d8575f828152602081815260408083206001600160a01b0385168085529252808320805460ff1916905551339285917ff6391f5c32d9c69d2a47ea670b442974b53935d1edc7fd64eb21e047a839171b9190a45050565b61052682826103dc565b6103d85761053381610575565b61053e836020610587565b60405160200161054f929190610838565b60408051601f198184030181529082905262461bcd60e51b82526103c5916004016108ac565b606061032a6001600160a01b03831660145b60605f6105958360026108f2565b6105a0906002610909565b67ffffffffffffffff8111156105b8576105b861091c565b6040519080825280601f01601f1916602001820160405280156105e2576020820181803683370190505b509050600360fc1b815f815181106105fc576105fc610930565b60200101906001600160f81b03191690815f1a905350600f60fb1b8160018151811061062a5761062a610930565b60200101906001600160f81b03191690815f1a9053505f61064c8460026108f2565b610657906001610909565b90505b60018111156106ce576f181899199a1a9b1b9c1cb0b131b232b360811b85600f166010811061068b5761068b610930565b1a60f81b8282815181106106a1576106a1610930565b60200101906001600160f81b03191690815f1a90535060049490941c936106c781610944565b905061065a565b50831561071d5760405162461bcd60e51b815260206004820181905260248201527f537472696e67733a20686578206c656e67746820696e73756666696369656e7460448201526064016103c5565b9392505050565b5f60208284031215610734575f80fd5b81356001600160e01b03198116811461071d575f80fd5b80356001600160a01b0381168114610761575f80fd5b919050565b5f60208284031215610776575f80fd5b61071d8261074b565b6001600160a01b038716815260c08101600387106107ab57634e487b7160e01b5f52602160045260245ffd5b6020820196909652604081019490945260608401929092521515608083015260a090910152919050565b5f602082840312156107e5575f80fd5b5035919050565b5f80604083850312156107fd575f80fd5b8235915061080d6020840161074b565b90509250929050565b5f5b83811015610830578181015183820152602001610818565b50505f910152565b7f416363657373436f6e74726f6c3a206163636f756e742000000000000000000081525f835161086f816017850160208801610816565b7001034b99036b4b9b9b4b733903937b6329607d1b60179184019182015283516108a0816028840160208801610816565b01602801949350505050565b602081525f82518060208401526108ca816040850160208701610816565b601f01601f19169190910160400192915050565b634e487b7160e01b5f52601160045260245ffd5b808202811582820484141761032a5761032a6108de565b8082018082111561032a5761032a6108de565b634e487b7160e01b5f52604160045260245ffd5b634e487b7160e01b5f52603260045260245ffd5b5f81610952576109526108de565b505f19019056fea26469706673582212204dfafe23d17cbd080544b9a436cd041584f2b58f63791b4e624b8faef49f7e0364736f6c63430008140033",
  "immutableReferences": {},
  "source": "// SPDX-License-Identifier: MIT\r\npragma solidity ^0.8.0;\r\n\r\nimport \"@openzeppelin/contracts/security/ReentrancyGuard.sol\";\r\nimport \"@openzeppelin/contracts/access/AccessControl.sol\";\r\n\r\n// NodeTypes library remains unchanged\r\nlibrary NodeTypes {\r\n    enum NodeRole {\r\n        DESIGNATOR,\r\n        VALIDATOR,\r\n        EXECUTOR\r\n    }\r\n\r\n    struct Node {\r\n        address nodeAddress;\r\n        NodeRole role;\r\n        uint256 capacity;\r\n        uint256 performance;\r\n        bool isActive;\r\n        bytes32 clusterId;\r\n    }\r\n\r\n    struct Cluster {\r\n        bytes32 id;\r\n        address leader;\r\n        uint256 formationTime;\r\n        uint256 nodeCount;\r\n        uint256 processedTxCount;\r\n        bytes32 sessionKey;\r\n        bool isActive;\r\n    }\r\n}\r\n\r\ncontract ClusterManager is AccessControl {\r\n    using NodeTypes for NodeTypes.Node;\r\n    using NodeTypes for NodeTypes.Cluster;\r\n\r\n    bytes32 public constant CLUSTER_ADMIN = keccak256(\"CLUSTER_ADMIN\");\r\n    \r\n    mapping(address => NodeTypes.Node) public nodes;\r\n    mapping(bytes32 => NodeTypes.Cluster) public clusters;\r\n    mapping(bytes32 => mapping(address => bool)) public clusterMembers;\r\n    \r\n    uint256 public constant MIN_CLUSTER_SIZE = 3;\r\n    uint256 public constant MAX_CLUSTER_SIZE = 10;\r\n    uint256 public constant VALIDATION_THRESHOLD = 70;\r\n    \r\n    event ClusterFormed(bytes32 indexed clusterId, address leader);\r\n    event NodeAssigned(address indexed node, bytes32 indexed clusterId);\r\n    event SessionKeyGenerated(bytes32 indexed clusterId, bytes32 sessionKey);\r\n    \r\n    constructor() {\r\n        _setupRole(DEFAULT_ADMIN_ROLE, msg.sender);\r\n    }\r\n    \r\n    function generateSessionKey(\r\n        bytes32 clusterId\r\n    ) internal returns (bytes32) {\r\n        NodeTypes.Cluster storage cluster = clusters[clusterId];\r\n        require(cluster.isActive, \"Cluster not active\");\r\n        \r\n        bytes32 randomValue = keccak256(abi.encodePacked(\r\n            block.timestamp,\r\n            block.number,\r\n            blockhash(block.number - 1), // Use blockhash as a source of randomness\r\n            clusterId,\r\n            msg.sender\r\n        ));\r\n        \r\n        cluster.sessionKey = randomValue;\r\n        emit SessionKeyGenerated(clusterId, randomValue);\r\n        \r\n        return randomValue;\r\n    } // Added closing brace here\r\n}\r\n\r\ncontract BeeRoutingAlgorithm is ClusterManager {\r\n    struct Route {\r\n        bytes32[] clusterPath;\r\n        uint256 pathScore;\r\n        bool isOptimal;\r\n    }\r\n    \r\n    mapping(bytes32 => Route) public routes;\r\n    \r\n    // Routing parameters\r\n    uint256 private constant CAPACITY_WEIGHT = 40;\r\n    uint256 private constant PERFORMANCE_WEIGHT = 60;\r\n    uint256 private constant SCORE_THRESHOLD = 75;\r\n    \r\n    function findOptimalRoute(\r\n        bytes32 txId,\r\n        uint256 txSize,\r\n        NodeTypes.NodeRole[] memory requiredRoles\r\n    ) public returns (bytes32[] memory) {\r\n        Route storage route = routes[txId];\r\n        \r\n        bytes32[] memory eligibleClusters = findEligibleClusters(\r\n            txSize,\r\n            requiredRoles\r\n        );\r\n        \r\n        (bytes32[] memory optimalPath, uint256 pathScore) = calculateOptimalPath(\r\n            eligibleClusters,\r\n            txSize\r\n        );\r\n        \r\n        route.clusterPath = optimalPath;\r\n        route.pathScore = pathScore;\r\n        route.isOptimal = true;\r\n        \r\n        return optimalPath;\r\n    }\r\n    \r\n   function findEligibleClusters(\r\n    uint256 txSize,\r\n    NodeTypes.NodeRole[] memory requiredRoles\r\n) internal view returns (bytes32[] memory) {\r\n    uint256 clusterCount = 0;\r\n    bytes32[] memory tempClusters = new bytes32[](10); // Temporary fixed size array\r\n    \r\n    // Iterate through clusters using a counter approach\r\n    for (uint256 i = 0; i < 10; i++) { // Assuming max 10 clusters, adjust as needed\r\n        bytes32 clusterId = bytes32(i); // Convert index to bytes32\r\n        \r\n        if (clusters[clusterId].id == 0) break; // Stop if cluster doesn't exist\r\n        \r\n        NodeTypes.Cluster storage cluster = clusters[clusterId];\r\n        if (!cluster.isActive) continue;\r\n        \r\n        // Check if cluster has required roles\r\n        bool hasAllRoles = true;\r\n        for (uint j = 0; j < requiredRoles.length; j++) {\r\n            bool roleFound = false;\r\n            \r\n            // Iterate through possible node addresses \r\n            // (you'll need to track these separately)\r\n            address[] memory clusterNodeAddresses = getClusterNodeAddresses(clusterId);\r\n            \r\n            for (uint k = 0; k < clusterNodeAddresses.length; k++) {\r\n                NodeTypes.Node storage node = nodes[clusterNodeAddresses[k]];\r\n                if (node.role == requiredRoles[j] && node.isActive) {\r\n                    roleFound = true;\r\n                    break;\r\n                }\r\n            }\r\n            \r\n            if (!roleFound) {\r\n                hasAllRoles = false;\r\n                break;\r\n            }\r\n        }\r\n        \r\n        // Check capacity\r\n        if (hasAllRoles && cluster.nodeCount >= txSize) {\r\n            tempClusters[clusterCount] = clusterId;\r\n            clusterCount++;\r\n        }\r\n    }\r\n    \r\n    // Create correctly sized array\r\n    bytes32[] memory eligibleClusters = new bytes32[](clusterCount);\r\n    for (uint256 k = 0; k < clusterCount; k++) {\r\n        eligibleClusters[k] = tempClusters[k];\r\n    }\r\n    \r\n    return eligibleClusters;\r\n}\r\n\r\n// Helper function to get node addresses for a cluster\r\nfunction getClusterNodeAddresses(bytes32 clusterId) internal view returns (address[] memory) {\r\n    uint256 nodeCount = 0;\r\n    address[] memory tempAddresses = new address[](10); // Assuming max 10 nodes per cluster\r\n    \r\n    for (address nodeAddr = address(0); nodeAddr < address(type(uint160).max); nodeAddr = address(uint160(nodeAddr) + 1)) {\r\n        if (clusterMembers[clusterId][nodeAddr]) {\r\n            tempAddresses[nodeCount] = nodeAddr;\r\n            nodeCount++;\r\n            \r\n            if (nodeCount >= 10) break; // Prevent potential infinite loop\r\n        }\r\n    }\r\n    \r\n    // Create correctly sized array\r\n    address[] memory clusterNodeAddresses = new address[](nodeCount);\r\n    for (uint256 i = 0; i < nodeCount; i++) {\r\n        clusterNodeAddresses[i] = tempAddresses[i];\r\n    }\r\n    \r\n    return clusterNodeAddresses;\r\n}\r\n    \r\nfunction calculateOptimalPath(\r\n    bytes32[] memory eligibleClusters,\r\n    uint256 /* txSize */\r\n) internal view returns (bytes32[] memory, uint256) {\r\n    if (eligibleClusters.length == 0) {\r\n        return (new bytes32[](0), 0);\r\n    }\r\n    \r\n    bytes32[] memory optimalPath = new bytes32[](1);\r\n    uint256 highestScore = 0;\r\n    \r\n    for (uint256 i = 0; i < eligibleClusters.length; i++) {\r\n        NodeTypes.Cluster storage cluster = clusters[eligibleClusters[i]];\r\n        \r\n        // Calculate weighted score based on node count and processed transactions\r\n        uint256 nodeCountScore = (cluster.nodeCount * CAPACITY_WEIGHT) / 100;\r\n        uint256 performanceScore = (cluster.processedTxCount * PERFORMANCE_WEIGHT) / 100;\r\n        uint256 totalScore = nodeCountScore + performanceScore;\r\n        \r\n        if (totalScore > highestScore) {\r\n            highestScore = totalScore;\r\n            optimalPath[0] = eligibleClusters[i];\r\n        }\r\n    }\r\n    \r\n    return (optimalPath, highestScore);\r\n}\r\n}\r\n/**\r\n * @title PasschainValidator\r\n * @dev Manages PoA validation process for transactions\r\n */\r\ncontract PasschainValidator is BeeRoutingAlgorithm, ReentrancyGuard {\r\n    struct ValidationProcess {\r\n        bytes32 txId;\r\n        bytes32 clusterId;\r\n        uint256 validationsRequired;\r\n        uint256 validationsReceived;\r\n        uint256 validationsPositive;\r\n        bool isComplete;\r\n        mapping(address => bool) hasValidated;\r\n    }\r\n    \r\n    mapping(bytes32 => ValidationProcess) public validationProcesses;\r\n    \r\n    event ValidationStarted(bytes32 indexed txId, bytes32 indexed clusterId);\r\n    event ValidationSubmitted(bytes32 indexed txId, address validator, bool result);\r\n    event ValidationComplete(bytes32 indexed txId, bool isValid);\r\n    \r\n    function initiateValidation(\r\n        bytes32 txId,\r\n        bytes memory txData\r\n    ) external nonReentrant {\r\n        require(!validationProcesses[txId].isComplete, \"Already validated\");\r\n        \r\n        // Find optimal cluster route\r\n        NodeTypes.NodeRole[] memory roles = new NodeTypes.NodeRole[](3);\r\n        roles[0] = NodeTypes.NodeRole.DESIGNATOR;\r\n        roles[1] = NodeTypes.NodeRole.VALIDATOR;\r\n        roles[2] = NodeTypes.NodeRole.EXECUTOR;\r\n        \r\n        bytes32[] memory routePath = this.findOptimalRoute(\r\n            txId,\r\n            txData.length,\r\n            roles\r\n        );\r\n        require(routePath.length > 0, \"No valid route found\");\r\n        \r\n        // Setup validation process\r\n        ValidationProcess storage process = validationProcesses[txId];\r\n        process.txId = txId;\r\n        process.clusterId = routePath[0];\r\n        process.validationsRequired = calculateRequiredValidations(routePath[0]);\r\n        \r\n        emit ValidationStarted(txId, routePath[0]);\r\n    }\r\n    \r\n    function submitValidation(\r\n        bytes32 txId,\r\n        bool isValid\r\n    ) external nonReentrant {\r\n        ValidationProcess storage process = validationProcesses[txId];\r\n        require(!process.isComplete, \"Validation complete\");\r\n        require(!process.hasValidated[msg.sender], \"Already validated\");\r\n        require(\r\n            clusterMembers[process.clusterId][msg.sender],\r\n            \"Not cluster member\"\r\n        );\r\n        \r\n        process.hasValidated[msg.sender] = true;\r\n        process.validationsReceived++;\r\n        if (isValid) {\r\n            process.validationsPositive++;\r\n        }\r\n        \r\n        emit ValidationSubmitted(txId, msg.sender, isValid);\r\n        \r\n        // Check if validation is complete\r\n        if (process.validationsReceived >= process.validationsRequired) {\r\n            bool validationResult = (\r\n                process.validationsPositive * 100 / process.validationsReceived\r\n            ) >= VALIDATION_THRESHOLD;\r\n            \r\n            process.isComplete = true;\r\n            emit ValidationComplete(txId, validationResult);\r\n        }\r\n    }\r\n    \r\n    function calculateRequiredValidations(\r\n        bytes32 clusterId\r\n    ) internal view returns (uint256) {\r\n        NodeTypes.Cluster storage cluster = clusters[clusterId];\r\n        return (cluster.nodeCount * 2) / 3; // Require 2/3 majority\r\n    }\r\n}\r\n\r\n/**\r\n * @title ClusterCommunication\r\n * @dev Handles secure communication within and between clusters\r\n */\r\ncontract ClusterCommunication is PasschainValidator {\r\n    struct SecureMessage {\r\n        bytes32 messageId;\r\n        bytes encryptedContent;\r\n        bytes mac;\r\n        address sender;\r\n        address recipient;\r\n        uint256 timestamp;\r\n    }\r\n    \r\n    mapping(bytes32 => SecureMessage) public messages;\r\n    \r\n    event MessageSent(bytes32 indexed messageId, address indexed recipient);\r\n    \r\n    function sendClusterMessage(\r\n        bytes32 clusterId,\r\n        address recipient,\r\n        bytes memory content\r\n    ) external nonReentrant {\r\n        require(\r\n            clusterMembers[clusterId][msg.sender],\r\n            \"Not in cluster\"\r\n        );\r\n        \r\n        bytes32 messageId = keccak256(abi.encodePacked(\r\n            clusterId,\r\n            msg.sender,\r\n            recipient,\r\n            block.timestamp\r\n        ));\r\n        \r\n        // AES-GCM encryption would be implemented here\r\n        bytes memory encrypted = content; // Placeholder\r\n        \r\n        // HMAC generation\r\n        bytes memory mac = abi.encodePacked(\r\n            keccak256(abi.encodePacked(content, clusters[clusterId].sessionKey))\r\n        );\r\n        \r\n        messages[messageId] = SecureMessage({\r\n            messageId: messageId,\r\n            encryptedContent: encrypted,\r\n            mac: mac,\r\n            sender: msg.sender,\r\n            recipient: recipient,\r\n            timestamp: block.timestamp\r\n        });\r\n        \r\n        emit MessageSent(messageId, recipient);\r\n    }\r\n}",
  "sourcePath": "C:\\Users\\Bonsu\\Documents\\Blockchain Multi Industrial Service Center\\Blockchain MultiIndustrial Projects\\BlockchainMultiIndustryRepo\\contracts\\passchain\\ClusterManager.sol",
  "compiler": {
    "name": "solc",
    "version": "0.8.20+commit.a1b79de6.Emscripten.clang"
  },
  "schemaVersion": "3.4.16",
  "updatedAt": "2025-05-20T13:40:34.841Z",
  "devdoc": {
    "events": {
      "RoleAdminChanged(bytes32,bytes32,bytes32)": {
        "details": "Emitted when `newAdminRole` is set as ``role``'s admin role, replacing `previousAdminRole` `DEFAULT_ADMIN_ROLE` is the starting admin for all roles, despite {RoleAdminChanged} not being emitted signaling this. _Available since v3.1._"
      },
      "RoleGranted(bytes32,address,address)": {
        "details": "Emitted when `account` is granted `role`. `sender` is the account that originated the contract call, an admin role bearer except when using {AccessControl-_setupRole}."
      },
      "RoleRevoked(bytes32,address,address)": {
        "details": "Emitted when `account` is revoked `role`. `sender` is the account that originated the contract call:   - if using `revokeRole`, it is the admin role bearer   - if using `renounceRole`, it is the role bearer (i.e. `account`)"
      }
    },
    "kind": "dev",
    "methods": {
      "getRoleAdmin(bytes32)": {
        "details": "Returns the admin role that controls `role`. See {grantRole} and {revokeRole}. To change a role's admin, use {_setRoleAdmin}."
      },
      "grantRole(bytes32,address)": {
        "details": "Grants `role` to `account`. If `account` had not been already granted `role`, emits a {RoleGranted} event. Requirements: - the caller must have ``role``'s admin role. May emit a {RoleGranted} event."
      },
      "hasRole(bytes32,address)": {
        "details": "Returns `true` if `account` has been granted `role`."
      },
      "renounceRole(bytes32,address)": {
        "details": "Revokes `role` from the calling account. Roles are often managed via {grantRole} and {revokeRole}: this function's purpose is to provide a mechanism for accounts to lose their privileges if they are compromised (such as when a trusted device is misplaced). If the calling account had been revoked `role`, emits a {RoleRevoked} event. Requirements: - the caller must be `account`. May emit a {RoleRevoked} event."
      },
      "revokeRole(bytes32,address)": {
        "details": "Revokes `role` from `account`. If `account` had been granted `role`, emits a {RoleRevoked} event. Requirements: - the caller must have ``role``'s admin role. May emit a {RoleRevoked} event."
      },
      "supportsInterface(bytes4)": {
        "details": "See {IERC165-supportsInterface}."
      }
    },
    "version": 1
  },
  "userdoc": {
    "kind": "user",
    "methods": {},
    "version": 1
  }
}