{
  "contractName": "FixedPointMath",
  "abi": [
    {
      "inputs": [],
      "name": "E",
      "outputs": [
        {
          "internalType": "uint256",
          "name": "",
          "type": "uint256"
        }
      ],
      "stateMutability": "view",
      "type": "function"
    },
    {
      "inputs": [],
      "name": "PRECISION",
      "outputs": [
        {
          "internalType": "uint256",
          "name": "",
          "type": "uint256"
        }
      ],
      "stateMutability": "view",
      "type": "function"
    }
  ],
  "bytecode": "0x60a4610033600b8282823980515f1a607314602757634e487b7160e01b5f525f60045260245ffd5b305f52607381538281f3fe7300000000000000000000000000000000000000003014608060405260043610603c575f3560e01c806392bbf6e8146040578063aaf5eb68146060575b5f80fd5b604e6725b946ebc0b3617381565b60405190815260200160405180910390f35b604e670de0b6b3a76400008156fea26469706673582212203f9b95b6520c51a107664366adee871cbfe7fd1f1ad1ba43b7b816a93b0a9a5564736f6c63430008140033",
  "immutableReferences": {},
  "source": "// SPDX-License-Identifier: MIT\r\n pragma solidity ^0.8.0;\r\n/**\r\n * @title FixedPointMath\r\n * @dev Library for fixed-point arithmetic operations\r\n */\r\n\r\nlibrary FixedPointMath {\r\n    uint256 public constant PRECISION = 1e18;\r\n    uint256 public constant E = 2718281828459045235; // e * 1e18\r\n\r\n    function multiplyFixedPoint(uint256 a, uint256 b) internal pure returns (uint256) {\r\n        return (a * b) / PRECISION;\r\n    }\r\n\r\n    function addFixedPoint(uint256 a, uint256 b) internal pure returns (uint256) {\r\n        return a + b;\r\n    }\r\n\r\n    function exponentialDecay(uint256 x) internal pure returns (uint256) {\r\n        // Taylor series approximation of e^(-x)\r\n        // e^(-x) ≈ 1 - x + x²/2! - x³/3! + x⁴/4! - x⁵/5!\r\n        uint256 result = PRECISION; // 1\r\n        uint256 term = PRECISION;   // First term\r\n        \r\n        for (uint256 i = 1; i <= 5; i++) {\r\n            term = multiplyFixedPoint(term, x) / i;\r\n            if (i % 2 == 1) {\r\n                result = result > term ? result - term : 0;\r\n            } else {\r\n                result = addFixedPoint(result, term);\r\n            }\r\n        }\r\n        \r\n        return result;\r\n    }\r\n   function exponentialGrowth(uint256 x) internal pure returns (uint256) {\r\n        // Taylor series approximation of e^x\r\n        uint256 result = PRECISION;\r\n        uint256 term = PRECISION;\r\n        \r\n        for (uint256 i = 1; i <= 5; i++) {\r\n            term = multiplyFixedPoint(term, x) / i;\r\n            result = addFixedPoint(result, term);\r\n        }\r\n        \r\n        return result;\r\n    }\r\n}",
  "sourcePath": "C:\\Users\\Bonsu\\Documents\\Blockchain Multi Industrial Service Center\\Blockchain MultiIndustrial Projects\\BlockchainMultiIndustryRepo\\library\\FixedPointMath.sol",
  "compiler": {
    "name": "solc",
    "version": "0.8.20+commit.a1b79de6.Emscripten.clang"
  },
  "schemaVersion": "3.4.16",
  "updatedAt": "2025-05-20T13:40:34.956Z",
  "devdoc": {
    "details": "Library for fixed-point arithmetic operations",
    "kind": "dev",
    "methods": {},
    "title": "FixedPointMath",
    "version": 1
  },
  "userdoc": {
    "kind": "user",
    "methods": {},
    "version": 1
  }
}