{
  "contractName": "NIASRegistry",
  "abi": [
    {
      "anonymous": false,
      "inputs": [
        {
          "indexed": true,
          "internalType": "string",
          "name": "primaryId",
          "type": "string"
        },
        {
          "indexed": false,
          "internalType": "uint8",
          "name": "oldClusterID",
          "type": "uint8"
        },
        {
          "indexed": false,
          "internalType": "uint8",
          "name": "newClusterID",
          "type": "uint8"
        }
      ],
      "name": "NIASClusterChanged",
      "type": "event"
    },
    {
      "anonymous": false,
      "inputs": [
        {
          "indexed": true,
          "internalType": "string",
          "name": "primaryId",
          "type": "string"
        },
        {
          "indexed": false,
          "internalType": "uint16",
          "name": "loadBalancingFactor",
          "type": "uint16"
        }
      ],
      "name": "NIASLoadBalancingFactorChanged",
      "type": "event"
    },
    {
      "anonymous": false,
      "inputs": [
        {
          "indexed": true,
          "internalType": "string",
          "name": "primaryId",
          "type": "string"
        },
        {
          "indexed": false,
          "internalType": "uint8",
          "name": "clusterID",
          "type": "uint8"
        },
        {
          "indexed": false,
          "internalType": "string",
          "name": "niasType",
          "type": "string"
        }
      ],
      "name": "NIASRegistered",
      "type": "event"
    },
    {
      "anonymous": false,
      "inputs": [
        {
          "indexed": true,
          "internalType": "string",
          "name": "primaryId",
          "type": "string"
        },
        {
          "indexed": false,
          "internalType": "uint16",
          "name": "routingWeight",
          "type": "uint16"
        }
      ],
      "name": "NIASRoutingWeightChanged",
      "type": "event"
    },
    {
      "anonymous": false,
      "inputs": [
        {
          "indexed": true,
          "internalType": "string",
          "name": "primaryId",
          "type": "string"
        },
        {
          "indexed": false,
          "internalType": "uint8",
          "name": "securityLevel",
          "type": "uint8"
        }
      ],
      "name": "NIASSecurityLevelChanged",
      "type": "event"
    },
    {
      "anonymous": false,
      "inputs": [
        {
          "indexed": true,
          "internalType": "string",
          "name": "primaryId",
          "type": "string"
        },
        {
          "indexed": false,
          "internalType": "bool",
          "name": "isActive",
          "type": "bool"
        }
      ],
      "name": "NIASStatusChanged",
      "type": "event"
    },
    {
      "anonymous": false,
      "inputs": [
        {
          "indexed": true,
          "internalType": "string",
          "name": "primaryId",
          "type": "string"
        },
        {
          "indexed": false,
          "internalType": "string",
          "name": "secondaryId",
          "type": "string"
        }
      ],
      "name": "NIASUpdated",
      "type": "event"
    },
    {
      "inputs": [
        {
          "internalType": "uint256",
          "name": "",
          "type": "uint256"
        }
      ],
      "name": "allNIASIds",
      "outputs": [
        {
          "internalType": "string",
          "name": "",
          "type": "string"
        }
      ],
      "stateMutability": "view",
      "type": "function"
    },
    {
      "inputs": [
        {
          "internalType": "string",
          "name": "",
          "type": "string"
        }
      ],
      "name": "autonomousSystems",
      "outputs": [
        {
          "internalType": "string",
          "name": "primaryId",
          "type": "string"
        },
        {
          "internalType": "string",
          "name": "secondaryId",
          "type": "string"
        },
        {
          "internalType": "uint256",
          "name": "registrationTime",
          "type": "uint256"
        },
        {
          "internalType": "bool",
          "name": "isActive",
          "type": "bool"
        },
        {
          "internalType": "uint8",
          "name": "securityLevel",
          "type": "uint8"
        },
        {
          "internalType": "uint16",
          "name": "routingWeight",
          "type": "uint16"
        },
        {
          "internalType": "uint16",
          "name": "loadBalancingFactor",
          "type": "uint16"
        },
        {
          "internalType": "uint8",
          "name": "clusterID",
          "type": "uint8"
        },
        {
          "internalType": "string",
          "name": "niasType",
          "type": "string"
        }
      ],
      "stateMutability": "view",
      "type": "function"
    },
    {
      "inputs": [
        {
          "internalType": "uint8",
          "name": "",
          "type": "uint8"
        },
        {
          "internalType": "uint256",
          "name": "",
          "type": "uint256"
        }
      ],
      "name": "clusterNIAS",
      "outputs": [
        {
          "internalType": "string",
          "name": "",
          "type": "string"
        }
      ],
      "stateMutability": "view",
      "type": "function"
    },
    {
      "inputs": [
        {
          "internalType": "string",
          "name": "_primaryId",
          "type": "string"
        },
        {
          "internalType": "string",
          "name": "_secondaryId",
          "type": "string"
        },
        {
          "internalType": "uint8",
          "name": "_securityLevel",
          "type": "uint8"
        },
        {
          "internalType": "uint16",
          "name": "_routingWeight",
          "type": "uint16"
        },
        {
          "internalType": "uint16",
          "name": "_loadBalancingFactor",
          "type": "uint16"
        },
        {
          "internalType": "uint8",
          "name": "_clusterID",
          "type": "uint8"
        },
        {
          "internalType": "string",
          "name": "_niasType",
          "type": "string"
        }
      ],
      "name": "registerNIAS",
      "outputs": [],
      "stateMutability": "nonpayable",
      "type": "function"
    },
    {
      "inputs": [
        {
          "internalType": "string",
          "name": "_primaryId",
          "type": "string"
        },
        {
          "internalType": "string",
          "name": "_newSecondaryId",
          "type": "string"
        }
      ],
      "name": "updateSecondaryId",
      "outputs": [],
      "stateMutability": "nonpayable",
      "type": "function"
    },
    {
      "inputs": [
        {
          "internalType": "string",
          "name": "_primaryId",
          "type": "string"
        },
        {
          "internalType": "bool",
          "name": "_isActive",
          "type": "bool"
        }
      ],
      "name": "setNIASStatus",
      "outputs": [],
      "stateMutability": "nonpayable",
      "type": "function"
    },
    {
      "inputs": [
        {
          "internalType": "string",
          "name": "_primaryId",
          "type": "string"
        },
        {
          "internalType": "uint8",
          "name": "_securityLevel",
          "type": "uint8"
        }
      ],
      "name": "setSecurityLevel",
      "outputs": [],
      "stateMutability": "nonpayable",
      "type": "function"
    },
    {
      "inputs": [
        {
          "internalType": "string",
          "name": "_primaryId",
          "type": "string"
        },
        {
          "internalType": "uint16",
          "name": "_routingWeight",
          "type": "uint16"
        }
      ],
      "name": "setRoutingWeight",
      "outputs": [],
      "stateMutability": "nonpayable",
      "type": "function"
    },
    {
      "inputs": [
        {
          "internalType": "string",
          "name": "_primaryId",
          "type": "string"
        },
        {
          "internalType": "uint16",
          "name": "_loadBalancingFactor",
          "type": "uint16"
        }
      ],
      "name": "setLoadBalancingFactor",
      "outputs": [],
      "stateMutability": "nonpayable",
      "type": "function"
    }
  ],
  "bytecode": "0x608060405234801561000f575f80fd5b506110ad8061001d5f395ff3fe608060405234801561000f575f80fd5b5060043610610090575f3560e01c80638d153d48116100635780638d153d48146100f85780639fdfd9831461010b578063aa5487541461011e578063cda6aadc14610131578063f3883be114610159575f80fd5b80630439f657146100945780634edd95f2146100bd57806365b20691146100d257806374a59c0d146100e5575b5f80fd5b6100a76100a2366004610ac4565b61016c565b6040516100b49190610b39565b60405180910390f35b6100d06100cb366004610bef565b61021d565b005b6100d06100e0366004610c60565b6102ee565b6100a76100f3366004610cab565b6103bb565b6100d0610106366004610c60565b6103e2565b6100d0610119366004610cc2565b6104af565b6100d061012c366004610d85565b610723565b61014461013f366004610dd8565b6107e4565b6040516100b499989796959493929190610e12565b6100d0610167366004610e90565b6109e5565b6002602052815f5260405f208181548110610185575f80fd5b905f5260205f20015f9150915050805461019e90610ed2565b80601f01602080910402602001604051908101604052809291908181526020018280546101ca90610ed2565b80156102155780601f106101ec57610100808354040283529160200191610215565b820191905f5260205f20905b8154815290600101906020018083116101f857829003601f168201915b505050505081565b5f808360405161022d9190610f0a565b908152604051908190036020019020805461024790610ed2565b90501161026f5760405162461bcd60e51b815260040161026690610f25565b60405180910390fd5b805f8360405161027f9190610f0a565b9081526020016040518091039020600101908161029c9190610fa0565b50816040516102ab9190610f0a565b60405180910390207f723f0b498b59d084a8c90dc02be93df6fed86d704a3de30e3e7c10a0c44d519a826040516102e29190610b39565b60405180910390a25050565b5f80836040516102fe9190610f0a565b908152604051908190036020019020805461031890610ed2565b9050116103375760405162461bcd60e51b815260040161026690610f25565b805f836040516103479190610f0a565b908152602001604051809103902060030160026101000a81548161ffff021916908361ffff160217905550816040516103809190610f0a565b60405190819003812061ffff83168252907f581a873c5c9e36657f9397c5813e4837d29ad65013839c5978a4fc29b1f26862906020016102e2565b600181815481106103ca575f80fd5b905f5260205f20015f91509050805461019e90610ed2565b5f80836040516103f29190610f0a565b908152604051908190036020019020805461040c90610ed2565b90501161042b5760405162461bcd60e51b815260040161026690610f25565b805f8360405161043b9190610f0a565b908152602001604051809103902060030160046101000a81548161ffff021916908361ffff160217905550816040516104749190610f0a565b60405190819003812061ffff83168252907f85450a431c6371b61aa79b016432d8fcc9a3e7a2b1a5e8abba43fd0b1dc1827b906020016102e2565b5f876040516104be9190610f0a565b90815260405190819003602001902080546104d890610ed2565b1590506105275760405162461bcd60e51b815260206004820152601760248201527f4e49415320616c726561647920726567697374657265640000000000000000006044820152606401610266565b6040518061012001604052808881526020018781526020014281526020016001151581526020018660ff1681526020018561ffff1681526020018461ffff1681526020018360ff168152602001828152505f886040516105879190610f0a565b908152604051908190036020019020815181906105a49082610fa0565b50602082015160018201906105b99082610fa0565b50604082015160028201556060820151600382018054608085015160a086015160c087015160e088015161ffff1990941695151561ff0019169590951761010060ff93841681029190911765ffffffff000019166201000061ffff9384160265ffff0000000019161764010000000092909616919091029490941766ff00000000000019166601000000000000919092160217905582015160048201906106609082610fa0565b50506001805480820182555f919091527fb10e2d527612073b26eecdfd717e6a320cf44b4afac2b0732d9fcbe2b7fa0cf601905061069e8882610fa0565b5060ff82165f908152600260209081526040822080546001810182559083529120016106ca8882610fa0565b50866040516106d99190610f0a565b60405180910390207fe229f811ddf39aa32738d1b68e911976653fd31156a1a8f876d5eff1120d1075838360405161071292919061105c565b60405180910390a250505050505050565b5f80836040516107339190610f0a565b908152604051908190036020019020805461074d90610ed2565b90501161076c5760405162461bcd60e51b815260040161026690610f25565b805f8360405161077c9190610f0a565b908152604051908190036020018120600301805492151560ff19909316929092179091556107ab908390610f0a565b6040519081900381208215158252907f64eb7f164fc485a03daab7f31abd4c2a7b65e0d5955824eb45d3e6a9a8b273cc906020016102e2565b80516020818301810180515f8252928201919093012091528054819061080990610ed2565b80601f016020809104026020016040519081016040528092919081815260200182805461083590610ed2565b80156108805780601f1061085757610100808354040283529160200191610880565b820191905f5260205f20905b81548152906001019060200180831161086357829003601f168201915b50505050509080600101805461089590610ed2565b80601f01602080910402602001604051908101604052809291908181526020018280546108c190610ed2565b801561090c5780601f106108e35761010080835404028352916020019161090c565b820191905f5260205f20905b8154815290600101906020018083116108ef57829003601f168201915b505050600284015460038501546004860180549596929560ff808416965061010084048116955061ffff6201000085048116956401000000008604909116946601000000000000900490911692909161096490610ed2565b80601f016020809104026020016040519081016040528092919081815260200182805461099090610ed2565b80156109db5780601f106109b2576101008083540402835291602001916109db565b820191905f5260205f20905b8154815290600101906020018083116109be57829003601f168201915b5050505050905089565b5f80836040516109f59190610f0a565b9081526040519081900360200190208054610a0f90610ed2565b905011610a2e5760405162461bcd60e51b815260040161026690610f25565b805f83604051610a3e9190610f0a565b908152602001604051809103902060030160016101000a81548160ff021916908360ff16021790555081604051610a759190610f0a565b60405190819003812060ff83168252907fff012771075783e6fa5842d30ff7b7b5db07dfd215f9ac7914e9507905888bfe906020016102e2565b803560ff81168114610abf575f80fd5b919050565b5f8060408385031215610ad5575f80fd5b610ade83610aaf565b946020939093013593505050565b5f5b83811015610b06578181015183820152602001610aee565b50505f910152565b5f8151808452610b25816020860160208601610aec565b601f01601f19169290920160200192915050565b602081525f610b4b6020830184610b0e565b9392505050565b634e487b7160e01b5f52604160045260245ffd5b5f82601f830112610b75575f80fd5b813567ffffffffffffffff80821115610b9057610b90610b52565b604051601f8301601f19908116603f01168101908282118183101715610bb857610bb8610b52565b81604052838152866020858801011115610bd0575f80fd5b836020870160208301375f602085830101528094505050505092915050565b5f8060408385031215610c00575f80fd5b823567ffffffffffffffff80821115610c17575f80fd5b610c2386838701610b66565b93506020850135915080821115610c38575f80fd5b50610c4585828601610b66565b9150509250929050565b803561ffff81168114610abf575f80fd5b5f8060408385031215610c71575f80fd5b823567ffffffffffffffff811115610c87575f80fd5b610c9385828601610b66565b925050610ca260208401610c4f565b90509250929050565b5f60208284031215610cbb575f80fd5b5035919050565b5f805f805f805f60e0888a031215610cd8575f80fd5b873567ffffffffffffffff80821115610cef575f80fd5b610cfb8b838c01610b66565b985060208a0135915080821115610d10575f80fd5b610d1c8b838c01610b66565b9750610d2a60408b01610aaf565b9650610d3860608b01610c4f565b9550610d4660808b01610c4f565b9450610d5460a08b01610aaf565b935060c08a0135915080821115610d69575f80fd5b50610d768a828b01610b66565b91505092959891949750929550565b5f8060408385031215610d96575f80fd5b823567ffffffffffffffff811115610dac575f80fd5b610db885828601610b66565b92505060208301358015158114610dcd575f80fd5b809150509250929050565b5f60208284031215610de8575f80fd5b813567ffffffffffffffff811115610dfe575f80fd5b610e0a84828501610b66565b949350505050565b5f610120808352610e258184018d610b0e565b90508281036020840152610e39818c610b0e565b604084018b9052891515606085015260ff898116608086015261ffff89811660a0870152881660c0860152861660e08501528381036101008501529050610e808185610b0e565b9c9b505050505050505050505050565b5f8060408385031215610ea1575f80fd5b823567ffffffffffffffff811115610eb7575f80fd5b610ec385828601610b66565b925050610ca260208401610aaf565b600181811c90821680610ee657607f821691505b602082108103610f0457634e487b7160e01b5f52602260045260245ffd5b50919050565b5f8251610f1b818460208701610aec565b9190910192915050565b60208082526013908201527213925054c81b9bdd081c9959da5cdd195c9959606a1b604082015260600190565b601f821115610f9b575f81815260208120601f850160051c81016020861015610f785750805b601f850160051c820191505b81811015610f9757828155600101610f84565b5050505b505050565b815167ffffffffffffffff811115610fba57610fba610b52565b610fce81610fc88454610ed2565b84610f52565b602080601f831160018114611001575f8415610fea5750858301515b5f19600386901b1c1916600185901b178555610f97565b5f85815260208120601f198616915b8281101561102f57888601518255948401946001909101908401611010565b508582101561104c57878501515f19600388901b60f8161c191681555b5050505050600190811b01905550565b60ff83168152604060208201525f610e0a6040830184610b0e56fea2646970667358221220dfae013784cb793fb0a545f0e0f397f220e9157399a3b9832377e476056e648c64736f6c63430008140033",
  "immutableReferences": {},
  "source": "// SPDX-License-Identifier: MIT\npragma solidity ^0.8.17;\n\n/**\n * @title NIASRegistry\n * @dev Contract for registering and managing Node Identifiable Autonomous Systems (NIAS) on the B-BGP Layer\n */\ncontract NIASRegistry {\n    // Struct to store NIAS information\n    struct NodeAS {\n        string primaryId;        // Primary ID (static)\n        string secondaryId;      // Secondary ID (dynamic)\n        uint256 registrationTime; // Time when the NIAS was registered\n        bool isActive;            // Whether the NIAS is currently active\n        uint8 securityLevel;      // Security level (0-255)\n        uint16 routingWeight;     // Routing weight for path selection\n        uint16 loadBalancingFactor; // Load balancing factor\n        uint8 clusterID;          // Cluster ID the NIAS belongs to\n        string niasType;          // Type of NIAS (e.g., \"EDGE\", \"RELAY\", \"VALIDATOR\")\n    }\n    \n    // Mapping from NIAS ID to NodeAS struct\n    mapping(string => NodeAS) public autonomousSystems;\n    \n    // Array to store all registered NIAS primary IDs\n    string[] public allNIASIds;\n    \n    // Mapping from cluster ID to array of NIAS IDs in that cluster\n    mapping(uint8 => string[]) public clusterNIAS;\n    \n    // Events\n    event NIASRegistered(string indexed primaryId, uint8 clusterID, string niasType);\n    event NIASUpdated(string indexed primaryId, string secondaryId);\n    event NIASStatusChanged(string indexed primaryId, bool isActive);\n    event NIASSecurityLevelChanged(string indexed primaryId, uint8 securityLevel);\n    event NIASRoutingWeightChanged(string indexed primaryId, uint16 routingWeight);\n    event NIASLoadBalancingFactorChanged(string indexed primaryId, uint16 loadBalancingFactor);\n    event NIASClusterChanged(string indexed primaryId, uint8 oldClusterID, uint8 newClusterID);\n    \n    /**\n     * @dev Register a new NIAS\n     * @param _primaryId Primary ID\n     * @param _secondaryId Secondary ID\n     * @param _securityLevel Security level\n     * @param _routingWeight Routing weight\n     * @param _loadBalancingFactor Load balancing factor\n     * @param _clusterID Cluster ID\n     * @param _niasType Type of NIAS\n     */\n    function registerNIAS(\n        string memory _primaryId,\n        string memory _secondaryId,\n        uint8 _securityLevel,\n        uint16 _routingWeight,\n        uint16 _loadBalancingFactor,\n        uint8 _clusterID,\n        string memory _niasType\n    ) public {\n        require(bytes(autonomousSystems[_primaryId].primaryId).length == 0, \"NIAS already registered\");\n        \n        autonomousSystems[_primaryId] = NodeAS({\n            primaryId: _primaryId,\n            secondaryId: _secondaryId,\n            registrationTime: block.timestamp,\n            isActive: true,\n            securityLevel: _securityLevel,\n            routingWeight: _routingWeight,\n            loadBalancingFactor: _loadBalancingFactor,\n            clusterID: _clusterID,\n            niasType: _niasType\n        });\n        \n        allNIASIds.push(_primaryId);\n        clusterNIAS[_clusterID].push(_primaryId);\n        \n        emit NIASRegistered(_primaryId, _clusterID, _niasType);\n    }\n    \n    /**\n     * @dev Update NIAS's secondary ID (for dynamic attributes)\n     * @param _primaryId Primary ID\n     * @param _newSecondaryId New secondary ID\n     */\n    function updateSecondaryId(string memory _primaryId, string memory _newSecondaryId) public {\n        require(bytes(autonomousSystems[_primaryId].primaryId).length > 0, \"NIAS not registered\");\n        \n        autonomousSystems[_primaryId].secondaryId = _newSecondaryId;\n        \n        emit NIASUpdated(_primaryId, _newSecondaryId);\n    }\n    \n    /**\n     * @dev Change NIAS's active status\n     * @param _primaryId Primary ID\n     * @param _isActive New active status\n     */\n    function setNIASStatus(string memory _primaryId, bool _isActive) public {\n        require(bytes(autonomousSystems[_primaryId].primaryId).length > 0, \"NIAS not registered\");\n        \n        autonomousSystems[_primaryId].isActive = _isActive;\n        \n        emit NIASStatusChanged(_primaryId, _isActive);\n    }\n    \n    /**\n     * @dev Change NIAS's security level\n     * @param _primaryId Primary ID\n     * @param _securityLevel New security level\n     */\n    function setSecurityLevel(string memory _primaryId, uint8 _securityLevel) public {\n        require(bytes(autonomousSystems[_primaryId].primaryId).length > 0, \"NIAS not registered\");\n        \n        autonomousSystems[_primaryId].securityLevel = _securityLevel;\n        \n        emit NIASSecurityLevelChanged(_primaryId, _securityLevel);\n    }\n    \n    /**\n     * @dev Change NIAS's routing weight\n     * @param _primaryId Primary ID\n     * @param _routingWeight New routing weight\n     */\n    function setRoutingWeight(string memory _primaryId, uint16 _routingWeight) public {\n        require(bytes(autonomousSystems[_primaryId].primaryId).length > 0, \"NIAS not registered\");\n        \n        autonomousSystems[_primaryId].routingWeight = _routingWeight;\n        \n        emit NIASRoutingWeightChanged(_primaryId, _routingWeight);\n    }\n    \n    /**\n     * @dev Change NIAS's load balancing factor\n     * @param _primaryId Primary ID\n     * @param _loadBalancingFactor New load balancing factor\n     */\n    function setLoadBalancingFactor(string memory _primaryId, uint16 _loadBalancingFactor) public {\n        require(bytes(autonomousSystems[_primaryId].primaryId).length > 0, \"NIAS not registered\");\n        \n        autonomousSystems[_primaryId].loadBalancingFactor = _loadBalancingFactor;\n        \n        emit NIASLoadBalancingFactorChanged(_primaryId, _loadBalancingFactor);\n    }\n    \n}\n    ",
  "sourcePath": "C:\\Users\\Bonsu\\Documents\\Blockchain Multi Industrial Service Center\\Blockchain MultiIndustrial Projects\\BlockchainMultiIndustryRepo\\contracts\\N2N\\NIASRegistry.sol",
  "compiler": {
    "name": "solc",
    "version": "0.8.20+commit.a1b79de6.Emscripten.clang"
  },
  "schemaVersion": "3.4.16",
  "updatedAt": "2025-05-20T13:40:34.718Z",
  "devdoc": {
    "details": "Contract for registering and managing Node Identifiable Autonomous Systems (NIAS) on the B-BGP Layer",
    "kind": "dev",
    "methods": {
      "registerNIAS(string,string,uint8,uint16,uint16,uint8,string)": {
        "details": "Register a new NIAS",
        "params": {
          "_clusterID": "Cluster ID",
          "_loadBalancingFactor": "Load balancing factor",
          "_niasType": "Type of NIAS",
          "_primaryId": "Primary ID",
          "_routingWeight": "Routing weight",
          "_secondaryId": "Secondary ID",
          "_securityLevel": "Security level"
        }
      },
      "setLoadBalancingFactor(string,uint16)": {
        "details": "Change NIAS's load balancing factor",
        "params": {
          "_loadBalancingFactor": "New load balancing factor",
          "_primaryId": "Primary ID"
        }
      },
      "setNIASStatus(string,bool)": {
        "details": "Change NIAS's active status",
        "params": {
          "_isActive": "New active status",
          "_primaryId": "Primary ID"
        }
      },
      "setRoutingWeight(string,uint16)": {
        "details": "Change NIAS's routing weight",
        "params": {
          "_primaryId": "Primary ID",
          "_routingWeight": "New routing weight"
        }
      },
      "setSecurityLevel(string,uint8)": {
        "details": "Change NIAS's security level",
        "params": {
          "_primaryId": "Primary ID",
          "_securityLevel": "New security level"
        }
      },
      "updateSecondaryId(string,string)": {
        "details": "Update NIAS's secondary ID (for dynamic attributes)",
        "params": {
          "_newSecondaryId": "New secondary ID",
          "_primaryId": "Primary ID"
        }
      }
    },
    "title": "NIASRegistry",
    "version": 1
  },
  "userdoc": {
    "kind": "user",
    "methods": {},
    "version": 1
  }
}