{
  "contractName": "NIDRegistry",
  "abi": [
    {
      "anonymous": false,
      "inputs": [
        {
          "indexed": true,
          "internalType": "string",
          "name": "primaryId",
          "type": "string"
        },
        {
          "indexed": false,
          "internalType": "uint8",
          "name": "oldClusterID",
          "type": "uint8"
        },
        {
          "indexed": false,
          "internalType": "uint8",
          "name": "newClusterID",
          "type": "uint8"
        }
      ],
      "name": "NodeClusterChanged",
      "type": "event"
    },
    {
      "anonymous": false,
      "inputs": [
        {
          "indexed": true,
          "internalType": "string",
          "name": "primaryId",
          "type": "string"
        },
        {
          "indexed": false,
          "internalType": "uint8",
          "name": "clusterID",
          "type": "uint8"
        },
        {
          "indexed": false,
          "internalType": "string",
          "name": "nodeType",
          "type": "string"
        }
      ],
      "name": "NodeRegistered",
      "type": "event"
    },
    {
      "anonymous": false,
      "inputs": [
        {
          "indexed": true,
          "internalType": "string",
          "name": "primaryId",
          "type": "string"
        },
        {
          "indexed": false,
          "internalType": "uint8",
          "name": "securityLevel",
          "type": "uint8"
        }
      ],
      "name": "NodeSecurityLevelChanged",
      "type": "event"
    },
    {
      "anonymous": false,
      "inputs": [
        {
          "indexed": true,
          "internalType": "string",
          "name": "primaryId",
          "type": "string"
        },
        {
          "indexed": false,
          "internalType": "bool",
          "name": "isActive",
          "type": "bool"
        }
      ],
      "name": "NodeStatusChanged",
      "type": "event"
    },
    {
      "anonymous": false,
      "inputs": [
        {
          "indexed": true,
          "internalType": "string",
          "name": "primaryId",
          "type": "string"
        },
        {
          "indexed": false,
          "internalType": "string",
          "name": "secondaryId",
          "type": "string"
        }
      ],
      "name": "NodeUpdated",
      "type": "event"
    },
    {
      "inputs": [
        {
          "internalType": "uint256",
          "name": "",
          "type": "uint256"
        }
      ],
      "name": "allNodeIds",
      "outputs": [
        {
          "internalType": "string",
          "name": "",
          "type": "string"
        }
      ],
      "stateMutability": "view",
      "type": "function"
    },
    {
      "inputs": [
        {
          "internalType": "uint8",
          "name": "",
          "type": "uint8"
        },
        {
          "internalType": "uint256",
          "name": "",
          "type": "uint256"
        }
      ],
      "name": "clusterNodes",
      "outputs": [
        {
          "internalType": "string",
          "name": "",
          "type": "string"
        }
      ],
      "stateMutability": "view",
      "type": "function"
    },
    {
      "inputs": [
        {
          "internalType": "string",
          "name": "",
          "type": "string"
        }
      ],
      "name": "nodes",
      "outputs": [
        {
          "internalType": "string",
          "name": "primaryId",
          "type": "string"
        },
        {
          "internalType": "string",
          "name": "secondaryId",
          "type": "string"
        },
        {
          "internalType": "uint256",
          "name": "registrationTime",
          "type": "uint256"
        },
        {
          "internalType": "bool",
          "name": "isActive",
          "type": "bool"
        },
        {
          "internalType": "uint8",
          "name": "securityLevel",
          "type": "uint8"
        },
        {
          "internalType": "uint8",
          "name": "clusterID",
          "type": "uint8"
        },
        {
          "internalType": "string",
          "name": "nodeType",
          "type": "string"
        }
      ],
      "stateMutability": "view",
      "type": "function"
    },
    {
      "inputs": [
        {
          "internalType": "string",
          "name": "_primaryId",
          "type": "string"
        },
        {
          "internalType": "string",
          "name": "_secondaryId",
          "type": "string"
        },
        {
          "internalType": "uint8",
          "name": "_securityLevel",
          "type": "uint8"
        },
        {
          "internalType": "uint8",
          "name": "_clusterID",
          "type": "uint8"
        },
        {
          "internalType": "string",
          "name": "_nodeType",
          "type": "string"
        }
      ],
      "name": "registerNode",
      "outputs": [],
      "stateMutability": "nonpayable",
      "type": "function"
    },
    {
      "inputs": [
        {
          "internalType": "string",
          "name": "_primaryId",
          "type": "string"
        },
        {
          "internalType": "string",
          "name": "_newSecondaryId",
          "type": "string"
        }
      ],
      "name": "updateSecondaryId",
      "outputs": [],
      "stateMutability": "nonpayable",
      "type": "function"
    },
    {
      "inputs": [
        {
          "internalType": "string",
          "name": "_primaryId",
          "type": "string"
        },
        {
          "internalType": "bool",
          "name": "_isActive",
          "type": "bool"
        }
      ],
      "name": "setNodeStatus",
      "outputs": [],
      "stateMutability": "nonpayable",
      "type": "function"
    },
    {
      "inputs": [
        {
          "internalType": "string",
          "name": "_primaryId",
          "type": "string"
        },
        {
          "internalType": "uint8",
          "name": "_securityLevel",
          "type": "uint8"
        }
      ],
      "name": "setSecurityLevel",
      "outputs": [],
      "stateMutability": "nonpayable",
      "type": "function"
    },
    {
      "inputs": [
        {
          "internalType": "string",
          "name": "_primaryId",
          "type": "string"
        },
        {
          "internalType": "uint8",
          "name": "_newClusterID",
          "type": "uint8"
        }
      ],
      "name": "changeNodeCluster",
      "outputs": [],
      "stateMutability": "nonpayable",
      "type": "function"
    },
    {
      "inputs": [
        {
          "internalType": "uint8",
          "name": "_clusterID",
          "type": "uint8"
        }
      ],
      "name": "getNodesInCluster",
      "outputs": [
        {
          "internalType": "string[]",
          "name": "",
          "type": "string[]"
        }
      ],
      "stateMutability": "view",
      "type": "function"
    },
    {
      "inputs": [],
      "name": "getNodeCount",
      "outputs": [
        {
          "internalType": "uint256",
          "name": "",
          "type": "uint256"
        }
      ],
      "stateMutability": "view",
      "type": "function"
    },
    {
      "inputs": [
        {
          "internalType": "string",
          "name": "_primaryId",
          "type": "string"
        }
      ],
      "name": "getNodeDetails",
      "outputs": [
        {
          "internalType": "string",
          "name": "",
          "type": "string"
        },
        {
          "internalType": "string",
          "name": "",
          "type": "string"
        },
        {
          "internalType": "uint256",
          "name": "",
          "type": "uint256"
        },
        {
          "internalType": "bool",
          "name": "",
          "type": "bool"
        },
        {
          "internalType": "uint8",
          "name": "",
          "type": "uint8"
        },
        {
          "internalType": "uint8",
          "name": "",
          "type": "uint8"
        },
        {
          "internalType": "string",
          "name": "",
          "type": "string"
        }
      ],
      "stateMutability": "view",
      "type": "function"
    },
    {
      "inputs": [
        {
          "internalType": "string",
          "name": "_primaryId",
          "type": "string"
        }
      ],
      "name": "nodeExists",
      "outputs": [
        {
          "internalType": "bool",
          "name": "",
          "type": "bool"
        }
      ],
      "stateMutability": "view",
      "type": "function"
    },
    {
      "inputs": [
        {
          "internalType": "string",
          "name": "_primaryId",
          "type": "string"
        }
      ],
      "name": "isNodeActive",
      "outputs": [
        {
          "internalType": "bool",
          "name": "",
          "type": "bool"
        }
      ],
      "stateMutability": "view",
      "type": "function"
    }
  ],
  "bytecode": "0x608060405234801561000f575f80fd5b506117a98061001d5f395ff3fe608060405234801561000f575f80fd5b50600436106100cb575f3560e01c806384fffa9e11610088578063dfd184a311610063578063dfd184a3146101bc578063eba0b871146101cf578063f3883be1146101e2578063f5417ca2146101f5575f80fd5b806384fffa9e14610169578063a583497114610189578063be21ab0f146101a9575f80fd5b8063065ff4d6146100cf5780631b128f61146100e457806339bf397e1461010c5780633f0e0e471461011d5780634edd95f214610143578063841187d814610156575b5f80fd5b6100e26100dd3660046110bb565b610208565b005b6100f76100f236600461115e565b61042c565b60405190151581526020015b60405180910390f35b600154604051908152602001610103565b61013061012b36600461115e565b610461565b60405161010397969594939291906111e5565b6100e261015136600461124b565b6106d6565b6100e26101643660046112ab565b61079e565b61017c6101773660046112fe565b61085f565b604051610103919061131e565b61019c61019736600461137e565b610943565b6040516101039190611395565b6100e26101b73660046113a7565b6109e9565b6100f76101ca36600461115e565b610b73565b61019c6101dd3660046113f2565b610be8565b6100e26101f03660046113a7565b610c1a565b61013061020336600461115e565b610ce4565b5f85604051610217919061141a565b908152604051908190036020019020805461023190611435565b1590506102855760405162461bcd60e51b815260206004820152601760248201527f4e6f646520616c7265616479207265676973746572656400000000000000000060448201526064015b60405180910390fd5b6040518060e001604052808681526020018581526020014281526020016001151581526020018460ff1681526020018360ff168152602001828152505f866040516102d0919061141a565b908152604051908190036020019020815181906102ed90826114bb565b506020820151600182019061030290826114bb565b50604082015160028201556060820151600382018054608085015160a086015161ffff1990921693151561ff0019169390931761010060ff948516021762ff0000191662010000939091169290920291909117905560c0820151600482019061036b90826114bb565b50506001805480820182555f919091527fb10e2d527612073b26eecdfd717e6a320cf44b4afac2b0732d9fcbe2b7fa0cf60190506103a986826114bb565b5060ff82165f908152600260209081526040822080546001810182559083529120016103d586826114bb565b50846040516103e4919061141a565b60405180910390207f9eeb575aa2b08dd59f742f32c71fc34801416373858da997bfecc0435e30d666838360405161041d929190611577565b60405180910390a25050505050565b5f805f8360405161043d919061141a565b908152604051908190036020019020805461045790611435565b9050119050919050565b6060805f805f8060605f808960405161047a919061141a565b90815260200160405180910390206040518060e00160405290815f820180546104a290611435565b80601f01602080910402602001604051908101604052809291908181526020018280546104ce90611435565b80156105195780601f106104f057610100808354040283529160200191610519565b820191905f5260205f20905b8154815290600101906020018083116104fc57829003601f168201915b5050505050815260200160018201805461053290611435565b80601f016020809104026020016040519081016040528092919081815260200182805461055e90611435565b80156105a95780601f10610580576101008083540402835291602001916105a9565b820191905f5260205f20905b81548152906001019060200180831161058c57829003601f168201915b505050918352505060028201546020820152600382015460ff808216151560408401526101008204811660608401526201000090910416608082015260048201805460a0909201916105fa90611435565b80601f016020809104026020016040519081016040528092919081815260200182805461062690611435565b80156106715780601f1061064857610100808354040283529160200191610671565b820191905f5260205f20905b81548152906001019060200180831161065457829003601f168201915b50505050508152505090505f815f0151511161069f5760405162461bcd60e51b815260040161027c90611592565b8051602082015160408301516060840151608085015160a086015160c090960151949e939d50919b50995097509195509350915050565b5f80836040516106e6919061141a565b908152604051908190036020019020805461070090611435565b90501161071f5760405162461bcd60e51b815260040161027c90611592565b805f8360405161072f919061141a565b9081526020016040518091039020600101908161074c91906114bb565b508160405161075b919061141a565b60405180910390207f20c82cab33709f4459f55c9099be41d66f3c6f162ab2ad091fc1f486f8fafed5826040516107929190611395565b60405180910390a25050565b5f80836040516107ae919061141a565b90815260405190819003602001902080546107c890611435565b9050116107e75760405162461bcd60e51b815260040161027c90611592565b805f836040516107f7919061141a565b908152604051908190036020018120600301805492151560ff199093169290921790915561082690839061141a565b6040519081900381208215158252907f7e28c9945d1996f971ae18042aa0f5a7f45d9f9dc79bd0aa6ddb4667d8cbf92d90602001610792565b60ff81165f908152600260209081526040808320805482518185028101850190935280835260609492939192909184015b82821015610938578382905f5260205f200180546108ad90611435565b80601f01602080910402602001604051908101604052809291908181526020018280546108d990611435565b80156109245780601f106108fb57610100808354040283529160200191610924565b820191905f5260205f20905b81548152906001019060200180831161090757829003601f168201915b505050505081526020019060010190610890565b505050509050919050565b60018181548110610952575f80fd5b905f5260205f20015f91509050805461096a90611435565b80601f016020809104026020016040519081016040528092919081815260200182805461099690611435565b80156109e15780601f106109b8576101008083540402835291602001916109e1565b820191905f5260205f20905b8154815290600101906020018083116109c457829003601f168201915b505050505081565b5f80836040516109f9919061141a565b9081526040519081900360200190208054610a1390611435565b905011610a325760405162461bcd60e51b815260040161027c90611592565b5f8083604051610a42919061141a565b9081526040519081900360200190206003015460ff620100009091048116915082168103610ab25760405162461bcd60e51b815260206004820152601c60248201527f4e6f646520616c726561647920696e207468697320636c757374657200000000604482015260640161027c565b610abc8382610ec8565b815f84604051610acc919061141a565b9081526040805160209281900383019020600301805462ff000019166201000060ff958616021790559184165f908152600282529182208054600181018255908352912001610b1b84826114bb565b5082604051610b2a919061141a565b6040805191829003822060ff808516845285166020840152917f887f24ddce44963665277f213ad389e77970fcba2ae7f2338e7521a1bff9f303910160405180910390a2505050565b5f805f83604051610b84919061141a565b9081526040519081900360200190208054610b9e90611435565b905011610bbd5760405162461bcd60e51b815260040161027c90611592565b5f82604051610bcc919061141a565b9081526040519081900360200190206003015460ff1692915050565b6002602052815f5260405f208181548110610c01575f80fd5b905f5260205f20015f9150915050805461096a90611435565b5f8083604051610c2a919061141a565b9081526040519081900360200190208054610c4490611435565b905011610c635760405162461bcd60e51b815260040161027c90611592565b805f83604051610c73919061141a565b908152602001604051809103902060030160016101000a81548160ff021916908360ff16021790555081604051610caa919061141a565b60405190819003812060ff83168252907fea536351e3e01ccf43b2fccfa448c8a2917af11d7873e23a4470eac380181de890602001610792565b80516020818301810180515f82529282019190930120915280548190610d0990611435565b80601f0160208091040260200160405190810160405280929190818152602001828054610d3590611435565b8015610d805780601f10610d5757610100808354040283529160200191610d80565b820191905f5260205f20905b815481529060010190602001808311610d6357829003601f168201915b505050505090806001018054610d9590611435565b80601f0160208091040260200160405190810160405280929190818152602001828054610dc190611435565b8015610e0c5780601f10610de357610100808354040283529160200191610e0c565b820191905f5260205f20905b815481529060010190602001808311610def57829003601f168201915b50505050600283015460038401546004850180549495929460ff808416955061010084048116946201000090940416929190610e4790611435565b80601f0160208091040260200160405190810160405280929190818152602001828054610e7390611435565b8015610ebe5780601f10610e9557610100808354040283529160200191610ebe565b820191905f5260205f20905b815481529060010190602001808311610ea157829003601f168201915b5050505050905087565b60ff81165f908152600260205260408120905b8154811015610fb1578380519060200120828281548110610efe57610efe6115bf565b905f5260205f2001604051610f1391906115d3565b604051809103902003610f9f5781548290610f3090600190611659565b81548110610f4057610f406115bf565b905f5260205f2001828281548110610f5a57610f5a6115bf565b905f5260205f20019081610f6e9190611672565b5081805480610f7f57610f7f611747565b600190038181905f5260205f20015f610f989190610fb7565b9055610fb1565b80610fa98161175b565b915050610edb565b50505050565b508054610fc390611435565b5f825580601f10610fd2575050565b601f0160209004905f5260205f2090810190610fee9190610ff1565b50565b5b80821115611005575f8155600101610ff2565b5090565b634e487b7160e01b5f52604160045260245ffd5b5f82601f83011261102c575f80fd5b813567ffffffffffffffff8082111561104757611047611009565b604051601f8301601f19908116603f0116810190828211818310171561106f5761106f611009565b81604052838152866020858801011115611087575f80fd5b836020870160208301375f602085830101528094505050505092915050565b803560ff811681146110b6575f80fd5b919050565b5f805f805f60a086880312156110cf575f80fd5b853567ffffffffffffffff808211156110e6575f80fd5b6110f289838a0161101d565b96506020880135915080821115611107575f80fd5b61111389838a0161101d565b9550611121604089016110a6565b945061112f606089016110a6565b93506080880135915080821115611144575f80fd5b506111518882890161101d565b9150509295509295909350565b5f6020828403121561116e575f80fd5b813567ffffffffffffffff811115611184575f80fd5b6111908482850161101d565b949350505050565b5f5b838110156111b257818101518382015260200161119a565b50505f910152565b5f81518084526111d1816020860160208601611198565b601f01601f19169290920160200192915050565b60e081525f6111f760e083018a6111ba565b8281036020840152611209818a6111ba565b9050876040840152861515606084015260ff8616608084015260ff851660a084015282810360c084015261123d81856111ba565b9a9950505050505050505050565b5f806040838503121561125c575f80fd5b823567ffffffffffffffff80821115611273575f80fd5b61127f8683870161101d565b93506020850135915080821115611294575f80fd5b506112a18582860161101d565b9150509250929050565b5f80604083850312156112bc575f80fd5b823567ffffffffffffffff8111156112d2575f80fd5b6112de8582860161101d565b925050602083013580151581146112f3575f80fd5b809150509250929050565b5f6020828403121561130e575f80fd5b611317826110a6565b9392505050565b5f602080830181845280855180835260408601915060408160051b87010192508387015f5b8281101561137157603f1988860301845261135f8583516111ba565b94509285019290850190600101611343565b5092979650505050505050565b5f6020828403121561138e575f80fd5b5035919050565b602081525f61131760208301846111ba565b5f80604083850312156113b8575f80fd5b823567ffffffffffffffff8111156113ce575f80fd5b6113da8582860161101d565b9250506113e9602084016110a6565b90509250929050565b5f8060408385031215611403575f80fd5b61140c836110a6565b946020939093013593505050565b5f825161142b818460208701611198565b9190910192915050565b600181811c9082168061144957607f821691505b60208210810361146757634e487b7160e01b5f52602260045260245ffd5b50919050565b601f8211156114b6575f81815260208120601f850160051c810160208610156114935750805b601f850160051c820191505b818110156114b25782815560010161149f565b5050505b505050565b815167ffffffffffffffff8111156114d5576114d5611009565b6114e9816114e38454611435565b8461146d565b602080601f83116001811461151c575f84156115055750858301515b5f19600386901b1c1916600185901b1785556114b2565b5f85815260208120601f198616915b8281101561154a5788860151825594840194600190910190840161152b565b508582101561156757878501515f19600388901b60f8161c191681555b5050505050600190811b01905550565b60ff83168152604060208201525f61119060408301846111ba565b602080825260139082015272139bd919481b9bdd081c9959da5cdd195c9959606a1b604082015260600190565b634e487b7160e01b5f52603260045260245ffd5b5f8083546115e081611435565b600182811680156115f8576001811461160d57611639565b60ff1984168752821515830287019450611639565b875f526020805f205f5b858110156116305781548a820152908401908201611617565b50505082870194505b50929695505050505050565b634e487b7160e01b5f52601160045260245ffd5b8181038181111561166c5761166c611645565b92915050565b81810361167d575050565b6116878254611435565b67ffffffffffffffff81111561169f5761169f611009565b6116ad816114e38454611435565b5f601f8211600181146116de575f83156116c75750848201545b5f19600385901b1c1916600184901b178455611740565b5f85815260209020601f198416905f86815260209020845b8381101561171657828601548255600195860195909101906020016116f6565b508583101561173357818501545f19600388901b60f8161c191681555b50505060018360011b0184555b5050505050565b634e487b7160e01b5f52603160045260245ffd5b5f6001820161176c5761176c611645565b506001019056fea2646970667358221220132fedab6f652167d4f4dcf6dd7327334986edfc8325fed5806b6e4605bbb11b64736f6c63430008140033",
  "immutableReferences": {},
  "source": "// SPDX-License-Identifier: MIT\npragma solidity ^0.8.17;\n\n/**\n * @title NIDRegistry\n * @dev Contract for registering and managing Node IDs (NIDs) on the NAP Layer\n */\ncontract NIDRegistry {\n    // Struct to store NID information\n    struct NodeID {\n        string primaryId;       // Primary ID (static)\n        string secondaryId;     // Secondary ID (dynamic)\n        uint256 registrationTime;// Time when the node was registered\n        bool isActive;           // Whether the node is currently active\n        uint8 securityLevel;     // Security level (0-255)\n        uint8 clusterID;         // Cluster ID the node belongs to\n        string nodeType;         // Type of node (e.g., \"VALIDATOR\", \"RELAY\", \"EDGE\")\n    }\n    \n    // Mapping from NID to NodeID struct\n    mapping(string => NodeID) public nodes;\n    \n    // Array to store all registered NID primary IDs\n    string[] public allNodeIds;\n    \n    // Mapping from cluster ID to array of node IDs in that cluster\n    mapping(uint8 => string[]) public clusterNodes;\n    \n    // Events\n    event NodeRegistered(string indexed primaryId, uint8 clusterID, string nodeType);\n    event NodeUpdated(string indexed primaryId, string secondaryId);\n    event NodeStatusChanged(string indexed primaryId, bool isActive);\n    event NodeSecurityLevelChanged(string indexed primaryId, uint8 securityLevel);\n    event NodeClusterChanged(string indexed primaryId, uint8 oldClusterID, uint8 newClusterID);\n    \n    /**\n     * @dev Register a new node\n     * @param _primaryId Primary ID\n     * @param _secondaryId Secondary ID\n     * @param _securityLevel Security level\n     * @param _clusterID Cluster ID\n     * @param _nodeType Type of node\n     */\n    function registerNode(\n        string memory _primaryId,\n        string memory _secondaryId,\n        uint8 _securityLevel,\n        uint8 _clusterID,\n        string memory _nodeType\n    ) public {\n        require(bytes(nodes[_primaryId].primaryId).length == 0, \"Node already registered\");\n        \n        nodes[_primaryId] = NodeID({\n            primaryId: _primaryId,\n            secondaryId: _secondaryId,\n            registrationTime: block.timestamp,\n            isActive: true,\n            securityLevel: _securityLevel,\n            clusterID: _clusterID,\n            nodeType: _nodeType\n        });\n        \n        allNodeIds.push(_primaryId);\n        clusterNodes[_clusterID].push(_primaryId);\n        \n        emit NodeRegistered(_primaryId, _clusterID, _nodeType);\n    }\n    \n    /**\n     * @dev Update node's secondary ID (for dynamic attributes)\n     * @param _primaryId Primary ID\n     * @param _newSecondaryId New secondary ID\n     */\n    function updateSecondaryId(string memory _primaryId, string memory _newSecondaryId) public {\n        require(bytes(nodes[_primaryId].primaryId).length > 0, \"Node not registered\");\n        \n        nodes[_primaryId].secondaryId = _newSecondaryId;\n        \n        emit NodeUpdated(_primaryId, _newSecondaryId);\n    }\n    \n    /**\n     * @dev Change node's active status\n     * @param _primaryId Primary ID\n     * @param _isActive New active status\n     */\n    function setNodeStatus(string memory _primaryId, bool _isActive) public {\n        require(bytes(nodes[_primaryId].primaryId).length > 0, \"Node not registered\");\n        \n        nodes[_primaryId].isActive = _isActive;\n        \n        emit NodeStatusChanged(_primaryId, _isActive);\n    }\n    \n    /**\n     * @dev Change node's security level\n     * @param _primaryId Primary ID\n     * @param _securityLevel New security level\n     */\n    function setSecurityLevel(string memory _primaryId, uint8 _securityLevel) public {\n        require(bytes(nodes[_primaryId].primaryId).length > 0, \"Node not registered\");\n        \n        nodes[_primaryId].securityLevel = _securityLevel;\n        \n        emit NodeSecurityLevelChanged(_primaryId, _securityLevel);\n    }\n    \n    /**\n     * @dev Move node to different cluster\n     * @param _primaryId Primary ID\n     * @param _newClusterID New cluster ID\n     */\n    function changeNodeCluster(string memory _primaryId, uint8 _newClusterID) public {\n        require(bytes(nodes[_primaryId].primaryId).length > 0, \"Node not registered\");\n        \n        uint8 oldClusterID = nodes[_primaryId].clusterID;\n        require(oldClusterID != _newClusterID, \"Node already in this cluster\");\n        \n        // Remove from old cluster\n        removeFromCluster(_primaryId, oldClusterID);\n        \n        // Add to new cluster\n        nodes[_primaryId].clusterID = _newClusterID;\n        clusterNodes[_newClusterID].push(_primaryId);\n        \n        emit NodeClusterChanged(_primaryId, oldClusterID, _newClusterID);\n    }\n    \n    /**\n     * @dev Helper function to remove node from cluster\n     * @param _primaryId Primary ID\n     * @param _clusterID Cluster ID\n     */\n    function removeFromCluster(string memory _primaryId, uint8 _clusterID) internal {\n        string[] storage nodesInCluster = clusterNodes[_clusterID];\n        \n        for (uint i = 0; i < nodesInCluster.length; i++) {\n            if (keccak256(bytes(nodesInCluster[i])) == keccak256(bytes(_primaryId))) {\n                // Swap with the last element and then remove the last element\n                nodesInCluster[i] = nodesInCluster[nodesInCluster.length - 1];\n                nodesInCluster.pop();\n                break;\n            }\n        }\n    }\n    \n    /**\n     * @dev Get all nodes in a specific cluster\n     * @param _clusterID Cluster ID\n     * @return Array of node primary IDs in the cluster\n     */\n    function getNodesInCluster(uint8 _clusterID) public view returns (string[] memory) {\n        return clusterNodes[_clusterID];\n    }\n    \n    /**\n     * @dev Get count of all registered nodes\n     * @return Number of registered nodes\n     */\n    function getNodeCount() public view returns (uint256) {\n        return allNodeIds.length;\n    }\n    \n    /**\n     * @dev Get node details\n     * @param _primaryId Primary ID\n     * @return Node details (primaryId, secondaryId, registrationTime, isActive, securityLevel, clusterID, nodeType)\n     */\n    function getNodeDetails(string memory _primaryId) public view returns (\n        string memory, string memory, uint256, bool, uint8, uint8, string memory\n    ) {\n        NodeID memory node = nodes[_primaryId];\n        require(bytes(node.primaryId).length > 0, \"Node not registered\");\n        \n        return (\n            node.primaryId,\n            node.secondaryId,\n            node.registrationTime,\n            node.isActive,\n            node.securityLevel,\n            node.clusterID,\n            node.nodeType\n        );\n    }\n    \n    /**\n     * @dev Check if a node exists\n     * @param _primaryId Primary ID\n     * @return Whether the node exists\n     */\n    function nodeExists(string memory _primaryId) public view returns (bool) {\n        return bytes(nodes[_primaryId].primaryId).length > 0;\n    }\n    \n    /**\n     * @dev Check if a node is active\n     * @param _primaryId Primary ID\n     * @return Whether the node is active\n     */\n    function isNodeActive(string memory _primaryId) public view returns (bool) {\n        require(bytes(nodes[_primaryId].primaryId).length > 0, \"Node not registered\");\n        return nodes[_primaryId].isActive;\n    }\n}",
  "sourcePath": "C:\\Users\\Bonsu\\Documents\\Blockchain Multi Industrial Service Center\\Blockchain MultiIndustrial Projects\\BlockchainMultiIndustryRepo\\contracts\\N2N\\NIDRegistry.sol",
  "compiler": {
    "name": "solc",
    "version": "0.8.20+commit.a1b79de6.Emscripten.clang"
  },
  "schemaVersion": "3.4.16",
  "updatedAt": "2025-05-20T13:40:34.722Z",
  "devdoc": {
    "details": "Contract for registering and managing Node IDs (NIDs) on the NAP Layer",
    "kind": "dev",
    "methods": {
      "changeNodeCluster(string,uint8)": {
        "details": "Move node to different cluster",
        "params": {
          "_newClusterID": "New cluster ID",
          "_primaryId": "Primary ID"
        }
      },
      "getNodeCount()": {
        "details": "Get count of all registered nodes",
        "returns": {
          "_0": "Number of registered nodes"
        }
      },
      "getNodeDetails(string)": {
        "details": "Get node details",
        "params": {
          "_primaryId": "Primary ID"
        },
        "returns": {
          "_0": "Node details (primaryId, secondaryId, registrationTime, isActive, securityLevel, clusterID, nodeType)"
        }
      },
      "getNodesInCluster(uint8)": {
        "details": "Get all nodes in a specific cluster",
        "params": {
          "_clusterID": "Cluster ID"
        },
        "returns": {
          "_0": "Array of node primary IDs in the cluster"
        }
      },
      "isNodeActive(string)": {
        "details": "Check if a node is active",
        "params": {
          "_primaryId": "Primary ID"
        },
        "returns": {
          "_0": "Whether the node is active"
        }
      },
      "nodeExists(string)": {
        "details": "Check if a node exists",
        "params": {
          "_primaryId": "Primary ID"
        },
        "returns": {
          "_0": "Whether the node exists"
        }
      },
      "registerNode(string,string,uint8,uint8,string)": {
        "details": "Register a new node",
        "params": {
          "_clusterID": "Cluster ID",
          "_nodeType": "Type of node",
          "_primaryId": "Primary ID",
          "_secondaryId": "Secondary ID",
          "_securityLevel": "Security level"
        }
      },
      "setNodeStatus(string,bool)": {
        "details": "Change node's active status",
        "params": {
          "_isActive": "New active status",
          "_primaryId": "Primary ID"
        }
      },
      "setSecurityLevel(string,uint8)": {
        "details": "Change node's security level",
        "params": {
          "_primaryId": "Primary ID",
          "_securityLevel": "New security level"
        }
      },
      "updateSecondaryId(string,string)": {
        "details": "Update node's secondary ID (for dynamic attributes)",
        "params": {
          "_newSecondaryId": "New secondary ID",
          "_primaryId": "Primary ID"
        }
      }
    },
    "title": "NIDRegistry",
    "version": 1
  },
  "userdoc": {
    "kind": "user",
    "methods": {},
    "version": 1
  }
}