{
  "contractName": "PacechainChannel",
  "abi": [
    {
      "inputs": [],
      "stateMutability": "nonpayable",
      "type": "constructor"
    },
    {
      "anonymous": false,
      "inputs": [
        {
          "indexed": true,
          "internalType": "bytes32",
          "name": "channelId",
          "type": "bytes32"
        },
        {
          "indexed": false,
          "internalType": "address",
          "name": "sourceBridge",
          "type": "address"
        },
        {
          "indexed": false,
          "internalType": "address",
          "name": "targetBridge",
          "type": "address"
        }
      ],
      "name": "ChannelCreated",
      "type": "event"
    },
    {
      "anonymous": false,
      "inputs": [
        {
          "indexed": true,
          "internalType": "bytes32",
          "name": "txId",
          "type": "bytes32"
        },
        {
          "indexed": false,
          "internalType": "bytes32",
          "name": "speculativeTxId",
          "type": "bytes32"
        }
      ],
      "name": "ConfirmableTxCreated",
      "type": "event"
    },
    {
      "anonymous": false,
      "inputs": [
        {
          "indexed": false,
          "internalType": "address",
          "name": "account",
          "type": "address"
        }
      ],
      "name": "Paused",
      "type": "event"
    },
    {
      "anonymous": false,
      "inputs": [
        {
          "indexed": true,
          "internalType": "bytes32",
          "name": "role",
          "type": "bytes32"
        },
        {
          "indexed": true,
          "internalType": "bytes32",
          "name": "previousAdminRole",
          "type": "bytes32"
        },
        {
          "indexed": true,
          "internalType": "bytes32",
          "name": "newAdminRole",
          "type": "bytes32"
        }
      ],
      "name": "RoleAdminChanged",
      "type": "event"
    },
    {
      "anonymous": false,
      "inputs": [
        {
          "indexed": true,
          "internalType": "bytes32",
          "name": "role",
          "type": "bytes32"
        },
        {
          "indexed": true,
          "internalType": "address",
          "name": "account",
          "type": "address"
        },
        {
          "indexed": true,
          "internalType": "address",
          "name": "sender",
          "type": "address"
        }
      ],
      "name": "RoleGranted",
      "type": "event"
    },
    {
      "anonymous": false,
      "inputs": [
        {
          "indexed": true,
          "internalType": "bytes32",
          "name": "role",
          "type": "bytes32"
        },
        {
          "indexed": true,
          "internalType": "address",
          "name": "account",
          "type": "address"
        },
        {
          "indexed": true,
          "internalType": "address",
          "name": "sender",
          "type": "address"
        }
      ],
      "name": "RoleRevoked",
      "type": "event"
    },
    {
      "anonymous": false,
      "inputs": [
        {
          "indexed": true,
          "internalType": "bytes32",
          "name": "txId",
          "type": "bytes32"
        },
        {
          "indexed": false,
          "internalType": "address",
          "name": "sender",
          "type": "address"
        },
        {
          "indexed": false,
          "internalType": "uint256",
          "name": "anticipatedTime",
          "type": "uint256"
        }
      ],
      "name": "SpeculativeTxCreated",
      "type": "event"
    },
    {
      "anonymous": false,
      "inputs": [
        {
          "indexed": false,
          "internalType": "address",
          "name": "account",
          "type": "address"
        }
      ],
      "name": "Unpaused",
      "type": "event"
    },
    {
      "inputs": [],
      "name": "CHANNEL_OPERATOR",
      "outputs": [
        {
          "internalType": "bytes32",
          "name": "",
          "type": "bytes32"
        }
      ],
      "stateMutability": "view",
      "type": "function"
    },
    {
      "inputs": [],
      "name": "DEFAULT_ADMIN_ROLE",
      "outputs": [
        {
          "internalType": "bytes32",
          "name": "",
          "type": "bytes32"
        }
      ],
      "stateMutability": "view",
      "type": "function"
    },
    {
      "inputs": [
        {
          "internalType": "bytes32",
          "name": "",
          "type": "bytes32"
        }
      ],
      "name": "channels",
      "outputs": [
        {
          "internalType": "bytes32",
          "name": "id",
          "type": "bytes32"
        },
        {
          "internalType": "address",
          "name": "sourceBridge",
          "type": "address"
        },
        {
          "internalType": "address",
          "name": "targetBridge",
          "type": "address"
        },
        {
          "internalType": "uint256",
          "name": "creationTime",
          "type": "uint256"
        },
        {
          "internalType": "bool",
          "name": "isActive",
          "type": "bool"
        },
        {
          "internalType": "uint256",
          "name": "confidenceThreshold",
          "type": "uint256"
        }
      ],
      "stateMutability": "view",
      "type": "function"
    },
    {
      "inputs": [
        {
          "internalType": "bytes32",
          "name": "",
          "type": "bytes32"
        }
      ],
      "name": "confirmableTxs",
      "outputs": [
        {
          "internalType": "bytes32",
          "name": "id",
          "type": "bytes32"
        },
        {
          "internalType": "address",
          "name": "sender",
          "type": "address"
        },
        {
          "internalType": "address",
          "name": "receiver",
          "type": "address"
        },
        {
          "internalType": "uint256",
          "name": "confirmationTime",
          "type": "uint256"
        },
        {
          "internalType": "bytes32",
          "name": "dataHash",
          "type": "bytes32"
        },
        {
          "internalType": "bool",
          "name": "isAssetTransfer",
          "type": "bool"
        },
        {
          "internalType": "bytes32",
          "name": "speculativeTxId",
          "type": "bytes32"
        }
      ],
      "stateMutability": "view",
      "type": "function"
    },
    {
      "inputs": [
        {
          "internalType": "bytes32",
          "name": "role",
          "type": "bytes32"
        }
      ],
      "name": "getRoleAdmin",
      "outputs": [
        {
          "internalType": "bytes32",
          "name": "",
          "type": "bytes32"
        }
      ],
      "stateMutability": "view",
      "type": "function"
    },
    {
      "inputs": [
        {
          "internalType": "bytes32",
          "name": "role",
          "type": "bytes32"
        },
        {
          "internalType": "address",
          "name": "account",
          "type": "address"
        }
      ],
      "name": "grantRole",
      "outputs": [],
      "stateMutability": "nonpayable",
      "type": "function"
    },
    {
      "inputs": [
        {
          "internalType": "bytes32",
          "name": "role",
          "type": "bytes32"
        },
        {
          "internalType": "address",
          "name": "account",
          "type": "address"
        }
      ],
      "name": "hasRole",
      "outputs": [
        {
          "internalType": "bool",
          "name": "",
          "type": "bool"
        }
      ],
      "stateMutability": "view",
      "type": "function"
    },
    {
      "inputs": [],
      "name": "paused",
      "outputs": [
        {
          "internalType": "bool",
          "name": "",
          "type": "bool"
        }
      ],
      "stateMutability": "view",
      "type": "function"
    },
    {
      "inputs": [
        {
          "internalType": "bytes32",
          "name": "role",
          "type": "bytes32"
        },
        {
          "internalType": "address",
          "name": "account",
          "type": "address"
        }
      ],
      "name": "renounceRole",
      "outputs": [],
      "stateMutability": "nonpayable",
      "type": "function"
    },
    {
      "inputs": [
        {
          "internalType": "bytes32",
          "name": "role",
          "type": "bytes32"
        },
        {
          "internalType": "address",
          "name": "account",
          "type": "address"
        }
      ],
      "name": "revokeRole",
      "outputs": [],
      "stateMutability": "nonpayable",
      "type": "function"
    },
    {
      "inputs": [
        {
          "internalType": "bytes32",
          "name": "",
          "type": "bytes32"
        }
      ],
      "name": "speculativeTxs",
      "outputs": [
        {
          "internalType": "bytes32",
          "name": "id",
          "type": "bytes32"
        },
        {
          "internalType": "address",
          "name": "sender",
          "type": "address"
        },
        {
          "internalType": "address",
          "name": "receiver",
          "type": "address"
        },
        {
          "internalType": "uint256",
          "name": "anticipatedTime",
          "type": "uint256"
        },
        {
          "internalType": "bytes32",
          "name": "dataHash",
          "type": "bytes32"
        },
        {
          "internalType": "bool",
          "name": "isAssetTransfer",
          "type": "bool"
        },
        {
          "internalType": "uint256",
          "name": "interpolationTime",
          "type": "uint256"
        },
        {
          "internalType": "bytes",
          "name": "rbfParams",
          "type": "bytes"
        }
      ],
      "stateMutability": "view",
      "type": "function"
    },
    {
      "inputs": [
        {
          "internalType": "bytes4",
          "name": "interfaceId",
          "type": "bytes4"
        }
      ],
      "name": "supportsInterface",
      "outputs": [
        {
          "internalType": "bool",
          "name": "",
          "type": "bool"
        }
      ],
      "stateMutability": "view",
      "type": "function"
    },
    {
      "inputs": [
        {
          "internalType": "address",
          "name": "sourceBridge",
          "type": "address"
        },
        {
          "internalType": "address",
          "name": "targetBridge",
          "type": "address"
        },
        {
          "internalType": "uint256",
          "name": "confidenceThreshold",
          "type": "uint256"
        }
      ],
      "name": "createChannel",
      "outputs": [
        {
          "internalType": "bytes32",
          "name": "",
          "type": "bytes32"
        }
      ],
      "stateMutability": "nonpayable",
      "type": "function"
    }
  ],
  "bytecode": "0x608060405234801561000f575f80fd5b5060015f818155815460ff1916909155610029903361002e565b6100dc565b610038828261003c565b5050565b5f8281526002602090815260408083206001600160a01b038516845290915290205460ff16610038575f8281526002602090815260408083206001600160a01b03851684529091529020805460ff191660011790556100983390565b6001600160a01b0316816001600160a01b0316837f2f8788117e7eff1d82e926ec794901d17c78024a50270940304540a733656f0d60405160405180910390a45050565b610d33806100e95f395ff3fe608060405234801561000f575f80fd5b50600436106100cb575f3560e01c806391d1485411610088578063d547741f11610063578063d547741f14610215578063d729be4f14610228578063fa2a54d91461024f578063fe3341c114610276575f80fd5b806391d14854146101e8578063a217fddf146101fb578063b096841614610202575f80fd5b806301ffc9a7146100cf578063248a9ca3146100f75780632f2ff15d1461012757806336568abe1461013c5780635c975abb1461014f5780637a7ebd7b1461015a575b5f80fd5b6100e26100dd366004610a5d565b610313565b60405190151581526020015b60405180910390f35b610119610105366004610a84565b5f9081526002602052604090206001015490565b6040519081526020016100ee565b61013a610135366004610ab6565b610349565b005b61013a61014a366004610ab6565b610372565b60015460ff166100e2565b6101ad610168366004610a84565b600360208190525f918252604090912080546001820154600283015493830154600484015460059094015492946001600160a01b0392831694921692909160ff169086565b604080519687526001600160a01b039586166020880152939094169285019290925260608401521515608083015260a082015260c0016100ee565b6100e26101f6366004610ab6565b6103f5565b6101195f81565b610119610210366004610ae0565b61041f565b61013a610223366004610ab6565b61065c565b61023b610236366004610a84565b610680565b6040516100ee989796959493929190610b66565b6101197f7d35582c804e3c6b04c66289c699b3287a7c919f4dc8c038eda73ba60a70ca2281565b6102d0610284366004610a84565b600560208190525f9182526040909120805460018201546002830154600384015460048501549585015460069095015493956001600160a01b03938416959390921693909260ff169087565b604080519788526001600160a01b039687166020890152949095169386019390935260608501919091526080840152151560a083015260c082015260e0016100ee565b5f6001600160e01b03198216637965db0b60e01b148061034357506301ffc9a760e01b6001600160e01b03198316145b92915050565b5f828152600260205260409020600101546103638161075d565b61036d838361076a565b505050565b6001600160a01b03811633146103e75760405162461bcd60e51b815260206004820152602f60248201527f416363657373436f6e74726f6c3a2063616e206f6e6c792072656e6f756e636560448201526e103937b632b9903337b91039b2b63360891b60648201526084015b60405180910390fd5b6103f182826107ef565b5050565b5f9182526002602090815260408084206001600160a01b0393909316845291905290205460ff1690565b5f7f7d35582c804e3c6b04c66289c699b3287a7c919f4dc8c038eda73ba60a70ca2261044a8161075d565b6001600160a01b0385166104985760405162461bcd60e51b8152602060048201526015602482015274496e76616c696420736f757263652062726964676560581b60448201526064016103de565b6001600160a01b0384166104e65760405162461bcd60e51b8152602060048201526015602482015274496e76616c6964207461726765742062726964676560581b60448201526064016103de565b5f83116105295760405162461bcd60e51b8152602060048201526011602482015270125b9d985b1a59081d1a1c995cda1bdb19607a1b60448201526064016103de565b604080516bffffffffffffffffffffffff19606088811b82166020808501919091529088901b90911660348301524260488084018290528451808503909101815260688401808652815191840191909120610128850186528082526001600160a01b03808c1660888701818152828d1660a8890181815260c88a01978852600160e88b01818152610108909b018f81525f8881526003808d52908e902099518a55945191890180549288166001600160a01b0319938416179055915160028901805491909716911617909455955190850155955160048401805491151560ff19909216919091179055516005909201919091558451938452918301529182917fd64e60db2ed00b33fe2985e456fd4f829a52dbbed59820cb845fea108da5da6b910160405180910390a295945050505050565b5f828152600260205260409020600101546106768161075d565b61036d83836107ef565b600460208190525f91825260409091208054600182015460028301546003840154948401546005850154600686015460078701805496986001600160a01b03968716989590961696939460ff909316939192916106dc90610bc4565b80601f016020809104026020016040519081016040528092919081815260200182805461070890610bc4565b80156107535780601f1061072a57610100808354040283529160200191610753565b820191905f5260205f20905b81548152906001019060200180831161073657829003601f168201915b5050505050905088565b6107678133610855565b50565b61077482826103f5565b6103f1575f8281526002602090815260408083206001600160a01b03851684529091529020805460ff191660011790556107ab3390565b6001600160a01b0316816001600160a01b0316837f2f8788117e7eff1d82e926ec794901d17c78024a50270940304540a733656f0d60405160405180910390a45050565b6107f982826103f5565b156103f1575f8281526002602090815260408083206001600160a01b0385168085529252808320805460ff1916905551339285917ff6391f5c32d9c69d2a47ea670b442974b53935d1edc7fd64eb21e047a839171b9190a45050565b61085f82826103f5565b6103f15761086c816108ae565b6108778360206108c0565b604051602001610888929190610bfc565b60408051601f198184030181529082905262461bcd60e51b82526103de91600401610c70565b60606103436001600160a01b03831660145b60605f6108ce836002610c96565b6108d9906002610cad565b67ffffffffffffffff8111156108f1576108f1610cc0565b6040519080825280601f01601f19166020018201604052801561091b576020820181803683370190505b509050600360fc1b815f8151811061093557610935610cd4565b60200101906001600160f81b03191690815f1a905350600f60fb1b8160018151811061096357610963610cd4565b60200101906001600160f81b03191690815f1a9053505f610985846002610c96565b610990906001610cad565b90505b6001811115610a07576f181899199a1a9b1b9c1cb0b131b232b360811b85600f16601081106109c4576109c4610cd4565b1a60f81b8282815181106109da576109da610cd4565b60200101906001600160f81b03191690815f1a90535060049490941c93610a0081610ce8565b9050610993565b508315610a565760405162461bcd60e51b815260206004820181905260248201527f537472696e67733a20686578206c656e67746820696e73756666696369656e7460448201526064016103de565b9392505050565b5f60208284031215610a6d575f80fd5b81356001600160e01b031981168114610a56575f80fd5b5f60208284031215610a94575f80fd5b5035919050565b80356001600160a01b0381168114610ab1575f80fd5b919050565b5f8060408385031215610ac7575f80fd5b82359150610ad760208401610a9b565b90509250929050565b5f805f60608486031215610af2575f80fd5b610afb84610a9b565b9250610b0960208501610a9b565b9150604084013590509250925092565b5f5b83811015610b33578181015183820152602001610b1b565b50505f910152565b5f8151808452610b52816020860160208601610b19565b601f01601f19169290920160200192915050565b8881526001600160a01b03888116602083015287166040820152606081018690526080810185905283151560a082015260c0810183905261010060e082018190525f90610bb583820185610b3b565b9b9a5050505050505050505050565b600181811c90821680610bd857607f821691505b602082108103610bf657634e487b7160e01b5f52602260045260245ffd5b50919050565b7f416363657373436f6e74726f6c3a206163636f756e742000000000000000000081525f8351610c33816017850160208801610b19565b7001034b99036b4b9b9b4b733903937b6329607d1b6017918401918201528351610c64816028840160208801610b19565b01602801949350505050565b602081525f610a566020830184610b3b565b634e487b7160e01b5f52601160045260245ffd5b808202811582820484141761034357610343610c82565b8082018082111561034357610343610c82565b634e487b7160e01b5f52604160045260245ffd5b634e487b7160e01b5f52603260045260245ffd5b5f81610cf657610cf6610c82565b505f19019056fea2646970667358221220465d0b31b3453177022cc1acc3554c5b33ea0a6ca89769eebdbd5b51bb75d2c664736f6c63430008140033",
  "immutableReferences": {},
  "source": "// SPDX-License-Identifier: MIT\r\npragma solidity ^0.8.0;\r\n\r\nimport \"@openzeppelin/contracts/security/ReentrancyGuard.sol\";\r\nimport \"@openzeppelin/contracts/security/Pausable.sol\";\r\nimport \"@openzeppelin/contracts/access/AccessControl.sol\";\r\nimport \"../../library/FixedPointMath.sol\";\r\nimport \"../../library/TransactionTypes.sol\";\r\n\r\n/**\r\n * @title PacechainChannel\r\n * @dev Manages transmission channels between blockchains\r\n */\r\ncontract PacechainChannel is ReentrancyGuard, Pausable, AccessControl {\r\n    using TransactionTypes for TransactionTypes.Channel;\r\n    using FixedPointMath for uint256;\r\n    \r\n    bytes32 public constant CHANNEL_OPERATOR = keccak256(\"CHANNEL_OPERATOR\");\r\n    \r\n    mapping(bytes32 => TransactionTypes.Channel) public channels;\r\n    mapping(bytes32 => TransactionTypes.SpeculativeTx) public speculativeTxs;\r\n    mapping(bytes32 => TransactionTypes.ConfirmableTx) public confirmableTxs;\r\n    \r\n    event ChannelCreated(bytes32 indexed channelId, address sourceBridge, address targetBridge);\r\n    event SpeculativeTxCreated(bytes32 indexed txId, address sender, uint256 anticipatedTime);\r\n    event ConfirmableTxCreated(bytes32 indexed txId, bytes32 speculativeTxId);\r\n    \r\n    constructor() {\r\n        _setupRole(DEFAULT_ADMIN_ROLE, msg.sender);\r\n    }\r\n    \r\n    function createChannel(\r\n        address sourceBridge,\r\n        address targetBridge,\r\n        uint256 confidenceThreshold\r\n    ) external onlyRole(CHANNEL_OPERATOR) returns (bytes32) {\r\n        require(sourceBridge != address(0), \"Invalid source bridge\");\r\n        require(targetBridge != address(0), \"Invalid target bridge\");\r\n        require(confidenceThreshold > 0, \"Invalid threshold\");\r\n\r\n        bytes32 channelId = keccak256(abi.encodePacked(\r\n            sourceBridge,\r\n            targetBridge,\r\n            block.timestamp\r\n        ));\r\n        \r\n        channels[channelId] = TransactionTypes.Channel({\r\n            id: channelId,\r\n            sourceBridge: sourceBridge,\r\n            targetBridge: targetBridge,\r\n            creationTime: block.timestamp,\r\n            isActive: true,\r\n            confidenceThreshold: confidenceThreshold\r\n        });\r\n        \r\n        emit ChannelCreated(channelId, sourceBridge, targetBridge);\r\n        return channelId;\r\n    }\r\n}\r\n\r\n/**\r\n * @title SpeculativeTransactionHandler\r\n * @dev Handles creation and management of speculative transactions\r\n */\r\ncontract SpeculativeTransactionHandler is ReentrancyGuard, AccessControl {\r\n    using TransactionTypes for TransactionTypes.SpeculativeTx;\r\n    \r\n    struct RBFParams {\r\n        uint256 beta;\r\n        uint256 epsilon;\r\n        bytes interpolationData;\r\n    }\r\n    \r\n    mapping(bytes32 => RBFParams) public rbfParams;\r\n    \r\n    event SpeculativeCalculationComplete(bytes32 indexed txId, uint256 beta, uint256 epsilon);\r\n    \r\n    struct RBFPoint {\r\n        uint256 x;\r\n        uint256 y;\r\n        uint256 lambda;\r\n    }\r\n\r\n    struct RBFCalculation {\r\n        uint256 beta;\r\n        uint256 epsilon;\r\n        uint256 pointCount;\r\n        mapping(uint256 => RBFPoint) points;\r\n    }\r\n\r\n    mapping(bytes32 => RBFCalculation) private rbfCalculations;\r\n\r\n    uint256 private constant PRECISION = 1e18;\r\n\r\n    function calculateRBFInterpolation(\r\n        bytes32 txId,\r\n        bytes memory data,\r\n        uint256 beta\r\n    ) external nonReentrant returns (bytes memory) {\r\n        (RBFPoint[] memory inputPoints) = abi.decode(data, (RBFPoint[]));\r\n        require(inputPoints.length > 0, \"No input points provided\");\r\n\r\n        RBFCalculation storage calc = rbfCalculations[txId];\r\n        calc.beta = beta;\r\n        calc.pointCount = inputPoints.length;\r\n\r\n        uint256[] memory virtualPoints = new uint256[](inputPoints.length);\r\n        \r\n        for (uint256 i = 0; i < inputPoints.length; i++) {\r\n            uint256 sum = 0;\r\n            \r\n            for (uint256 j = 0; j < inputPoints.length; j++) {\r\n                uint256 distance = calculateSquaredDistance(\r\n                    inputPoints[i].x,\r\n                    inputPoints[i].y,\r\n                    inputPoints[j].x,\r\n                    inputPoints[j].y\r\n                );\r\n                \r\n                uint256 phi = calculateGaussianRBF(distance, beta);\r\n                sum = addFixedPoint(sum, multiplyFixedPoint(inputPoints[j].lambda, phi));\r\n            }\r\n            \r\n            virtualPoints[i] = sum;\r\n            calc.points[i] = RBFPoint({\r\n                x: inputPoints[i].x,\r\n                y: inputPoints[i].y,\r\n                lambda: sum\r\n            });\r\n        }\r\n\r\n        require(monitorConvergence(txId, virtualPoints), \"RBF interpolation did not converge\");\r\n\r\n        return abi.encode(virtualPoints);\r\n    }\r\n\r\n    function calculateSquaredDistance(\r\n        uint256 x1,\r\n        uint256 y1,\r\n        uint256 x2,\r\n        uint256 y2\r\n    ) internal pure returns (uint256) {\r\n        uint256 dx = x1 > x2 ? x1 - x2 : x2 - x1;\r\n        uint256 dy = y1 > y2 ? y1 - y2 : y2 - y1;\r\n        \r\n        return addFixedPoint(\r\n            multiplyFixedPoint(dx, dx),\r\n            multiplyFixedPoint(dy, dy)\r\n        );\r\n    }\r\n\r\n    function calculateGaussianRBF(\r\n        uint256 distance,\r\n        uint256 beta\r\n    ) internal pure returns (uint256) {\r\n        uint256 exponent = multiplyFixedPoint(beta, distance);\r\n        return exponentialDecay(exponent);\r\n    }\r\n\r\n    function exponentialDecay(uint256 x) internal pure returns (uint256) {\r\n        uint256 result = PRECISION;\r\n        uint256 term = PRECISION;\r\n        \r\n        for (uint256 i = 1; i <= 5; i++) {\r\n            term = multiplyFixedPoint(term, x) / i;\r\n            if (i % 2 == 1) {\r\n                result = result > term ? result - term : 0;\r\n            } else {\r\n                result = addFixedPoint(result, term);\r\n            }\r\n        }\r\n        \r\n        return result;\r\n    }\r\n\r\n    function monitorConvergence(\r\n        bytes32 txId,\r\n        uint256[] memory virtualPoints\r\n    ) internal view returns (bool) {\r\n        RBFCalculation storage calc = rbfCalculations[txId];\r\n        \r\n        for (uint256 i = 0; i < virtualPoints.length; i++) {\r\n            uint256 difference = virtualPoints[i] > calc.points[i].lambda ?\r\n                virtualPoints[i] - calc.points[i].lambda :\r\n                calc.points[i].lambda - virtualPoints[i];\r\n                \r\n            if (difference > calc.epsilon) {\r\n                return false;\r\n            }\r\n        }\r\n        \r\n        return true;\r\n    }\r\n\r\n    function multiplyFixedPoint(uint256 a, uint256 b) internal pure returns (uint256) {\r\n        return (a * b) / PRECISION;\r\n    }\r\n\r\n    function addFixedPoint(uint256 a, uint256 b) internal pure returns (uint256) {\r\n        return a + b;\r\n    }\r\n}\r\n/**\r\n * @title ConfidenceScoreCalculator\r\n * @dev Calculates and manages confidence scores for transactions\r\n */\r\n\r\ncontract ConfidenceScoreCalculator is AccessControl {\r\n    using FixedPointMath for uint256;\r\n\r\n    mapping(address => uint256[]) private transactionFrequencies;\r\n    mapping(address => ScoreComponents) public scoreComponents;\r\n    mapping(address => ReputationData) private reputationStore;\r\n\r\n    uint256 private constant MAX_FREQUENCY_SAMPLES = 100;\r\n    uint256 private constant PRECISION = 1e18;\r\n    \r\n    uint256 private constant OPTIMAL_LOAD = 700 * 1e15;\r\n    uint256 private constant LOAD_SENSITIVITY = 50 * 1e15;\r\n    uint256 private constant DELTA = 800 * 1e15;\r\n    uint256 private constant K = 100 * 1e15;\r\n    uint256 private constant TAU = 10;\r\n    uint256 private constant ALPHA = 600 * 1e15;\r\n    uint256 private constant BETA = 400 * 1e15;\r\n    uint256 private constant LAMBDA = 100 * 1e15;\r\n    uint256 private constant GAMMA = 800 * 1e15;\r\n\r\n    uint256 public constant HIGH_CONFIDENCE_THRESHOLD = 800;\r\n    uint256 public constant LOW_CONFIDENCE_THRESHOLD = 500;\r\n    \r\n    uint256 public constant SENDER_REPUTATION_WEIGHT = 300;\r\n    uint256 public constant TRANSACTION_PATTERN_WEIGHT = 200;\r\n    uint256 public constant ZK_VERIFICATION_WEIGHT = 300;\r\n    uint256 public constant NETWORK_STATE_WEIGHT = 200;\r\n\r\n    struct ScoreComponents {\r\n        uint256 senderReputation;\r\n        uint256 transactionPattern;\r\n        uint256 zkVerification;\r\n        uint256 networkState;\r\n    }\r\n\r\n    struct ReputationData {\r\n        uint256 successfulTx;\r\n        uint256 totalTx;\r\n        uint256 failedAttempts;\r\n    }\r\n\r\n    event ConfidenceScoreCalculated(address indexed sender, uint256 score);\r\n    event ReputationUpdated(address indexed sender, uint256 successfulTx, uint256 totalTx);\r\n\r\n    constructor() {\r\n        _setupRole(DEFAULT_ADMIN_ROLE, msg.sender);\r\n    }\r\n\r\n    function calculateConfidenceScore(\r\n        address sender,\r\n        uint256 txFrequency,\r\n        bool zkProofValid,\r\n        uint256 networkLoad\r\n    ) external view returns (uint256) {\r\n        require(sender != address(0), \"Invalid sender address\");\r\n        \r\n        uint256 senderScore = calculateSenderReputation(sender);\r\n        uint256 patternScore = calculateTransactionPattern(txFrequency);\r\n        uint256 zkScore = calculateZKScore(zkProofValid, txFrequency);\r\n        uint256 networkScore = calculateNetworkScore(networkLoad);\r\n        \r\n        return (senderScore * SENDER_REPUTATION_WEIGHT +\r\n                patternScore * TRANSACTION_PATTERN_WEIGHT +\r\n                zkScore * ZK_VERIFICATION_WEIGHT +\r\n                networkScore * NETWORK_STATE_WEIGHT) / 1000;\r\n    }\r\n\r\n    function calculateSenderReputation(address sender) internal view returns (uint256) {\r\n        ReputationData storage repData = reputationStore[sender];\r\n        \r\n        if (repData.totalTx == 0) return 0;\r\n\r\n        uint256 successRatio = (repData.successfulTx * PRECISION) / repData.totalTx;\r\n        uint256 weightedSuccess = successRatio.multiplyFixedPoint(ALPHA);\r\n        \r\n        uint256 failurePenalty = FixedPointMath.exponentialDecay(\r\n            uint256(repData.failedAttempts).multiplyFixedPoint(LAMBDA)\r\n        );\r\n        uint256 weightedFailure = failurePenalty.multiplyFixedPoint(BETA);\r\n        \r\n        return weightedSuccess.addFixedPoint(weightedFailure);\r\n    }\r\n\r\n    function calculateTransactionPattern(uint256 frequency) internal view returns (uint256) {\r\n        uint256 meanFreq = getMeanFrequency();\r\n        uint256 variance = getVariance();\r\n        \r\n        if (variance == 0) return PRECISION;\r\n        \r\n        uint256 diff = frequency > meanFreq ? \r\n            frequency - meanFreq : \r\n            meanFreq - frequency;\r\n        uint256 diffSquared = diff.multiplyFixedPoint(diff);\r\n        \r\n        uint256 denominator = 2 * variance;\r\n        uint256 exponent = diffSquared / denominator;\r\n        uint256 expValue = FixedPointMath.exponentialDecay(exponent);\r\n        \r\n        return GAMMA.multiplyFixedPoint(expValue);\r\n    }\r\n\r\n    function calculateZKScore(\r\n        bool proofValid,\r\n        uint256 verificationTime\r\n    ) internal pure returns (uint256) {\r\n        if (!proofValid) return 0;\r\n        \r\n        uint256 timeScore;\r\n        if (verificationTime <= TAU) {\r\n            timeScore = PRECISION;\r\n        } else {\r\n            uint256 timeDiff = verificationTime - TAU;\r\n            uint256 exponent = K.multiplyFixedPoint(timeDiff);\r\n            timeScore = PRECISION / (PRECISION + FixedPointMath.exponentialGrowth(exponent));\r\n        }\r\n        \r\n        uint256 proofScore = DELTA.multiplyFixedPoint(PRECISION);\r\n        uint256 timeWeightedScore = (PRECISION - DELTA).multiplyFixedPoint(timeScore);\r\n        \r\n        return proofScore.addFixedPoint(timeWeightedScore);\r\n    }\r\n\r\n    function calculateNetworkScore(uint256 networkLoad) internal pure returns (uint256) {\r\n        if (networkLoad >= PRECISION) return 0;\r\n        \r\n        uint256 resourceRatio = PRECISION - networkLoad;\r\n        uint256 loadDiff = networkLoad > OPTIMAL_LOAD ? \r\n            networkLoad - OPTIMAL_LOAD : \r\n            OPTIMAL_LOAD - networkLoad;\r\n            \r\n        uint256 exponent = LOAD_SENSITIVITY.multiplyFixedPoint(loadDiff);\r\n        uint256 loadFactor = PRECISION / (PRECISION + FixedPointMath.exponentialGrowth(exponent));\r\n        \r\n        return resourceRatio.multiplyFixedPoint(loadFactor);\r\n    }\r\n\r\n    function getMeanFrequency() internal view returns (uint256) {\r\n        uint256[] storage frequencies = transactionFrequencies[msg.sender];\r\n        if (frequencies.length == 0) return 0;\r\n        \r\n        uint256 sum = 0;\r\n        for (uint256 i = 0; i < frequencies.length; i++) {\r\n            sum = sum.addFixedPoint(frequencies[i]);\r\n        }\r\n        return sum / frequencies.length;\r\n    }\r\n    \r\n    function getVariance() internal view returns (uint256) {\r\n        uint256[] storage frequencies = transactionFrequencies[msg.sender];\r\n        if (frequencies.length == 0) return 0;\r\n        \r\n        uint256 mean = getMeanFrequency();\r\n        uint256 sumSquaredDiff = 0;\r\n        \r\n        for (uint256 i = 0; i < frequencies.length; i++) {\r\n            uint256 diff = frequencies[i] > mean ? \r\n                frequencies[i] - mean : \r\n                mean - frequencies[i];\r\n            sumSquaredDiff = sumSquaredDiff.addFixedPoint(diff.multiplyFixedPoint(diff));\r\n        }\r\n        \r\n        return sumSquaredDiff / frequencies.length;\r\n    }\r\n\r\n    function updateTransactionFrequency(uint256 frequency) external {\r\n        uint256[] storage frequencies = transactionFrequencies[msg.sender];\r\n        \r\n        if (frequencies.length >= MAX_FREQUENCY_SAMPLES) {\r\n            // Remove oldest frequency\r\n            for (uint256 i = 0; i < frequencies.length - 1; i++) {\r\n                frequencies[i] = frequencies[i + 1];\r\n            }\r\n            frequencies[frequencies.length - 1] = frequency;\r\n        } else {\r\n            frequencies.push(frequency);\r\n        }\r\n    }\r\n}\r\n\r\ncontract AssetTransferProcessor is ReentrancyGuard, AccessControl {\r\n    struct AssetTransfer {\r\n        bytes32 txId;\r\n        address asset;\r\n        uint256 amount;\r\n        uint256 lockTime;\r\n        bytes32 hashLock;\r\n        bool isCompleted;\r\n    }\r\n    \r\n    mapping(bytes32 => AssetTransfer) public assetTransfers;\r\n    \r\n    event AssetLocked(bytes32 indexed txId, address asset, uint256 amount);\r\n    event AssetReleased(bytes32 indexed txId, address asset, uint256 amount);\r\n    \r\n    function initiateAssetTransfer(\r\n        bytes32 txId,\r\n        address asset,\r\n        uint256 amount,\r\n        bytes32 hashLock\r\n    ) external nonReentrant {\r\n        assetTransfers[txId] = AssetTransfer({\r\n            txId: txId,\r\n            asset: asset,\r\n            amount: amount,\r\n            lockTime: block.timestamp + 1 hours,\r\n            hashLock: hashLock,\r\n            isCompleted: false\r\n        });\r\n        \r\n        emit AssetLocked(txId, asset, amount);\r\n    }\r\n}",
  "sourcePath": "C:\\Users\\Bonsu\\Documents\\Blockchain Multi Industrial Service Center\\Blockchain MultiIndustrial Projects\\BlockchainMultiIndustryRepo\\contracts\\passchain\\PacechainChannel.sol",
  "compiler": {
    "name": "solc",
    "version": "0.8.20+commit.a1b79de6.Emscripten.clang"
  },
  "schemaVersion": "3.4.16",
  "updatedAt": "2025-05-20T13:40:34.882Z",
  "devdoc": {
    "details": "Manages transmission channels between blockchains",
    "events": {
      "Paused(address)": {
        "details": "Emitted when the pause is triggered by `account`."
      },
      "RoleAdminChanged(bytes32,bytes32,bytes32)": {
        "details": "Emitted when `newAdminRole` is set as ``role``'s admin role, replacing `previousAdminRole` `DEFAULT_ADMIN_ROLE` is the starting admin for all roles, despite {RoleAdminChanged} not being emitted signaling this. _Available since v3.1._"
      },
      "RoleGranted(bytes32,address,address)": {
        "details": "Emitted when `account` is granted `role`. `sender` is the account that originated the contract call, an admin role bearer except when using {AccessControl-_setupRole}."
      },
      "RoleRevoked(bytes32,address,address)": {
        "details": "Emitted when `account` is revoked `role`. `sender` is the account that originated the contract call:   - if using `revokeRole`, it is the admin role bearer   - if using `renounceRole`, it is the role bearer (i.e. `account`)"
      },
      "Unpaused(address)": {
        "details": "Emitted when the pause is lifted by `account`."
      }
    },
    "kind": "dev",
    "methods": {
      "getRoleAdmin(bytes32)": {
        "details": "Returns the admin role that controls `role`. See {grantRole} and {revokeRole}. To change a role's admin, use {_setRoleAdmin}."
      },
      "grantRole(bytes32,address)": {
        "details": "Grants `role` to `account`. If `account` had not been already granted `role`, emits a {RoleGranted} event. Requirements: - the caller must have ``role``'s admin role. May emit a {RoleGranted} event."
      },
      "hasRole(bytes32,address)": {
        "details": "Returns `true` if `account` has been granted `role`."
      },
      "paused()": {
        "details": "Returns true if the contract is paused, and false otherwise."
      },
      "renounceRole(bytes32,address)": {
        "details": "Revokes `role` from the calling account. Roles are often managed via {grantRole} and {revokeRole}: this function's purpose is to provide a mechanism for accounts to lose their privileges if they are compromised (such as when a trusted device is misplaced). If the calling account had been revoked `role`, emits a {RoleRevoked} event. Requirements: - the caller must be `account`. May emit a {RoleRevoked} event."
      },
      "revokeRole(bytes32,address)": {
        "details": "Revokes `role` from `account`. If `account` had been granted `role`, emits a {RoleRevoked} event. Requirements: - the caller must have ``role``'s admin role. May emit a {RoleRevoked} event."
      },
      "supportsInterface(bytes4)": {
        "details": "See {IERC165-supportsInterface}."
      }
    },
    "title": "PacechainChannel",
    "version": 1
  },
  "userdoc": {
    "kind": "user",
    "methods": {},
    "version": 1
  }
}