{
  "contractName": "RequestManager",
  "abi": [
    {
      "inputs": [
        {
          "internalType": "contract UncertaintyBase",
          "name": "_base",
          "type": "address"
        }
      ],
      "stateMutability": "nonpayable",
      "type": "constructor"
    },
    {
      "anonymous": false,
      "inputs": [
        {
          "indexed": true,
          "internalType": "uint256",
          "name": "requestId",
          "type": "uint256"
        },
        {
          "indexed": false,
          "internalType": "address",
          "name": "requester",
          "type": "address"
        }
      ],
      "name": "RequestSubmitted",
      "type": "event"
    },
    {
      "anonymous": false,
      "inputs": [
        {
          "indexed": true,
          "internalType": "uint256",
          "name": "requestId",
          "type": "uint256"
        },
        {
          "indexed": false,
          "internalType": "address",
          "name": "responder",
          "type": "address"
        }
      ],
      "name": "ResponseReceived",
      "type": "event"
    },
    {
      "anonymous": false,
      "inputs": [
        {
          "indexed": true,
          "internalType": "uint256",
          "name": "requestId",
          "type": "uint256"
        },
        {
          "indexed": false,
          "internalType": "string",
          "name": "reason",
          "type": "string"
        }
      ],
      "name": "TransactionFailed",
      "type": "event"
    },
    {
      "inputs": [],
      "name": "failedTransactionCount",
      "outputs": [
        {
          "internalType": "uint256",
          "name": "",
          "type": "uint256"
        }
      ],
      "stateMutability": "view",
      "type": "function"
    },
    {
      "inputs": [],
      "name": "requestCount",
      "outputs": [
        {
          "internalType": "uint256",
          "name": "",
          "type": "uint256"
        }
      ],
      "stateMutability": "view",
      "type": "function"
    },
    {
      "inputs": [
        {
          "internalType": "address",
          "name": "",
          "type": "address"
        }
      ],
      "name": "requesterStats",
      "outputs": [
        {
          "internalType": "uint256",
          "name": "",
          "type": "uint256"
        }
      ],
      "stateMutability": "view",
      "type": "function"
    },
    {
      "inputs": [
        {
          "internalType": "uint256",
          "name": "",
          "type": "uint256"
        }
      ],
      "name": "requests",
      "outputs": [
        {
          "internalType": "uint256",
          "name": "id",
          "type": "uint256"
        },
        {
          "internalType": "address",
          "name": "requester",
          "type": "address"
        },
        {
          "internalType": "uint256",
          "name": "timestamp",
          "type": "uint256"
        },
        {
          "internalType": "uint256",
          "name": "confirmationTime",
          "type": "uint256"
        },
        {
          "internalType": "uint256",
          "name": "executionTime",
          "type": "uint256"
        },
        {
          "internalType": "uint256",
          "name": "cost",
          "type": "uint256"
        },
        {
          "internalType": "bool",
          "name": "isValid",
          "type": "bool"
        },
        {
          "internalType": "bool",
          "name": "isProcessed",
          "type": "bool"
        },
        {
          "internalType": "enum UncertaintyBase.Status",
          "name": "status",
          "type": "uint8"
        }
      ],
      "stateMutability": "view",
      "type": "function"
    },
    {
      "inputs": [
        {
          "internalType": "address",
          "name": "",
          "type": "address"
        }
      ],
      "name": "responderStats",
      "outputs": [
        {
          "internalType": "uint256",
          "name": "",
          "type": "uint256"
        }
      ],
      "stateMutability": "view",
      "type": "function"
    },
    {
      "inputs": [],
      "name": "responseCount",
      "outputs": [
        {
          "internalType": "uint256",
          "name": "",
          "type": "uint256"
        }
      ],
      "stateMutability": "view",
      "type": "function"
    },
    {
      "inputs": [
        {
          "internalType": "uint256",
          "name": "",
          "type": "uint256"
        }
      ],
      "name": "responses",
      "outputs": [
        {
          "internalType": "uint256",
          "name": "requestId",
          "type": "uint256"
        },
        {
          "internalType": "address",
          "name": "responder",
          "type": "address"
        },
        {
          "internalType": "uint256",
          "name": "timestamp",
          "type": "uint256"
        },
        {
          "internalType": "uint256",
          "name": "processingTime",
          "type": "uint256"
        },
        {
          "internalType": "uint256",
          "name": "cost",
          "type": "uint256"
        },
        {
          "internalType": "bool",
          "name": "isValid",
          "type": "bool"
        },
        {
          "internalType": "enum UncertaintyBase.Status",
          "name": "status",
          "type": "uint8"
        }
      ],
      "stateMutability": "view",
      "type": "function"
    },
    {
      "inputs": [],
      "name": "totalTransactionCost",
      "outputs": [
        {
          "internalType": "uint256",
          "name": "",
          "type": "uint256"
        }
      ],
      "stateMutability": "view",
      "type": "function"
    },
    {
      "inputs": [],
      "name": "submitRequest",
      "outputs": [
        {
          "internalType": "uint256",
          "name": "",
          "type": "uint256"
        }
      ],
      "stateMutability": "payable",
      "type": "function"
    },
    {
      "inputs": [
        {
          "internalType": "uint256",
          "name": "_requestId",
          "type": "uint256"
        }
      ],
      "name": "submitResponse",
      "outputs": [],
      "stateMutability": "nonpayable",
      "type": "function"
    },
    {
      "inputs": [
        {
          "internalType": "uint256",
          "name": "_requestId",
          "type": "uint256"
        },
        {
          "internalType": "string",
          "name": "_reason",
          "type": "string"
        }
      ],
      "name": "recordFailedTransaction",
      "outputs": [],
      "stateMutability": "nonpayable",
      "type": "function"
    },
    {
      "inputs": [
        {
          "internalType": "uint256",
          "name": "_requestId",
          "type": "uint256"
        }
      ],
      "name": "isRequestValid",
      "outputs": [
        {
          "internalType": "bool",
          "name": "",
          "type": "bool"
        }
      ],
      "stateMutability": "view",
      "type": "function"
    },
    {
      "inputs": [
        {
          "internalType": "uint256",
          "name": "_requestId",
          "type": "uint256"
        }
      ],
      "name": "getResponseProcessingTime",
      "outputs": [
        {
          "internalType": "uint256",
          "name": "",
          "type": "uint256"
        },
        {
          "internalType": "bool",
          "name": "",
          "type": "bool"
        }
      ],
      "stateMutability": "view",
      "type": "function"
    },
    {
      "inputs": [],
      "name": "getTotalProcessingStats",
      "outputs": [
        {
          "internalType": "uint256",
          "name": "totalTime",
          "type": "uint256"
        },
        {
          "internalType": "uint256",
          "name": "validResponses",
          "type": "uint256"
        }
      ],
      "stateMutability": "view",
      "type": "function"
    }
  ],
  "bytecode": "0x608060405234801561000f575f80fd5b50604051610eff380380610eff83398101604081905261002e91610064565b5f80546001600160a01b0319166001600160a01b0392909216919091178155600181905560028190556003819055600455610091565b5f60208284031215610074575f80fd5b81516001600160a01b038116811461008a575f80fd5b9392505050565b610e618061009e5f395ff3fe6080604052600436106100d9575f3560e01c806387b10f761161007c578063bada5cd911610057578063bada5cd91461029b578063c5597bbb146102ba578063ec4c81ed146102cf578063ed35d7e5146102fa575f80fd5b806387b10f7614610246578063b084517d1461025b578063b988e04114610286575f80fd5b80635badbe4c116100b75780635badbe4c14610155578063648f5b4d1461016a5780636512f1111461018b57806381d12c58146101ba575f80fd5b8063016caa8c146100dd5780633f8a3f4914610116578063599606c11461013f575b5f80fd5b3480156100e8575f80fd5b506100fc6100f7366004610bcf565b610371565b604080519283529015156020830152015b60405180910390f35b348015610121575f80fd5b5061012a6103c7565b6040805192835260208301919091520161010d565b610147610448565b60405190815260200161010d565b348015610160575f80fd5b5061014760015481565b348015610175575f80fd5b50610189610184366004610be6565b6106bc565b005b348015610196575f80fd5b506101aa6101a5366004610bcf565b6108fe565b604051901515815260200161010d565b3480156101c5575f80fd5b506102316101d4366004610bcf565b600560208190525f9182526040909120805460018201546002830154600384015460048501549585015460069095015493956001600160a01b039093169491939092919060ff808216916101008104821691620100009091041689565b60405161010d99989796959493929190610c8f565b348015610251575f80fd5b5061014760045481565b348015610266575f80fd5b50610147610275366004610d05565b60076020525f908152604090205481565b348015610291575f80fd5b5061014760035481565b3480156102a6575f80fd5b506101896102b5366004610bcf565b610931565b3480156102c5575f80fd5b5061014760025481565b3480156102da575f80fd5b506101476102e9366004610d05565b60086020525f908152604090205481565b348015610305575f80fd5b5061035e610314366004610bcf565b60066020525f908152604090208054600182015460028301546003840154600485015460059095015493946001600160a01b03909316939192909160ff8082169161010090041687565b60405161010d9796959493929190610d27565b5f80821580610381575060015483115b1561039057505f928392509050565b5f8381526006602052604081205490036103ae57505f928392509050565b50505f9081526006602052604090206003015490600190565b5f8060015b6001548111610443575f818152600660205260409020541580159061040157505f8181526006602052604090206005015460ff165b15610431575f818152600660205260409020600301546104219084610d87565b92508161042d81610da0565b9250505b8061043b81610da0565b9150506103cc565b509091565b5f805f9054906101000a90046001600160a01b03166001600160a01b031663a00d95266040518163ffffffff1660e01b8152600401602060405180830381865afa158015610498573d5f803e3d5ffd5b505050506040513d601f19601f820116820180604052508101906104bc9190610db8565b3410156105075760405162461bcd60e51b8152602060048201526014602482015273125b9cdd59999a58da595b9d081c185e5b595b9d60621b60448201526064015b60405180910390fd5b6001805f8282546105189190610d87565b925050819055506040518061012001604052806001548152602001336001600160a01b031681526020014281526020015f81526020015f81526020013481526020016001151581526020015f151581526020015f600381111561057d5761057d610c5b565b9052600180545f90815260056020818152604092839020855181559085015193810180546001600160a01b0319166001600160a01b039095169490941790935590830151600283015560608301516003808401919091556080840151600484015560a08401519183019190915560c083015160068301805460e086015161ffff1990911692151561ff001916929092176101009215158302178082559185015192909162ff00001916906201000090849081111561063d5761063d610c5b565b02179055509050503460035f8282546106569190610d87565b9091555050335f90815260076020526040812080546001929061067a908490610d87565b90915550506001546040513381527f67da995c6df7166078290dae7ac4f9c90eeb269d051c434663949b26f04dba1d9060200160405180910390a25060015490565b5f8054906101000a90046001600160a01b03166001600160a01b0316638da5cb5b6040518163ffffffff1660e01b8152600401602060405180830381865afa15801561070a573d5f803e3d5ffd5b505050506040513d601f19601f8201168201806040525081019061072e9190610dcf565b6001600160a01b0316336001600160a01b03161461077a5760405162461bcd60e51b81526020600482015260096024820152682737ba1037bbb732b960b91b60448201526064016104fe565b5f8311801561078b57506001548311155b6107cc5760405162461bcd60e51b8152602060048201526012602482015271125b9d985b1a59081c995c5d595cdd08125160721b60448201526064016104fe565b5f838152600560205260409020600681015460ff166108215760405162461bcd60e51b815260206004820152601160248201527014995c5d595cdd081b9bdd081d985b1a59607a1b60448201526064016104fe565b6003600682015462010000900460ff16600381111561084257610842610c5b565b0361088f5760405162461bcd60e51b815260206004820152601860248201527f416c7265616479206d61726b6564206173206661696c6564000000000000000060448201526064016104fe565b60068101805462ff000019166203000017905560048054600191905f906108b7908490610d87565b92505081905550837f928c66d179934af77068c1402019b72c4e11e567adb3915ac0838db587fef58184846040516108f0929190610dea565b60405180910390a250505050565b5f81158061090d575060015482115b1561091957505f919050565b505f9081526005602052604090206006015460ff1690565b5f8111801561094257506001548111155b6109835760405162461bcd60e51b8152602060048201526012602482015271125b9d985b1a59081c995c5d595cdd08125160721b60448201526064016104fe565b5f8181526005602052604090206006015460ff166109d75760405162461bcd60e51b815260206004820152601160248201527014995c5d595cdd081b9bdd081d985b1a59607a1b60448201526064016104fe565b5f808281526005602052604090206006015462010000900460ff166003811115610a0357610a03610c5b565b14610a465760405162461bcd60e51b815260206004820152601360248201527252657175657374206e6f742070656e64696e6760681b60448201526064016104fe565b600160025f828254610a589190610d87565b90915550505f81815260056020818152604080842060068101805462ffff00191662020100179055815160e08101835286815233818501524292810183905294869052929091526002909101546060830191610ab49190610e18565b81525f602082015260016040820152606001600290525f8281526006602090815260409182902083518155908301516001820180546001600160a01b0319166001600160a01b0390921691909117905590820151600282015560608201516003808301919091556080830151600483015560a083015160058301805460ff198116921515928317825560c086015193919261ffff1990911661ff00199091161790610100908490811115610b6a57610b6a610c5b565b021790555050335f908152600860205260408120805460019350909190610b92908490610d87565b909155505060405133815281907f9ee13eb4d21a792de435d483874c6db47bd93cc7f8198ad5785dbd4615dc750d9060200160405180910390a250565b5f60208284031215610bdf575f80fd5b5035919050565b5f805f60408486031215610bf8575f80fd5b83359250602084013567ffffffffffffffff80821115610c16575f80fd5b818601915086601f830112610c29575f80fd5b813581811115610c37575f80fd5b876020828501011115610c48575f80fd5b6020830194508093505050509250925092565b634e487b7160e01b5f52602160045260245ffd5b60048110610c8b57634e487b7160e01b5f52602160045260245ffd5b9052565b8981526001600160a01b038916602082015260408101889052606081018790526080810186905260a0810185905283151560c082015282151560e08201526101208101610ce0610100830184610c6f565b9a9950505050505050505050565b6001600160a01b0381168114610d02575f80fd5b50565b5f60208284031215610d15575f80fd5b8135610d2081610cee565b9392505050565b8781526001600160a01b038716602082015260408101869052606081018590526080810184905282151560a082015260e08101610d6760c0830184610c6f565b98975050505050505050565b634e487b7160e01b5f52601160045260245ffd5b80820180821115610d9a57610d9a610d73565b92915050565b5f60018201610db157610db1610d73565b5060010190565b5f60208284031215610dc8575f80fd5b5051919050565b5f60208284031215610ddf575f80fd5b8151610d2081610cee565b60208152816020820152818360408301375f818301604090810191909152601f909201601f19160101919050565b81810381811115610d9a57610d9a610d7356fea26469706673582212202d9a7ed2fac916467f3a3e14999e87ebfebaf853619c8b931a09ccc3ca163f7764736f6c63430008140033",
  "immutableReferences": {},
  "source": "// SPDX-License-Identifier: MIT\r\npragma solidity ^0.8.0;\r\n\r\n/**\r\n * @title UncertaintyBase\r\n * @notice Base contract with shared components for Uncertainty contracts\r\n */\r\ncontract UncertaintyBase {\r\n    address public owner;\r\n    bool private locked;\r\n    \r\n    enum Status { Pending, Processing, Completed, Failed }\r\n    \r\n    uint256 public constant MAX_PROCESSING_TIME = 1 days;\r\n    uint256 public constant BASE_COST = 0.001 ether;\r\n    \r\n    modifier onlyOwner() {\r\n        require(msg.sender == owner, \"Not owner\");\r\n        _;\r\n    }\r\n    \r\n    modifier noReentrant() {\r\n        require(!locked, \"No reentrancy\");\r\n        locked = true;\r\n        _;\r\n        locked = false;\r\n    }\r\n    \r\n    constructor() {\r\n        owner = msg.sender;\r\n        locked = false;\r\n    }\r\n    \r\n    // Simple receive function\r\n    receive() external payable {}\r\n    \r\n    // Safe withdrawal function\r\n    function withdraw() external onlyOwner {\r\n        uint256 balance = address(this).balance;\r\n        require(balance > 0, \"No funds to withdraw\");\r\n        \r\n        (bool success, ) = payable(owner).call{value: balance}(\"\");\r\n        require(success, \"Withdrawal failed\");\r\n    }\r\n}\r\n\r\n/**\r\n * @title RequestManager\r\n * @notice Handles request/response management functionality\r\n */\r\ncontract RequestManager {\r\n    UncertaintyBase private base;\r\n    \r\n    struct Request {\r\n        uint256 id;\r\n        address requester;\r\n        uint256 timestamp;\r\n        uint256 confirmationTime;\r\n        uint256 executionTime;\r\n        uint256 cost;\r\n        bool isValid;\r\n        bool isProcessed;\r\n        UncertaintyBase.Status status;\r\n    }\r\n    \r\n    struct Response {\r\n        uint256 requestId;\r\n        address responder;\r\n        uint256 timestamp;\r\n        uint256 processingTime;\r\n        uint256 cost;\r\n        bool isValid;\r\n        UncertaintyBase.Status status;\r\n    }\r\n    \r\n    uint256 public requestCount;\r\n    uint256 public responseCount;\r\n    uint256 public totalTransactionCost;\r\n    uint256 public failedTransactionCount;\r\n    \r\n    mapping(uint256 => Request) public requests;\r\n    mapping(uint256 => Response) public responses;\r\n    mapping(address => uint256) public requesterStats;\r\n    mapping(address => uint256) public responderStats;\r\n    \r\n    event RequestSubmitted(uint256 indexed requestId, address requester);\r\n    event ResponseReceived(uint256 indexed requestId, address responder);\r\n    event TransactionFailed(uint256 indexed requestId, string reason);\r\n    \r\n    constructor(UncertaintyBase _base) {\r\n        base = _base;\r\n        requestCount = 0;\r\n        responseCount = 0;\r\n        totalTransactionCost = 0;\r\n        failedTransactionCount = 0;\r\n    }\r\n    \r\n    // Function to check if sender is owner (using base contract)\r\n    modifier onlyOwner() {\r\n        require(msg.sender == base.owner(), \"Not owner\");\r\n        _;\r\n    }\r\n    \r\n    function submitRequest() external payable returns (uint256) {\r\n        require(msg.value >= base.BASE_COST(), \"Insufficient payment\");\r\n        \r\n        requestCount += 1;\r\n        \r\n        requests[requestCount] = Request({\r\n            id: requestCount,\r\n            requester: msg.sender,\r\n            timestamp: block.timestamp,\r\n            confirmationTime: 0,\r\n            executionTime: 0,\r\n            cost: msg.value,\r\n            isValid: true,\r\n            isProcessed: false,\r\n            status: UncertaintyBase.Status.Pending\r\n        });\r\n        \r\n        totalTransactionCost += msg.value;\r\n        requesterStats[msg.sender] += 1;\r\n        \r\n        emit RequestSubmitted(requestCount, msg.sender);\r\n        return requestCount;\r\n    }\r\n    \r\n    function submitResponse(uint256 _requestId) external {\r\n        require(_requestId > 0 && _requestId <= requestCount, \"Invalid request ID\");\r\n        require(requests[_requestId].isValid, \"Request not valid\");\r\n        require(requests[_requestId].status == UncertaintyBase.Status.Pending, \"Request not pending\");\r\n        \r\n        responseCount += 1;\r\n        \r\n        requests[_requestId].status = UncertaintyBase.Status.Completed;\r\n        requests[_requestId].isProcessed = true;\r\n        \r\n        responses[_requestId] = Response({\r\n            requestId: _requestId,\r\n            responder: msg.sender,\r\n            timestamp: block.timestamp,\r\n            processingTime: block.timestamp - requests[_requestId].timestamp,\r\n            cost: 0,\r\n            isValid: true,\r\n            status: UncertaintyBase.Status.Completed\r\n        });\r\n        \r\n        responderStats[msg.sender] += 1;\r\n        \r\n        emit ResponseReceived(_requestId, msg.sender);\r\n    }\r\n    \r\n    function recordFailedTransaction(uint256 _requestId, string calldata _reason) external onlyOwner {\r\n        require(_requestId > 0 && _requestId <= requestCount, \"Invalid request ID\");\r\n        Request storage request = requests[_requestId];\r\n        require(request.isValid, \"Request not valid\");\r\n        require(request.status != UncertaintyBase.Status.Failed, \"Already marked as failed\");\r\n        \r\n        request.status = UncertaintyBase.Status.Failed;\r\n        failedTransactionCount += 1;\r\n        \r\n        emit TransactionFailed(_requestId, _reason);\r\n    }\r\n    \r\n    // Helper function to get request validity\r\n    function isRequestValid(uint256 _requestId) external view returns (bool) {\r\n        if (_requestId == 0 || _requestId > requestCount) {\r\n            return false;\r\n        }\r\n        return requests[_requestId].isValid;\r\n    }\r\n    \r\n    // Helper function to get response processing time\r\n    function getResponseProcessingTime(uint256 _requestId) external view returns (uint256, bool) {\r\n        if (_requestId == 0 || _requestId > requestCount) {\r\n            return (0, false);\r\n        }\r\n        \r\n        if (responses[_requestId].requestId == 0) {\r\n            return (0, false);\r\n        }\r\n        \r\n        return (responses[_requestId].processingTime, true);\r\n    }\r\n    \r\n    // Function to get total processing time for all valid responses\r\n    function getTotalProcessingStats() external view returns (uint256 totalTime, uint256 validResponses) {\r\n        totalTime = 0;\r\n        validResponses = 0;\r\n        \r\n        for (uint256 i = 1; i <= requestCount; i++) {\r\n            if (responses[i].requestId != 0 && responses[i].isValid) {\r\n                totalTime += responses[i].processingTime;\r\n                validResponses++;\r\n            }\r\n        }\r\n        \r\n        return (totalTime, validResponses);\r\n    }\r\n}\r\n\r\n/**\r\n * @title CostAnalytics\r\n * @notice Handles cost tracking and analytics\r\n */\r\ncontract CostAnalytics {\r\n    UncertaintyBase private base;\r\n    \r\n    uint256 public dataHoldingCost;\r\n    uint256 public unavailabilityCost;\r\n    uint256 public disruptionLevel;\r\n    uint256 public escalationLevel;\r\n    \r\n    event CostRecorded(uint256 indexed requestId, uint256 cost, string costType);\r\n    \r\n    constructor(UncertaintyBase _base) {\r\n        base = _base;\r\n        dataHoldingCost = 0;\r\n        unavailabilityCost = 0;\r\n        disruptionLevel = 0;\r\n        escalationLevel = 0;\r\n    }\r\n    \r\n    // Function to check if sender is owner (using base contract)\r\n    modifier onlyOwner() {\r\n        require(msg.sender == base.owner(), \"Not owner\");\r\n        _;\r\n    }\r\n    \r\n    function calculateUnavailabilityCost(uint256 _processingTime) external onlyOwner {\r\n        if (_processingTime > base.MAX_PROCESSING_TIME()) {\r\n            uint256 penalty = (_processingTime - base.MAX_PROCESSING_TIME()) * base.BASE_COST() / 86400;\r\n            unavailabilityCost += penalty;\r\n            emit CostRecorded(0, penalty, \"Unavailability\");\r\n        }\r\n    }\r\n    \r\n    function updateDataHoldingCost(uint256 _cost) external onlyOwner {\r\n        dataHoldingCost += _cost;\r\n        emit CostRecorded(0, _cost, \"DataHolding\");\r\n    }\r\n    \r\n    function updateDisruptionLevel(uint256 _level) external onlyOwner {\r\n        disruptionLevel = _level;\r\n    }\r\n    \r\n    function updateEscalationLevel(uint256 _level) external onlyOwner {\r\n        escalationLevel = _level;\r\n    }\r\n}\r\n\r\n/**\r\n * @title UncertaintyAnalytics\r\n * @notice Main contract that combines all functionality\r\n */\r\ncontract UncertaintyAnalytics {\r\n    UncertaintyBase public base;\r\n    RequestManager public requestManager;\r\n    CostAnalytics public costAnalytics;\r\n    \r\n    constructor() {\r\n        // Create the base contract first\r\n        base = new UncertaintyBase();\r\n        \r\n        // Then create the components with the base contract\r\n        requestManager = new RequestManager(base);\r\n        costAnalytics = new CostAnalytics(base);\r\n    }\r\n    \r\n    // Forward request functions to RequestManager\r\n    function submitRequest() external payable returns (uint256) {\r\n        return requestManager.submitRequest{value: msg.value}();\r\n    }\r\n    \r\n    function submitResponse(uint256 _requestId) external {\r\n        requestManager.submitResponse(_requestId);\r\n    }\r\n    \r\n    function recordFailedTransaction(uint256 _requestId, string calldata _reason) external {\r\n        requestManager.recordFailedTransaction(_requestId, _reason);\r\n    }\r\n    \r\n    // Forward analytics functions to CostAnalytics\r\n    function calculateUnavailabilityCost(uint256 _processingTime) external {\r\n        costAnalytics.calculateUnavailabilityCost(_processingTime);\r\n    }\r\n    \r\n    function updateDataHoldingCost(uint256 _cost) external {\r\n        costAnalytics.updateDataHoldingCost(_cost);\r\n    }\r\n    \r\n    function updateDisruptionLevel(uint256 _level) external {\r\n        costAnalytics.updateDisruptionLevel(_level);\r\n    }\r\n    \r\n    function updateEscalationLevel(uint256 _level) external {\r\n        costAnalytics.updateEscalationLevel(_level);\r\n    }\r\n    \r\n    // Combined metrics function\r\n    function getMetrics() external view returns (\r\n        uint256 avgProcessingTime,\r\n        uint256 successRate,\r\n        uint256 totalCost,\r\n        uint256 disruptionCount\r\n    ) {\r\n        // Use the RequestManager's helper function to get processing stats\r\n        (uint256 totalTime, uint256 validResponses) = requestManager.getTotalProcessingStats();\r\n        \r\n        // Calculate average processing time if there are valid responses\r\n        if (validResponses > 0) {\r\n            avgProcessingTime = totalTime / validResponses;\r\n        }\r\n        \r\n        // Calculate success rate if there are any requests\r\n        if (requestManager.requestCount() > 0) {\r\n            successRate = ((requestManager.requestCount() - requestManager.failedTransactionCount()) * 100) / requestManager.requestCount();\r\n        }\r\n        \r\n        // Calculate total cost across all components\r\n        totalCost = requestManager.totalTransactionCost() + costAnalytics.dataHoldingCost() + costAnalytics.unavailabilityCost();\r\n        \r\n        // Get disruption count\r\n        disruptionCount = requestManager.failedTransactionCount();\r\n    }\r\n    \r\n    // Forward withdraw function to base\r\n    function withdraw() external {\r\n        base.withdraw();\r\n    }\r\n    \r\n    // Allow the contract to receive ETH\r\n    receive() external payable {}\r\n}",
  "sourcePath": "C:\\Users\\Bonsu\\Documents\\Blockchain Multi Industrial Service Center\\Blockchain MultiIndustrial Projects\\BlockchainMultiIndustryRepo\\contracts\\UncertaintyAnalytics.sol",
  "compiler": {
    "name": "solc",
    "version": "0.8.20+commit.a1b79de6.Emscripten.clang"
  },
  "schemaVersion": "3.4.16",
  "updatedAt": "2025-05-20T13:40:34.736Z",
  "devdoc": {
    "kind": "dev",
    "methods": {},
    "title": "RequestManager",
    "version": 1
  },
  "userdoc": {
    "kind": "user",
    "methods": {},
    "notice": "Handles request/response management functionality",
    "version": 1
  }
}