{
  "contractName": "ResponseManager",
  "abi": [
    {
      "inputs": [
        {
          "internalType": "address",
          "name": "_analytics",
          "type": "address"
        }
      ],
      "stateMutability": "nonpayable",
      "type": "constructor"
    },
    {
      "anonymous": false,
      "inputs": [
        {
          "indexed": true,
          "internalType": "address",
          "name": "recipient",
          "type": "address"
        },
        {
          "indexed": false,
          "internalType": "uint256",
          "name": "amount",
          "type": "uint256"
        }
      ],
      "name": "FundsWithdrawn",
      "type": "event"
    },
    {
      "anonymous": false,
      "inputs": [
        {
          "indexed": true,
          "internalType": "uint256",
          "name": "requestId",
          "type": "uint256"
        },
        {
          "indexed": true,
          "internalType": "address",
          "name": "responder",
          "type": "address"
        }
      ],
      "name": "ResponseSubmitted",
      "type": "event"
    },
    {
      "inputs": [],
      "name": "VERSION",
      "outputs": [
        {
          "internalType": "string",
          "name": "",
          "type": "string"
        }
      ],
      "stateMutability": "view",
      "type": "function"
    },
    {
      "inputs": [],
      "name": "owner",
      "outputs": [
        {
          "internalType": "address",
          "name": "",
          "type": "address"
        }
      ],
      "stateMutability": "view",
      "type": "function"
    },
    {
      "inputs": [
        {
          "internalType": "uint256",
          "name": "",
          "type": "uint256"
        }
      ],
      "name": "processedRequests",
      "outputs": [
        {
          "internalType": "bool",
          "name": "",
          "type": "bool"
        }
      ],
      "stateMutability": "view",
      "type": "function"
    },
    {
      "inputs": [
        {
          "internalType": "address",
          "name": "",
          "type": "address"
        }
      ],
      "name": "responderCount",
      "outputs": [
        {
          "internalType": "uint256",
          "name": "",
          "type": "uint256"
        }
      ],
      "stateMutability": "view",
      "type": "function"
    },
    {
      "stateMutability": "payable",
      "type": "receive"
    },
    {
      "inputs": [
        {
          "internalType": "uint256",
          "name": "_requestId",
          "type": "uint256"
        }
      ],
      "name": "submitResponse",
      "outputs": [],
      "stateMutability": "nonpayable",
      "type": "function"
    },
    {
      "inputs": [
        {
          "internalType": "uint256",
          "name": "_requestId",
          "type": "uint256"
        }
      ],
      "name": "submitResponseWithCalculation",
      "outputs": [],
      "stateMutability": "nonpayable",
      "type": "function"
    },
    {
      "inputs": [
        {
          "internalType": "address",
          "name": "_responder",
          "type": "address"
        }
      ],
      "name": "getResponderCount",
      "outputs": [
        {
          "internalType": "uint256",
          "name": "count",
          "type": "uint256"
        }
      ],
      "stateMutability": "view",
      "type": "function"
    },
    {
      "inputs": [],
      "name": "getAnalyticsMetrics",
      "outputs": [
        {
          "internalType": "uint256",
          "name": "avgProcessingTime",
          "type": "uint256"
        },
        {
          "internalType": "uint256",
          "name": "successRate",
          "type": "uint256"
        },
        {
          "internalType": "uint256",
          "name": "totalCost",
          "type": "uint256"
        },
        {
          "internalType": "uint256",
          "name": "disruptionCount",
          "type": "uint256"
        }
      ],
      "stateMutability": "view",
      "type": "function"
    },
    {
      "inputs": [],
      "name": "withdraw",
      "outputs": [],
      "stateMutability": "nonpayable",
      "type": "function"
    },
    {
      "inputs": [
        {
          "internalType": "address",
          "name": "_newOwner",
          "type": "address"
        }
      ],
      "name": "transferOwnership",
      "outputs": [],
      "stateMutability": "nonpayable",
      "type": "function"
    }
  ],
  "bytecode": "0x60a060405234801561000f575f80fd5b50604051610b35380380610b3583398101604081905261002e9161012b565b6001600160a01b0381166100a35760405162461bcd60e51b815260206004820152603160248201527f526573706f6e73654d616e616765723a20616e616c797469637320616464726560448201527073732063616e6e6f74206265207a65726f60781b60648201526084015b60405180910390fd5b803b806101085760405162461bcd60e51b815260206004820152602d60248201527f526573706f6e73654d616e616765723a20616e616c7974696373206d7573742060448201526c189948184818dbdb9d1c9858dd609a1b606482015260840161009a565b506001600160a01b03166080525f80546001600160a01b03191633179055610158565b5f6020828403121561013b575f80fd5b81516001600160a01b0381168114610151575f80fd5b9392505050565b6080516109b06101855f395f818161026d015281816105170152818161058a01526106bb01526109b05ff3fe608060405260043610610092575f3560e01c80638da5cb5b116100575780638da5cb5b14610178578063bada5cd9146101ae578063e6f0af6e146101cd578063f2fde38b1461020b578063ffa1ad741461022a575f80fd5b806327e9b7971461009d57806333f0e49f146100db5780633ccfd60b1461010f57806374f2bb751461012557806376087b3414610159575f80fd5b3661009957005b5f80fd5b3480156100a8575f80fd5b506100c86100b73660046107ac565b60016020525f908152604090205481565b6040519081526020015b60405180910390f35b3480156100e6575f80fd5b506100ef610267565b6040805194855260208501939093529183015260608201526080016100d2565b34801561011a575f80fd5b506101236102f9565b005b348015610130575f80fd5b506100c861013f3660046107ac565b6001600160a01b03165f9081526001602052604090205490565b348015610164575f80fd5b506101236101733660046107d9565b610477565b348015610183575f80fd5b505f54610196906001600160a01b031681565b6040516001600160a01b0390911681526020016100d2565b3480156101b9575f80fd5b506101236101c83660046107d9565b61061b565b3480156101d8575f80fd5b506101fb6101e73660046107d9565b60026020525f908152604090205460ff1681565b60405190151581526020016100d2565b348015610216575f80fd5b506101236102253660046107ac565b6106f2565b348015610235575f80fd5b5061025a604051806040016040528060058152602001640312e302e360dc1b81525081565b6040516100d291906107f0565b5f805f807f00000000000000000000000000000000000000000000000000000000000000006001600160a01b0316637606f7816040518163ffffffff1660e01b8152600401608060405180830381865afa1580156102c7573d5f803e3d5ffd5b505050506040513d601f19601f820116820180604052508101906102eb919061083b565b935093509350935090919293565b5f546001600160a01b0316331461032b5760405162461bcd60e51b81526004016103229061086e565b60405180910390fd5b47806103875760405162461bcd60e51b815260206004820152602560248201527f526573706f6e73654d616e616765723a206e6f2066756e647320746f20776974604482015264686472617760d81b6064820152608401610322565b5f80546040516001600160a01b039091169083908381818185875af1925050503d805f81146103d1576040519150601f19603f3d011682016040523d82523d5f602084013e6103d6565b606091505b50509050806104325760405162461bcd60e51b815260206004820152602260248201527f526573706f6e73654d616e616765723a207769746864726177616c206661696c604482015261195960f21b6064820152608401610322565b5f546040518381526001600160a01b03909116907feaff4b37086828766ad3268786972c0cd24259d4c87a80f9d3963a3c3d999b0d9060200160405180910390a25050565b5f81116104965760405162461bcd60e51b8152600401610322906108b6565b5f8181526002602052604090205460ff16156104c45760405162461bcd60e51b81526004016103229061090b565b5f818152600260209081526040808320805460ff191660019081179091553384529182905282208054919290916104fc908490610955565b909155505060405163bada5cd960e01b8152600481018290527f00000000000000000000000000000000000000000000000000000000000000006001600160a01b03169063bada5cd9906024015f604051808303815f87803b158015610560575f80fd5b505af1158015610572573d5f803e3d5ffd5b5050604051631deb3dad60e11b8152600481018490527f00000000000000000000000000000000000000000000000000000000000000006001600160a01b03169250633bd67b5a91506024015b5f604051808303815f87803b1580156105d6575f80fd5b505af11580156105e8573d5f803e3d5ffd5b50506040513392508391507fd34a91eddebc3a46f0193e4f54124f90bd00de34c64b5407562def103949d006905f90a350565b5f811161063a5760405162461bcd60e51b8152600401610322906108b6565b5f8181526002602052604090205460ff16156106685760405162461bcd60e51b81526004016103229061090b565b5f818152600260209081526040808320805460ff191660019081179091553384529182905282208054919290916106a0908490610955565b909155505060405163bada5cd960e01b8152600481018290527f00000000000000000000000000000000000000000000000000000000000000006001600160a01b03169063bada5cd9906024016105bf565b5f546001600160a01b0316331461071b5760405162461bcd60e51b81526004016103229061086e565b6001600160a01b03811661078b5760405162461bcd60e51b815260206004820152603160248201527f526573706f6e73654d616e616765723a206e6577206f776e65722063616e6e6f60448201527074206265207a65726f206164647265737360781b6064820152608401610322565b5f80546001600160a01b0319166001600160a01b0392909216919091179055565b5f602082840312156107bc575f80fd5b81356001600160a01b03811681146107d2575f80fd5b9392505050565b5f602082840312156107e9575f80fd5b5035919050565b5f6020808352835180828501525f5b8181101561081b578581018301518582016040015282016107ff565b505f604082860101526040601f19601f8301168501019250505092915050565b5f805f806080858703121561084e575f80fd5b505082516020840151604085015160609095015191969095509092509050565b60208082526028908201527f526573706f6e73654d616e616765723a2063616c6c6572206973206e6f74207460408201526734329037bbb732b960c11b606082015260800190565b60208082526035908201527f526573706f6e73654d616e616765723a2072657175657374204944206d7573746040820152742062652067726561746572207468616e207a65726f60581b606082015260800190565b6020808252602a908201527f526573706f6e73654d616e616765723a207265717565737420616c7265616479604082015269081c1c9bd8d95cdcd95960b21b606082015260800190565b8082018082111561097457634e487b7160e01b5f52601160045260245ffd5b9291505056fea2646970667358221220ac6c101452e790048707bf86ab812cd609a2168a8f381efe3ae059fbf19f2a8464736f6c63430008140033",
  "immutableReferences": {
    "8975": [
      {
        "length": 32,
        "start": 621
      },
      {
        "length": 32,
        "start": 1303
      },
      {
        "length": 32,
        "start": 1418
      },
      {
        "length": 32,
        "start": 1723
      }
    ]
  },
  "source": "// SPDX-License-Identifier: MIT\r\npragma solidity ^0.8.0;\r\n\r\nimport \"./IUncertaintyAnalytics.sol\";\r\n\r\n/**\r\n * @title ResponseManager\r\n * @notice Manages response submission to the UncertaintyAnalytics contract\r\n * @dev Uses string instead of bytes32 for error messages as requested\r\n */\r\ncontract ResponseManager {\r\n    // State variables\r\n    IUncertaintyAnalytics private immutable analytics;\r\n    string public constant VERSION = \"1.0.0\";\r\n    address public owner;\r\n    \r\n    // Mapping to track responder activity\r\n    mapping(address => uint256) public responderCount;\r\n    mapping(uint256 => bool) public processedRequests;\r\n    \r\n    // Events\r\n    event ResponseSubmitted(uint256 indexed requestId, address indexed responder);\r\n    event FundsWithdrawn(address indexed recipient, uint256 amount);\r\n    \r\n    // Modifiers\r\n    modifier onlyOwner() {\r\n        require(msg.sender == owner, \"ResponseManager: caller is not the owner\");\r\n        _;\r\n    }\r\n    \r\n    /**\r\n     * @notice Contract constructor\r\n     * @param _analytics Address of the UncertaintyAnalytics contract\r\n     */\r\n    constructor(address _analytics) {\r\n        require(_analytics != address(0), \"ResponseManager: analytics address cannot be zero\");\r\n        // Check if the address contains code (is a contract)\r\n        // This could fail if deployed in the same transaction, consider removing if needed\r\n        uint256 codeSize;\r\n        assembly {\r\n            codeSize := extcodesize(_analytics)\r\n        }\r\n        require(codeSize > 0, \"ResponseManager: analytics must be a contract\");\r\n        \r\n        analytics = IUncertaintyAnalytics(_analytics);\r\n        owner = msg.sender;\r\n    }\r\n    \r\n    /**\r\n     * @notice Submit a response to a request\r\n     * @param _requestId The ID of the request to respond to\r\n     */\r\n    function submitResponse(uint256 _requestId) external {\r\n        require(_requestId > 0, \"ResponseManager: request ID must be greater than zero\");\r\n        require(!processedRequests[_requestId], \"ResponseManager: request already processed\");\r\n        \r\n        // Mark request as processed to prevent duplicate responses\r\n        processedRequests[_requestId] = true;\r\n        \r\n        // Update responder stats\r\n        responderCount[msg.sender] += 1;\r\n        \r\n        // Submit response to analytics contract\r\n        analytics.submitResponse(_requestId);\r\n        \r\n        emit ResponseSubmitted(_requestId, msg.sender);\r\n    }\r\n    \r\n    /**\r\n     * @notice Submit a response with additional calculation\r\n     * @param _requestId The ID of the request to respond to\r\n     */\r\n    function submitResponseWithCalculation(uint256 _requestId) external {\r\n        require(_requestId > 0, \"ResponseManager: request ID must be greater than zero\");\r\n        require(!processedRequests[_requestId], \"ResponseManager: request already processed\");\r\n        \r\n        // Mark request as processed to prevent duplicate responses\r\n        processedRequests[_requestId] = true;\r\n        \r\n        // Update responder stats\r\n        responderCount[msg.sender] += 1;\r\n        \r\n        // Submit response and calculate unavailability cost\r\n        analytics.submitResponse(_requestId);\r\n        analytics.calculateUnavailabilityCost(_requestId);\r\n        \r\n        emit ResponseSubmitted(_requestId, msg.sender);\r\n    }\r\n    \r\n    /**\r\n     * @notice Get the number of responses submitted by an address\r\n     * @param _responder The address to check\r\n     * @return count The number of responses\r\n     */\r\n    function getResponderCount(address _responder) external view returns (uint256 count) {\r\n        return responderCount[_responder];\r\n    }\r\n    \r\n   \r\n    function getAnalyticsMetrics() external view returns (\r\n        uint256 avgProcessingTime,\r\n        uint256 successRate,\r\n        uint256 totalCost,\r\n        uint256 disruptionCount\r\n    ) {\r\n        return analytics.getMetrics();\r\n    }\r\n    \r\n    /**\r\n     * @notice Withdraw any ETH that might be stuck in this contract\r\n     * @dev Only callable by the owner\r\n     */\r\n    function withdraw() external onlyOwner {\r\n        uint256 balance = address(this).balance;\r\n        require(balance > 0, \"ResponseManager: no funds to withdraw\");\r\n        \r\n        (bool success, ) = payable(owner).call{value: balance}(\"\");\r\n        require(success, \"ResponseManager: withdrawal failed\");\r\n        \r\n        emit FundsWithdrawn(owner, balance);\r\n    }\r\n    \r\n    /**\r\n     * @notice Change the owner of the contract\r\n     * @param _newOwner The address of the new owner\r\n     */\r\n    function transferOwnership(address _newOwner) external onlyOwner {\r\n        require(_newOwner != address(0), \"ResponseManager: new owner cannot be zero address\");\r\n        owner = _newOwner;\r\n    }\r\n    \r\n    /**\r\n     * @notice Allow the contract to receive ETH\r\n     */\r\n    receive() external payable {}\r\n}",
  "sourcePath": "C:\\Users\\Bonsu\\Documents\\Blockchain Multi Industrial Service Center\\Blockchain MultiIndustrial Projects\\BlockchainMultiIndustryRepo\\contracts\\ResponseManager.sol",
  "compiler": {
    "name": "solc",
    "version": "0.8.20+commit.a1b79de6.Emscripten.clang"
  },
  "schemaVersion": "3.4.16",
  "updatedAt": "2025-05-20T13:40:34.740Z",
  "devdoc": {
    "details": "Uses string instead of bytes32 for error messages as requested",
    "kind": "dev",
    "methods": {
      "constructor": {
        "params": {
          "_analytics": "Address of the UncertaintyAnalytics contract"
        }
      },
      "getResponderCount(address)": {
        "params": {
          "_responder": "The address to check"
        },
        "returns": {
          "count": "The number of responses"
        }
      },
      "submitResponse(uint256)": {
        "params": {
          "_requestId": "The ID of the request to respond to"
        }
      },
      "submitResponseWithCalculation(uint256)": {
        "params": {
          "_requestId": "The ID of the request to respond to"
        }
      },
      "transferOwnership(address)": {
        "params": {
          "_newOwner": "The address of the new owner"
        }
      },
      "withdraw()": {
        "details": "Only callable by the owner"
      }
    },
    "title": "ResponseManager",
    "version": 1
  },
  "userdoc": {
    "kind": "user",
    "methods": {
      "constructor": {
        "notice": "Contract constructor"
      },
      "getResponderCount(address)": {
        "notice": "Get the number of responses submitted by an address"
      },
      "submitResponse(uint256)": {
        "notice": "Submit a response to a request"
      },
      "submitResponseWithCalculation(uint256)": {
        "notice": "Submit a response with additional calculation"
      },
      "transferOwnership(address)": {
        "notice": "Change the owner of the contract"
      },
      "withdraw()": {
        "notice": "Withdraw any ETH that might be stuck in this contract"
      }
    },
    "notice": "Manages response submission to the UncertaintyAnalytics contract",
    "version": 1
  }
}