{
  "contractName": "SequencePathRouter",
  "abi": [
    {
      "anonymous": false,
      "inputs": [
        {
          "indexed": true,
          "internalType": "string",
          "name": "pathId",
          "type": "string"
        },
        {
          "indexed": false,
          "internalType": "uint256",
          "name": "disjointPathIndex",
          "type": "uint256"
        }
      ],
      "name": "DisjointPathCreated",
      "type": "event"
    },
    {
      "anonymous": false,
      "inputs": [
        {
          "indexed": true,
          "internalType": "string",
          "name": "nodeId",
          "type": "string"
        },
        {
          "indexed": false,
          "internalType": "uint256",
          "name": "successRate",
          "type": "uint256"
        }
      ],
      "name": "NodePerformanceUpdated",
      "type": "event"
    },
    {
      "anonymous": false,
      "inputs": [
        {
          "indexed": true,
          "internalType": "string",
          "name": "pathId",
          "type": "string"
        },
        {
          "indexed": false,
          "internalType": "string",
          "name": "sourceNode",
          "type": "string"
        },
        {
          "indexed": false,
          "internalType": "string",
          "name": "destinationNode",
          "type": "string"
        }
      ],
      "name": "PathCreated",
      "type": "event"
    },
    {
      "anonymous": false,
      "inputs": [
        {
          "indexed": true,
          "internalType": "string",
          "name": "pathId",
          "type": "string"
        },
        {
          "indexed": false,
          "internalType": "string",
          "name": "failedNode",
          "type": "string"
        },
        {
          "indexed": false,
          "internalType": "string[]",
          "name": "newSequence",
          "type": "string[]"
        }
      ],
      "name": "PathRerouted",
      "type": "event"
    },
    {
      "anonymous": false,
      "inputs": [
        {
          "indexed": true,
          "internalType": "string",
          "name": "pathId",
          "type": "string"
        },
        {
          "indexed": false,
          "internalType": "uint8",
          "name": "status",
          "type": "uint8"
        }
      ],
      "name": "PathStatusChanged",
      "type": "event"
    },
    {
      "anonymous": false,
      "inputs": [
        {
          "indexed": true,
          "internalType": "string",
          "name": "pathId",
          "type": "string"
        },
        {
          "indexed": false,
          "internalType": "string[]",
          "name": "pathSequence",
          "type": "string[]"
        }
      ],
      "name": "PathUpdated",
      "type": "event"
    },
    {
      "anonymous": false,
      "inputs": [
        {
          "indexed": true,
          "internalType": "string",
          "name": "pathId",
          "type": "string"
        },
        {
          "indexed": false,
          "internalType": "uint256",
          "name": "endTime",
          "type": "uint256"
        },
        {
          "indexed": false,
          "internalType": "uint256",
          "name": "packetsLost",
          "type": "uint256"
        }
      ],
      "name": "TransmissionCompleted",
      "type": "event"
    },
    {
      "anonymous": false,
      "inputs": [
        {
          "indexed": true,
          "internalType": "string",
          "name": "pathId",
          "type": "string"
        },
        {
          "indexed": false,
          "internalType": "uint256",
          "name": "startTime",
          "type": "uint256"
        }
      ],
      "name": "TransmissionStarted",
      "type": "event"
    },
    {
      "inputs": [
        {
          "internalType": "uint256",
          "name": "",
          "type": "uint256"
        }
      ],
      "name": "allPathIds",
      "outputs": [
        {
          "internalType": "string",
          "name": "",
          "type": "string"
        }
      ],
      "stateMutability": "view",
      "type": "function"
    },
    {
      "inputs": [
        {
          "internalType": "string",
          "name": "",
          "type": "string"
        },
        {
          "internalType": "uint256",
          "name": "",
          "type": "uint256"
        }
      ],
      "name": "disjointPaths",
      "outputs": [
        {
          "internalType": "string",
          "name": "pathId",
          "type": "string"
        },
        {
          "internalType": "uint256",
          "name": "creationTime",
          "type": "uint256"
        },
        {
          "internalType": "bool",
          "name": "isActive",
          "type": "bool"
        }
      ],
      "stateMutability": "view",
      "type": "function"
    },
    {
      "inputs": [
        {
          "internalType": "string",
          "name": "",
          "type": "string"
        }
      ],
      "name": "nodePacketCount",
      "outputs": [
        {
          "internalType": "uint256",
          "name": "",
          "type": "uint256"
        }
      ],
      "stateMutability": "view",
      "type": "function"
    },
    {
      "inputs": [
        {
          "internalType": "string",
          "name": "",
          "type": "string"
        }
      ],
      "name": "nodeSuccessRate",
      "outputs": [
        {
          "internalType": "uint256",
          "name": "",
          "type": "uint256"
        }
      ],
      "stateMutability": "view",
      "type": "function"
    },
    {
      "inputs": [
        {
          "internalType": "string",
          "name": "",
          "type": "string"
        },
        {
          "internalType": "uint256",
          "name": "",
          "type": "uint256"
        }
      ],
      "name": "nodeToActivePaths",
      "outputs": [
        {
          "internalType": "string",
          "name": "",
          "type": "string"
        }
      ],
      "stateMutability": "view",
      "type": "function"
    },
    {
      "inputs": [
        {
          "internalType": "string",
          "name": "",
          "type": "string"
        }
      ],
      "name": "pathStatus",
      "outputs": [
        {
          "internalType": "uint256",
          "name": "startTime",
          "type": "uint256"
        },
        {
          "internalType": "uint256",
          "name": "endTime",
          "type": "uint256"
        },
        {
          "internalType": "uint256",
          "name": "packetsTotal",
          "type": "uint256"
        },
        {
          "internalType": "uint256",
          "name": "packetsLost",
          "type": "uint256"
        },
        {
          "internalType": "uint16",
          "name": "measuredLatency",
          "type": "uint16"
        },
        {
          "internalType": "uint8",
          "name": "securityLevel",
          "type": "uint8"
        },
        {
          "internalType": "bool",
          "name": "complianceCheck",
          "type": "bool"
        }
      ],
      "stateMutability": "view",
      "type": "function"
    },
    {
      "inputs": [
        {
          "internalType": "string",
          "name": "",
          "type": "string"
        }
      ],
      "name": "paths",
      "outputs": [
        {
          "internalType": "string",
          "name": "pathId",
          "type": "string"
        },
        {
          "internalType": "string",
          "name": "sourceNode",
          "type": "string"
        },
        {
          "internalType": "string",
          "name": "destinationNode",
          "type": "string"
        },
        {
          "internalType": "bool",
          "name": "isActive",
          "type": "bool"
        },
        {
          "internalType": "uint256",
          "name": "creationTime",
          "type": "uint256"
        },
        {
          "internalType": "uint256",
          "name": "lastUpdated",
          "type": "uint256"
        },
        {
          "internalType": "uint8",
          "name": "pathStatus",
          "type": "uint8"
        },
        {
          "internalType": "string",
          "name": "serviceClass",
          "type": "string"
        }
      ],
      "stateMutability": "view",
      "type": "function"
    },
    {
      "inputs": [
        {
          "internalType": "string",
          "name": "",
          "type": "string"
        },
        {
          "internalType": "uint256",
          "name": "",
          "type": "uint256"
        }
      ],
      "name": "pathsByService",
      "outputs": [
        {
          "internalType": "string",
          "name": "",
          "type": "string"
        }
      ],
      "stateMutability": "view",
      "type": "function"
    },
    {
      "inputs": [
        {
          "internalType": "string",
          "name": "_pathId",
          "type": "string"
        },
        {
          "internalType": "string",
          "name": "_sourceNode",
          "type": "string"
        },
        {
          "internalType": "string",
          "name": "_destinationNode",
          "type": "string"
        },
        {
          "internalType": "string[]",
          "name": "_pathSequence",
          "type": "string[]"
        },
        {
          "internalType": "string",
          "name": "_serviceClass",
          "type": "string"
        }
      ],
      "name": "createPath",
      "outputs": [],
      "stateMutability": "nonpayable",
      "type": "function"
    },
    {
      "inputs": [
        {
          "internalType": "string",
          "name": "_pathId",
          "type": "string"
        },
        {
          "internalType": "string[]",
          "name": "_disjointSequence",
          "type": "string[]"
        }
      ],
      "name": "createDisjointPath",
      "outputs": [],
      "stateMutability": "nonpayable",
      "type": "function"
    },
    {
      "inputs": [
        {
          "internalType": "string",
          "name": "_pathId",
          "type": "string"
        },
        {
          "internalType": "uint256",
          "name": "_packetsTotal",
          "type": "uint256"
        },
        {
          "internalType": "uint8",
          "name": "_securityLevel",
          "type": "uint8"
        }
      ],
      "name": "startTransmission",
      "outputs": [],
      "stateMutability": "nonpayable",
      "type": "function"
    },
    {
      "inputs": [
        {
          "internalType": "string",
          "name": "_pathId",
          "type": "string"
        },
        {
          "internalType": "uint256",
          "name": "_packetsLost",
          "type": "uint256"
        },
        {
          "internalType": "uint16",
          "name": "_measuredLatency",
          "type": "uint16"
        },
        {
          "internalType": "bool",
          "name": "_complianceCheck",
          "type": "bool"
        }
      ],
      "name": "completeTransmission",
      "outputs": [],
      "stateMutability": "nonpayable",
      "type": "function"
    },
    {
      "inputs": [
        {
          "internalType": "string",
          "name": "_pathId",
          "type": "string"
        },
        {
          "internalType": "string",
          "name": "_failedNodeId",
          "type": "string"
        }
      ],
      "name": "reroutePath",
      "outputs": [],
      "stateMutability": "nonpayable",
      "type": "function"
    },
    {
      "inputs": [
        {
          "internalType": "string",
          "name": "_nodeId",
          "type": "string"
        }
      ],
      "name": "getNodePerformance",
      "outputs": [
        {
          "internalType": "uint256",
          "name": "successRate",
          "type": "uint256"
        },
        {
          "internalType": "uint256",
          "name": "packetCount",
          "type": "uint256"
        }
      ],
      "stateMutability": "view",
      "type": "function"
    },
    {
      "inputs": [
        {
          "internalType": "string",
          "name": "_serviceClass",
          "type": "string"
        }
      ],
      "name": "getPathsByServiceClass",
      "outputs": [
        {
          "internalType": "string[]",
          "name": "",
          "type": "string[]"
        }
      ],
      "stateMutability": "view",
      "type": "function"
    }
  ],
  "bytecode": "0x608060405234801561000f575f80fd5b50612a078061001d5f395ff3fe608060405234801561000f575f80fd5b50600436106100f0575f3560e01c8063ae6b737a11610093578063bd258b3d11610063578063bd258b3d146102d1578063c087776c146102f3578063e6b712d714610306578063fc7a780914610326575f80fd5b8063ae6b737a14610270578063af30219114610283578063b0dcda0214610296578063bb1f7bde146102be575f80fd5b806350df8184116100ce57806350df8184146101eb5780635de8c1161461021657806392f3d33a1461023d578063a21c24411461025d575f80fd5b806318f0e63d146100f45780631ae3c9041461010957806341270f54146101b2575b5f80fd5b6101076101023660046121d2565b610339565b005b61016f61011736600461222e565b80518082016020908101805160018083529383019290940191909120929052815490820154600283015460038401546004909401549293919290919061ffff81169060ff620100008204811691630100000090041687565b60408051978852602088019690965294860193909352606085019190915261ffff16608084015260ff1660a0830152151560c082015260e0015b60405180910390f35b6101dd6101c036600461222e565b805160208183018101805160048252928201919093012091525481565b6040519081526020016101a9565b6101dd6101f936600461222e565b805160208183018101805160058252928201919093012091525481565b61022961022436600461222e565b610591565b6040516101a99897969594939291906122b5565b61025061024b366004612330565b6107fe565b6040516101a99190612372565b61010761026b36600461238b565b6108c0565b61010761027e366004612486565b6109fe565b61025061029136600461254f565b610f1d565b6102a96102a436600461222e565b610f44565b604080519283526020830191909152016101a9565b6102506102cc366004612330565b610f8d565b6102e46102df366004612330565b610fb7565b6040516101a993929190612566565b61010761030136600461258f565b611092565b61031961031436600461222e565b611798565b6040516101a99190612638565b61010761033436600461264a565b61188a565b5f8360405161034891906126bc565b9081526040519081900360200190208054610362906126d7565b90505f0361038b5760405162461bcd60e51b81526004016103829061270f565b60405180910390fd5b5f8360405161039a91906126bc565b9081526040519081900360200190206005015460ff166103cc5760405162461bcd60e51b81526004016103829061273c565b5f836040516103db91906126bc565b9081526040519081900360200190206008015460ff161561043e5760405162461bcd60e51b815260206004820152601d60248201527f50617468206973206e6f7420696e2070656e64696e67207374617475730000006044820152606401610382565b60015f8460405161044f91906126bc565b90815260200160405180910390206008015f6101000a81548160ff021916908360ff1602179055504260018460405161048891906126bc565b9081526040519081900360200181209190915582906001906104ab9086906126bc565b908152602001604051809103902060020181905550806001846040516104d191906126bc565b908152602001604051809103902060040160026101000a81548160ff021916908360ff1602179055508260405161050891906126bc565b604051908190038120428252907ff70c7e0814791d1910555bc4b6a13f1cbf1cb8d3e38acd800b419522d33b84c69060200160405180910390a28260405161055091906126bc565b60405190819003812060018252907fd20cd6be43a0a505e13b8913e9353873f423c1871caed894458990f60c20f8f5906020015b60405180910390a2505050565b80516020818301810180515f825292820191909301209152805481906105b6906126d7565b80601f01602080910402602001604051908101604052809291908181526020018280546105e2906126d7565b801561062d5780601f106106045761010080835404028352916020019161062d565b820191905f5260205f20905b81548152906001019060200180831161061057829003601f168201915b505050505090806001018054610642906126d7565b80601f016020809104026020016040519081016040528092919081815260200182805461066e906126d7565b80156106b95780601f10610690576101008083540402835291602001916106b9565b820191905f5260205f20905b81548152906001019060200180831161069c57829003601f168201915b5050505050908060020180546106ce906126d7565b80601f01602080910402602001604051908101604052809291908181526020018280546106fa906126d7565b80156107455780601f1061071c57610100808354040283529160200191610745565b820191905f5260205f20905b81548152906001019060200180831161072857829003601f168201915b505050506005830154600684015460078501546008860154600987018054969760ff9586169794965092949091169261077d906126d7565b80601f01602080910402602001604051908101604052809291908181526020018280546107a9906126d7565b80156107f45780601f106107cb576101008083540402835291602001916107f4565b820191905f5260205f20905b8154815290600101906020018083116107d757829003601f168201915b5050505050905088565b81516020818401810180516006825292820191850191909120919052805482908110610828575f80fd5b905f5260205f20015f91509150508054610841906126d7565b80601f016020809104026020016040519081016040528092919081815260200182805461086d906126d7565b80156108b85780601f1061088f576101008083540402835291602001916108b8565b820191905f5260205f20905b81548152906001019060200180831161089b57829003601f168201915b505050505081565b5f826040516108cf91906126bc565b90815260405190819003602001902080546108e9906126d7565b90505f036109095760405162461bcd60e51b81526004016103829061270f565b5f8260405161091891906126bc565b9081526040519081900360200190206005015460ff1661094a5760405162461bcd60e51b81526004016103829061273c565b5f6109558383611bbe565b905080602001515f8460405161096b91906126bc565b9081526020016040518091039020600301908051906020019061098f929190612063565b50425f846040516109a091906126bc565b908152604051908190036020018120600701919091556109c19084906126bc565b60405180910390207fe2ae70e640abcf8c645d2a322a70924a9f86d5fbe18be3edb493fcd07a7104aa838360200151604051610584929190612768565b5f85604051610a0d91906126bc565b9081526040519081900360200190208054610a27906126d7565b159050610a6c5760405162461bcd60e51b81526020600482015260136024820152725061746820616c72656164792065786973747360681b6044820152606401610382565b600282511015610ad55760405162461bcd60e51b815260206004820152602e60248201527f50617468206d7573742068617665206174206c6561737420736f75726365206160448201526d3732103232b9ba34b730ba34b7b760911b6064820152608401610382565b8380519060200120825f81518110610aef57610aef612795565b60200260200101518051906020012014610b4b5760405162461bcd60e51b815260206004820181905260248201527f50617468206d757374207374617274207769746820736f75726365206e6f64656044820152606401610382565b82805190602001208260018451610b6291906127bd565b81518110610b7257610b72612795565b60200260200101518051906020012014610bda5760405162461bcd60e51b815260206004820152602360248201527f50617468206d75737420656e6420776974682064657374696e6174696f6e206e6044820152626f646560e81b6064820152608401610382565b6040518061014001604052808681526020018581526020018481526020018381526020018381526020016001151581526020014281526020014281526020015f60ff168152602001828152505f86604051610c3591906126bc565b90815260405190819003602001902081518190610c52908261281e565b5060208201516001820190610c67908261281e565b5060408201516002820190610c7c908261281e565b5060608201518051610c98916003840191602090910190612063565b5060808201518051610cb4916004840191602090910190612063565b5060a082015160058201805491151560ff1992831617905560c0830151600683015560e0830151600783015561010083015160088301805460ff92909216919092161790556101208201516009820190610d0e908261281e565b509050506040518060e001604052805f81526020015f81526020015f81526020015f81526020015f61ffff1681526020015f60ff1681526020015f1515815250600186604051610d5e91906126bc565b9081526040805191829003602090810190922083518155918301516001808401919091559083015160028301556060830151600383015560808301516004909201805460a085015160c090950151151563010000000263ff0000001960ff909616620100000262ffffff1990921661ffff909516949094171793909316919091179091556007805491820181555f527fa66cc928b5edb82af9bd49922954155ab7b0942694bea4ce44661d9a8736c68801610e19868261281e565b50600681604051610e2a91906126bc565b9081526040516020918190038201902080546001810182555f91825291902001610e54868261281e565b505f5b8251811015610ec6576003838281518110610e7457610e74612795565b6020026020010151604051610e8991906126bc565b9081526040516020918190038201902080546001810182555f91825291902001610eb3878261281e565b5080610ebe816128da565b915050610e57565b5084604051610ed591906126bc565b60405180910390207fc172d16f236775e7584bbf16ed4f388c832477b042a66abb8616692d3d6cd5608585604051610f0e9291906128f2565b60405180910390a25050505050565b60078181548110610f2c575f80fd5b905f5260205f20015f915090508054610841906126d7565b5f80600483604051610f5691906126bc565b908152602001604051809103902054600584604051610f7591906126bc565b90815260200160405180910390205491509150915091565b81516020818401810180516003825292820191850191909120919052805482908110610828575f80fd5b81516020818401810180516002825292820191850191909120919052805482908110610fe1575f80fd5b905f5260205f2090600402015f9150915050805f018054611001906126d7565b80601f016020809104026020016040519081016040528092919081815260200182805461102d906126d7565b80156110785780601f1061104f57610100808354040283529160200191611078565b820191905f5260205f20905b81548152906001019060200180831161105b57829003601f168201915b50505050600283015460039093015491929160ff16905083565b5f826040516110a191906126bc565b90815260405190819003602001902080546110bb906126d7565b90505f036110db5760405162461bcd60e51b81526004016103829061270f565b5f826040516110ea91906126bc565b9081526040519081900360200190206005015460ff1661111c5760405162461bcd60e51b81526004016103829061273c565b5f808360405161112c91906126bc565b90815260200160405180910390206001018054611148906126d7565b80601f0160208091040260200160405190810160405280929190818152602001828054611174906126d7565b80156111bf5780601f10611196576101008083540402835291602001916111bf565b820191905f5260205f20905b8154815290600101906020018083116111a257829003601f168201915b505050505090505f80846040516111d691906126bc565b908152602001604051809103902060020180546111f2906126d7565b80601f016020809104026020016040519081016040528092919081815260200182805461121e906126d7565b80156112695780601f1061124057610100808354040283529160200191611269565b820191905f5260205f20905b81548152906001019060200180831161124c57829003601f168201915b505050505090506002835110156112e85760405162461bcd60e51b815260206004820152603760248201527f4469736a6f696e742070617468206d7573742068617665206174206c6561737460448201527f20736f7572636520616e642064657374696e6174696f6e0000000000000000006064820152608401610382565b8180519060200120835f8151811061130257611302612795565b602002602001015180519060200120146113705760405162461bcd60e51b815260206004820152602960248201527f4469736a6f696e742070617468206d757374207374617274207769746820736f60448201526875726365206e6f646560b81b6064820152608401610382565b8080519060200120836001855161138791906127bd565b8151811061139757611397612795565b602002602001015180519060200120146114085760405162461bcd60e51b815260206004820152602c60248201527f4469736a6f696e742070617468206d75737420656e642077697468206465737460448201526b696e6174696f6e206e6f646560a01b6064820152608401610382565b5f808560405161141891906126bc565b9081526020016040518091039020600401805480602002602001604051908101604052809291908181526020015f905b828210156114f0578382905f5260205f20018054611465906126d7565b80601f0160208091040260200160405190810160405280929190818152602001828054611491906126d7565b80156114dc5780601f106114b3576101008083540402835291602001916114dc565b820191905f5260205f20905b8154815290600101906020018083116114bf57829003601f168201915b505050505081526020019060010190611448565b509293506001925050505b6001855161150991906127bd565b8110156116045760015b6001835161152191906127bd565b8110156115f15782818151811061153a5761153a612795565b60200260200101518051906020012086838151811061155b5761155b612795565b602002602001015180519060200120036115df576040805162461bcd60e51b81526020600482015260248101919091527f4469736a6f696e7420706174682063616e6e6f7420736861726520696e74657260448201527f6d656469617465206e6f6465732077697468206f726967696e616c20706174686064820152608401610382565b806115e9816128da565b915050611513565b50806115fc816128da565b9150506114fb565b50604080516080810182528681526020810186905242818301526001606082015290516002906116359088906126bc565b9081526040516020918190038201902080546001810182555f9182529190208251839260040290910190819061166b908261281e565b5060208281015180516116849260018501920190612063565b50604082015160028201556060909101516003909101805460ff19169115159190911790555f5b855181101561171a5760038682815181106116c8576116c8612795565b60200260200101516040516116dd91906126bc565b9081526040516020918190038201902080546001810182555f91825291902001611707888261281e565b5080611712816128da565b9150506116ab565b508560405161172991906126bc565b60405180910390207fca5526415cfaeaf980d8064dd253ef68d9e67fa5f344cdceafa1e0f1853a29e1600160028960405161176491906126bc565b9081526040519081900360200190205461177e91906127bd565b6040519081526020015b60405180910390a2505050505050565b60606006826040516117aa91906126bc565b9081526020016040518091039020805480602002602001604051908101604052809291908181526020015f905b8282101561187f578382905f5260205f200180546117f4906126d7565b80601f0160208091040260200160405190810160405280929190818152602001828054611820906126d7565b801561186b5780601f106118425761010080835404028352916020019161186b565b820191905f5260205f20905b81548152906001019060200180831161184e57829003601f168201915b5050505050815260200190600101906117d7565b505050509050919050565b5f8460405161189991906126bc565b90815260405190819003602001902080546118b3906126d7565b90505f036118d35760405162461bcd60e51b81526004016103829061270f565b5f846040516118e291906126bc565b9081526040519081900360200190206008015460ff166001146119475760405162461bcd60e51b815260206004820152601760248201527f50617468206973206e6f7420696e2070726f67726573730000000000000000006044820152606401610382565b80611953576003611956565b60025b5f8560405161196591906126bc565b90815260200160405180910390206008015f6101000a81548160ff021916908360ff1602179055505f60018560405161199e91906126bc565b9081526040519081900360200181204260018201556003810186905560048101805485151563010000000263ff00ffff1990911661ffff88161717905591505f9081906119ec9088906126bc565b9081526020016040518091039020600301805480602002602001604051908101604052809291908181526020015f905b82821015611ac4578382905f5260205f20018054611a39906126d7565b80601f0160208091040260200160405190810160405280929190818152602001828054611a65906126d7565b8015611ab05780601f10611a8757610100808354040283529160200191611ab0565b820191905f5260205f20905b815481529060010190602001808311611a9357829003601f168201915b505050505081526020019060010190611a1c565b5050505090505f5b8151811015611b0a57611af8828281518110611aea57611aea612795565b602002602001015185611f05565b80611b02816128da565b915050611acc565b5085604051611b1991906126bc565b6040805191829003822042835260208301889052917f7f860aa8a9ac4724e35f594786a7cd5151b1c0623759a46e4d7354c20890071f910160405180910390a285604051611b6791906126bc565b60405180910390207fd20cd6be43a0a505e13b8913e9353873f423c1871caed894458990f60c20f8f55f88604051611b9f91906126bc565b908152604051602091819003820181206008015460ff16815201611788565b611be9604051806080016040528060608152602001606081526020015f81526020015f151581525090565b5f600284604051611bfa91906126bc565b908152602001604051809103902090505f5b8154811015611eb65760015f5b838381548110611c2b57611c2b612795565b905f5260205f20906004020160010180549050811015611cbb578580519060200120848481548110611c5f57611c5f612795565b905f5260205f2090600402016001018281548110611c7f57611c7f612795565b905f5260205f2001604051611c949190612916565b604051809103902003611ca9575f9150611cbb565b80611cb3816128da565b915050611c19565b50808015611ced5750828281548110611cd657611cd6612795565b5f91825260209091206003600490920201015460ff165b15611ea357828281548110611d0457611d04612795565b905f5260205f2090600402016040518060800160405290815f82018054611d2a906126d7565b80601f0160208091040260200160405190810160405280929190818152602001828054611d56906126d7565b8015611da15780601f10611d7857610100808354040283529160200191611da1565b820191905f5260205f20905b815481529060010190602001808311611d8457829003601f168201915b5050505050815260200160018201805480602002602001604051908101604052809291908181526020015f905b82821015611e76578382905f5260205f20018054611deb906126d7565b80601f0160208091040260200160405190810160405280929190818152602001828054611e17906126d7565b8015611e625780601f10611e3957610100808354040283529160200191611e62565b820191905f5260205f20905b815481529060010190602001808311611e4557829003601f168201915b505050505081526020019060010190611dce565b505050908252506002820154602082015260039091015460ff1615156040909101529350611eff92505050565b5080611eae816128da565b915050611c0c565b5060405162461bcd60e51b815260206004820152601d60248201527f4e6f20616c7465726e6174697665207061746820617661696c61626c650000006044820152606401610382565b92915050565b600582604051611f1591906126bc565b9081526040519081900360200190208054905f611f31836128da565b91905055505f600483604051611f4791906126bc565b90815260200160405180910390205490505f815f03611f785782611f6b575f611f6e565b60645b60ff169050611ff4565b600584604051611f8891906126bc565b90815260200160405180910390205483611fa2575f611fa5565b60645b60ff166001600587604051611fba91906126bc565b908152602001604051809103902054611fd391906127bd565b611fdd9085612988565b611fe7919061299f565b611ff191906129b2565b90505b8060048560405161200591906126bc565b908152604051908190036020018120919091556120239085906126bc565b604051908190038120828252907f95a74b529cb8e2940ca96bedc5bef98ec8046911781dbc7e66f93bfe7457961c9060200160405180910390a250505050565b828054828255905f5260205f209081019282156120a7579160200282015b828111156120a75782518290612097908261281e565b5091602001919060010190612081565b506120b39291506120b7565b5090565b808211156120b3575f6120ca82826120d3565b506001016120b7565b5080546120df906126d7565b5f825580601f106120ee575050565b601f0160209004905f5260205f209081019061210a919061210d565b50565b5b808211156120b3575f815560010161210e565b634e487b7160e01b5f52604160045260245ffd5b604051601f8201601f1916810167ffffffffffffffff8111828210171561215e5761215e612121565b604052919050565b5f82601f830112612175575f80fd5b813567ffffffffffffffff81111561218f5761218f612121565b6121a2601f8201601f1916602001612135565b8181528460208386010111156121b6575f80fd5b816020850160208301375f918101602001919091529392505050565b5f805f606084860312156121e4575f80fd5b833567ffffffffffffffff8111156121fa575f80fd5b61220686828701612166565b93505060208401359150604084013560ff81168114612223575f80fd5b809150509250925092565b5f6020828403121561223e575f80fd5b813567ffffffffffffffff811115612254575f80fd5b61226084828501612166565b949350505050565b5f5b8381101561228257818101518382015260200161226a565b50505f910152565b5f81518084526122a1816020860160208601612268565b601f01601f19169290920160200192915050565b5f6101008083526122c88184018c61228a565b905082810360208401526122dc818b61228a565b905082810360408401526122f0818a61228a565b905087151560608401528660808401528560a084015260ff851660c084015282810360e0840152612321818561228a565b9b9a5050505050505050505050565b5f8060408385031215612341575f80fd5b823567ffffffffffffffff811115612357575f80fd5b61236385828601612166565b95602094909401359450505050565b602081525f612384602083018461228a565b9392505050565b5f806040838503121561239c575f80fd5b823567ffffffffffffffff808211156123b3575f80fd5b6123bf86838701612166565b935060208501359150808211156123d4575f80fd5b506123e185828601612166565b9150509250929050565b5f82601f8301126123fa575f80fd5b8135602067ffffffffffffffff8083111561241757612417612121565b8260051b612426838201612135565b938452858101830193838101908886111561243f575f80fd5b84880192505b8583101561247a5782358481111561245c575f8081fd5b61246a8a87838c0101612166565b8352509184019190840190612445565b98975050505050505050565b5f805f805f60a0868803121561249a575f80fd5b853567ffffffffffffffff808211156124b1575f80fd5b6124bd89838a01612166565b965060208801359150808211156124d2575f80fd5b6124de89838a01612166565b955060408801359150808211156124f3575f80fd5b6124ff89838a01612166565b94506060880135915080821115612514575f80fd5b61252089838a016123eb565b93506080880135915080821115612535575f80fd5b5061254288828901612166565b9150509295509295909350565b5f6020828403121561255f575f80fd5b5035919050565b606081525f612578606083018661228a565b602083019490945250901515604090910152919050565b5f80604083850312156125a0575f80fd5b823567ffffffffffffffff808211156125b7575f80fd5b6125c386838701612166565b935060208501359150808211156125d8575f80fd5b506123e1858286016123eb565b5f81518084526020808501808196508360051b810191508286015f5b8581101561262b57828403895261261984835161228a565b98850198935090840190600101612601565b5091979650505050505050565b602081525f61238460208301846125e5565b5f805f806080858703121561265d575f80fd5b843567ffffffffffffffff811115612673575f80fd5b61267f87828801612166565b94505060208501359250604085013561ffff8116811461269d575f80fd5b9150606085013580151581146126b1575f80fd5b939692955090935050565b5f82516126cd818460208701612268565b9190910192915050565b600181811c908216806126eb57607f821691505b60208210810361270957634e487b7160e01b5f52602260045260245ffd5b50919050565b60208082526013908201527214185d1a08191bd95cc81b9bdd08195e1a5cdd606a1b604082015260600190565b60208082526012908201527150617468206973206e6f742061637469766560701b604082015260600190565b604081525f61277a604083018561228a565b828103602084015261278c81856125e5565b95945050505050565b634e487b7160e01b5f52603260045260245ffd5b634e487b7160e01b5f52601160045260245ffd5b81810381811115611eff57611eff6127a9565b601f821115612819575f81815260208120601f850160051c810160208610156127f65750805b601f850160051c820191505b8181101561281557828155600101612802565b5050505b505050565b815167ffffffffffffffff81111561283857612838612121565b61284c8161284684546126d7565b846127d0565b602080601f83116001811461287f575f84156128685750858301515b5f19600386901b1c1916600185901b178555612815565b5f85815260208120601f198616915b828110156128ad5788860151825594840194600190910190840161288e565b50858210156128ca57878501515f19600388901b60f8161c191681555b5050505050600190811b01905550565b5f600182016128eb576128eb6127a9565b5060010190565b604081525f612904604083018561228a565b828103602084015261278c818561228a565b5f808354612923816126d7565b6001828116801561293b57600181146129505761297c565b60ff198416875282151583028701945061297c565b875f526020805f205f5b858110156129735781548a82015290840190820161295a565b50505082870194505b50929695505050505050565b8082028115828204841417611eff57611eff6127a9565b80820180821115611eff57611eff6127a9565b5f826129cc57634e487b7160e01b5f52601260045260245ffd5b50049056fea264697066735822122061bcf14d1b1478b7e327728da127da65d158f206094a9b64c10b1bb81bc9e96064736f6c63430008140033",
  "immutableReferences": {},
  "source": "// SPDX-License-Identifier: MIT\npragma solidity ^0.8.17;\n\n/**\n * @title SequencePathRouter\n * @dev Contract for managing routing sequences between nodes\n */\ncontract SequencePathRouter {\n    // Path record structure\n    struct PathRecord {\n        string pathId;                  // Unique path identifier\n        string sourceNode;              // Source node\n        string destinationNode;         // Destination node\n        string[] pathSequence;          // Complete node sequence for the path\n        string[] originalPath;          // Original path (for record-keeping)\n        bool isActive;                  // Whether the path is active\n        uint256 creationTime;           // When the path was created\n        uint256 lastUpdated;            // Last time the path was updated\n        uint8 pathStatus;               // 0 = Pending, 1 = In Progress, 2 = Completed, 3 = Failed\n        string serviceClass;            // Type of service (e.g., \"VoIP\", \"Streaming\", \"Standard\")\n    }\n    \n    // Path status tracking\n    struct PathStatus {\n        uint256 startTime;              // When transmission started\n        uint256 endTime;                // When transmission ended or expected to end\n        uint256 packetsTotal;           // Total number of packets in transmission\n        uint256 packetsLost;            // Number of packets lost in transmission\n        uint16 measuredLatency;         // Measured latency in ms\n        uint8 securityLevel;            // Security level of the path\n        bool complianceCheck;           // Whether the path meets QoS requirements\n    }\n\n    // Disjoint path structure \n    struct DisjointPath {\n        string pathId;                  // Reference to main path ID\n        string[] pathSequence;          // Alternative sequence of nodes\n        uint256 creationTime;           // When the disjoint path was created\n        bool isActive;                  // Whether the disjoint path is active\n    }\n    \n    // Path storage\n    mapping(string => PathRecord) public paths;               // Path ID to path record\n    mapping(string => PathStatus) public pathStatus;            // Path ID to path status\n    mapping(string => DisjointPath[]) public disjointPaths;     // Path ID to disjoint paths\n    mapping(string => string[]) public nodeToActivePaths;       // Node ID to active paths it's part of\n    mapping(string => uint256) public nodeSuccessRate;          // Node ID to success rate (0-100)\n    mapping(string => uint256) public nodePacketCount;          // Node ID to packet count processed\n    \n    // Path sequences by service class\n    mapping(string => string[]) public pathsByService;\n    \n    // All path IDs\n    string[] public allPathIds;\n    \n    // Events\n    event PathCreated(string indexed pathId, string sourceNode, string destinationNode);\n    event PathUpdated(string indexed pathId, string[] pathSequence);\n    event PathStatusChanged(string indexed pathId, uint8 status);\n    event DisjointPathCreated(string indexed pathId, uint256 disjointPathIndex);\n    event NodePerformanceUpdated(string indexed nodeId, uint256 successRate);\n    event PathRerouted(string indexed pathId, string failedNode, string[] newSequence);\n    event TransmissionStarted(string indexed pathId, uint256 startTime);\n    event TransmissionCompleted(string indexed pathId, uint256 endTime, uint256 packetsLost);\n    \n    /**\n     * @dev Create a new path\n     * @param _pathId Unique path identifier\n     * @param _sourceNode Source node\n     * @param _destinationNode Destination node\n     * @param _pathSequence Complete node sequence for the path\n     * @param _serviceClass Type of service\n     */\n    function createPath(\n        string memory _pathId,\n        string memory _sourceNode,\n        string memory _destinationNode,\n        string[] memory _pathSequence,\n        string memory _serviceClass\n    ) public {\n        // Verify path doesn't already exist\n        require(bytes(paths[_pathId].pathId).length == 0, \"Path already exists\");\n        \n        // Verify path sequence starts with source node and ends with destination node\n        require(_pathSequence.length >= 2, \"Path must have at least source and destination\");\n        require(keccak256(bytes(_pathSequence[0])) == keccak256(bytes(_sourceNode)), \"Path must start with source node\");\n        require(keccak256(bytes(_pathSequence[_pathSequence.length - 1])) == keccak256(bytes(_destinationNode)), \"Path must end with destination node\");\n        \n        // Create path record\n        paths[_pathId] = PathRecord({\n            pathId: _pathId,\n            sourceNode: _sourceNode,\n            destinationNode: _destinationNode,\n            pathSequence: _pathSequence,\n            originalPath: _pathSequence,\n            isActive: true,\n            creationTime: block.timestamp,\n            lastUpdated: block.timestamp,\n            pathStatus: 0, // Pending\n            serviceClass: _serviceClass\n        });\n        \n        // Initialize path status\n        pathStatus[_pathId] = PathStatus({\n            startTime: 0,\n            endTime: 0,\n            packetsTotal: 0,\n            packetsLost: 0,\n            measuredLatency: 0,\n            securityLevel: 0,\n            complianceCheck: false\n        });\n        \n        // Add path ID to lists\n        allPathIds.push(_pathId);\n        pathsByService[_serviceClass].push(_pathId);\n        \n        // Add path to node's active paths\n        for (uint i = 0; i < _pathSequence.length; i++) {\n            nodeToActivePaths[_pathSequence[i]].push(_pathId);\n        }\n        \n        emit PathCreated(_pathId, _sourceNode, _destinationNode);\n    }\n\n    /**\n     * @dev Create a disjoint path as an alternative route\n     * @param _pathId Path ID to create disjoint path for\n     * @param _disjointSequence Disjoint path sequence\n     */\n    function createDisjointPath(string memory _pathId, string[] memory _disjointSequence) public {\n        // Verify path exists and is active\n        require(bytes(paths[_pathId].pathId).length != 0, \"Path does not exist\");\n        require(paths[_pathId].isActive, \"Path is not active\");\n        \n        // Verify disjoint sequence starts with source node and ends with destination node\n        string memory sourceNode = paths[_pathId].sourceNode;\n        string memory destinationNode = paths[_pathId].destinationNode;\n        \n        require(_disjointSequence.length >= 2, \"Disjoint path must have at least source and destination\");\n        require(keccak256(bytes(_disjointSequence[0])) == keccak256(bytes(sourceNode)), \"Disjoint path must start with source node\");\n        require(keccak256(bytes(_disjointSequence[_disjointSequence.length - 1])) == keccak256(bytes(destinationNode)), \"Disjoint path must end with destination node\");\n        \n        // Verify disjointness - no intermediate nodes overlap with original path\n        string[] memory originalPath = paths[_pathId].originalPath;\n        for (uint i = 1; i < _disjointSequence.length - 1; i++) {\n            for (uint j = 1; j < originalPath.length - 1; j++) {\n                require(keccak256(bytes(_disjointSequence[i])) != keccak256(bytes(originalPath[j])), \"Disjoint path cannot share intermediate nodes with original path\");\n            }\n        }\n        \n        // Create disjoint path\n        DisjointPath memory disjointPath = DisjointPath({\n            pathId: _pathId,\n            pathSequence: _disjointSequence,\n            creationTime: block.timestamp,\n            isActive: true\n        });\n        \n        // Add disjoint path to list\n        disjointPaths[_pathId].push(disjointPath);\n        \n        // Add disjoint path to node's active paths\n        for (uint i = 0; i < _disjointSequence.length; i++) {\n            nodeToActivePaths[_disjointSequence[i]].push(_pathId);\n        }\n        \n        emit DisjointPathCreated(_pathId, disjointPaths[_pathId].length - 1);\n    }\n    \n    /**\n     * @dev Start transmission on a path\n     * @param _pathId Path ID\n     * @param _packetsTotal Total number of packets in transmission\n     * @param _securityLevel Security level of the path\n     */\n    function startTransmission(string memory _pathId, uint256 _packetsTotal, uint8 _securityLevel) public {\n        // Verify path exists and is active\n        require(bytes(paths[_pathId].pathId).length != 0, \"Path does not exist\");\n        require(paths[_pathId].isActive, \"Path is not active\");\n        require(paths[_pathId].pathStatus == 0, \"Path is not in pending status\");\n        \n        // Update path status\n        paths[_pathId].pathStatus = 1; // In Progress\n        pathStatus[_pathId].startTime = block.timestamp;\n        pathStatus[_pathId].packetsTotal = _packetsTotal;\n        pathStatus[_pathId].securityLevel = _securityLevel;\n        \n        emit TransmissionStarted(_pathId, block.timestamp);\n        emit PathStatusChanged(_pathId, 1);\n    }\n    \n    /**\n     * @dev Complete transmission on a path\n     * @param _pathId Path ID\n     * @param _packetsLost Number of packets lost\n     * @param _measuredLatency Measured latency in ms\n     * @param _complianceCheck Whether the path meets QoS requirements\n     */\n    function completeTransmission(\n        string memory _pathId,\n        uint256 _packetsLost,\n        uint16 _measuredLatency,\n        bool _complianceCheck\n    ) public {\n        // Verify path exists and is in progress\n        require(bytes(paths[_pathId].pathId).length != 0, \"Path does not exist\");\n        require(paths[_pathId].pathStatus == 1, \"Path is not in progress\");\n        \n        // Update path status\n        paths[_pathId].pathStatus = _complianceCheck ? 2 : 3; // Completed or Failed\n        \n        // Update transmission details\n        PathStatus storage status = pathStatus[_pathId];\n        status.endTime = block.timestamp;\n        status.packetsLost = _packetsLost;\n        status.measuredLatency = _measuredLatency;\n        status.complianceCheck = _complianceCheck;\n        \n        // Update node performance metrics\n        string[] memory pathSequence = paths[_pathId].pathSequence;\n        for (uint i = 0; i < pathSequence.length; i++) {\n            updateNodePerformance(pathSequence[i], _complianceCheck);\n        }\n        \n        emit TransmissionCompleted(_pathId, block.timestamp, _packetsLost);\n        emit PathStatusChanged(_pathId, paths[_pathId].pathStatus);\n    }\n    \n    /**\n     * @dev Update node performance metrics\n     * @param _nodeId Node identifier\n     * @param _pathSuccess Whether the path was successful\n     */\n    function updateNodePerformance(string memory _nodeId, bool _pathSuccess) internal {\n        // Increment total packet count for the node\n        nodePacketCount[_nodeId]++;\n        \n        // Calculate and update success rate\n        uint256 currentSuccessRate = nodeSuccessRate[_nodeId];\n        uint256 newSuccessRate;\n        \n        if (currentSuccessRate == 0) {\n            // First measurement\n            newSuccessRate = _pathSuccess ? 100 : 0;\n        } else {\n            // Weighted average\n            newSuccessRate = (currentSuccessRate * (nodePacketCount[_nodeId] - 1) + \n                              (_pathSuccess ? 100 : 0)) / nodePacketCount[_nodeId];\n        }\n        \n        nodeSuccessRate[_nodeId] = newSuccessRate;\n        \n        emit NodePerformanceUpdated(_nodeId, newSuccessRate);\n    }\n    \n    /**\n     * @dev Reroute a path if a node fails\n     * @param _pathId Path ID\n     * @param _failedNodeId Node that failed\n     */\n    function reroutePath(string memory _pathId, string memory _failedNodeId) public {\n        // Verify path exists and is active\n        require(bytes(paths[_pathId].pathId).length != 0, \"Path does not exist\");\n        require(paths[_pathId].isActive, \"Path is not active\");\n        \n        // Find a disjoint path\n        DisjointPath memory alternativePath = findDisjointPath(_pathId, _failedNodeId);\n        \n        // Update path sequence\n        paths[_pathId].pathSequence = alternativePath.pathSequence;\n        paths[_pathId].lastUpdated = block.timestamp;\n        \n        emit PathRerouted(_pathId, _failedNodeId, alternativePath.pathSequence);\n    }\n    \n    /**\n     * @dev Find a disjoint path avoiding a failed node\n     * @param _pathId Path ID\n     * @param _failedNodeId Node that failed\n     * @return DisjointPath An alternative path\n     */\n    function findDisjointPath(string memory _pathId, string memory _failedNodeId) internal view returns (DisjointPath memory) {\n        DisjointPath[] storage paths2 = disjointPaths[_pathId];\n        \n        for (uint i = 0; i < paths2.length; i++) {\n            // Check if this disjoint path does not include the failed node\n            bool isValidAlternative = true;\n            for (uint j = 0; j < paths2[i].pathSequence.length; j++) {\n                if (keccak256(bytes(paths2[i].pathSequence[j])) == keccak256(bytes(_failedNodeId))) {\n                    isValidAlternative = false;\n                    break;\n                }\n            }\n            \n            // Return the first valid alternative path\n            if (isValidAlternative && paths2[i].isActive) {\n                return paths2[i];\n            }\n        }\n        \n        // Revert if no alternative path found\n        revert(\"No alternative path available\");\n    }\n    \n    /**\n     * @dev Get performance metrics for a specific node\n     * @param _nodeId Node identifier\n     * @return successRate Node's success rate\n     * @return packetCount Total packets processed by the node\n     */\n    function getNodePerformance(string memory _nodeId) public view returns (uint256 successRate, uint256 packetCount) {\n        return (nodeSuccessRate[_nodeId], nodePacketCount[_nodeId]);\n    }\n    \n    /**\n     * @dev Get all paths for a specific service class\n     * @param _serviceClass Service class to query\n     * @return string[] Array of path IDs\n     */\n    function getPathsByServiceClass(string memory _serviceClass) public view returns (string[] memory) {\n        return pathsByService[_serviceClass];\n    }\n}",
  "sourcePath": "C:\\Users\\Bonsu\\Documents\\Blockchain Multi Industrial Service Center\\Blockchain MultiIndustrial Projects\\BlockchainMultiIndustryRepo\\contracts\\N2N\\SequencePathRouter.sol",
  "compiler": {
    "name": "solc",
    "version": "0.8.20+commit.a1b79de6.Emscripten.clang"
  },
  "schemaVersion": "3.4.16",
  "updatedAt": "2025-05-20T13:40:34.728Z",
  "devdoc": {
    "details": "Contract for managing routing sequences between nodes",
    "kind": "dev",
    "methods": {
      "completeTransmission(string,uint256,uint16,bool)": {
        "details": "Complete transmission on a path",
        "params": {
          "_complianceCheck": "Whether the path meets QoS requirements",
          "_measuredLatency": "Measured latency in ms",
          "_packetsLost": "Number of packets lost",
          "_pathId": "Path ID"
        }
      },
      "createDisjointPath(string,string[])": {
        "details": "Create a disjoint path as an alternative route",
        "params": {
          "_disjointSequence": "Disjoint path sequence",
          "_pathId": "Path ID to create disjoint path for"
        }
      },
      "createPath(string,string,string,string[],string)": {
        "details": "Create a new path",
        "params": {
          "_destinationNode": "Destination node",
          "_pathId": "Unique path identifier",
          "_pathSequence": "Complete node sequence for the path",
          "_serviceClass": "Type of service",
          "_sourceNode": "Source node"
        }
      },
      "getNodePerformance(string)": {
        "details": "Get performance metrics for a specific node",
        "params": {
          "_nodeId": "Node identifier"
        },
        "returns": {
          "packetCount": "Total packets processed by the node",
          "successRate": "Node's success rate"
        }
      },
      "getPathsByServiceClass(string)": {
        "details": "Get all paths for a specific service class",
        "params": {
          "_serviceClass": "Service class to query"
        },
        "returns": {
          "_0": "string[] Array of path IDs"
        }
      },
      "reroutePath(string,string)": {
        "details": "Reroute a path if a node fails",
        "params": {
          "_failedNodeId": "Node that failed",
          "_pathId": "Path ID"
        }
      },
      "startTransmission(string,uint256,uint8)": {
        "details": "Start transmission on a path",
        "params": {
          "_packetsTotal": "Total number of packets in transmission",
          "_pathId": "Path ID",
          "_securityLevel": "Security level of the path"
        }
      }
    },
    "title": "SequencePathRouter",
    "version": 1
  },
  "userdoc": {
    "kind": "user",
    "methods": {},
    "version": 1
  }
}