{
  "contractName": "StateManager",
  "abi": [
    {
      "anonymous": false,
      "inputs": [
        {
          "indexed": true,
          "internalType": "bytes32",
          "name": "chainId",
          "type": "bytes32"
        },
        {
          "indexed": true,
          "internalType": "bytes32",
          "name": "txId",
          "type": "bytes32"
        }
      ],
      "name": "ChainNotified",
      "type": "event"
    },
    {
      "anonymous": false,
      "inputs": [
        {
          "indexed": true,
          "internalType": "bytes32",
          "name": "role",
          "type": "bytes32"
        },
        {
          "indexed": true,
          "internalType": "bytes32",
          "name": "previousAdminRole",
          "type": "bytes32"
        },
        {
          "indexed": true,
          "internalType": "bytes32",
          "name": "newAdminRole",
          "type": "bytes32"
        }
      ],
      "name": "RoleAdminChanged",
      "type": "event"
    },
    {
      "anonymous": false,
      "inputs": [
        {
          "indexed": true,
          "internalType": "bytes32",
          "name": "role",
          "type": "bytes32"
        },
        {
          "indexed": true,
          "internalType": "address",
          "name": "account",
          "type": "address"
        },
        {
          "indexed": true,
          "internalType": "address",
          "name": "sender",
          "type": "address"
        }
      ],
      "name": "RoleGranted",
      "type": "event"
    },
    {
      "anonymous": false,
      "inputs": [
        {
          "indexed": true,
          "internalType": "bytes32",
          "name": "role",
          "type": "bytes32"
        },
        {
          "indexed": true,
          "internalType": "address",
          "name": "account",
          "type": "address"
        },
        {
          "indexed": true,
          "internalType": "address",
          "name": "sender",
          "type": "address"
        }
      ],
      "name": "RoleRevoked",
      "type": "event"
    },
    {
      "anonymous": false,
      "inputs": [
        {
          "indexed": true,
          "internalType": "bytes32",
          "name": "txId",
          "type": "bytes32"
        }
      ],
      "name": "StateUpdateComplete",
      "type": "event"
    },
    {
      "anonymous": false,
      "inputs": [
        {
          "indexed": true,
          "internalType": "bytes32",
          "name": "txId",
          "type": "bytes32"
        },
        {
          "indexed": false,
          "internalType": "bytes32",
          "name": "merkleRoot",
          "type": "bytes32"
        }
      ],
      "name": "StateUpdateInitiated",
      "type": "event"
    },
    {
      "anonymous": false,
      "inputs": [
        {
          "indexed": true,
          "internalType": "bytes32",
          "name": "txId",
          "type": "bytes32"
        },
        {
          "indexed": false,
          "internalType": "bool",
          "name": "isValid",
          "type": "bool"
        }
      ],
      "name": "ValidationComplete",
      "type": "event"
    },
    {
      "anonymous": false,
      "inputs": [
        {
          "indexed": true,
          "internalType": "bytes32",
          "name": "txId",
          "type": "bytes32"
        },
        {
          "indexed": false,
          "internalType": "address",
          "name": "validator",
          "type": "address"
        },
        {
          "indexed": false,
          "internalType": "uint256",
          "name": "stake",
          "type": "uint256"
        }
      ],
      "name": "ValidationSubmitted",
      "type": "event"
    },
    {
      "inputs": [],
      "name": "DEFAULT_ADMIN_ROLE",
      "outputs": [
        {
          "internalType": "bytes32",
          "name": "",
          "type": "bytes32"
        }
      ],
      "stateMutability": "view",
      "type": "function"
    },
    {
      "inputs": [],
      "name": "MIN_STAKE",
      "outputs": [
        {
          "internalType": "uint256",
          "name": "",
          "type": "uint256"
        }
      ],
      "stateMutability": "view",
      "type": "function"
    },
    {
      "inputs": [],
      "name": "VALIDATION_THRESHOLD",
      "outputs": [
        {
          "internalType": "uint256",
          "name": "",
          "type": "uint256"
        }
      ],
      "stateMutability": "view",
      "type": "function"
    },
    {
      "inputs": [],
      "name": "VALIDATOR_ROLE",
      "outputs": [
        {
          "internalType": "bytes32",
          "name": "",
          "type": "bytes32"
        }
      ],
      "stateMutability": "view",
      "type": "function"
    },
    {
      "inputs": [
        {
          "internalType": "bytes32",
          "name": "",
          "type": "bytes32"
        }
      ],
      "name": "chainStates",
      "outputs": [
        {
          "internalType": "bytes32",
          "name": "",
          "type": "bytes32"
        }
      ],
      "stateMutability": "view",
      "type": "function"
    },
    {
      "inputs": [
        {
          "internalType": "bytes32",
          "name": "role",
          "type": "bytes32"
        }
      ],
      "name": "getRoleAdmin",
      "outputs": [
        {
          "internalType": "bytes32",
          "name": "",
          "type": "bytes32"
        }
      ],
      "stateMutability": "view",
      "type": "function"
    },
    {
      "inputs": [
        {
          "internalType": "bytes32",
          "name": "role",
          "type": "bytes32"
        },
        {
          "internalType": "address",
          "name": "account",
          "type": "address"
        }
      ],
      "name": "grantRole",
      "outputs": [],
      "stateMutability": "nonpayable",
      "type": "function"
    },
    {
      "inputs": [
        {
          "internalType": "bytes32",
          "name": "role",
          "type": "bytes32"
        },
        {
          "internalType": "address",
          "name": "account",
          "type": "address"
        }
      ],
      "name": "hasRole",
      "outputs": [
        {
          "internalType": "bool",
          "name": "",
          "type": "bool"
        }
      ],
      "stateMutability": "view",
      "type": "function"
    },
    {
      "inputs": [
        {
          "internalType": "bytes32",
          "name": "role",
          "type": "bytes32"
        },
        {
          "internalType": "address",
          "name": "account",
          "type": "address"
        }
      ],
      "name": "renounceRole",
      "outputs": [],
      "stateMutability": "nonpayable",
      "type": "function"
    },
    {
      "inputs": [
        {
          "internalType": "bytes32",
          "name": "role",
          "type": "bytes32"
        },
        {
          "internalType": "address",
          "name": "account",
          "type": "address"
        }
      ],
      "name": "revokeRole",
      "outputs": [],
      "stateMutability": "nonpayable",
      "type": "function"
    },
    {
      "inputs": [
        {
          "internalType": "bytes32",
          "name": "",
          "type": "bytes32"
        }
      ],
      "name": "stateUpdates",
      "outputs": [
        {
          "internalType": "bytes32",
          "name": "txId",
          "type": "bytes32"
        },
        {
          "internalType": "bytes32",
          "name": "merkleRoot",
          "type": "bytes32"
        },
        {
          "internalType": "uint256",
          "name": "updateTime",
          "type": "uint256"
        },
        {
          "internalType": "bool",
          "name": "isComplete",
          "type": "bool"
        }
      ],
      "stateMutability": "view",
      "type": "function"
    },
    {
      "inputs": [
        {
          "internalType": "bytes32",
          "name": "txId",
          "type": "bytes32"
        },
        {
          "internalType": "bool",
          "name": "approval",
          "type": "bool"
        }
      ],
      "name": "submitValidation",
      "outputs": [],
      "stateMutability": "nonpayable",
      "type": "function"
    },
    {
      "inputs": [
        {
          "internalType": "bytes4",
          "name": "interfaceId",
          "type": "bytes4"
        }
      ],
      "name": "supportsInterface",
      "outputs": [
        {
          "internalType": "bool",
          "name": "",
          "type": "bool"
        }
      ],
      "stateMutability": "view",
      "type": "function"
    },
    {
      "inputs": [
        {
          "internalType": "bytes32",
          "name": "",
          "type": "bytes32"
        }
      ],
      "name": "validationStates",
      "outputs": [
        {
          "internalType": "uint256",
          "name": "totalStake",
          "type": "uint256"
        },
        {
          "internalType": "uint256",
          "name": "approvalStake",
          "type": "uint256"
        },
        {
          "internalType": "uint256",
          "name": "startTime",
          "type": "uint256"
        },
        {
          "internalType": "bool",
          "name": "isComplete",
          "type": "bool"
        }
      ],
      "stateMutability": "view",
      "type": "function"
    },
    {
      "inputs": [
        {
          "internalType": "address",
          "name": "",
          "type": "address"
        }
      ],
      "name": "validatorStakes",
      "outputs": [
        {
          "internalType": "uint256",
          "name": "",
          "type": "uint256"
        }
      ],
      "stateMutability": "view",
      "type": "function"
    },
    {
      "inputs": [
        {
          "internalType": "bytes32",
          "name": "txId",
          "type": "bytes32"
        },
        {
          "internalType": "bytes32[]",
          "name": "affectedChains",
          "type": "bytes32[]"
        },
        {
          "internalType": "bytes",
          "name": "txData",
          "type": "bytes"
        }
      ],
      "name": "updateState",
      "outputs": [],
      "stateMutability": "nonpayable",
      "type": "function"
    }
  ],
  "bytecode": "0x608060405234801561000f575f80fd5b5061001a5f3361001f565b6100c9565b610029828261002d565b5050565b5f828152602081815260408083206001600160a01b038516845290915290205460ff16610029575f828152602081815260408083206001600160a01b03851684529091529020805460ff191660011790556100853390565b6001600160a01b0316816001600160a01b0316837f2f8788117e7eff1d82e926ec794901d17c78024a50270940304540a733656f0d60405160405180910390a45050565b610ee6806100d65f395ff3fe608060405234801561000f575f80fd5b50600436106100fb575f3560e01c806391d1485411610093578063c49baebe11610063578063c49baebe14610277578063c84fdb341461029e578063cb1c2b5c146102bd578063d547741f146102cd575f80fd5b806391d148541461022b578063a217fddf1461023e578063aa73557814610245578063abfc569214610264575f80fd5b80632e73288e116100ce5780632e73288e146101b95780632f2ff15d146101f057806336568abe146102055780634c7b871014610218575f80fd5b806301ffc9a7146100ff57806314552f26146101275780631a16b4de1461013d578063248a9ca314610197575b5f80fd5b61011261010d366004610aff565b6102e0565b60405190151581526020015b60405180910390f35b61012f604681565b60405190815260200161011e565b61017561014b366004610b26565b600160208190525f9182526040909120805491810154600282015460039092015490919060ff1684565b604080519485526020850193909352918301521515606082015260800161011e565b61012f6101a5366004610b26565b5f9081526020819052604090206001015490565b6101756101c7366004610b26565b60036020525f908152604090208054600182015460048301546005909301549192909160ff1684565b6102036101fe366004610b58565b610316565b005b610203610213366004610b58565b61033f565b610203610226366004610b82565b6103c2565b610112610239366004610b58565b6105e3565b61012f5f81565b61012f610253366004610bb4565b60026020525f908152604090205481565b610203610272366004610c7e565b61060b565b61012f7f21702c8af46127c7fa207f89d0b0a8441bb32959a0ac7df790e9ab1a25c9892681565b61012f6102ac366004610b26565b60046020525f908152604090205481565b61012f683635c9adc5dea0000081565b6102036102db366004610b58565b61071d565b5f6001600160e01b03198216637965db0b60e01b148061031057506301ffc9a760e01b6001600160e01b03198316145b92915050565b5f8281526020819052604090206001015461033081610741565b61033a838361074e565b505050565b6001600160a01b03811633146103b45760405162461bcd60e51b815260206004820152602f60248201527f416363657373436f6e74726f6c3a2063616e206f6e6c792072656e6f756e636560448201526e103937b632b9903337b91039b2b63360891b60648201526084015b60405180910390fd5b6103be82826107d1565b5050565b6103ec7f21702c8af46127c7fa207f89d0b0a8441bb32959a0ac7df790e9ab1a25c98926336105e3565b61042a5760405162461bcd60e51b815260206004820152600f60248201526e2737ba1030903b30b634b230ba37b960891b60448201526064016103ab565b5f828152600160205260409020600381015460ff16156104825760405162461bcd60e51b815260206004820152601360248201527256616c69646174696f6e20636f6d706c65746560681b60448201526064016103ab565b335f90815260026020526040902054683635c9adc5dea000008110156104df5760405162461bcd60e51b8152602060048201526012602482015271496e73756666696369656e74207374616b6560701b60448201526064016103ab565b82156104fe5780826001015f8282546104f89190610d5e565b90915550505b80825f015f8282546105109190610d5e565b9091555050335f8181526004840160209081526040918290208490558151928352820183905285917f65586f927709161fa53840018659ef9717fe9682f2a187c28291a97e9654edd0910160405180910390a28154156105dd57815460018301545f919061057f906064610d71565b6105899190610d88565b9050604681106105db5760038301805460ff1916600190811790915560405190815285907fa668712c0b8f59efdf687dfbc672df6d8a1ab624717f5dfd9a794099f3ad48849060200160405180910390a25b505b50505050565b5f918252602082815260408084206001600160a01b0393909316845291905290205460ff1690565b5f61061581610741565b5f848152600360205260409020600581015460ff161561066f5760405162461bcd60e51b815260206004820152601560248201527453746174652075706461746520636f6d706c65746560581b60448201526064016103ab565b825160208401205f906001830181905585519091506106979060028401906020880190610aa2565b5042600483015560405181815286907ff903ab9b67310e1eee6c0feb17a6774bdd3728e4511de359c0f5321a497f56189060200160405180910390a25f5b8551811015610714576107028682815181106106f3576106f3610da7565b60200260200101518884610835565b8061070c81610dbb565b9150506106d5565b50505050505050565b5f8281526020819052604090206001015461073781610741565b61033a83836107d1565b61074b813361089a565b50565b61075882826105e3565b6103be575f828152602081815260408083206001600160a01b03851684529091529020805460ff1916600117905561078d3390565b6001600160a01b0316816001600160a01b0316837f2f8788117e7eff1d82e926ec794901d17c78024a50270940304540a733656f0d60405160405180910390a45050565b6107db82826105e3565b156103be575f828152602081815260408083206001600160a01b0385168085529252808320805460ff1916905551339285917ff6391f5c32d9c69d2a47ea670b442974b53935d1edc7fd64eb21e047a839171b9190a45050565b5f8381526004602090815260408083208490558483526003808352818420878552908101909252808320805460ff19166001179055519091849186917fe2a2dfa98e1694b1f68d6a2d6c8a2527485ba4557afa6af2a6d79cc0d565480091a350505050565b6108a482826105e3565b6103be576108b1816108f3565b6108bc836020610905565b6040516020016108cd929190610df5565b60408051601f198184030181529082905262461bcd60e51b82526103ab91600401610e69565b60606103106001600160a01b03831660145b60605f610913836002610d71565b61091e906002610d5e565b67ffffffffffffffff81111561093657610936610bcd565b6040519080825280601f01601f191660200182016040528015610960576020820181803683370190505b509050600360fc1b815f8151811061097a5761097a610da7565b60200101906001600160f81b03191690815f1a905350600f60fb1b816001815181106109a8576109a8610da7565b60200101906001600160f81b03191690815f1a9053505f6109ca846002610d71565b6109d5906001610d5e565b90505b6001811115610a4c576f181899199a1a9b1b9c1cb0b131b232b360811b85600f1660108110610a0957610a09610da7565b1a60f81b828281518110610a1f57610a1f610da7565b60200101906001600160f81b03191690815f1a90535060049490941c93610a4581610e9b565b90506109d8565b508315610a9b5760405162461bcd60e51b815260206004820181905260248201527f537472696e67733a20686578206c656e67746820696e73756666696369656e7460448201526064016103ab565b9392505050565b828054828255905f5260205f20908101928215610adb579160200282015b82811115610adb578251825591602001919060010190610ac0565b50610ae7929150610aeb565b5090565b5b80821115610ae7575f8155600101610aec565b5f60208284031215610b0f575f80fd5b81356001600160e01b031981168114610a9b575f80fd5b5f60208284031215610b36575f80fd5b5035919050565b80356001600160a01b0381168114610b53575f80fd5b919050565b5f8060408385031215610b69575f80fd5b82359150610b7960208401610b3d565b90509250929050565b5f8060408385031215610b93575f80fd5b8235915060208301358015158114610ba9575f80fd5b809150509250929050565b5f60208284031215610bc4575f80fd5b610a9b82610b3d565b634e487b7160e01b5f52604160045260245ffd5b604051601f8201601f1916810167ffffffffffffffff81118282101715610c0a57610c0a610bcd565b604052919050565b5f82601f830112610c21575f80fd5b813567ffffffffffffffff811115610c3b57610c3b610bcd565b610c4e601f8201601f1916602001610be1565b818152846020838601011115610c62575f80fd5b816020850160208301375f918101602001919091529392505050565b5f805f60608486031215610c90575f80fd5b8335925060208085013567ffffffffffffffff80821115610caf575f80fd5b818701915087601f830112610cc2575f80fd5b813581811115610cd457610cd4610bcd565b8060051b610ce3858201610be1565b918252838101850191858101908b841115610cfc575f80fd5b948601945b83861015610d1a57853582529486019490860190610d01565b97505050506040870135925080831115610d32575f80fd5b5050610d4086828701610c12565b9150509250925092565b634e487b7160e01b5f52601160045260245ffd5b8082018082111561031057610310610d4a565b808202811582820484141761031057610310610d4a565b5f82610da257634e487b7160e01b5f52601260045260245ffd5b500490565b634e487b7160e01b5f52603260045260245ffd5b5f60018201610dcc57610dcc610d4a565b5060010190565b5f5b83811015610ded578181015183820152602001610dd5565b50505f910152565b7f416363657373436f6e74726f6c3a206163636f756e742000000000000000000081525f8351610e2c816017850160208801610dd3565b7001034b99036b4b9b9b4b733903937b6329607d1b6017918401918201528351610e5d816028840160208801610dd3565b01602801949350505050565b602081525f8251806020840152610e87816040850160208701610dd3565b601f01601f19169190910160400192915050565b5f81610ea957610ea9610d4a565b505f19019056fea26469706673582212204eebcbce564003b369660e891a6e83260169b64176f1c33a2fd69e2bb3d1aa5d64736f6c63430008140033",
  "immutableReferences": {},
  "source": "// SPDX-License-Identifier: MIT\r\npragma solidity ^0.8.0;\r\n\r\nimport \"@openzeppelin/contracts/security/ReentrancyGuard.sol\";\r\nimport \"@openzeppelin/contracts/access/AccessControl.sol\";\r\n\r\n/**\r\n * @title MerkleTreeLib\r\n * @dev Library for Merkle tree operations\r\n */\r\nlibrary MerkleTreeLib {\r\n    struct MerkleTree {\r\n        bytes32 root;\r\n        mapping(bytes32 => bool) verified;\r\n    }\r\n\r\n    function verifyProof(\r\n        bytes32 root,\r\n        bytes32 leaf,\r\n        bytes32[] memory proof\r\n    ) internal pure returns (bool) {\r\n        bytes32 computedHash = leaf;\r\n        \r\n        for (uint256 i = 0; i < proof.length; i++) {\r\n            computedHash = hashPair(computedHash, proof[i]);\r\n        }\r\n        \r\n        return computedHash == root;\r\n    }\r\n    \r\n    function hashPair(bytes32 a, bytes32 b) internal pure returns (bytes32) {\r\n        return keccak256(abi.encodePacked(a, b));\r\n    }\r\n}\r\n\r\n/**\r\n * @title RelayTypes\r\n * @dev Core data structures for relay chain operations\r\n */\r\nlibrary RelayTypes {\r\n    struct Transaction {\r\n        bytes32 id;\r\n        address sourceBridge;\r\n        address targetBridge;\r\n        bytes32 originalTxHash;\r\n        bytes metadata;\r\n        bytes32 merkleRoot;\r\n        uint256 timestamp;\r\n        bool isValidated;\r\n        bool isStateUpdated;\r\n        bool isRelayed;\r\n    }\r\n\r\n    struct StateUpdate {\r\n        bytes32 txId;\r\n        bytes32 merkleRoot;\r\n        bytes32[] affectedChains;\r\n        mapping(bytes32 => bool) notificationStatus;\r\n        uint256 updateTime;\r\n        bool isComplete;\r\n    }\r\n\r\n    struct ValidationState {\r\n        uint256 totalStake;\r\n        uint256 approvalStake;\r\n        uint256 startTime;\r\n        bool isComplete;\r\n        mapping(address => uint256) validatorStakes;\r\n    }\r\n}\r\n\r\n/**\r\n * @title ProofOfStakeValidator\r\n * @dev Manages PoS validation for relay chain\r\n */\r\ncontract ProofOfStakeValidator is AccessControl {\r\n    using RelayTypes for RelayTypes.Transaction;\r\n    using RelayTypes for RelayTypes.ValidationState;\r\n    using MerkleTreeLib for MerkleTreeLib.MerkleTree;\r\n\r\n    bytes32 public constant VALIDATOR_ROLE = keccak256(\"VALIDATOR_ROLE\");\r\n    \r\n    mapping(bytes32 => RelayTypes.ValidationState) public validationStates;\r\n    mapping(address => uint256) public validatorStakes;\r\n    \r\n    uint256 public constant MIN_STAKE = 1000 ether;\r\n    uint256 public constant VALIDATION_THRESHOLD = 70; // 70% stake approval needed\r\n    \r\n    event ValidationSubmitted(bytes32 indexed txId, address validator, uint256 stake);\r\n    event ValidationComplete(bytes32 indexed txId, bool isValid);\r\n    \r\n    constructor() {\r\n        _setupRole(DEFAULT_ADMIN_ROLE, msg.sender);\r\n    }\r\n    \r\n    function submitValidation(\r\n        bytes32 txId,\r\n        bool approval\r\n    ) external {\r\n        require(hasRole(VALIDATOR_ROLE, msg.sender), \"Not a validator\");\r\n        \r\n        RelayTypes.ValidationState storage validationState = validationStates[txId];\r\n        require(!validationState.isComplete, \"Validation complete\");\r\n        \r\n        uint256 stake = validatorStakes[msg.sender];\r\n        require(stake >= MIN_STAKE, \"Insufficient stake\");\r\n        \r\n        if (approval) {\r\n            validationState.approvalStake += stake;\r\n        }\r\n        validationState.totalStake += stake;\r\n        validationState.validatorStakes[msg.sender] = stake;\r\n        \r\n        emit ValidationSubmitted(txId, msg.sender, stake);\r\n        \r\n        // Check if validation threshold is met\r\n        if (validationState.totalStake > 0) {\r\n            uint256 approvalPercentage = (validationState.approvalStake * 100) / \r\n                                        validationState.totalStake;\r\n            \r\n            if (approvalPercentage >= VALIDATION_THRESHOLD) {\r\n                validationState.isComplete = true;\r\n                emit ValidationComplete(txId, true);\r\n            }\r\n        }\r\n    }\r\n}\r\n\r\n/**\r\n * @title StateManager\r\n * @dev Handles state updates and Merkle tree management\r\n */\r\ncontract StateManager is ProofOfStakeValidator {\r\n    using MerkleTreeLib for MerkleTreeLib.MerkleTree;\r\n    \r\n    mapping(bytes32 => RelayTypes.StateUpdate) public stateUpdates;\r\n    mapping(bytes32 => bytes32) public chainStates;\r\n    \r\n    event StateUpdateInitiated(bytes32 indexed txId, bytes32 merkleRoot);\r\n    event ChainNotified(bytes32 indexed chainId, bytes32 indexed txId);\r\n    event StateUpdateComplete(bytes32 indexed txId);\r\n    \r\n    function updateState(\r\n        bytes32 txId,\r\n        bytes32[] memory affectedChains,\r\n        bytes memory txData\r\n    ) external onlyRole(DEFAULT_ADMIN_ROLE) {\r\n        RelayTypes.StateUpdate storage update = stateUpdates[txId];\r\n        require(!update.isComplete, \"State update complete\");\r\n        \r\n        bytes32 merkleRoot = createMerkleRoot(txData);\r\n        update.merkleRoot = merkleRoot;\r\n        update.affectedChains = affectedChains;\r\n        update.updateTime = block.timestamp;\r\n        \r\n        emit StateUpdateInitiated(txId, merkleRoot);\r\n        \r\n        for (uint256 i = 0; i < affectedChains.length; i++) {\r\n            notifyChain(affectedChains[i], txId, merkleRoot);\r\n        }\r\n    }\r\n    \r\n    function notifyChain(\r\n        bytes32 chainId,\r\n        bytes32 txId,\r\n        bytes32 merkleRoot\r\n    ) internal {\r\n        chainStates[chainId] = merkleRoot;\r\n        RelayTypes.StateUpdate storage update = stateUpdates[txId];\r\n        update.notificationStatus[chainId] = true;\r\n        \r\n        emit ChainNotified(chainId, txId);\r\n    }\r\n    \r\n    function createMerkleRoot(\r\n        bytes memory data\r\n    ) internal pure returns (bytes32) {\r\n        return keccak256(data);\r\n    }\r\n}\r\n\r\n/**\r\n * @title TransactionRelay\r\n * @dev Manages final transaction relay to receiving blockchain\r\n */\r\ncontract TransactionRelay is StateManager, ReentrancyGuard {\r\n    struct RelayedTransaction {\r\n        bytes32 txId;\r\n        bytes originalMetadata;\r\n        bytes enrichedData;\r\n        uint256 relayTime;\r\n        bool isComplete;\r\n    }\r\n    \r\n    mapping(bytes32 => RelayedTransaction) public relayedTransactions;\r\n    \r\n    event TransactionRelayed(\r\n        bytes32 indexed txId,\r\n        address indexed targetBridge,\r\n        bytes32 merkleRoot\r\n    );\r\n    \r\n    function relayTransaction(\r\n        bytes32 txId,\r\n        address targetBridge,\r\n        bytes memory originalMetadata,\r\n        bytes memory enrichedData\r\n    ) external nonReentrant onlyRole(DEFAULT_ADMIN_ROLE) {\r\n        require(\r\n            validationStates[txId].isComplete,\r\n            \"Validation incomplete\"\r\n        );\r\n        require(\r\n            stateUpdates[txId].isComplete,\r\n            \"State update incomplete\"\r\n        );\r\n        \r\n        RelayedTransaction storage relayedTx = relayedTransactions[txId];\r\n        require(!relayedTx.isComplete, \"Already relayed\");\r\n        \r\n        relayedTx.txId = txId;\r\n        relayedTx.originalMetadata = originalMetadata;\r\n        relayedTx.enrichedData = enrichedData;\r\n        relayedTx.relayTime = block.timestamp;\r\n        relayedTx.isComplete = true;\r\n        \r\n        emit TransactionRelayed(\r\n            txId,\r\n            targetBridge,\r\n            stateUpdates[txId].merkleRoot\r\n        );\r\n    }\r\n}\r\n\r\n/**\r\n * @title ReceivingBlockchainInterface\r\n * @dev Interface for receiving blockchain to process relayed transactions\r\n */\r\ncontract ReceivingBlockchainInterface is ReentrancyGuard {\r\n    struct ReceivedTransaction {\r\n        bytes32 txId;\r\n        bytes32 merkleRoot;\r\n        bytes metadata;\r\n        bytes enrichedData;\r\n        uint256 receiveTime;\r\n        bool isProcessed;\r\n    }\r\n    \r\n    mapping(bytes32 => ReceivedTransaction) public receivedTransactions;\r\n    \r\n    event TransactionReceived(bytes32 indexed txId, bytes32 merkleRoot);\r\n    event TransactionProcessed(bytes32 indexed txId);\r\n    \r\n    function receiveTransaction(\r\n        bytes32 txId,\r\n        bytes32 merkleRoot,\r\n        bytes memory metadata,\r\n        bytes memory enrichedData\r\n    ) external nonReentrant {\r\n        ReceivedTransaction storage receivedTx = receivedTransactions[txId];\r\n        require(!receivedTx.isProcessed, \"Already processed\");\r\n        \r\n        receivedTx.txId = txId;\r\n        receivedTx.merkleRoot = merkleRoot;\r\n        receivedTx.metadata = metadata;\r\n        receivedTx.enrichedData = enrichedData;\r\n        receivedTx.receiveTime = block.timestamp;\r\n        \r\n        emit TransactionReceived(txId, merkleRoot);\r\n        \r\n        processTransaction(txId);\r\n    }\r\n    \r\n    function processTransaction(bytes32 txId) internal {\r\n        ReceivedTransaction storage receivedTx = receivedTransactions[txId];\r\n        receivedTx.isProcessed = true;\r\n        \r\n        emit TransactionProcessed(txId);\r\n    }\r\n}",
  "sourcePath": "C:\\Users\\Bonsu\\Documents\\Blockchain Multi Industrial Service Center\\Blockchain MultiIndustrial Projects\\BlockchainMultiIndustryRepo\\contracts\\relay\\RelayChain.sol",
  "compiler": {
    "name": "solc",
    "version": "0.8.20+commit.a1b79de6.Emscripten.clang"
  },
  "schemaVersion": "3.4.16",
  "updatedAt": "2025-05-20T13:40:34.946Z",
  "devdoc": {
    "details": "Handles state updates and Merkle tree management",
    "events": {
      "RoleAdminChanged(bytes32,bytes32,bytes32)": {
        "details": "Emitted when `newAdminRole` is set as ``role``'s admin role, replacing `previousAdminRole` `DEFAULT_ADMIN_ROLE` is the starting admin for all roles, despite {RoleAdminChanged} not being emitted signaling this. _Available since v3.1._"
      },
      "RoleGranted(bytes32,address,address)": {
        "details": "Emitted when `account` is granted `role`. `sender` is the account that originated the contract call, an admin role bearer except when using {AccessControl-_setupRole}."
      },
      "RoleRevoked(bytes32,address,address)": {
        "details": "Emitted when `account` is revoked `role`. `sender` is the account that originated the contract call:   - if using `revokeRole`, it is the admin role bearer   - if using `renounceRole`, it is the role bearer (i.e. `account`)"
      }
    },
    "kind": "dev",
    "methods": {
      "getRoleAdmin(bytes32)": {
        "details": "Returns the admin role that controls `role`. See {grantRole} and {revokeRole}. To change a role's admin, use {_setRoleAdmin}."
      },
      "grantRole(bytes32,address)": {
        "details": "Grants `role` to `account`. If `account` had not been already granted `role`, emits a {RoleGranted} event. Requirements: - the caller must have ``role``'s admin role. May emit a {RoleGranted} event."
      },
      "hasRole(bytes32,address)": {
        "details": "Returns `true` if `account` has been granted `role`."
      },
      "renounceRole(bytes32,address)": {
        "details": "Revokes `role` from the calling account. Roles are often managed via {grantRole} and {revokeRole}: this function's purpose is to provide a mechanism for accounts to lose their privileges if they are compromised (such as when a trusted device is misplaced). If the calling account had been revoked `role`, emits a {RoleRevoked} event. Requirements: - the caller must be `account`. May emit a {RoleRevoked} event."
      },
      "revokeRole(bytes32,address)": {
        "details": "Revokes `role` from `account`. If `account` had been granted `role`, emits a {RoleRevoked} event. Requirements: - the caller must have ``role``'s admin role. May emit a {RoleRevoked} event."
      },
      "supportsInterface(bytes4)": {
        "details": "See {IERC165-supportsInterface}."
      }
    },
    "title": "StateManager",
    "version": 1
  },
  "userdoc": {
    "kind": "user",
    "methods": {},
    "version": 1
  }
}