{
  "contractName": "TransactionValidator",
  "abi": [
    {
      "anonymous": false,
      "inputs": [
        {
          "indexed": true,
          "internalType": "bytes32",
          "name": "txId",
          "type": "bytes32"
        }
      ],
      "name": "ProofMismatch",
      "type": "event"
    },
    {
      "anonymous": false,
      "inputs": [
        {
          "indexed": true,
          "internalType": "bytes32",
          "name": "txId",
          "type": "bytes32"
        },
        {
          "indexed": false,
          "internalType": "bool",
          "name": "isVirtual",
          "type": "bool"
        },
        {
          "indexed": false,
          "internalType": "bool",
          "name": "isValid",
          "type": "bool"
        }
      ],
      "name": "ProofVerified",
      "type": "event"
    },
    {
      "anonymous": false,
      "inputs": [
        {
          "indexed": true,
          "internalType": "bytes32",
          "name": "txId",
          "type": "bytes32"
        }
      ],
      "name": "ValidationTimeout",
      "type": "event"
    },
    {
      "inputs": [],
      "name": "MIN_CONFIDENCE_SCORE",
      "outputs": [
        {
          "internalType": "uint256",
          "name": "",
          "type": "uint256"
        }
      ],
      "stateMutability": "view",
      "type": "function"
    },
    {
      "inputs": [],
      "name": "VERIFICATION_TIMEOUT",
      "outputs": [
        {
          "internalType": "uint256",
          "name": "",
          "type": "uint256"
        }
      ],
      "stateMutability": "view",
      "type": "function"
    },
    {
      "inputs": [
        {
          "internalType": "bytes32",
          "name": "",
          "type": "bytes32"
        }
      ],
      "name": "confirmableTxProofs",
      "outputs": [
        {
          "internalType": "bytes32",
          "name": "a",
          "type": "bytes32"
        },
        {
          "internalType": "bytes32",
          "name": "b",
          "type": "bytes32"
        },
        {
          "internalType": "bytes32",
          "name": "c",
          "type": "bytes32"
        },
        {
          "internalType": "uint256",
          "name": "timestamp",
          "type": "uint256"
        },
        {
          "internalType": "bool",
          "name": "isVerified",
          "type": "bool"
        }
      ],
      "stateMutability": "view",
      "type": "function"
    },
    {
      "inputs": [
        {
          "internalType": "bytes32",
          "name": "",
          "type": "bytes32"
        },
        {
          "internalType": "uint256",
          "name": "",
          "type": "uint256"
        }
      ],
      "name": "constraints",
      "outputs": [
        {
          "internalType": "bytes32",
          "name": "left",
          "type": "bytes32"
        },
        {
          "internalType": "bytes32",
          "name": "right",
          "type": "bytes32"
        },
        {
          "internalType": "bytes32",
          "name": "output",
          "type": "bytes32"
        }
      ],
      "stateMutability": "view",
      "type": "function"
    },
    {
      "inputs": [
        {
          "internalType": "bytes32",
          "name": "",
          "type": "bytes32"
        }
      ],
      "name": "validationStates",
      "outputs": [
        {
          "internalType": "bool",
          "name": "isValidated",
          "type": "bool"
        },
        {
          "internalType": "uint256",
          "name": "confidenceScore",
          "type": "uint256"
        },
        {
          "internalType": "uint256",
          "name": "validationTimestamp",
          "type": "uint256"
        },
        {
          "internalType": "bool",
          "name": "hasTimeoutOccurred",
          "type": "bool"
        }
      ],
      "stateMutability": "view",
      "type": "function"
    },
    {
      "inputs": [
        {
          "internalType": "bytes32",
          "name": "",
          "type": "bytes32"
        }
      ],
      "name": "verificationKeys",
      "outputs": [
        {
          "internalType": "bytes32",
          "name": "alpha",
          "type": "bytes32"
        },
        {
          "internalType": "bytes32",
          "name": "beta",
          "type": "bytes32"
        },
        {
          "internalType": "bytes32",
          "name": "gamma",
          "type": "bytes32"
        },
        {
          "internalType": "bytes32",
          "name": "delta",
          "type": "bytes32"
        }
      ],
      "stateMutability": "view",
      "type": "function"
    },
    {
      "inputs": [
        {
          "internalType": "bytes32",
          "name": "",
          "type": "bytes32"
        }
      ],
      "name": "virtualTxProofs",
      "outputs": [
        {
          "internalType": "bytes32",
          "name": "a",
          "type": "bytes32"
        },
        {
          "internalType": "bytes32",
          "name": "b",
          "type": "bytes32"
        },
        {
          "internalType": "bytes32",
          "name": "c",
          "type": "bytes32"
        },
        {
          "internalType": "uint256",
          "name": "timestamp",
          "type": "uint256"
        },
        {
          "internalType": "bool",
          "name": "isVerified",
          "type": "bool"
        }
      ],
      "stateMutability": "view",
      "type": "function"
    },
    {
      "inputs": [
        {
          "internalType": "bytes32",
          "name": "txId",
          "type": "bytes32"
        },
        {
          "internalType": "bytes",
          "name": "input",
          "type": "bytes"
        },
        {
          "internalType": "bytes",
          "name": "witness",
          "type": "bytes"
        },
        {
          "internalType": "bool",
          "name": "isVirtual",
          "type": "bool"
        }
      ],
      "name": "generateProof",
      "outputs": [
        {
          "internalType": "bytes32",
          "name": "",
          "type": "bytes32"
        }
      ],
      "stateMutability": "nonpayable",
      "type": "function"
    },
    {
      "inputs": [
        {
          "internalType": "bytes32",
          "name": "txId",
          "type": "bytes32"
        },
        {
          "internalType": "bytes",
          "name": "metadata",
          "type": "bytes"
        }
      ],
      "name": "validateTransaction",
      "outputs": [
        {
          "internalType": "bool",
          "name": "",
          "type": "bool"
        }
      ],
      "stateMutability": "nonpayable",
      "type": "function"
    }
  ],
  "bytecode": "0x608060405234801561000f575f80fd5b506001600355610c63806100225f395ff3fe608060405234801561000f575f80fd5b5060043610610090575f3560e01c80633ee34901116100635780633ee349011461016c57806355c6de271461019a5780638a87ba01146101ad578063efd7889314610216578063f29ae1f314610254575f80fd5b806308a5f0c31461009457806308adb80b146100b05780631a16b4de146101065780631e1d6e1d14610163575b5f80fd5b61009d6102bc81565b6040519081526020015b60405180910390f35b6100e66100be3660046109ab565b600260208190525f918252604090912080546001820154928201546003909201549092919084565b6040805194855260208501939093529183015260608201526080016100a7565b61013f6101143660046109ab565b60056020525f9081526040902080546001820154600283015460039093015460ff9283169391921684565b604080519415158552602085019390935291830152151560608201526080016100a7565b61009d610e1081565b61017f61017a3660046109c2565b610277565b604080519384526020840192909252908201526060016100a7565b61009d6101a8366004610a7f565b6102b5565b6101ec6101bb3660046109ab565b5f60208190529081526040902080546001820154600283015460038401546004909401549293919290919060ff1685565b6040805195865260208601949094529284019190915260608301521515608082015260a0016100a7565b6101ec6102243660046109ab565b600160208190525f9182526040909120805491810154600282015460038301546004909301549192909160ff1685565b610267610262366004610afe565b6103cd565b60405190151581526020016100a7565b6004602052815f5260405f208181548110610290575f80fd5b5f91825260209091206003909102018054600182015460029092015490935090915083565b5f6102be610639565b5f6102c98585610692565b9050821561031e575f8681526020818152604091829020835181559083015160018201559082015160028201556060820151600382015560808201516004909101805460ff191691151591909117905561036b565b5f868152600160208181526040928390208451815590840151918101919091559082015160028201556060820151600382015560808201516004909101805460ff19169115159190911790555b5f610376878361076a565b604080518615158152821515602082015291925088917fc337db54790e59283230acf5053afaa6e3e8ad290f68e80a0e6df2fe362d18e2910160405180910390a2505190506103c56001600355565b949350505050565b5f6103d6610639565b5f838152600560205260409020805460ff161561043a5760405162461bcd60e51b815260206004820152601d60248201527f5472616e73616374696f6e20616c72656164792076616c69646174656400000060448201526064015b60405180910390fd5b5f84815260208181526040808320600190925290912060038201541580159061046657505f8160030154115b6104a35760405162461bcd60e51b815260206004820152600e60248201526d4d697373696e672070726f6f667360901b6044820152606401610431565b610e1081600301546104b59190610b56565b4211156105005760038301805460ff1916600117905560405186907f731ecaaf3e99aec332ea6de74d57f89e4747a914345d3204abc9c9eee425fc39905f90a25f9350505050610629565b5f6105a3836040518060a00160405290815f8201548152602001600182015481526020016002820154815260200160038201548152602001600482015f9054906101000a900460ff161515151581525050836040518060a00160405290815f8201548152602001600182015481526020016002820154815260200160038201548152602001600482015f9054906101000a900460ff1615151515815250506107e9565b9050806105e05760405187907f155e602eef1ea7593c4c1bdf91b5a020fc61179a9d4e2773199a71a0e73d2bf3905f90a25f945050505050610629565b5f6105eb8888610868565b90506102bc811015610604575f95505050505050610629565b845460ff19166001908117865585810191909155426002909501949094555091925050505b6106336001600355565b92915050565b60026003540361068b5760405162461bcd60e51b815260206004820152601f60248201527f5265656e7472616e637947756172643a207265656e7472616e742063616c6c006044820152606401610431565b6002600355565b6040805160a0810182525f808252602082018190529181018290526060810182905260808101919091525f83836040516020016106d0929190610b96565b6040516020818303038152906040528051906020012090505f84846040516020016106fc929190610bb4565b6040516020818303038152906040528051906020012090505f8585604051602001610728929190610bcc565b60408051808303601f19018152828252805160209182012060a084018352958352820193909352918201929092524260608201525f6080820152949350505050565b5f828152600260208181526040808420805460018201549482015460038301548851898701518a8701518751808a0196909652858801999099526060850193909352608084019190915260a083015260c082015260e08082019590955282518082039095018552610100019091528251929091019190912015156103c5565b805160208083015160408085015181519384019490945282015260608101919091525f9060800160408051601f1981840301815282825280516020918201208651878301518885015193860191909152928401929092526060830152906080016040516020818303038152906040528051906020012014905092915050565b5f828152602081815260408083206001808452828520835160a080820186528454825283850154828801526002808601548388015260038087015460608086019190915260048089015460ff90811615156080808901919091528b519687018c5288548752988801549b86019b909b52928601549884019890985284015496820196909652948201549095161515918401919091526101909361012c9384939291879161091591906107e9565b61091f575f610921565b855b90505f836003015483600301546109389190610be4565b90505f610e1082111561094b575f61096c565b610e106109588382610be4565b6109629089610bf7565b61096c9190610c0e565b8a5160208c01209091505f90610982575f610984565b865b9050806109918386610b56565b61099b9190610b56565b9c9b505050505050505050505050565b5f602082840312156109bb575f80fd5b5035919050565b5f80604083850312156109d3575f80fd5b50508035926020909101359150565b634e487b7160e01b5f52604160045260245ffd5b5f82601f830112610a05575f80fd5b813567ffffffffffffffff80821115610a2057610a206109e2565b604051601f8301601f19908116603f01168101908282118183101715610a4857610a486109e2565b81604052838152866020858801011115610a60575f80fd5b836020870160208301375f602085830101528094505050505092915050565b5f805f8060808587031215610a92575f80fd5b84359350602085013567ffffffffffffffff80821115610ab0575f80fd5b610abc888389016109f6565b94506040870135915080821115610ad1575f80fd5b50610ade878288016109f6565b92505060608501358015158114610af3575f80fd5b939692955090935050565b5f8060408385031215610b0f575f80fd5b82359150602083013567ffffffffffffffff811115610b2c575f80fd5b610b38858286016109f6565b9150509250929050565b634e487b7160e01b5f52601160045260245ffd5b8082018082111561063357610633610b42565b5f81515f5b81811015610b885760208185018101518683015201610b6e565b505f93019283525090919050565b604160f81b81525f6103c5610bae6001840186610b69565b84610b69565b602160f91b81525f6103c5610bae6001840186610b69565b604360f81b81525f6103c5610bae6001840186610b69565b8181038181111561063357610633610b42565b808202811582820484141761063357610633610b42565b5f82610c2857634e487b7160e01b5f52601260045260245ffd5b50049056fea2646970667358221220bd16b8a84a8254cdfcb8d45ed2aee5031147237d9788c6bc6111768340c6900264736f6c63430008140033",
  "immutableReferences": {},
  "source": "// SPDX-License-Identifier: MIT\r\npragma solidity ^0.8.0;\r\n\r\nimport \"@openzeppelin/contracts/security/ReentrancyGuard.sol\";\r\nimport \"@openzeppelin/contracts/access/AccessControl.sol\";\r\n\r\n/**\r\n * @title IZKPVerifier\r\n * @dev Interface for ZK-SNARK verification functions\r\n */\r\ninterface IZKPVerifier {\r\n    function generateProof(bytes32 txId, bytes memory input, bytes memory witness, bool isVirtual) external returns (bytes32);\r\n    function validateTransaction(bytes32 txId, bytes memory metadata) external returns (bool);\r\n}\r\n\r\n/**\r\n * @title ZKPVerifierBase\r\n * @dev Base contract for ZK-SNARK verification\r\n */\r\nabstract contract ZKPVerifierBase {\r\n    // Verification key structure\r\n    struct VerificationKey {\r\n        bytes32 alpha;\r\n        bytes32 beta;\r\n        bytes32 gamma;\r\n        bytes32 delta;\r\n        mapping(uint256 => bytes32) ic; // Input commitments\r\n    }\r\n\r\n    // Proof structure\r\n    struct Proof {\r\n        bytes32 a;\r\n        bytes32 b;\r\n        bytes32 c;\r\n        uint256 timestamp;\r\n        bool isVerified;\r\n    }\r\n\r\n    // Transaction proof mapping\r\n    mapping(bytes32 => Proof) public virtualTxProofs;     // P_VT proofs\r\n    mapping(bytes32 => Proof) public confirmableTxProofs; // P_CT proofs\r\n    \r\n    // Verification keys\r\n    mapping(bytes32 => VerificationKey) public verificationKeys;\r\n    \r\n    // Constants\r\n    uint256 public constant VERIFICATION_TIMEOUT = 1 hours;\r\n    uint256 public constant MIN_CONFIDENCE_SCORE = 700; // 70%\r\n    \r\n    // Events\r\n    event ProofVerified(bytes32 indexed txId, bool isVirtual, bool isValid);\r\n    event ProofMismatch(bytes32 indexed txId);\r\n    event ValidationTimeout(bytes32 indexed txId);\r\n\r\n    /**\r\n     * @dev Base verification function for proofs\r\n     */\r\nfunction verifyProof(\r\n    bytes32 txId,\r\n    Proof memory proof\r\n) internal view virtual returns (bool) {\r\n    VerificationKey storage vk = verificationKeys[txId];\r\n    return verification_g16(\r\n        vk.alpha,\r\n        vk.beta,\r\n        vk.gamma,\r\n        vk.delta,\r\n        proof.a,\r\n        proof.b,\r\n        proof.c\r\n    );\r\n}\r\n\r\n    function verification_g16(\r\n        bytes32 alpha,\r\n        bytes32 beta,\r\n        bytes32 gamma,\r\n        bytes32 delta,\r\n        bytes32 a,\r\n        bytes32 b,\r\n        bytes32 c\r\n    ) internal pure returns (bool) {\r\n        return uint256(keccak256(abi.encodePacked(\r\n            alpha, beta, gamma, delta, a, b, c\r\n        ))) != 0;\r\n    }\r\n\r\n    function verifyProofConvergence(\r\n        Proof memory virtualProof,\r\n        Proof memory confirmableProof\r\n    ) internal pure returns (bool) {\r\n        return keccak256(abi.encodePacked(\r\n            virtualProof.a,\r\n            virtualProof.b,\r\n            virtualProof.c\r\n        )) == keccak256(abi.encodePacked(\r\n            confirmableProof.a,\r\n            confirmableProof.b,\r\n            confirmableProof.c\r\n        ));\r\n    }\r\n}\r\n\r\n/**\r\n * @title ProofGenerator\r\n * @dev Handles ZK-SNARK proof generation and validation\r\n */\r\nabstract contract ProofGenerator is ZKPVerifierBase, ReentrancyGuard {\r\n    struct Constraint {\r\n        bytes32 left;\r\n        bytes32 right;\r\n        bytes32 output;\r\n    }\r\n    \r\n    mapping(bytes32 => Constraint[]) public constraints;\r\n    \r\n    function computeZKProof(\r\n    bytes memory input,\r\n    bytes memory witness\r\n) internal view returns (Proof memory) {\r\n    bytes32 a = keccak256(abi.encodePacked(\"A\", input, witness));\r\n    bytes32 b = keccak256(abi.encodePacked(\"B\", input, witness));\r\n    bytes32 c = keccak256(abi.encodePacked(\"C\", input, witness));\r\n    \r\n    return Proof({\r\n        a: a,\r\n        b: b,\r\n        c: c,\r\n        timestamp: block.timestamp,\r\n        isVerified: false\r\n    });\r\n}\r\n}\r\n\r\n/**\r\n * @title TransactionValidator\r\n * @dev Handles validation of virtual and confirmable transactions\r\n */\r\ncontract TransactionValidator is ProofGenerator, IZKPVerifier {\r\n    struct ValidationState {\r\n        bool isValidated;\r\n        uint256 confidenceScore;\r\n        uint256 validationTimestamp;\r\n        bool hasTimeoutOccurred;\r\n    }\r\n    \r\n    mapping(bytes32 => ValidationState) public validationStates;\r\n    \r\n    function generateProof(\r\n        bytes32 txId,\r\n        bytes memory input,\r\n        bytes memory witness,\r\n        bool isVirtual\r\n    ) external override nonReentrant returns (bytes32) {\r\n        Proof memory proof = computeZKProof(input, witness);\r\n        \r\n        if (isVirtual) {\r\n            virtualTxProofs[txId] = proof;\r\n        } else {\r\n            confirmableTxProofs[txId] = proof;\r\n        }\r\n        \r\n        bool isValid = verifyProof(txId, proof);\r\n        emit ProofVerified(txId, isVirtual, isValid);\r\n        \r\n        return proof.a;\r\n    }\r\n    \r\n    function validateTransaction(\r\n        bytes32 txId,\r\n        bytes memory metadata\r\n    ) external override nonReentrant returns (bool) {\r\n        ValidationState storage state = validationStates[txId];\r\n        require(!state.isValidated, \"Transaction already validated\");\r\n        \r\n        Proof storage virtualProof = virtualTxProofs[txId];\r\n        Proof storage confirmableProof = confirmableTxProofs[txId];\r\n        \r\n        require(virtualProof.timestamp > 0 && confirmableProof.timestamp > 0, \r\n                \"Missing proofs\");\r\n        \r\n        if (block.timestamp > confirmableProof.timestamp + VERIFICATION_TIMEOUT) {\r\n            state.hasTimeoutOccurred = true;\r\n            emit ValidationTimeout(txId);\r\n            return false;\r\n        }\r\n        \r\n        bool proofsMatch = verifyProofConvergence(virtualProof, confirmableProof);\r\n        if (!proofsMatch) {\r\n            emit ProofMismatch(txId);\r\n            return false;\r\n        }\r\n        \r\n        uint256 confidenceScore = calculateConfidenceScore(txId, metadata);\r\n        if (confidenceScore < MIN_CONFIDENCE_SCORE) {\r\n            return false;\r\n        }\r\n        \r\n        state.isValidated = true;\r\n        state.confidenceScore = confidenceScore;\r\n        state.validationTimestamp = block.timestamp;\r\n        \r\n        return true;\r\n    }\r\n    \r\n    function calculateConfidenceScore(\r\n    bytes32 txId,\r\n    bytes memory metadata\r\n) internal view returns (uint256) {\r\n    uint256 proofMatchScore = 400;\r\n    uint256 timelinessScore = 300;\r\n    uint256 metadataScore = 300;\r\n    \r\n    Proof storage virtualProof = virtualTxProofs[txId];\r\n    Proof storage confirmableProof = confirmableTxProofs[txId];\r\n    \r\n    uint256 matchScore = verifyProofConvergence(virtualProof, confirmableProof) ?\r\n        proofMatchScore : 0;\r\n        \r\n    uint256 timeDiff = confirmableProof.timestamp - virtualProof.timestamp;\r\n    uint256 timeScore = timeDiff <= VERIFICATION_TIMEOUT ?\r\n        timelinessScore * (VERIFICATION_TIMEOUT - timeDiff) / VERIFICATION_TIMEOUT : 0;\r\n        \r\n    uint256 metaScore = verifyMetadataConsistency(metadata) ?\r\n        metadataScore : 0;\r\n        \r\n    return matchScore + timeScore + metaScore;\r\n}\r\n    \r\n function verifyMetadataConsistency(\r\n    bytes memory metadata\r\n) internal pure returns (bool) {\r\n    return uint256(keccak256(metadata)) != 0;\r\n}\r\n}",
  "sourcePath": "C:\\Users\\Bonsu\\Documents\\Blockchain Multi Industrial Service Center\\Blockchain MultiIndustrial Projects\\BlockchainMultiIndustryRepo\\contracts\\passchain\\ZKPVerifierBase.sol",
  "compiler": {
    "name": "solc",
    "version": "0.8.20+commit.a1b79de6.Emscripten.clang"
  },
  "schemaVersion": "3.4.16",
  "updatedAt": "2025-05-20T13:40:34.924Z",
  "devdoc": {
    "details": "Handles validation of virtual and confirmable transactions",
    "kind": "dev",
    "methods": {},
    "title": "TransactionValidator",
    "version": 1
  },
  "userdoc": {
    "kind": "user",
    "methods": {},
    "version": 1
  }
}