{
  "contractName": "UncertaintyBase",
  "abi": [
    {
      "inputs": [],
      "stateMutability": "nonpayable",
      "type": "constructor"
    },
    {
      "inputs": [],
      "name": "BASE_COST",
      "outputs": [
        {
          "internalType": "uint256",
          "name": "",
          "type": "uint256"
        }
      ],
      "stateMutability": "view",
      "type": "function"
    },
    {
      "inputs": [],
      "name": "MAX_PROCESSING_TIME",
      "outputs": [
        {
          "internalType": "uint256",
          "name": "",
          "type": "uint256"
        }
      ],
      "stateMutability": "view",
      "type": "function"
    },
    {
      "inputs": [],
      "name": "owner",
      "outputs": [
        {
          "internalType": "address",
          "name": "",
          "type": "address"
        }
      ],
      "stateMutability": "view",
      "type": "function"
    },
    {
      "stateMutability": "payable",
      "type": "receive"
    },
    {
      "inputs": [],
      "name": "withdraw",
      "outputs": [],
      "stateMutability": "nonpayable",
      "type": "function"
    }
  ],
  "bytecode": "0x608060405234801561000f575f80fd5b505f805460ff60a01b1933166001600160a81b0319909116179055610238806100375f395ff3fe608060405260043610610041575f3560e01c80633ccfd60b1461004c57806357c48131146100625780638da5cb5b1461008b578063a00d9526146100c1575f80fd5b3661004857005b5f80fd5b348015610057575f80fd5b506100606100db565b005b34801561006d575f80fd5b506100786201518081565b6040519081526020015b60405180910390f35b348015610096575f80fd5b505f546100a9906001600160a01b031681565b6040516001600160a01b039091168152602001610082565b3480156100cc575f80fd5b5061007866038d7ea4c6800081565b5f546001600160a01b031633146101255760405162461bcd60e51b81526020600482015260096024820152682737ba1037bbb732b960b91b60448201526064015b60405180910390fd5b478061016a5760405162461bcd60e51b81526020600482015260146024820152734e6f2066756e647320746f20776974686472617760601b604482015260640161011c565b5f80546040516001600160a01b039091169083908381818185875af1925050503d805f81146101b4576040519150601f19603f3d011682016040523d82523d5f602084013e6101b9565b606091505b50509050806101fe5760405162461bcd60e51b815260206004820152601160248201527015da5d1a191c985dd85b0819985a5b1959607a1b604482015260640161011c565b505056fea26469706673582212204dd8e7f76eb575b3c00069fd6b518f2dcfd172f80684a74b5312da655893bd6c64736f6c63430008140033",
  "immutableReferences": {},
  "source": "// SPDX-License-Identifier: MIT\r\npragma solidity ^0.8.0;\r\n\r\n/**\r\n * @title UncertaintyBase\r\n * @notice Base contract with shared components for Uncertainty contracts\r\n */\r\ncontract UncertaintyBase {\r\n    address public owner;\r\n    bool private locked;\r\n    \r\n    enum Status { Pending, Processing, Completed, Failed }\r\n    \r\n    uint256 public constant MAX_PROCESSING_TIME = 1 days;\r\n    uint256 public constant BASE_COST = 0.001 ether;\r\n    \r\n    modifier onlyOwner() {\r\n        require(msg.sender == owner, \"Not owner\");\r\n        _;\r\n    }\r\n    \r\n    modifier noReentrant() {\r\n        require(!locked, \"No reentrancy\");\r\n        locked = true;\r\n        _;\r\n        locked = false;\r\n    }\r\n    \r\n    constructor() {\r\n        owner = msg.sender;\r\n        locked = false;\r\n    }\r\n    \r\n    // Simple receive function\r\n    receive() external payable {}\r\n    \r\n    // Safe withdrawal function\r\n    function withdraw() external onlyOwner {\r\n        uint256 balance = address(this).balance;\r\n        require(balance > 0, \"No funds to withdraw\");\r\n        \r\n        (bool success, ) = payable(owner).call{value: balance}(\"\");\r\n        require(success, \"Withdrawal failed\");\r\n    }\r\n}\r\n\r\n/**\r\n * @title RequestManager\r\n * @notice Handles request/response management functionality\r\n */\r\ncontract RequestManager {\r\n    UncertaintyBase private base;\r\n    \r\n    struct Request {\r\n        uint256 id;\r\n        address requester;\r\n        uint256 timestamp;\r\n        uint256 confirmationTime;\r\n        uint256 executionTime;\r\n        uint256 cost;\r\n        bool isValid;\r\n        bool isProcessed;\r\n        UncertaintyBase.Status status;\r\n    }\r\n    \r\n    struct Response {\r\n        uint256 requestId;\r\n        address responder;\r\n        uint256 timestamp;\r\n        uint256 processingTime;\r\n        uint256 cost;\r\n        bool isValid;\r\n        UncertaintyBase.Status status;\r\n    }\r\n    \r\n    uint256 public requestCount;\r\n    uint256 public responseCount;\r\n    uint256 public totalTransactionCost;\r\n    uint256 public failedTransactionCount;\r\n    \r\n    mapping(uint256 => Request) public requests;\r\n    mapping(uint256 => Response) public responses;\r\n    mapping(address => uint256) public requesterStats;\r\n    mapping(address => uint256) public responderStats;\r\n    \r\n    event RequestSubmitted(uint256 indexed requestId, address requester);\r\n    event ResponseReceived(uint256 indexed requestId, address responder);\r\n    event TransactionFailed(uint256 indexed requestId, string reason);\r\n    \r\n    constructor(UncertaintyBase _base) {\r\n        base = _base;\r\n        requestCount = 0;\r\n        responseCount = 0;\r\n        totalTransactionCost = 0;\r\n        failedTransactionCount = 0;\r\n    }\r\n    \r\n    // Function to check if sender is owner (using base contract)\r\n    modifier onlyOwner() {\r\n        require(msg.sender == base.owner(), \"Not owner\");\r\n        _;\r\n    }\r\n    \r\n    function submitRequest() external payable returns (uint256) {\r\n        require(msg.value >= base.BASE_COST(), \"Insufficient payment\");\r\n        \r\n        requestCount += 1;\r\n        \r\n        requests[requestCount] = Request({\r\n            id: requestCount,\r\n            requester: msg.sender,\r\n            timestamp: block.timestamp,\r\n            confirmationTime: 0,\r\n            executionTime: 0,\r\n            cost: msg.value,\r\n            isValid: true,\r\n            isProcessed: false,\r\n            status: UncertaintyBase.Status.Pending\r\n        });\r\n        \r\n        totalTransactionCost += msg.value;\r\n        requesterStats[msg.sender] += 1;\r\n        \r\n        emit RequestSubmitted(requestCount, msg.sender);\r\n        return requestCount;\r\n    }\r\n    \r\n    function submitResponse(uint256 _requestId) external {\r\n        require(_requestId > 0 && _requestId <= requestCount, \"Invalid request ID\");\r\n        require(requests[_requestId].isValid, \"Request not valid\");\r\n        require(requests[_requestId].status == UncertaintyBase.Status.Pending, \"Request not pending\");\r\n        \r\n        responseCount += 1;\r\n        \r\n        requests[_requestId].status = UncertaintyBase.Status.Completed;\r\n        requests[_requestId].isProcessed = true;\r\n        \r\n        responses[_requestId] = Response({\r\n            requestId: _requestId,\r\n            responder: msg.sender,\r\n            timestamp: block.timestamp,\r\n            processingTime: block.timestamp - requests[_requestId].timestamp,\r\n            cost: 0,\r\n            isValid: true,\r\n            status: UncertaintyBase.Status.Completed\r\n        });\r\n        \r\n        responderStats[msg.sender] += 1;\r\n        \r\n        emit ResponseReceived(_requestId, msg.sender);\r\n    }\r\n    \r\n    function recordFailedTransaction(uint256 _requestId, string calldata _reason) external onlyOwner {\r\n        require(_requestId > 0 && _requestId <= requestCount, \"Invalid request ID\");\r\n        Request storage request = requests[_requestId];\r\n        require(request.isValid, \"Request not valid\");\r\n        require(request.status != UncertaintyBase.Status.Failed, \"Already marked as failed\");\r\n        \r\n        request.status = UncertaintyBase.Status.Failed;\r\n        failedTransactionCount += 1;\r\n        \r\n        emit TransactionFailed(_requestId, _reason);\r\n    }\r\n    \r\n    // Helper function to get request validity\r\n    function isRequestValid(uint256 _requestId) external view returns (bool) {\r\n        if (_requestId == 0 || _requestId > requestCount) {\r\n            return false;\r\n        }\r\n        return requests[_requestId].isValid;\r\n    }\r\n    \r\n    // Helper function to get response processing time\r\n    function getResponseProcessingTime(uint256 _requestId) external view returns (uint256, bool) {\r\n        if (_requestId == 0 || _requestId > requestCount) {\r\n            return (0, false);\r\n        }\r\n        \r\n        if (responses[_requestId].requestId == 0) {\r\n            return (0, false);\r\n        }\r\n        \r\n        return (responses[_requestId].processingTime, true);\r\n    }\r\n    \r\n    // Function to get total processing time for all valid responses\r\n    function getTotalProcessingStats() external view returns (uint256 totalTime, uint256 validResponses) {\r\n        totalTime = 0;\r\n        validResponses = 0;\r\n        \r\n        for (uint256 i = 1; i <= requestCount; i++) {\r\n            if (responses[i].requestId != 0 && responses[i].isValid) {\r\n                totalTime += responses[i].processingTime;\r\n                validResponses++;\r\n            }\r\n        }\r\n        \r\n        return (totalTime, validResponses);\r\n    }\r\n}\r\n\r\n/**\r\n * @title CostAnalytics\r\n * @notice Handles cost tracking and analytics\r\n */\r\ncontract CostAnalytics {\r\n    UncertaintyBase private base;\r\n    \r\n    uint256 public dataHoldingCost;\r\n    uint256 public unavailabilityCost;\r\n    uint256 public disruptionLevel;\r\n    uint256 public escalationLevel;\r\n    \r\n    event CostRecorded(uint256 indexed requestId, uint256 cost, string costType);\r\n    \r\n    constructor(UncertaintyBase _base) {\r\n        base = _base;\r\n        dataHoldingCost = 0;\r\n        unavailabilityCost = 0;\r\n        disruptionLevel = 0;\r\n        escalationLevel = 0;\r\n    }\r\n    \r\n    // Function to check if sender is owner (using base contract)\r\n    modifier onlyOwner() {\r\n        require(msg.sender == base.owner(), \"Not owner\");\r\n        _;\r\n    }\r\n    \r\n    function calculateUnavailabilityCost(uint256 _processingTime) external onlyOwner {\r\n        if (_processingTime > base.MAX_PROCESSING_TIME()) {\r\n            uint256 penalty = (_processingTime - base.MAX_PROCESSING_TIME()) * base.BASE_COST() / 86400;\r\n            unavailabilityCost += penalty;\r\n            emit CostRecorded(0, penalty, \"Unavailability\");\r\n        }\r\n    }\r\n    \r\n    function updateDataHoldingCost(uint256 _cost) external onlyOwner {\r\n        dataHoldingCost += _cost;\r\n        emit CostRecorded(0, _cost, \"DataHolding\");\r\n    }\r\n    \r\n    function updateDisruptionLevel(uint256 _level) external onlyOwner {\r\n        disruptionLevel = _level;\r\n    }\r\n    \r\n    function updateEscalationLevel(uint256 _level) external onlyOwner {\r\n        escalationLevel = _level;\r\n    }\r\n}\r\n\r\n/**\r\n * @title UncertaintyAnalytics\r\n * @notice Main contract that combines all functionality\r\n */\r\ncontract UncertaintyAnalytics {\r\n    UncertaintyBase public base;\r\n    RequestManager public requestManager;\r\n    CostAnalytics public costAnalytics;\r\n    \r\n    constructor() {\r\n        // Create the base contract first\r\n        base = new UncertaintyBase();\r\n        \r\n        // Then create the components with the base contract\r\n        requestManager = new RequestManager(base);\r\n        costAnalytics = new CostAnalytics(base);\r\n    }\r\n    \r\n    // Forward request functions to RequestManager\r\n    function submitRequest() external payable returns (uint256) {\r\n        return requestManager.submitRequest{value: msg.value}();\r\n    }\r\n    \r\n    function submitResponse(uint256 _requestId) external {\r\n        requestManager.submitResponse(_requestId);\r\n    }\r\n    \r\n    function recordFailedTransaction(uint256 _requestId, string calldata _reason) external {\r\n        requestManager.recordFailedTransaction(_requestId, _reason);\r\n    }\r\n    \r\n    // Forward analytics functions to CostAnalytics\r\n    function calculateUnavailabilityCost(uint256 _processingTime) external {\r\n        costAnalytics.calculateUnavailabilityCost(_processingTime);\r\n    }\r\n    \r\n    function updateDataHoldingCost(uint256 _cost) external {\r\n        costAnalytics.updateDataHoldingCost(_cost);\r\n    }\r\n    \r\n    function updateDisruptionLevel(uint256 _level) external {\r\n        costAnalytics.updateDisruptionLevel(_level);\r\n    }\r\n    \r\n    function updateEscalationLevel(uint256 _level) external {\r\n        costAnalytics.updateEscalationLevel(_level);\r\n    }\r\n    \r\n    // Combined metrics function\r\n    function getMetrics() external view returns (\r\n        uint256 avgProcessingTime,\r\n        uint256 successRate,\r\n        uint256 totalCost,\r\n        uint256 disruptionCount\r\n    ) {\r\n        // Use the RequestManager's helper function to get processing stats\r\n        (uint256 totalTime, uint256 validResponses) = requestManager.getTotalProcessingStats();\r\n        \r\n        // Calculate average processing time if there are valid responses\r\n        if (validResponses > 0) {\r\n            avgProcessingTime = totalTime / validResponses;\r\n        }\r\n        \r\n        // Calculate success rate if there are any requests\r\n        if (requestManager.requestCount() > 0) {\r\n            successRate = ((requestManager.requestCount() - requestManager.failedTransactionCount()) * 100) / requestManager.requestCount();\r\n        }\r\n        \r\n        // Calculate total cost across all components\r\n        totalCost = requestManager.totalTransactionCost() + costAnalytics.dataHoldingCost() + costAnalytics.unavailabilityCost();\r\n        \r\n        // Get disruption count\r\n        disruptionCount = requestManager.failedTransactionCount();\r\n    }\r\n    \r\n    // Forward withdraw function to base\r\n    function withdraw() external {\r\n        base.withdraw();\r\n    }\r\n    \r\n    // Allow the contract to receive ETH\r\n    receive() external payable {}\r\n}",
  "sourcePath": "C:\\Users\\Bonsu\\Documents\\Blockchain Multi Industrial Service Center\\Blockchain MultiIndustrial Projects\\BlockchainMultiIndustryRepo\\contracts\\UncertaintyAnalytics.sol",
  "compiler": {
    "name": "solc",
    "version": "0.8.20+commit.a1b79de6.Emscripten.clang"
  },
  "schemaVersion": "3.4.16",
  "updatedAt": "2025-05-20T13:40:34.750Z",
  "devdoc": {
    "kind": "dev",
    "methods": {},
    "title": "UncertaintyBase",
    "version": 1
  },
  "userdoc": {
    "kind": "user",
    "methods": {},
    "notice": "Base contract with shared components for Uncertainty contracts",
    "version": 1
  }
}